{
	"contracts/CrowdFunding.sol": {
		"CrowdFund": {
			"abi": [
				{
					"inputs": [],
					"stateMutability": "nonpayable",
					"type": "constructor"
				},
				{
					"anonymous": false,
					"inputs": [
						{
							"indexed": true,
							"internalType": "uint256",
							"name": "campaignId",
							"type": "uint256"
						},
						{
							"indexed": false,
							"internalType": "address",
							"name": "campaignCreator",
							"type": "address"
						},
						{
							"indexed": false,
							"internalType": "string",
							"name": "title",
							"type": "string"
						},
						{
							"indexed": false,
							"internalType": "enum CrowdFund.STATUS",
							"name": "status",
							"type": "uint8"
						}
					],
					"name": "CampaignCreated",
					"type": "event"
				},
				{
					"anonymous": false,
					"inputs": [
						{
							"indexed": true,
							"internalType": "uint256",
							"name": "campaignId",
							"type": "uint256"
						},
						{
							"indexed": false,
							"internalType": "address",
							"name": "campaignCreator",
							"type": "address"
						},
						{
							"indexed": false,
							"internalType": "enum CrowdFund.STATUS",
							"name": "status",
							"type": "uint8"
						}
					],
					"name": "CampaignDeleted",
					"type": "event"
				},
				{
					"anonymous": false,
					"inputs": [
						{
							"indexed": true,
							"internalType": "uint256",
							"name": "campaignId",
							"type": "uint256"
						},
						{
							"indexed": false,
							"internalType": "address",
							"name": "contributor",
							"type": "address"
						},
						{
							"indexed": false,
							"internalType": "uint256",
							"name": "amount",
							"type": "uint256"
						}
					],
					"name": "ContributionMade",
					"type": "event"
				},
				{
					"anonymous": false,
					"inputs": [
						{
							"indexed": true,
							"internalType": "uint256",
							"name": "campaignId",
							"type": "uint256"
						},
						{
							"indexed": false,
							"internalType": "address",
							"name": "contributor",
							"type": "address"
						},
						{
							"indexed": false,
							"internalType": "uint256",
							"name": "amount",
							"type": "uint256"
						}
					],
					"name": "RefundMade",
					"type": "event"
				},
				{
					"inputs": [
						{
							"internalType": "uint256",
							"name": "",
							"type": "uint256"
						}
					],
					"name": "campaigns",
					"outputs": [
						{
							"internalType": "uint256",
							"name": "id",
							"type": "uint256"
						},
						{
							"internalType": "address",
							"name": "campaignCreator",
							"type": "address"
						},
						{
							"internalType": "string",
							"name": "title",
							"type": "string"
						},
						{
							"internalType": "string",
							"name": "description",
							"type": "string"
						},
						{
							"internalType": "string",
							"name": "imageURI",
							"type": "string"
						},
						{
							"internalType": "uint256",
							"name": "goal",
							"type": "uint256"
						},
						{
							"internalType": "uint256",
							"name": "startsAt",
							"type": "uint256"
						},
						{
							"internalType": "uint256",
							"name": "endsAt",
							"type": "uint256"
						},
						{
							"internalType": "enum CrowdFund.STATUS",
							"name": "status",
							"type": "uint8"
						},
						{
							"internalType": "uint256",
							"name": "totalContributions",
							"type": "uint256"
						}
					],
					"stateMutability": "view",
					"type": "function"
				},
				{
					"inputs": [
						{
							"internalType": "uint256",
							"name": "campaignId",
							"type": "uint256"
						}
					],
					"name": "contribute",
					"outputs": [],
					"stateMutability": "payable",
					"type": "function"
				},
				{
					"inputs": [
						{
							"internalType": "string",
							"name": "title",
							"type": "string"
						},
						{
							"internalType": "string",
							"name": "description",
							"type": "string"
						},
						{
							"internalType": "string",
							"name": "imageURI",
							"type": "string"
						},
						{
							"internalType": "uint256",
							"name": "goal",
							"type": "uint256"
						},
						{
							"internalType": "uint256",
							"name": "endsAt",
							"type": "uint256"
						}
					],
					"name": "createCampaign",
					"outputs": [],
					"stateMutability": "nonpayable",
					"type": "function"
				},
				{
					"inputs": [
						{
							"internalType": "uint256",
							"name": "campaignId",
							"type": "uint256"
						}
					],
					"name": "deleteCampaign",
					"outputs": [],
					"stateMutability": "nonpayable",
					"type": "function"
				},
				{
					"inputs": [],
					"name": "getAllCampaigns",
					"outputs": [
						{
							"components": [
								{
									"internalType": "uint256",
									"name": "id",
									"type": "uint256"
								},
								{
									"internalType": "address",
									"name": "campaignCreator",
									"type": "address"
								},
								{
									"internalType": "string",
									"name": "title",
									"type": "string"
								},
								{
									"internalType": "string",
									"name": "description",
									"type": "string"
								},
								{
									"internalType": "string",
									"name": "imageURI",
									"type": "string"
								},
								{
									"internalType": "uint256",
									"name": "goal",
									"type": "uint256"
								},
								{
									"internalType": "uint256",
									"name": "startsAt",
									"type": "uint256"
								},
								{
									"internalType": "uint256",
									"name": "endsAt",
									"type": "uint256"
								},
								{
									"internalType": "enum CrowdFund.STATUS",
									"name": "status",
									"type": "uint8"
								},
								{
									"internalType": "uint256",
									"name": "totalContributions",
									"type": "uint256"
								},
								{
									"internalType": "address[]",
									"name": "contributors",
									"type": "address[]"
								},
								{
									"internalType": "uint256[]",
									"name": "contributionAmounts",
									"type": "uint256[]"
								}
							],
							"internalType": "struct CrowdFund.Campaign[]",
							"name": "",
							"type": "tuple[]"
						}
					],
					"stateMutability": "view",
					"type": "function"
				},
				{
					"inputs": [
						{
							"internalType": "uint256",
							"name": "campaignId",
							"type": "uint256"
						}
					],
					"name": "getCampaignDetails",
					"outputs": [
						{
							"internalType": "uint256",
							"name": "id",
							"type": "uint256"
						},
						{
							"internalType": "address",
							"name": "campaignCreator",
							"type": "address"
						},
						{
							"internalType": "string",
							"name": "title",
							"type": "string"
						},
						{
							"internalType": "string",
							"name": "description",
							"type": "string"
						},
						{
							"internalType": "string",
							"name": "imageURI",
							"type": "string"
						},
						{
							"internalType": "uint256",
							"name": "goal",
							"type": "uint256"
						},
						{
							"internalType": "uint256",
							"name": "startsAt",
							"type": "uint256"
						},
						{
							"internalType": "uint256",
							"name": "endsAt",
							"type": "uint256"
						},
						{
							"internalType": "enum CrowdFund.STATUS",
							"name": "status",
							"type": "uint8"
						},
						{
							"internalType": "uint256",
							"name": "totalContributions",
							"type": "uint256"
						},
						{
							"internalType": "address[]",
							"name": "contributors",
							"type": "address[]"
						},
						{
							"internalType": "uint256[]",
							"name": "contributionAmounts",
							"type": "uint256[]"
						}
					],
					"stateMutability": "view",
					"type": "function"
				},
				{
					"inputs": [],
					"name": "getLatestCampaigns",
					"outputs": [
						{
							"components": [
								{
									"internalType": "uint256",
									"name": "id",
									"type": "uint256"
								},
								{
									"internalType": "address",
									"name": "campaignCreator",
									"type": "address"
								},
								{
									"internalType": "string",
									"name": "title",
									"type": "string"
								},
								{
									"internalType": "string",
									"name": "description",
									"type": "string"
								},
								{
									"internalType": "string",
									"name": "imageURI",
									"type": "string"
								},
								{
									"internalType": "uint256",
									"name": "goal",
									"type": "uint256"
								},
								{
									"internalType": "uint256",
									"name": "startsAt",
									"type": "uint256"
								},
								{
									"internalType": "uint256",
									"name": "endsAt",
									"type": "uint256"
								},
								{
									"internalType": "enum CrowdFund.STATUS",
									"name": "status",
									"type": "uint8"
								},
								{
									"internalType": "uint256",
									"name": "totalContributions",
									"type": "uint256"
								},
								{
									"internalType": "address[]",
									"name": "contributors",
									"type": "address[]"
								},
								{
									"internalType": "uint256[]",
									"name": "contributionAmounts",
									"type": "uint256[]"
								}
							],
							"internalType": "struct CrowdFund.Campaign[]",
							"name": "",
							"type": "tuple[]"
						}
					],
					"stateMutability": "view",
					"type": "function"
				},
				{
					"inputs": [
						{
							"internalType": "uint256",
							"name": "campaignId",
							"type": "uint256"
						}
					],
					"name": "getTotalcontributions",
					"outputs": [
						{
							"internalType": "uint256",
							"name": "totalContributions",
							"type": "uint256"
						}
					],
					"stateMutability": "view",
					"type": "function"
				}
			],
			"devdoc": {
				"kind": "dev",
				"methods": {},
				"version": 1
			},
			"evm": {
				"assembly": "    /* \"contracts/CrowdFunding.sol\":60:5886  contract CrowdFund {... */\n  mstore(0x40, 0xa0)\n    /* \"contracts/CrowdFunding.sol\":146:147  1 */\n  0x01\n    /* \"contracts/CrowdFunding.sol\":124:147  uint private nextId = 1 */\n  0x00\n  sstore\n    /* \"contracts/CrowdFunding.sol\":1225:1277  constructor () {... */\n  callvalue\n  dup1\n  iszero\n  tag_1\n  jumpi\n  0x00\n  dup1\n  revert\ntag_1:\n  pop\n    /* \"contracts/CrowdFunding.sol\":1259:1269  msg.sender */\n  caller\n    /* \"contracts/CrowdFunding.sol\":1251:1269  owner = msg.sender */\n  0xffffffffffffffffffffffffffffffffffffffff\n  and\n  0x80\n  dup2\n  0xffffffffffffffffffffffffffffffffffffffff\n  and\n  dup2\n  mstore\n  pop\n  pop\n    /* \"contracts/CrowdFunding.sol\":60:5886  contract CrowdFund {... */\n  mload(0x80)\n  codecopy(0x00, dataOffset(sub_0), dataSize(sub_0))\n  0x00\n  assignImmutable(\"0x2a80e1ef1d7842f27f2e6be0972bb708b9a135c38860dbe73c27c3486c34f4de\")\n  return(0x00, dataSize(sub_0))\nstop\n\nsub_0: assembly {\n        /* \"contracts/CrowdFunding.sol\":60:5886  contract CrowdFund {... */\n      mstore(0x40, 0x80)\n      jumpi(tag_1, lt(calldatasize, 0x04))\n      shr(0xe0, calldataload(0x00))\n      dup1\n      0x980f2e66\n      gt\n      tag_10\n      jumpi\n      dup1\n      0x980f2e66\n      eq\n      tag_6\n      jumpi\n      dup1\n      0xb4d40af1\n      eq\n      tag_7\n      jumpi\n      dup1\n      0xc1cbbca7\n      eq\n      tag_8\n      jumpi\n      dup1\n      0xd993de62\n      eq\n      tag_9\n      jumpi\n      jump(tag_1)\n    tag_10:\n      dup1\n      0x141961bc\n      eq\n      tag_2\n      jumpi\n      dup1\n      0x75970193\n      eq\n      tag_3\n      jumpi\n      dup1\n      0x86cdf604\n      eq\n      tag_4\n      jumpi\n      dup1\n      0x88c484e1\n      eq\n      tag_5\n      jumpi\n    tag_1:\n      0x00\n      dup1\n      revert\n        /* \"contracts/CrowdFunding.sol\":154:181  Campaign[] public campaigns */\n    tag_2:\n      callvalue\n      dup1\n      iszero\n      tag_11\n      jumpi\n      0x00\n      dup1\n      revert\n    tag_11:\n      pop\n      tag_12\n      0x04\n      dup1\n      calldatasize\n      sub\n      dup2\n      add\n      swap1\n      tag_13\n      swap2\n      swap1\n      tag_14\n      jump\t// in\n    tag_13:\n      tag_15\n      jump\t// in\n    tag_12:\n      mload(0x40)\n      tag_16\n      swap11\n      swap10\n      swap9\n      swap8\n      swap7\n      swap6\n      swap5\n      swap4\n      swap3\n      swap2\n      swap1\n      tag_17\n      jump\t// in\n    tag_16:\n      mload(0x40)\n      dup1\n      swap2\n      sub\n      swap1\n      return\n        /* \"contracts/CrowdFunding.sol\":3269:3645  function deleteCampaign (uint campaignId) public {... */\n    tag_3:\n      callvalue\n      dup1\n      iszero\n      tag_18\n      jumpi\n      0x00\n      dup1\n      revert\n    tag_18:\n      pop\n      tag_19\n      0x04\n      dup1\n      calldatasize\n      sub\n      dup2\n      add\n      swap1\n      tag_20\n      swap2\n      swap1\n      tag_14\n      jump\t// in\n    tag_20:\n      tag_21\n      jump\t// in\n    tag_19:\n      stop\n        /* \"contracts/CrowdFunding.sol\":4118:4220  function getAllCampaigns() public view returns (Campaign[] memory) {... */\n    tag_4:\n      callvalue\n      dup1\n      iszero\n      tag_22\n      jumpi\n      0x00\n      dup1\n      revert\n    tag_22:\n      pop\n      tag_23\n      tag_24\n      jump\t// in\n    tag_23:\n      mload(0x40)\n      tag_25\n      swap2\n      swap1\n      tag_26\n      jump\t// in\n    tag_25:\n      mload(0x40)\n      dup1\n      swap2\n      sub\n      swap1\n      return\n        /* \"contracts/CrowdFunding.sol\":5167:5327  function getTotalcontributions(uint campaignId) public view returns (uint totalContributions) {... */\n    tag_5:\n      callvalue\n      dup1\n      iszero\n      tag_27\n      jumpi\n      0x00\n      dup1\n      revert\n    tag_27:\n      pop\n      tag_28\n      0x04\n      dup1\n      calldatasize\n      sub\n      dup2\n      add\n      swap1\n      tag_29\n      swap2\n      swap1\n      tag_14\n      jump\t// in\n    tag_29:\n      tag_30\n      jump\t// in\n    tag_28:\n      mload(0x40)\n      tag_31\n      swap2\n      swap1\n      tag_32\n      jump\t// in\n    tag_31:\n      mload(0x40)\n      dup1\n      swap2\n      sub\n      swap1\n      return\n        /* \"contracts/CrowdFunding.sol\":1285:2263  function createCampaign(string memory title, string memory description, string memory imageURI, uint goal, uint endsAt) public {... */\n    tag_6:\n      callvalue\n      dup1\n      iszero\n      tag_33\n      jumpi\n      0x00\n      dup1\n      revert\n    tag_33:\n      pop\n      tag_34\n      0x04\n      dup1\n      calldatasize\n      sub\n      dup2\n      add\n      swap1\n      tag_35\n      swap2\n      swap1\n      tag_36\n      jump\t// in\n    tag_35:\n      tag_37\n      jump\t// in\n    tag_34:\n      stop\n        /* \"contracts/CrowdFunding.sol\":5335:5883  function getLatestCampaigns() public view returns(Campaign[] memory){... */\n    tag_7:\n      callvalue\n      dup1\n      iszero\n      tag_38\n      jumpi\n      0x00\n      dup1\n      revert\n    tag_38:\n      pop\n      tag_39\n      tag_40\n      jump\t// in\n    tag_39:\n      mload(0x40)\n      tag_41\n      swap2\n      swap1\n      tag_26\n      jump\t// in\n    tag_41:\n      mload(0x40)\n      dup1\n      swap2\n      sub\n      swap1\n      return\n        /* \"contracts/CrowdFunding.sol\":2271:3261  function contribute(uint campaignId) public payable nonReentrant {... */\n    tag_8:\n      tag_42\n      0x04\n      dup1\n      calldatasize\n      sub\n      dup2\n      add\n      swap1\n      tag_43\n      swap2\n      swap1\n      tag_14\n      jump\t// in\n    tag_43:\n      tag_44\n      jump\t// in\n    tag_42:\n      stop\n        /* \"contracts/CrowdFunding.sol\":4228:5159  function getCampaignDetails (uint campaignId) public view returns (... */\n    tag_9:\n      callvalue\n      dup1\n      iszero\n      tag_45\n      jumpi\n      0x00\n      dup1\n      revert\n    tag_45:\n      pop\n      tag_46\n      0x04\n      dup1\n      calldatasize\n      sub\n      dup2\n      add\n      swap1\n      tag_47\n      swap2\n      swap1\n      tag_14\n      jump\t// in\n    tag_47:\n      tag_48\n      jump\t// in\n    tag_46:\n      mload(0x40)\n      tag_49\n      swap13\n      swap12\n      swap11\n      swap10\n      swap9\n      swap8\n      swap7\n      swap6\n      swap5\n      swap4\n      swap3\n      swap2\n      swap1\n      tag_50\n      jump\t// in\n    tag_49:\n      mload(0x40)\n      dup1\n      swap2\n      sub\n      swap1\n      return\n        /* \"contracts/CrowdFunding.sol\":154:181  Campaign[] public campaigns */\n    tag_15:\n      0x01\n      dup2\n      dup2\n      sload\n      dup2\n      lt\n      tag_51\n      jumpi\n      0x00\n      dup1\n      revert\n    tag_51:\n      swap1\n      0x00\n      mstore\n      keccak256(0x00, 0x20)\n      swap1\n      0x0c\n      mul\n      add\n      0x00\n      swap2\n      pop\n      swap1\n      pop\n      dup1\n      0x00\n      add\n      sload\n      swap1\n      dup1\n      0x01\n      add\n      0x00\n      swap1\n      sload\n      swap1\n      0x0100\n      exp\n      swap1\n      div\n      0xffffffffffffffffffffffffffffffffffffffff\n      and\n      swap1\n      dup1\n      0x02\n      add\n      dup1\n      sload\n      tag_53\n      swap1\n      tag_54\n      jump\t// in\n    tag_53:\n      dup1\n      0x1f\n      add\n      0x20\n      dup1\n      swap2\n      div\n      mul\n      0x20\n      add\n      mload(0x40)\n      swap1\n      dup2\n      add\n      0x40\n      mstore\n      dup1\n      swap3\n      swap2\n      swap1\n      dup2\n      dup2\n      mstore\n      0x20\n      add\n      dup3\n      dup1\n      sload\n      tag_55\n      swap1\n      tag_54\n      jump\t// in\n    tag_55:\n      dup1\n      iszero\n      tag_56\n      jumpi\n      dup1\n      0x1f\n      lt\n      tag_57\n      jumpi\n      0x0100\n      dup1\n      dup4\n      sload\n      div\n      mul\n      dup4\n      mstore\n      swap2\n      0x20\n      add\n      swap2\n      jump(tag_56)\n    tag_57:\n      dup3\n      add\n      swap2\n      swap1\n      0x00\n      mstore\n      keccak256(0x00, 0x20)\n      swap1\n    tag_58:\n      dup2\n      sload\n      dup2\n      mstore\n      swap1\n      0x01\n      add\n      swap1\n      0x20\n      add\n      dup1\n      dup4\n      gt\n      tag_58\n      jumpi\n      dup3\n      swap1\n      sub\n      0x1f\n      and\n      dup3\n      add\n      swap2\n    tag_56:\n      pop\n      pop\n      pop\n      pop\n      pop\n      swap1\n      dup1\n      0x03\n      add\n      dup1\n      sload\n      tag_59\n      swap1\n      tag_54\n      jump\t// in\n    tag_59:\n      dup1\n      0x1f\n      add\n      0x20\n      dup1\n      swap2\n      div\n      mul\n      0x20\n      add\n      mload(0x40)\n      swap1\n      dup2\n      add\n      0x40\n      mstore\n      dup1\n      swap3\n      swap2\n      swap1\n      dup2\n      dup2\n      mstore\n      0x20\n      add\n      dup3\n      dup1\n      sload\n      tag_60\n      swap1\n      tag_54\n      jump\t// in\n    tag_60:\n      dup1\n      iszero\n      tag_61\n      jumpi\n      dup1\n      0x1f\n      lt\n      tag_62\n      jumpi\n      0x0100\n      dup1\n      dup4\n      sload\n      div\n      mul\n      dup4\n      mstore\n      swap2\n      0x20\n      add\n      swap2\n      jump(tag_61)\n    tag_62:\n      dup3\n      add\n      swap2\n      swap1\n      0x00\n      mstore\n      keccak256(0x00, 0x20)\n      swap1\n    tag_63:\n      dup2\n      sload\n      dup2\n      mstore\n      swap1\n      0x01\n      add\n      swap1\n      0x20\n      add\n      dup1\n      dup4\n      gt\n      tag_63\n      jumpi\n      dup3\n      swap1\n      sub\n      0x1f\n      and\n      dup3\n      add\n      swap2\n    tag_61:\n      pop\n      pop\n      pop\n      pop\n      pop\n      swap1\n      dup1\n      0x04\n      add\n      dup1\n      sload\n      tag_64\n      swap1\n      tag_54\n      jump\t// in\n    tag_64:\n      dup1\n      0x1f\n      add\n      0x20\n      dup1\n      swap2\n      div\n      mul\n      0x20\n      add\n      mload(0x40)\n      swap1\n      dup2\n      add\n      0x40\n      mstore\n      dup1\n      swap3\n      swap2\n      swap1\n      dup2\n      dup2\n      mstore\n      0x20\n      add\n      dup3\n      dup1\n      sload\n      tag_65\n      swap1\n      tag_54\n      jump\t// in\n    tag_65:\n      dup1\n      iszero\n      tag_66\n      jumpi\n      dup1\n      0x1f\n      lt\n      tag_67\n      jumpi\n      0x0100\n      dup1\n      dup4\n      sload\n      div\n      mul\n      dup4\n      mstore\n      swap2\n      0x20\n      add\n      swap2\n      jump(tag_66)\n    tag_67:\n      dup3\n      add\n      swap2\n      swap1\n      0x00\n      mstore\n      keccak256(0x00, 0x20)\n      swap1\n    tag_68:\n      dup2\n      sload\n      dup2\n      mstore\n      swap1\n      0x01\n      add\n      swap1\n      0x20\n      add\n      dup1\n      dup4\n      gt\n      tag_68\n      jumpi\n      dup3\n      swap1\n      sub\n      0x1f\n      and\n      dup3\n      add\n      swap2\n    tag_66:\n      pop\n      pop\n      pop\n      pop\n      pop\n      swap1\n      dup1\n      0x05\n      add\n      sload\n      swap1\n      dup1\n      0x06\n      add\n      sload\n      swap1\n      dup1\n      0x07\n      add\n      sload\n      swap1\n      dup1\n      0x08\n      add\n      0x00\n      swap1\n      sload\n      swap1\n      0x0100\n      exp\n      swap1\n      div\n      0xff\n      and\n      swap1\n      dup1\n      0x09\n      add\n      sload\n      swap1\n      pop\n      dup11\n      jump\t// out\n        /* \"contracts/CrowdFunding.sol\":3269:3645  function deleteCampaign (uint campaignId) public {... */\n    tag_21:\n        /* \"contracts/CrowdFunding.sol\":3329:3354  Campaign storage campaign */\n      0x00\n        /* \"contracts/CrowdFunding.sol\":3357:3366  campaigns */\n      0x01\n        /* \"contracts/CrowdFunding.sol\":3367:3377  campaignId */\n      dup3\n        /* \"contracts/CrowdFunding.sol\":3357:3378  campaigns[campaignId] */\n      dup2\n      sload\n      dup2\n      lt\n      tag_70\n      jumpi\n      tag_71\n      tag_72\n      jump\t// in\n    tag_71:\n    tag_70:\n      swap1\n      0x00\n      mstore\n      keccak256(0x00, 0x20)\n      swap1\n      0x0c\n      mul\n      add\n        /* \"contracts/CrowdFunding.sol\":3329:3378  Campaign storage campaign = campaigns[campaignId] */\n      swap1\n      pop\n        /* \"contracts/CrowdFunding.sol\":3481:3491  msg.sender */\n      caller\n        /* \"contracts/CrowdFunding.sol\":3453:3491  campaign.campaignCreator == msg.sender */\n      0xffffffffffffffffffffffffffffffffffffffff\n      and\n        /* \"contracts/CrowdFunding.sol\":3453:3461  campaign */\n      dup2\n        /* \"contracts/CrowdFunding.sol\":3453:3477  campaign.campaignCreator */\n      0x01\n      add\n      0x00\n      swap1\n      sload\n      swap1\n      0x0100\n      exp\n      swap1\n      div\n      0xffffffffffffffffffffffffffffffffffffffff\n      and\n        /* \"contracts/CrowdFunding.sol\":3453:3491  campaign.campaignCreator == msg.sender */\n      0xffffffffffffffffffffffffffffffffffffffff\n      and\n      eq\n        /* \"contracts/CrowdFunding.sol\":3445:3492  require(campaign.campaignCreator == msg.sender) */\n      tag_74\n      jumpi\n      0x00\n      dup1\n      revert\n    tag_74:\n        /* \"contracts/CrowdFunding.sol\":3505:3523  refund(campaignId) */\n      tag_75\n        /* \"contracts/CrowdFunding.sol\":3512:3522  campaignId */\n      dup3\n        /* \"contracts/CrowdFunding.sol\":3505:3511  refund */\n      tag_76\n        /* \"contracts/CrowdFunding.sol\":3505:3523  refund(campaignId) */\n      jump\t// in\n    tag_75:\n        /* \"contracts/CrowdFunding.sol\":3552:3566  STATUS.DELETED */\n      0x01\n        /* \"contracts/CrowdFunding.sol\":3534:3542  campaign */\n      dup2\n        /* \"contracts/CrowdFunding.sol\":3534:3549  campaign.status */\n      0x08\n      add\n      0x00\n        /* \"contracts/CrowdFunding.sol\":3534:3566  campaign.status = STATUS.DELETED */\n      0x0100\n      exp\n      dup2\n      sload\n      dup2\n      0xff\n      mul\n      not\n      and\n      swap1\n      dup4\n      0x03\n      dup2\n      gt\n      iszero\n      tag_77\n      jumpi\n      tag_78\n      tag_79\n      jump\t// in\n    tag_78:\n    tag_77:\n      mul\n      or\n      swap1\n      sstore\n      pop\n        /* \"contracts/CrowdFunding.sol\":3598:3608  campaignId */\n      dup2\n        /* \"contracts/CrowdFunding.sol\":3582:3637  CampaignDeleted(campaignId, msg.sender, STATUS.DELETED) */\n      0x3eb1019d4df0cfbf58860f8430c0f74cf19cb395dec54bf46eb7b620bd8c3ca9\n        /* \"contracts/CrowdFunding.sol\":3610:3620  msg.sender */\n      caller\n        /* \"contracts/CrowdFunding.sol\":3622:3636  STATUS.DELETED */\n      0x01\n        /* \"contracts/CrowdFunding.sol\":3582:3637  CampaignDeleted(campaignId, msg.sender, STATUS.DELETED) */\n      mload(0x40)\n      tag_80\n      swap3\n      swap2\n      swap1\n      tag_81\n      jump\t// in\n    tag_80:\n      mload(0x40)\n      dup1\n      swap2\n      sub\n      swap1\n      log2\n        /* \"contracts/CrowdFunding.sol\":3318:3645  {... */\n      pop\n        /* \"contracts/CrowdFunding.sol\":3269:3645  function deleteCampaign (uint campaignId) public {... */\n      pop\n      jump\t// out\n        /* \"contracts/CrowdFunding.sol\":4118:4220  function getAllCampaigns() public view returns (Campaign[] memory) {... */\n    tag_24:\n        /* \"contracts/CrowdFunding.sol\":4166:4183  Campaign[] memory */\n      0x60\n        /* \"contracts/CrowdFunding.sol\":4203:4212  campaigns */\n      0x01\n        /* \"contracts/CrowdFunding.sol\":4196:4212  return campaigns */\n      dup1\n      sload\n      dup1\n      0x20\n      mul\n      0x20\n      add\n      mload(0x40)\n      swap1\n      dup2\n      add\n      0x40\n      mstore\n      dup1\n      swap3\n      swap2\n      swap1\n      dup2\n      dup2\n      mstore\n      0x20\n      add\n      0x00\n      swap1\n    tag_83:\n      dup3\n      dup3\n      lt\n      iszero\n      tag_84\n      jumpi\n      dup4\n      dup3\n      swap1\n      0x00\n      mstore\n      keccak256(0x00, 0x20)\n      swap1\n      0x0c\n      mul\n      add\n      mload(0x40)\n      dup1\n      0x0180\n      add\n      0x40\n      mstore\n      swap1\n      dup2\n      0x00\n      dup3\n      add\n      sload\n      dup2\n      mstore\n      0x20\n      add\n      0x01\n      dup3\n      add\n      0x00\n      swap1\n      sload\n      swap1\n      0x0100\n      exp\n      swap1\n      div\n      0xffffffffffffffffffffffffffffffffffffffff\n      and\n      0xffffffffffffffffffffffffffffffffffffffff\n      and\n      0xffffffffffffffffffffffffffffffffffffffff\n      and\n      dup2\n      mstore\n      0x20\n      add\n      0x02\n      dup3\n      add\n      dup1\n      sload\n      tag_86\n      swap1\n      tag_54\n      jump\t// in\n    tag_86:\n      dup1\n      0x1f\n      add\n      0x20\n      dup1\n      swap2\n      div\n      mul\n      0x20\n      add\n      mload(0x40)\n      swap1\n      dup2\n      add\n      0x40\n      mstore\n      dup1\n      swap3\n      swap2\n      swap1\n      dup2\n      dup2\n      mstore\n      0x20\n      add\n      dup3\n      dup1\n      sload\n      tag_87\n      swap1\n      tag_54\n      jump\t// in\n    tag_87:\n      dup1\n      iszero\n      tag_88\n      jumpi\n      dup1\n      0x1f\n      lt\n      tag_89\n      jumpi\n      0x0100\n      dup1\n      dup4\n      sload\n      div\n      mul\n      dup4\n      mstore\n      swap2\n      0x20\n      add\n      swap2\n      jump(tag_88)\n    tag_89:\n      dup3\n      add\n      swap2\n      swap1\n      0x00\n      mstore\n      keccak256(0x00, 0x20)\n      swap1\n    tag_90:\n      dup2\n      sload\n      dup2\n      mstore\n      swap1\n      0x01\n      add\n      swap1\n      0x20\n      add\n      dup1\n      dup4\n      gt\n      tag_90\n      jumpi\n      dup3\n      swap1\n      sub\n      0x1f\n      and\n      dup3\n      add\n      swap2\n    tag_88:\n      pop\n      pop\n      pop\n      pop\n      pop\n      dup2\n      mstore\n      0x20\n      add\n      0x03\n      dup3\n      add\n      dup1\n      sload\n      tag_91\n      swap1\n      tag_54\n      jump\t// in\n    tag_91:\n      dup1\n      0x1f\n      add\n      0x20\n      dup1\n      swap2\n      div\n      mul\n      0x20\n      add\n      mload(0x40)\n      swap1\n      dup2\n      add\n      0x40\n      mstore\n      dup1\n      swap3\n      swap2\n      swap1\n      dup2\n      dup2\n      mstore\n      0x20\n      add\n      dup3\n      dup1\n      sload\n      tag_92\n      swap1\n      tag_54\n      jump\t// in\n    tag_92:\n      dup1\n      iszero\n      tag_93\n      jumpi\n      dup1\n      0x1f\n      lt\n      tag_94\n      jumpi\n      0x0100\n      dup1\n      dup4\n      sload\n      div\n      mul\n      dup4\n      mstore\n      swap2\n      0x20\n      add\n      swap2\n      jump(tag_93)\n    tag_94:\n      dup3\n      add\n      swap2\n      swap1\n      0x00\n      mstore\n      keccak256(0x00, 0x20)\n      swap1\n    tag_95:\n      dup2\n      sload\n      dup2\n      mstore\n      swap1\n      0x01\n      add\n      swap1\n      0x20\n      add\n      dup1\n      dup4\n      gt\n      tag_95\n      jumpi\n      dup3\n      swap1\n      sub\n      0x1f\n      and\n      dup3\n      add\n      swap2\n    tag_93:\n      pop\n      pop\n      pop\n      pop\n      pop\n      dup2\n      mstore\n      0x20\n      add\n      0x04\n      dup3\n      add\n      dup1\n      sload\n      tag_96\n      swap1\n      tag_54\n      jump\t// in\n    tag_96:\n      dup1\n      0x1f\n      add\n      0x20\n      dup1\n      swap2\n      div\n      mul\n      0x20\n      add\n      mload(0x40)\n      swap1\n      dup2\n      add\n      0x40\n      mstore\n      dup1\n      swap3\n      swap2\n      swap1\n      dup2\n      dup2\n      mstore\n      0x20\n      add\n      dup3\n      dup1\n      sload\n      tag_97\n      swap1\n      tag_54\n      jump\t// in\n    tag_97:\n      dup1\n      iszero\n      tag_98\n      jumpi\n      dup1\n      0x1f\n      lt\n      tag_99\n      jumpi\n      0x0100\n      dup1\n      dup4\n      sload\n      div\n      mul\n      dup4\n      mstore\n      swap2\n      0x20\n      add\n      swap2\n      jump(tag_98)\n    tag_99:\n      dup3\n      add\n      swap2\n      swap1\n      0x00\n      mstore\n      keccak256(0x00, 0x20)\n      swap1\n    tag_100:\n      dup2\n      sload\n      dup2\n      mstore\n      swap1\n      0x01\n      add\n      swap1\n      0x20\n      add\n      dup1\n      dup4\n      gt\n      tag_100\n      jumpi\n      dup3\n      swap1\n      sub\n      0x1f\n      and\n      dup3\n      add\n      swap2\n    tag_98:\n      pop\n      pop\n      pop\n      pop\n      pop\n      dup2\n      mstore\n      0x20\n      add\n      0x05\n      dup3\n      add\n      sload\n      dup2\n      mstore\n      0x20\n      add\n      0x06\n      dup3\n      add\n      sload\n      dup2\n      mstore\n      0x20\n      add\n      0x07\n      dup3\n      add\n      sload\n      dup2\n      mstore\n      0x20\n      add\n      0x08\n      dup3\n      add\n      0x00\n      swap1\n      sload\n      swap1\n      0x0100\n      exp\n      swap1\n      div\n      0xff\n      and\n      0x03\n      dup2\n      gt\n      iszero\n      tag_101\n      jumpi\n      tag_102\n      tag_79\n      jump\t// in\n    tag_102:\n    tag_101:\n      0x03\n      dup2\n      gt\n      iszero\n      tag_103\n      jumpi\n      tag_104\n      tag_79\n      jump\t// in\n    tag_104:\n    tag_103:\n      dup2\n      mstore\n      0x20\n      add\n      0x09\n      dup3\n      add\n      sload\n      dup2\n      mstore\n      0x20\n      add\n      0x0a\n      dup3\n      add\n      dup1\n      sload\n      dup1\n      0x20\n      mul\n      0x20\n      add\n      mload(0x40)\n      swap1\n      dup2\n      add\n      0x40\n      mstore\n      dup1\n      swap3\n      swap2\n      swap1\n      dup2\n      dup2\n      mstore\n      0x20\n      add\n      dup3\n      dup1\n      sload\n      dup1\n      iszero\n      tag_105\n      jumpi\n      0x20\n      mul\n      dup3\n      add\n      swap2\n      swap1\n      0x00\n      mstore\n      keccak256(0x00, 0x20)\n      swap1\n    tag_106:\n      dup2\n      0x00\n      swap1\n      sload\n      swap1\n      0x0100\n      exp\n      swap1\n      div\n      0xffffffffffffffffffffffffffffffffffffffff\n      and\n      0xffffffffffffffffffffffffffffffffffffffff\n      and\n      dup2\n      mstore\n      0x20\n      add\n      swap1\n      0x01\n      add\n      swap1\n      dup1\n      dup4\n      gt\n      tag_106\n      jumpi\n    tag_105:\n      pop\n      pop\n      pop\n      pop\n      pop\n      dup2\n      mstore\n      0x20\n      add\n      0x0b\n      dup3\n      add\n      dup1\n      sload\n      dup1\n      0x20\n      mul\n      0x20\n      add\n      mload(0x40)\n      swap1\n      dup2\n      add\n      0x40\n      mstore\n      dup1\n      swap3\n      swap2\n      swap1\n      dup2\n      dup2\n      mstore\n      0x20\n      add\n      dup3\n      dup1\n      sload\n      dup1\n      iszero\n      tag_107\n      jumpi\n      0x20\n      mul\n      dup3\n      add\n      swap2\n      swap1\n      0x00\n      mstore\n      keccak256(0x00, 0x20)\n      swap1\n    tag_108:\n      dup2\n      sload\n      dup2\n      mstore\n      0x20\n      add\n      swap1\n      0x01\n      add\n      swap1\n      dup1\n      dup4\n      gt\n      tag_108\n      jumpi\n    tag_107:\n      pop\n      pop\n      pop\n      pop\n      pop\n      dup2\n      mstore\n      pop\n      pop\n      dup2\n      mstore\n      0x20\n      add\n      swap1\n      0x01\n      add\n      swap1\n      jump(tag_83)\n    tag_84:\n      pop\n      pop\n      pop\n      pop\n      swap1\n      pop\n        /* \"contracts/CrowdFunding.sol\":4118:4220  function getAllCampaigns() public view returns (Campaign[] memory) {... */\n      swap1\n      jump\t// out\n        /* \"contracts/CrowdFunding.sol\":5167:5327  function getTotalcontributions(uint campaignId) public view returns (uint totalContributions) {... */\n    tag_30:\n        /* \"contracts/CrowdFunding.sol\":5236:5259  uint totalContributions */\n      0x00\n        /* \"contracts/CrowdFunding.sol\":5279:5288  campaigns */\n      0x01\n        /* \"contracts/CrowdFunding.sol\":5289:5299  campaignId */\n      dup3\n        /* \"contracts/CrowdFunding.sol\":5279:5300  campaigns[campaignId] */\n      dup2\n      sload\n      dup2\n      lt\n      tag_110\n      jumpi\n      tag_111\n      tag_72\n      jump\t// in\n    tag_111:\n    tag_110:\n      swap1\n      0x00\n      mstore\n      keccak256(0x00, 0x20)\n      swap1\n      0x0c\n      mul\n      add\n        /* \"contracts/CrowdFunding.sol\":5279:5319  campaigns[campaignId].totalContributions */\n      0x09\n      add\n      sload\n        /* \"contracts/CrowdFunding.sol\":5272:5319  return campaigns[campaignId].totalContributions */\n      swap1\n      pop\n        /* \"contracts/CrowdFunding.sol\":5167:5327  function getTotalcontributions(uint campaignId) public view returns (uint totalContributions) {... */\n      swap2\n      swap1\n      pop\n      jump\t// out\n        /* \"contracts/CrowdFunding.sol\":1285:2263  function createCampaign(string memory title, string memory description, string memory imageURI, uint goal, uint endsAt) public {... */\n    tag_37:\n        /* \"contracts/CrowdFunding.sol\":1489:1490  0 */\n      0x00\n        /* \"contracts/CrowdFunding.sol\":1473:1478  title */\n      dup6\n        /* \"contracts/CrowdFunding.sol\":1467:1486  bytes(title).length */\n      mload\n        /* \"contracts/CrowdFunding.sol\":1467:1490  bytes(title).length > 0 */\n      gt\n        /* \"contracts/CrowdFunding.sol\":1459:1518  require(bytes(title).length > 0, 'Title must not be empty') */\n      tag_114\n      jumpi\n      mload(0x40)\n      0x08c379a000000000000000000000000000000000000000000000000000000000\n      dup2\n      mstore\n      0x04\n      add\n      tag_115\n      swap1\n      tag_116\n      jump\t// in\n    tag_115:\n      mload(0x40)\n      dup1\n      swap2\n      sub\n      swap1\n      revert\n    tag_114:\n        /* \"contracts/CrowdFunding.sol\":1565:1566  0 */\n      0x00\n        /* \"contracts/CrowdFunding.sol\":1543:1554  description */\n      dup5\n        /* \"contracts/CrowdFunding.sol\":1537:1562  bytes(description).length */\n      mload\n        /* \"contracts/CrowdFunding.sol\":1537:1566  bytes(description).length > 0 */\n      gt\n        /* \"contracts/CrowdFunding.sol\":1529:1600  require(bytes(description).length > 0, 'Description must not be empty') */\n      tag_117\n      jumpi\n      mload(0x40)\n      0x08c379a000000000000000000000000000000000000000000000000000000000\n      dup2\n      mstore\n      0x04\n      add\n      tag_118\n      swap1\n      tag_119\n      jump\t// in\n    tag_118:\n      mload(0x40)\n      dup1\n      swap2\n      sub\n      swap1\n      revert\n    tag_117:\n        /* \"contracts/CrowdFunding.sol\":1644:1645  0 */\n      0x00\n        /* \"contracts/CrowdFunding.sol\":1625:1633  imageURI */\n      dup4\n        /* \"contracts/CrowdFunding.sol\":1619:1641  bytes(imageURI).length */\n      mload\n        /* \"contracts/CrowdFunding.sol\":1619:1645  bytes(imageURI).length > 0 */\n      gt\n        /* \"contracts/CrowdFunding.sol\":1611:1677  require(bytes(imageURI).length > 0, 'Image URI must not be empty') */\n      tag_120\n      jumpi\n      mload(0x40)\n      0x08c379a000000000000000000000000000000000000000000000000000000000\n      dup2\n      mstore\n      0x04\n      add\n      tag_121\n      swap1\n      tag_122\n      jump\t// in\n    tag_121:\n      mload(0x40)\n      dup1\n      swap2\n      sub\n      swap1\n      revert\n    tag_120:\n        /* \"contracts/CrowdFunding.sol\":1703:1704  0 */\n      0x00\n        /* \"contracts/CrowdFunding.sol\":1696:1700  goal */\n      dup3\n        /* \"contracts/CrowdFunding.sol\":1696:1704  goal > 0 */\n      gt\n        /* \"contracts/CrowdFunding.sol\":1688:1736  require(goal > 0, 'Goal must be greater than 0') */\n      tag_123\n      jumpi\n      mload(0x40)\n      0x08c379a000000000000000000000000000000000000000000000000000000000\n      dup2\n      mstore\n      0x04\n      add\n      tag_124\n      swap1\n      tag_125\n      jump\t// in\n    tag_124:\n      mload(0x40)\n      dup1\n      swap2\n      sub\n      swap1\n      revert\n    tag_123:\n        /* \"contracts/CrowdFunding.sol\":1764:1779  block.timestamp */\n      timestamp\n        /* \"contracts/CrowdFunding.sol\":1755:1761  endsAt */\n      dup2\n        /* \"contracts/CrowdFunding.sol\":1755:1779  endsAt > block.timestamp */\n      gt\n        /* \"contracts/CrowdFunding.sol\":1747:1838  require(endsAt > block.timestamp, 'End time of campaign muts be greater than current time') */\n      tag_126\n      jumpi\n      mload(0x40)\n      0x08c379a000000000000000000000000000000000000000000000000000000000\n      dup2\n      mstore\n      0x04\n      add\n      tag_127\n      swap1\n      tag_128\n      jump\t// in\n    tag_127:\n      mload(0x40)\n      dup1\n      swap2\n      sub\n      swap1\n      revert\n    tag_126:\n        /* \"contracts/CrowdFunding.sol\":1851:1860  campaigns */\n      0x01\n        /* \"contracts/CrowdFunding.sol\":1866:2175  Campaign(... */\n      mload(0x40)\n      dup1\n      0x0180\n      add\n      0x40\n      mstore\n      dup1\n        /* \"contracts/CrowdFunding.sol\":1889:1895  nextId */\n      0x00\n      dup1\n        /* \"contracts/CrowdFunding.sol\":1889:1897  nextId++ */\n      dup2\n      sload\n      dup1\n      swap3\n      swap2\n      swap1\n      tag_129\n      swap1\n      tag_130\n      jump\t// in\n    tag_129:\n      swap2\n      swap1\n      pop\n      sstore\n        /* \"contracts/CrowdFunding.sol\":1866:2175  Campaign(... */\n      dup2\n      mstore\n      0x20\n      add\n        /* \"contracts/CrowdFunding.sol\":1912:1922  msg.sender */\n      caller\n        /* \"contracts/CrowdFunding.sol\":1866:2175  Campaign(... */\n      0xffffffffffffffffffffffffffffffffffffffff\n      and\n      dup2\n      mstore\n      0x20\n      add\n        /* \"contracts/CrowdFunding.sol\":1937:1942  title */\n      dup8\n        /* \"contracts/CrowdFunding.sol\":1866:2175  Campaign(... */\n      dup2\n      mstore\n      0x20\n      add\n        /* \"contracts/CrowdFunding.sol\":1957:1968  description */\n      dup7\n        /* \"contracts/CrowdFunding.sol\":1866:2175  Campaign(... */\n      dup2\n      mstore\n      0x20\n      add\n        /* \"contracts/CrowdFunding.sol\":1983:1991  imageURI */\n      dup6\n        /* \"contracts/CrowdFunding.sol\":1866:2175  Campaign(... */\n      dup2\n      mstore\n      0x20\n      add\n        /* \"contracts/CrowdFunding.sol\":2006:2010  goal */\n      dup5\n        /* \"contracts/CrowdFunding.sol\":1866:2175  Campaign(... */\n      dup2\n      mstore\n      0x20\n      add\n        /* \"contracts/CrowdFunding.sol\":2025:2040  block.timestamp */\n      timestamp\n        /* \"contracts/CrowdFunding.sol\":1866:2175  Campaign(... */\n      dup2\n      mstore\n      0x20\n      add\n        /* \"contracts/CrowdFunding.sol\":2055:2061  endsAt */\n      dup4\n        /* \"contracts/CrowdFunding.sol\":1866:2175  Campaign(... */\n      dup2\n      mstore\n      0x20\n      add\n        /* \"contracts/CrowdFunding.sol\":2076:2089  STATUS.ACTIVE */\n      0x00\n        /* \"contracts/CrowdFunding.sol\":1866:2175  Campaign(... */\n      0x03\n      dup2\n      gt\n      iszero\n      tag_131\n      jumpi\n      tag_132\n      tag_79\n      jump\t// in\n    tag_132:\n    tag_131:\n      dup2\n      mstore\n      0x20\n      add\n        /* \"contracts/CrowdFunding.sol\":2104:2105  0 */\n      0x00\n        /* \"contracts/CrowdFunding.sol\":1866:2175  Campaign(... */\n      dup2\n      mstore\n      0x20\n      add\n        /* \"contracts/CrowdFunding.sol\":2134:2135  0 */\n      0x00\n        /* \"contracts/CrowdFunding.sol\":2120:2136  new address[](0) */\n      0xffffffffffffffff\n      dup2\n      gt\n      iszero\n      tag_133\n      jumpi\n      tag_134\n      tag_135\n      jump\t// in\n    tag_134:\n    tag_133:\n      mload(0x40)\n      swap1\n      dup1\n      dup3\n      mstore\n      dup1\n      0x20\n      mul\n      0x20\n      add\n      dup3\n      add\n      0x40\n      mstore\n      dup1\n      iszero\n      tag_136\n      jumpi\n      dup2\n      0x20\n      add\n      0x20\n      dup3\n      mul\n      dup1\n      calldatasize\n      dup4\n      calldatacopy\n      dup1\n      dup3\n      add\n      swap2\n      pop\n      pop\n      swap1\n      pop\n    tag_136:\n      pop\n        /* \"contracts/CrowdFunding.sol\":1866:2175  Campaign(... */\n      dup2\n      mstore\n      0x20\n      add\n        /* \"contracts/CrowdFunding.sol\":2162:2163  0 */\n      0x00\n        /* \"contracts/CrowdFunding.sol\":2151:2164  new uint[](0) */\n      0xffffffffffffffff\n      dup2\n      gt\n      iszero\n      tag_137\n      jumpi\n      tag_138\n      tag_135\n      jump\t// in\n    tag_138:\n    tag_137:\n      mload(0x40)\n      swap1\n      dup1\n      dup3\n      mstore\n      dup1\n      0x20\n      mul\n      0x20\n      add\n      dup3\n      add\n      0x40\n      mstore\n      dup1\n      iszero\n      tag_139\n      jumpi\n      dup2\n      0x20\n      add\n      0x20\n      dup3\n      mul\n      dup1\n      calldatasize\n      dup4\n      calldatacopy\n      dup1\n      dup3\n      add\n      swap2\n      pop\n      pop\n      swap1\n      pop\n    tag_139:\n      pop\n        /* \"contracts/CrowdFunding.sol\":1866:2175  Campaign(... */\n      dup2\n      mstore\n      pop\n        /* \"contracts/CrowdFunding.sol\":1851:2176  campaigns.push(Campaign(... */\n      swap1\n      dup1\n      0x01\n      dup2\n      sload\n      add\n      dup1\n      dup3\n      sstore\n      dup1\n      swap2\n      pop\n      pop\n      0x01\n      swap1\n      sub\n      swap1\n      0x00\n      mstore\n      keccak256(0x00, 0x20)\n      swap1\n      0x0c\n      mul\n      add\n      0x00\n      swap1\n      swap2\n      swap1\n      swap2\n      swap1\n      swap2\n      pop\n      0x00\n      dup3\n      add\n      mload\n      dup2\n      0x00\n      add\n      sstore\n      0x20\n      dup3\n      add\n      mload\n      dup2\n      0x01\n      add\n      exp(0x0100, 0x00)\n      dup2\n      sload\n      dup2\n      0xffffffffffffffffffffffffffffffffffffffff\n      mul\n      not\n      and\n      swap1\n      dup4\n      0xffffffffffffffffffffffffffffffffffffffff\n      and\n      mul\n      or\n      swap1\n      sstore\n      pop\n      0x40\n      dup3\n      add\n      mload\n      dup2\n      0x02\n      add\n      swap1\n      dup2\n      tag_141\n      swap2\n      swap1\n      tag_142\n      jump\t// in\n    tag_141:\n      pop\n      0x60\n      dup3\n      add\n      mload\n      dup2\n      0x03\n      add\n      swap1\n      dup2\n      tag_143\n      swap2\n      swap1\n      tag_142\n      jump\t// in\n    tag_143:\n      pop\n      0x80\n      dup3\n      add\n      mload\n      dup2\n      0x04\n      add\n      swap1\n      dup2\n      tag_144\n      swap2\n      swap1\n      tag_142\n      jump\t// in\n    tag_144:\n      pop\n      0xa0\n      dup3\n      add\n      mload\n      dup2\n      0x05\n      add\n      sstore\n      0xc0\n      dup3\n      add\n      mload\n      dup2\n      0x06\n      add\n      sstore\n      0xe0\n      dup3\n      add\n      mload\n      dup2\n      0x07\n      add\n      sstore\n      0x0100\n      dup3\n      add\n      mload\n      dup2\n      0x08\n      add\n      exp(0x0100, 0x00)\n      dup2\n      sload\n      dup2\n      0xff\n      mul\n      not\n      and\n      swap1\n      dup4\n      0x03\n      dup2\n      gt\n      iszero\n      tag_145\n      jumpi\n      tag_146\n      tag_79\n      jump\t// in\n    tag_146:\n    tag_145:\n      mul\n      or\n      swap1\n      sstore\n      pop\n      0x0120\n      dup3\n      add\n      mload\n      dup2\n      0x09\n      add\n      sstore\n      0x0140\n      dup3\n      add\n      mload\n      dup2\n      0x0a\n      add\n      swap1\n      dup1\n      mload\n      swap1\n      0x20\n      add\n      swap1\n      tag_147\n      swap3\n      swap2\n      swap1\n      tag_148\n      jump\t// in\n    tag_147:\n      pop\n      0x0160\n      dup3\n      add\n      mload\n      dup2\n      0x0b\n      add\n      swap1\n      dup1\n      mload\n      swap1\n      0x20\n      add\n      swap1\n      tag_149\n      swap3\n      swap2\n      swap1\n      tag_150\n      jump\t// in\n    tag_149:\n      pop\n      pop\n      pop\n        /* \"contracts/CrowdFunding.sol\":2219:2220  1 */\n      0x01\n        /* \"contracts/CrowdFunding.sol\":2210:2216  nextId */\n      sload(0x00)\n        /* \"contracts/CrowdFunding.sol\":2210:2220  nextId - 1 */\n      tag_151\n      swap2\n      swap1\n      tag_152\n      jump\t// in\n    tag_151:\n        /* \"contracts/CrowdFunding.sol\":2194:2255  CampaignCreated(nextId - 1, msg.sender, title, STATUS.ACTIVE) */\n      0x80d44ffac60fc8721db9216c79b4b66d26a90f61e2a32290581cbfb9c0776be4\n        /* \"contracts/CrowdFunding.sol\":2222:2232  msg.sender */\n      caller\n        /* \"contracts/CrowdFunding.sol\":2234:2239  title */\n      dup8\n        /* \"contracts/CrowdFunding.sol\":2241:2254  STATUS.ACTIVE */\n      0x00\n        /* \"contracts/CrowdFunding.sol\":2194:2255  CampaignCreated(nextId - 1, msg.sender, title, STATUS.ACTIVE) */\n      mload(0x40)\n      tag_153\n      swap4\n      swap3\n      swap2\n      swap1\n      tag_154\n      jump\t// in\n    tag_153:\n      mload(0x40)\n      dup1\n      swap2\n      sub\n      swap1\n      log2\n        /* \"contracts/CrowdFunding.sol\":1285:2263  function createCampaign(string memory title, string memory description, string memory imageURI, uint goal, uint endsAt) public {... */\n      pop\n      pop\n      pop\n      pop\n      pop\n      jump\t// out\n        /* \"contracts/CrowdFunding.sol\":5335:5883  function getLatestCampaigns() public view returns(Campaign[] memory){... */\n    tag_40:\n        /* \"contracts/CrowdFunding.sol\":5385:5402  Campaign[] memory */\n      0x60\n        /* \"contracts/CrowdFunding.sol\":5441:5442  0 */\n      0x00\n        /* \"contracts/CrowdFunding.sol\":5422:5431  campaigns */\n      0x01\n        /* \"contracts/CrowdFunding.sol\":5422:5438  campaigns.length */\n      dup1\n      sload\n      swap1\n      pop\n        /* \"contracts/CrowdFunding.sol\":5422:5442  campaigns.length > 0 */\n      gt\n        /* \"contracts/CrowdFunding.sol\":5414:5466  require(campaigns.length > 0, \"No campaigns found.\") */\n      tag_156\n      jumpi\n      mload(0x40)\n      0x08c379a000000000000000000000000000000000000000000000000000000000\n      dup2\n      mstore\n      0x04\n      add\n      tag_157\n      swap1\n      tag_158\n      jump\t// in\n    tag_157:\n      mload(0x40)\n      dup1\n      swap2\n      sub\n      swap1\n      revert\n    tag_156:\n        /* \"contracts/CrowdFunding.sol\":5479:5494  uint startIndex */\n      0x00\n        /* \"contracts/CrowdFunding.sol\":5516:5517  4 */\n      0x04\n        /* \"contracts/CrowdFunding.sol\":5497:5506  campaigns */\n      0x01\n        /* \"contracts/CrowdFunding.sol\":5497:5513  campaigns.length */\n      dup1\n      sload\n      swap1\n      pop\n        /* \"contracts/CrowdFunding.sol\":5497:5517  campaigns.length > 4 */\n      gt\n        /* \"contracts/CrowdFunding.sol\":5497:5544  campaigns.length > 4 ? campaigns.length - 4 : 0 */\n      tag_159\n      jumpi\n        /* \"contracts/CrowdFunding.sol\":5543:5544  0 */\n      0x00\n        /* \"contracts/CrowdFunding.sol\":5497:5544  campaigns.length > 4 ? campaigns.length - 4 : 0 */\n      jump(tag_160)\n    tag_159:\n        /* \"contracts/CrowdFunding.sol\":5539:5540  4 */\n      0x04\n        /* \"contracts/CrowdFunding.sol\":5520:5529  campaigns */\n      0x01\n        /* \"contracts/CrowdFunding.sol\":5520:5536  campaigns.length */\n      dup1\n      sload\n      swap1\n      pop\n        /* \"contracts/CrowdFunding.sol\":5520:5540  campaigns.length - 4 */\n      tag_161\n      swap2\n      swap1\n      tag_152\n      jump\t// in\n    tag_161:\n        /* \"contracts/CrowdFunding.sol\":5497:5544  campaigns.length > 4 ? campaigns.length - 4 : 0 */\n    tag_160:\n        /* \"contracts/CrowdFunding.sol\":5479:5544  uint startIndex = campaigns.length > 4 ? campaigns.length - 4 : 0 */\n      swap1\n      pop\n        /* \"contracts/CrowdFunding.sol\":5555:5580  uint latestCampaignsCount */\n      0x00\n        /* \"contracts/CrowdFunding.sol\":5602:5612  startIndex */\n      dup2\n        /* \"contracts/CrowdFunding.sol\":5583:5592  campaigns */\n      0x01\n        /* \"contracts/CrowdFunding.sol\":5583:5599  campaigns.length */\n      dup1\n      sload\n      swap1\n      pop\n        /* \"contracts/CrowdFunding.sol\":5583:5612  campaigns.length - startIndex */\n      tag_162\n      swap2\n      swap1\n      tag_152\n      jump\t// in\n    tag_162:\n        /* \"contracts/CrowdFunding.sol\":5555:5612  uint latestCampaignsCount = campaigns.length - startIndex */\n      swap1\n      pop\n        /* \"contracts/CrowdFunding.sol\":5625:5658  Campaign[] memory latestCampaigns */\n      0x00\n        /* \"contracts/CrowdFunding.sol\":5676:5696  latestCampaignsCount */\n      dup2\n        /* \"contracts/CrowdFunding.sol\":5661:5697  new Campaign[](latestCampaignsCount) */\n      0xffffffffffffffff\n      dup2\n      gt\n      iszero\n      tag_163\n      jumpi\n      tag_164\n      tag_135\n      jump\t// in\n    tag_164:\n    tag_163:\n      mload(0x40)\n      swap1\n      dup1\n      dup3\n      mstore\n      dup1\n      0x20\n      mul\n      0x20\n      add\n      dup3\n      add\n      0x40\n      mstore\n      dup1\n      iszero\n      tag_165\n      jumpi\n      dup2\n      0x20\n      add\n    tag_166:\n      tag_167\n      tag_168\n      jump\t// in\n    tag_167:\n      dup2\n      mstore\n      0x20\n      add\n      swap1\n      0x01\n      swap1\n      sub\n      swap1\n      dup2\n      tag_166\n      jumpi\n      swap1\n      pop\n    tag_165:\n      pop\n        /* \"contracts/CrowdFunding.sol\":5625:5697  Campaign[] memory latestCampaigns = new Campaign[](latestCampaignsCount) */\n      swap1\n      pop\n        /* \"contracts/CrowdFunding.sol\":5715:5721  uint i */\n      0x00\n        /* \"contracts/CrowdFunding.sol\":5710:5841  for (uint i = 0; i < latestCampaignsCount; i++) {... */\n    tag_169:\n        /* \"contracts/CrowdFunding.sol\":5731:5751  latestCampaignsCount */\n      dup3\n        /* \"contracts/CrowdFunding.sol\":5727:5728  i */\n      dup2\n        /* \"contracts/CrowdFunding.sol\":5727:5751  i < latestCampaignsCount */\n      lt\n        /* \"contracts/CrowdFunding.sol\":5710:5841  for (uint i = 0; i < latestCampaignsCount; i++) {... */\n      iszero\n      tag_170\n      jumpi\n        /* \"contracts/CrowdFunding.sol\":5794:5803  campaigns */\n      0x01\n        /* \"contracts/CrowdFunding.sol\":5827:5828  i */\n      dup2\n        /* \"contracts/CrowdFunding.sol\":5823:5824  1 */\n      0x01\n        /* \"contracts/CrowdFunding.sol\":5804:5813  campaigns */\n      dup1\n        /* \"contracts/CrowdFunding.sol\":5804:5820  campaigns.length */\n      dup1\n      sload\n      swap1\n      pop\n        /* \"contracts/CrowdFunding.sol\":5804:5824  campaigns.length - 1 */\n      tag_172\n      swap2\n      swap1\n      tag_152\n      jump\t// in\n    tag_172:\n        /* \"contracts/CrowdFunding.sol\":5804:5828  campaigns.length - 1 - i */\n      tag_173\n      swap2\n      swap1\n      tag_152\n      jump\t// in\n    tag_173:\n        /* \"contracts/CrowdFunding.sol\":5794:5829  campaigns[campaigns.length - 1 - i] */\n      dup2\n      sload\n      dup2\n      lt\n      tag_174\n      jumpi\n      tag_175\n      tag_72\n      jump\t// in\n    tag_175:\n    tag_174:\n      swap1\n      0x00\n      mstore\n      keccak256(0x00, 0x20)\n      swap1\n      0x0c\n      mul\n      add\n        /* \"contracts/CrowdFunding.sol\":5773:5829  latestCampaigns[i] = campaigns[campaigns.length - 1 - i] */\n      mload(0x40)\n      dup1\n      0x0180\n      add\n      0x40\n      mstore\n      swap1\n      dup2\n      0x00\n      dup3\n      add\n      sload\n      dup2\n      mstore\n      0x20\n      add\n      0x01\n      dup3\n      add\n      0x00\n      swap1\n      sload\n      swap1\n      0x0100\n      exp\n      swap1\n      div\n      0xffffffffffffffffffffffffffffffffffffffff\n      and\n      0xffffffffffffffffffffffffffffffffffffffff\n      and\n      0xffffffffffffffffffffffffffffffffffffffff\n      and\n      dup2\n      mstore\n      0x20\n      add\n      0x02\n      dup3\n      add\n      dup1\n      sload\n      tag_177\n      swap1\n      tag_54\n      jump\t// in\n    tag_177:\n      dup1\n      0x1f\n      add\n      0x20\n      dup1\n      swap2\n      div\n      mul\n      0x20\n      add\n      mload(0x40)\n      swap1\n      dup2\n      add\n      0x40\n      mstore\n      dup1\n      swap3\n      swap2\n      swap1\n      dup2\n      dup2\n      mstore\n      0x20\n      add\n      dup3\n      dup1\n      sload\n      tag_178\n      swap1\n      tag_54\n      jump\t// in\n    tag_178:\n      dup1\n      iszero\n      tag_179\n      jumpi\n      dup1\n      0x1f\n      lt\n      tag_180\n      jumpi\n      0x0100\n      dup1\n      dup4\n      sload\n      div\n      mul\n      dup4\n      mstore\n      swap2\n      0x20\n      add\n      swap2\n      jump(tag_179)\n    tag_180:\n      dup3\n      add\n      swap2\n      swap1\n      0x00\n      mstore\n      keccak256(0x00, 0x20)\n      swap1\n    tag_181:\n      dup2\n      sload\n      dup2\n      mstore\n      swap1\n      0x01\n      add\n      swap1\n      0x20\n      add\n      dup1\n      dup4\n      gt\n      tag_181\n      jumpi\n      dup3\n      swap1\n      sub\n      0x1f\n      and\n      dup3\n      add\n      swap2\n    tag_179:\n      pop\n      pop\n      pop\n      pop\n      pop\n      dup2\n      mstore\n      0x20\n      add\n      0x03\n      dup3\n      add\n      dup1\n      sload\n      tag_182\n      swap1\n      tag_54\n      jump\t// in\n    tag_182:\n      dup1\n      0x1f\n      add\n      0x20\n      dup1\n      swap2\n      div\n      mul\n      0x20\n      add\n      mload(0x40)\n      swap1\n      dup2\n      add\n      0x40\n      mstore\n      dup1\n      swap3\n      swap2\n      swap1\n      dup2\n      dup2\n      mstore\n      0x20\n      add\n      dup3\n      dup1\n      sload\n      tag_183\n      swap1\n      tag_54\n      jump\t// in\n    tag_183:\n      dup1\n      iszero\n      tag_184\n      jumpi\n      dup1\n      0x1f\n      lt\n      tag_185\n      jumpi\n      0x0100\n      dup1\n      dup4\n      sload\n      div\n      mul\n      dup4\n      mstore\n      swap2\n      0x20\n      add\n      swap2\n      jump(tag_184)\n    tag_185:\n      dup3\n      add\n      swap2\n      swap1\n      0x00\n      mstore\n      keccak256(0x00, 0x20)\n      swap1\n    tag_186:\n      dup2\n      sload\n      dup2\n      mstore\n      swap1\n      0x01\n      add\n      swap1\n      0x20\n      add\n      dup1\n      dup4\n      gt\n      tag_186\n      jumpi\n      dup3\n      swap1\n      sub\n      0x1f\n      and\n      dup3\n      add\n      swap2\n    tag_184:\n      pop\n      pop\n      pop\n      pop\n      pop\n      dup2\n      mstore\n      0x20\n      add\n      0x04\n      dup3\n      add\n      dup1\n      sload\n      tag_187\n      swap1\n      tag_54\n      jump\t// in\n    tag_187:\n      dup1\n      0x1f\n      add\n      0x20\n      dup1\n      swap2\n      div\n      mul\n      0x20\n      add\n      mload(0x40)\n      swap1\n      dup2\n      add\n      0x40\n      mstore\n      dup1\n      swap3\n      swap2\n      swap1\n      dup2\n      dup2\n      mstore\n      0x20\n      add\n      dup3\n      dup1\n      sload\n      tag_188\n      swap1\n      tag_54\n      jump\t// in\n    tag_188:\n      dup1\n      iszero\n      tag_189\n      jumpi\n      dup1\n      0x1f\n      lt\n      tag_190\n      jumpi\n      0x0100\n      dup1\n      dup4\n      sload\n      div\n      mul\n      dup4\n      mstore\n      swap2\n      0x20\n      add\n      swap2\n      jump(tag_189)\n    tag_190:\n      dup3\n      add\n      swap2\n      swap1\n      0x00\n      mstore\n      keccak256(0x00, 0x20)\n      swap1\n    tag_191:\n      dup2\n      sload\n      dup2\n      mstore\n      swap1\n      0x01\n      add\n      swap1\n      0x20\n      add\n      dup1\n      dup4\n      gt\n      tag_191\n      jumpi\n      dup3\n      swap1\n      sub\n      0x1f\n      and\n      dup3\n      add\n      swap2\n    tag_189:\n      pop\n      pop\n      pop\n      pop\n      pop\n      dup2\n      mstore\n      0x20\n      add\n      0x05\n      dup3\n      add\n      sload\n      dup2\n      mstore\n      0x20\n      add\n      0x06\n      dup3\n      add\n      sload\n      dup2\n      mstore\n      0x20\n      add\n      0x07\n      dup3\n      add\n      sload\n      dup2\n      mstore\n      0x20\n      add\n      0x08\n      dup3\n      add\n      0x00\n      swap1\n      sload\n      swap1\n      0x0100\n      exp\n      swap1\n      div\n      0xff\n      and\n      0x03\n      dup2\n      gt\n      iszero\n      tag_192\n      jumpi\n      tag_193\n      tag_79\n      jump\t// in\n    tag_193:\n    tag_192:\n      0x03\n      dup2\n      gt\n      iszero\n      tag_194\n      jumpi\n      tag_195\n      tag_79\n      jump\t// in\n    tag_195:\n    tag_194:\n      dup2\n      mstore\n      0x20\n      add\n      0x09\n      dup3\n      add\n      sload\n      dup2\n      mstore\n      0x20\n      add\n      0x0a\n      dup3\n      add\n      dup1\n      sload\n      dup1\n      0x20\n      mul\n      0x20\n      add\n      mload(0x40)\n      swap1\n      dup2\n      add\n      0x40\n      mstore\n      dup1\n      swap3\n      swap2\n      swap1\n      dup2\n      dup2\n      mstore\n      0x20\n      add\n      dup3\n      dup1\n      sload\n      dup1\n      iszero\n      tag_196\n      jumpi\n      0x20\n      mul\n      dup3\n      add\n      swap2\n      swap1\n      0x00\n      mstore\n      keccak256(0x00, 0x20)\n      swap1\n    tag_197:\n      dup2\n      0x00\n      swap1\n      sload\n      swap1\n      0x0100\n      exp\n      swap1\n      div\n      0xffffffffffffffffffffffffffffffffffffffff\n      and\n      0xffffffffffffffffffffffffffffffffffffffff\n      and\n      dup2\n      mstore\n      0x20\n      add\n      swap1\n      0x01\n      add\n      swap1\n      dup1\n      dup4\n      gt\n      tag_197\n      jumpi\n    tag_196:\n      pop\n      pop\n      pop\n      pop\n      pop\n      dup2\n      mstore\n      0x20\n      add\n      0x0b\n      dup3\n      add\n      dup1\n      sload\n      dup1\n      0x20\n      mul\n      0x20\n      add\n      mload(0x40)\n      swap1\n      dup2\n      add\n      0x40\n      mstore\n      dup1\n      swap3\n      swap2\n      swap1\n      dup2\n      dup2\n      mstore\n      0x20\n      add\n      dup3\n      dup1\n      sload\n      dup1\n      iszero\n      tag_198\n      jumpi\n      0x20\n      mul\n      dup3\n      add\n      swap2\n      swap1\n      0x00\n      mstore\n      keccak256(0x00, 0x20)\n      swap1\n    tag_199:\n      dup2\n      sload\n      dup2\n      mstore\n      0x20\n      add\n      swap1\n      0x01\n      add\n      swap1\n      dup1\n      dup4\n      gt\n      tag_199\n      jumpi\n    tag_198:\n      pop\n      pop\n      pop\n      pop\n      pop\n      dup2\n      mstore\n      pop\n      pop\n        /* \"contracts/CrowdFunding.sol\":5773:5788  latestCampaigns */\n      dup3\n        /* \"contracts/CrowdFunding.sol\":5789:5790  i */\n      dup3\n        /* \"contracts/CrowdFunding.sol\":5773:5791  latestCampaigns[i] */\n      dup2\n      mload\n      dup2\n      lt\n      tag_200\n      jumpi\n      tag_201\n      tag_72\n      jump\t// in\n    tag_201:\n    tag_200:\n      0x20\n      mul\n      0x20\n      add\n      add\n        /* \"contracts/CrowdFunding.sol\":5773:5829  latestCampaigns[i] = campaigns[campaigns.length - 1 - i] */\n      dup2\n      swap1\n      mstore\n      pop\n        /* \"contracts/CrowdFunding.sol\":5753:5756  i++ */\n      dup1\n      dup1\n      0x01\n      add\n      swap2\n      pop\n      pop\n        /* \"contracts/CrowdFunding.sol\":5710:5841  for (uint i = 0; i < latestCampaignsCount; i++) {... */\n      jump(tag_169)\n    tag_170:\n      pop\n        /* \"contracts/CrowdFunding.sol\":5860:5875  latestCampaigns */\n      dup1\n        /* \"contracts/CrowdFunding.sol\":5853:5875  return latestCampaigns */\n      swap4\n      pop\n      pop\n      pop\n      pop\n        /* \"contracts/CrowdFunding.sol\":5335:5883  function getLatestCampaigns() public view returns(Campaign[] memory){... */\n      swap1\n      jump\t// out\n        /* \"contracts/CrowdFunding.sol\":2271:3261  function contribute(uint campaignId) public payable nonReentrant {... */\n    tag_44:\n        /* \"contracts/CrowdFunding.sol\":290:296  locked */\n      0x02\n      0x00\n      swap1\n      sload\n      swap1\n      0x0100\n      exp\n      swap1\n      div\n      0xff\n      and\n        /* \"contracts/CrowdFunding.sol\":289:296  !locked */\n      iszero\n        /* \"contracts/CrowdFunding.sol\":281:315  require(!locked, \"Reentrant call\") */\n      tag_203\n      jumpi\n      mload(0x40)\n      0x08c379a000000000000000000000000000000000000000000000000000000000\n      dup2\n      mstore\n      0x04\n      add\n      tag_204\n      swap1\n      tag_205\n      jump\t// in\n    tag_204:\n      mload(0x40)\n      dup1\n      swap2\n      sub\n      swap1\n      revert\n    tag_203:\n        /* \"contracts/CrowdFunding.sol\":335:339  true */\n      0x01\n        /* \"contracts/CrowdFunding.sol\":326:332  locked */\n      0x02\n      0x00\n        /* \"contracts/CrowdFunding.sol\":326:339  locked = true */\n      0x0100\n      exp\n      dup2\n      sload\n      dup2\n      0xff\n      mul\n      not\n      and\n      swap1\n      dup4\n      iszero\n      iszero\n      mul\n      or\n      swap1\n      sstore\n      pop\n        /* \"contracts/CrowdFunding.sol\":2347:2372  Campaign storage campaign */\n      0x00\n        /* \"contracts/CrowdFunding.sol\":2375:2384  campaigns */\n      0x01\n        /* \"contracts/CrowdFunding.sol\":2385:2395  campaignId */\n      dup3\n        /* \"contracts/CrowdFunding.sol\":2375:2396  campaigns[campaignId] */\n      dup2\n      sload\n      dup2\n      lt\n      tag_207\n      jumpi\n      tag_208\n      tag_72\n      jump\t// in\n    tag_208:\n    tag_207:\n      swap1\n      0x00\n      mstore\n      keccak256(0x00, 0x20)\n      swap1\n      0x0c\n      mul\n      add\n        /* \"contracts/CrowdFunding.sol\":2347:2396  Campaign storage campaign = campaigns[campaignId] */\n      swap1\n      pop\n        /* \"contracts/CrowdFunding.sol\":2429:2430  0 */\n      0x00\n        /* \"contracts/CrowdFunding.sol\":2417:2426  msg.value */\n      callvalue\n        /* \"contracts/CrowdFunding.sol\":2417:2430  msg.value > 0 */\n      gt\n        /* \"contracts/CrowdFunding.sol\":2409:2474  require(msg.value > 0, 'Contribution must be greater than 0 eth') */\n      tag_210\n      jumpi\n      mload(0x40)\n      0x08c379a000000000000000000000000000000000000000000000000000000000\n      dup2\n      mstore\n      0x04\n      add\n      tag_211\n      swap1\n      tag_212\n      jump\t// in\n    tag_211:\n      mload(0x40)\n      dup1\n      swap2\n      sub\n      swap1\n      revert\n    tag_210:\n        /* \"contracts/CrowdFunding.sol\":2487:2512  uint remainingFundsNeeded */\n      0x00\n        /* \"contracts/CrowdFunding.sol\":2531:2539  campaign */\n      dup2\n        /* \"contracts/CrowdFunding.sol\":2531:2558  campaign.totalContributions */\n      0x09\n      add\n      sload\n        /* \"contracts/CrowdFunding.sol\":2515:2523  campaign */\n      dup3\n        /* \"contracts/CrowdFunding.sol\":2515:2528  campaign.goal */\n      0x05\n      add\n      sload\n        /* \"contracts/CrowdFunding.sol\":2515:2558  campaign.goal - campaign.totalContributions */\n      tag_213\n      swap2\n      swap1\n      tag_152\n      jump\t// in\n    tag_213:\n        /* \"contracts/CrowdFunding.sol\":2487:2558  uint remainingFundsNeeded = campaign.goal - campaign.totalContributions */\n      swap1\n      pop\n        /* \"contracts/CrowdFunding.sol\":2588:2608  remainingFundsNeeded */\n      dup1\n        /* \"contracts/CrowdFunding.sol\":2575:2584  msg.value */\n      callvalue\n        /* \"contracts/CrowdFunding.sol\":2575:2608  msg.value <= remainingFundsNeeded */\n      gt\n        /* \"contracts/CrowdFunding.sol\":2571:3079  if (msg.value <= remainingFundsNeeded) {... */\n      tag_214\n      jumpi\n        /* \"contracts/CrowdFunding.sol\":2656:2665  msg.value */\n      callvalue\n        /* \"contracts/CrowdFunding.sol\":2625:2633  campaign */\n      dup3\n        /* \"contracts/CrowdFunding.sol\":2625:2652  campaign.totalContributions */\n      0x09\n      add\n      0x00\n        /* \"contracts/CrowdFunding.sol\":2625:2665  campaign.totalContributions += msg.value */\n      dup3\n      dup3\n      sload\n      tag_215\n      swap2\n      swap1\n      tag_216\n      jump\t// in\n    tag_215:\n      swap3\n      pop\n      pop\n      dup2\n      swap1\n      sstore\n      pop\n        /* \"contracts/CrowdFunding.sol\":2571:3079  if (msg.value <= remainingFundsNeeded) {... */\n      jump(tag_217)\n    tag_214:\n        /* \"contracts/CrowdFunding.sol\":2698:2715  uint excessAmount */\n      0x00\n        /* \"contracts/CrowdFunding.sol\":2730:2750  remainingFundsNeeded */\n      dup2\n        /* \"contracts/CrowdFunding.sol\":2718:2727  msg.value */\n      callvalue\n        /* \"contracts/CrowdFunding.sol\":2718:2750  msg.value - remainingFundsNeeded */\n      tag_218\n      swap2\n      swap1\n      tag_152\n      jump\t// in\n    tag_218:\n        /* \"contracts/CrowdFunding.sol\":2698:2750  uint excessAmount = msg.value - remainingFundsNeeded */\n      swap1\n      pop\n        /* \"contracts/CrowdFunding.sol\":2765:2784  uint refundedAmount */\n      0x00\n        /* \"contracts/CrowdFunding.sol\":2799:2811  excessAmount */\n      dup2\n        /* \"contracts/CrowdFunding.sol\":2787:2796  msg.value */\n      callvalue\n        /* \"contracts/CrowdFunding.sol\":2787:2811  msg.value - excessAmount */\n      tag_219\n      swap2\n      swap1\n      tag_152\n      jump\t// in\n    tag_219:\n        /* \"contracts/CrowdFunding.sol\":2765:2811  uint refundedAmount = msg.value - excessAmount */\n      swap1\n      pop\n        /* \"contracts/CrowdFunding.sol\":2837:2847  msg.sender */\n      caller\n        /* \"contracts/CrowdFunding.sol\":2828:2857  payable (msg.sender).transfer */\n      0xffffffffffffffffffffffffffffffffffffffff\n      and\n        /* \"contracts/CrowdFunding.sol\":2828:2871  payable (msg.sender).transfer(excessAmount) */\n      0x08fc\n        /* \"contracts/CrowdFunding.sol\":2858:2870  excessAmount */\n      dup4\n        /* \"contracts/CrowdFunding.sol\":2828:2871  payable (msg.sender).transfer(excessAmount) */\n      swap1\n      dup2\n      iszero\n      mul\n      swap1\n      mload(0x40)\n      0x00\n      mload(0x40)\n      dup1\n      dup4\n      sub\n      dup2\n      dup6\n      dup9\n      dup9\n      call\n      swap4\n      pop\n      pop\n      pop\n      pop\n      iszero\n      dup1\n      iszero\n      tag_221\n      jumpi\n      returndatasize\n      0x00\n      dup1\n      returndatacopy\n      revert(0x00, returndatasize)\n    tag_221:\n      pop\n        /* \"contracts/CrowdFunding.sol\":2917:2931  refundedAmount */\n      dup1\n        /* \"contracts/CrowdFunding.sol\":2886:2894  campaign */\n      dup5\n        /* \"contracts/CrowdFunding.sol\":2886:2913  campaign.totalContributions */\n      0x09\n      add\n      0x00\n        /* \"contracts/CrowdFunding.sol\":2886:2931  campaign.totalContributions += refundedAmount */\n      dup3\n      dup3\n      sload\n      tag_222\n      swap2\n      swap1\n      tag_216\n      jump\t// in\n    tag_222:\n      swap3\n      pop\n      pop\n      dup2\n      swap1\n      sstore\n      pop\n        /* \"contracts/CrowdFunding.sol\":2983:2991  campaign */\n      dup4\n        /* \"contracts/CrowdFunding.sol\":2983:2996  campaign.goal */\n      0x05\n      add\n      sload\n        /* \"contracts/CrowdFunding.sol\":2952:2960  campaign */\n      dup5\n        /* \"contracts/CrowdFunding.sol\":2952:2979  campaign.totalContributions */\n      0x09\n      add\n      sload\n        /* \"contracts/CrowdFunding.sol\":2952:2996  campaign.totalContributions >= campaign.goal */\n      lt\n        /* \"contracts/CrowdFunding.sol\":2948:3068  if (campaign.totalContributions >= campaign.goal) {... */\n      tag_223\n      jumpi\n        /* \"contracts/CrowdFunding.sol\":3035:3052  STATUS.SUCCESSFUL */\n      0x02\n        /* \"contracts/CrowdFunding.sol\":3017:3025  campaign */\n      dup5\n        /* \"contracts/CrowdFunding.sol\":3017:3032  campaign.status */\n      0x08\n      add\n      0x00\n        /* \"contracts/CrowdFunding.sol\":3017:3052  campaign.status = STATUS.SUCCESSFUL */\n      0x0100\n      exp\n      dup2\n      sload\n      dup2\n      0xff\n      mul\n      not\n      and\n      swap1\n      dup4\n      0x03\n      dup2\n      gt\n      iszero\n      tag_224\n      jumpi\n      tag_225\n      tag_79\n      jump\t// in\n    tag_225:\n    tag_224:\n      mul\n      or\n      swap1\n      sstore\n      pop\n        /* \"contracts/CrowdFunding.sol\":2948:3068  if (campaign.totalContributions >= campaign.goal) {... */\n    tag_223:\n        /* \"contracts/CrowdFunding.sol\":2683:3079  {... */\n      pop\n      pop\n        /* \"contracts/CrowdFunding.sol\":2571:3079  if (msg.value <= remainingFundsNeeded) {... */\n    tag_217:\n        /* \"contracts/CrowdFunding.sol\":3091:3099  campaign */\n      dup2\n        /* \"contracts/CrowdFunding.sol\":3091:3112  campaign.contributors */\n      0x0a\n      add\n        /* \"contracts/CrowdFunding.sol\":3118:3128  msg.sender */\n      caller\n        /* \"contracts/CrowdFunding.sol\":3091:3129  campaign.contributors.push(msg.sender) */\n      swap1\n      dup1\n      0x01\n      dup2\n      sload\n      add\n      dup1\n      dup3\n      sstore\n      dup1\n      swap2\n      pop\n      pop\n      0x01\n      swap1\n      sub\n      swap1\n      0x00\n      mstore\n      keccak256(0x00, 0x20)\n      add\n      0x00\n      swap1\n      swap2\n      swap1\n      swap2\n      swap1\n      swap2\n      0x0100\n      exp\n      dup2\n      sload\n      dup2\n      0xffffffffffffffffffffffffffffffffffffffff\n      mul\n      not\n      and\n      swap1\n      dup4\n      0xffffffffffffffffffffffffffffffffffffffff\n      and\n      mul\n      or\n      swap1\n      sstore\n      pop\n        /* \"contracts/CrowdFunding.sol\":3140:3148  campaign */\n      dup2\n        /* \"contracts/CrowdFunding.sol\":3140:3168  campaign.contributionAmounts */\n      0x0b\n      add\n        /* \"contracts/CrowdFunding.sol\":3174:3183  msg.value */\n      callvalue\n        /* \"contracts/CrowdFunding.sol\":3140:3184  campaign.contributionAmounts.push(msg.value) */\n      swap1\n      dup1\n      0x01\n      dup2\n      sload\n      add\n      dup1\n      dup3\n      sstore\n      dup1\n      swap2\n      pop\n      pop\n      0x01\n      swap1\n      sub\n      swap1\n      0x00\n      mstore\n      keccak256(0x00, 0x20)\n      add\n      0x00\n      swap1\n      swap2\n      swap1\n      swap2\n      swap1\n      swap2\n      pop\n      sstore\n        /* \"contracts/CrowdFunding.sol\":3219:3229  campaignId */\n      dup3\n        /* \"contracts/CrowdFunding.sol\":3202:3253  ContributionMade(campaignId, msg.sender, msg.value) */\n      0x0a4a91237423e0a1766a761c7cb029311d8b95d6b1b81db1b949a70c98b4e08e\n        /* \"contracts/CrowdFunding.sol\":3231:3241  msg.sender */\n      caller\n        /* \"contracts/CrowdFunding.sol\":3243:3252  msg.value */\n      callvalue\n        /* \"contracts/CrowdFunding.sol\":3202:3253  ContributionMade(campaignId, msg.sender, msg.value) */\n      mload(0x40)\n      tag_228\n      swap3\n      swap2\n      swap1\n      tag_229\n      jump\t// in\n    tag_228:\n      mload(0x40)\n      dup1\n      swap2\n      sub\n      swap1\n      log2\n        /* \"contracts/CrowdFunding.sol\":2336:3261  {... */\n      pop\n      pop\n        /* \"contracts/CrowdFunding.sol\":371:376  false */\n      0x00\n        /* \"contracts/CrowdFunding.sol\":362:368  locked */\n      0x02\n      0x00\n        /* \"contracts/CrowdFunding.sol\":362:376  locked = false */\n      0x0100\n      exp\n      dup2\n      sload\n      dup2\n      0xff\n      mul\n      not\n      and\n      swap1\n      dup4\n      iszero\n      iszero\n      mul\n      or\n      swap1\n      sstore\n      pop\n        /* \"contracts/CrowdFunding.sol\":2271:3261  function contribute(uint campaignId) public payable nonReentrant {... */\n      pop\n      jump\t// out\n        /* \"contracts/CrowdFunding.sol\":4228:5159  function getCampaignDetails (uint campaignId) public view returns (... */\n    tag_48:\n        /* \"contracts/CrowdFunding.sol\":4305:4312  uint id */\n      0x00\n        /* \"contracts/CrowdFunding.sol\":4323:4346  address campaignCreator */\n      dup1\n        /* \"contracts/CrowdFunding.sol\":4357:4376  string memory title */\n      0x60\n        /* \"contracts/CrowdFunding.sol\":4387:4412  string memory description */\n      dup1\n        /* \"contracts/CrowdFunding.sol\":4423:4445  string memory imageURI */\n      0x60\n        /* \"contracts/CrowdFunding.sol\":4456:4465  uint goal */\n      0x00\n        /* \"contracts/CrowdFunding.sol\":4476:4489  uint startsAt */\n      dup1\n        /* \"contracts/CrowdFunding.sol\":4500:4511  uint endsAt */\n      0x00\n        /* \"contracts/CrowdFunding.sol\":4522:4535  STATUS status */\n      dup1\n        /* \"contracts/CrowdFunding.sol\":4546:4569  uint totalContributions */\n      0x00\n        /* \"contracts/CrowdFunding.sol\":4580:4609  address[] memory contributors */\n      0x60\n        /* \"contracts/CrowdFunding.sol\":4620:4653  uint[] memory contributionAmounts */\n      dup1\n        /* \"contracts/CrowdFunding.sol\":4672:4696  Campaign memory campaign */\n      0x00\n        /* \"contracts/CrowdFunding.sol\":4699:4708  campaigns */\n      0x01\n        /* \"contracts/CrowdFunding.sol\":4709:4719  campaignId */\n      dup15\n        /* \"contracts/CrowdFunding.sol\":4699:4720  campaigns[campaignId] */\n      dup2\n      sload\n      dup2\n      lt\n      tag_231\n      jumpi\n      tag_232\n      tag_72\n      jump\t// in\n    tag_232:\n    tag_231:\n      swap1\n      0x00\n      mstore\n      keccak256(0x00, 0x20)\n      swap1\n      0x0c\n      mul\n      add\n        /* \"contracts/CrowdFunding.sol\":4672:4720  Campaign memory campaign = campaigns[campaignId] */\n      mload(0x40)\n      dup1\n      0x0180\n      add\n      0x40\n      mstore\n      swap1\n      dup2\n      0x00\n      dup3\n      add\n      sload\n      dup2\n      mstore\n      0x20\n      add\n      0x01\n      dup3\n      add\n      0x00\n      swap1\n      sload\n      swap1\n      0x0100\n      exp\n      swap1\n      div\n      0xffffffffffffffffffffffffffffffffffffffff\n      and\n      0xffffffffffffffffffffffffffffffffffffffff\n      and\n      0xffffffffffffffffffffffffffffffffffffffff\n      and\n      dup2\n      mstore\n      0x20\n      add\n      0x02\n      dup3\n      add\n      dup1\n      sload\n      tag_234\n      swap1\n      tag_54\n      jump\t// in\n    tag_234:\n      dup1\n      0x1f\n      add\n      0x20\n      dup1\n      swap2\n      div\n      mul\n      0x20\n      add\n      mload(0x40)\n      swap1\n      dup2\n      add\n      0x40\n      mstore\n      dup1\n      swap3\n      swap2\n      swap1\n      dup2\n      dup2\n      mstore\n      0x20\n      add\n      dup3\n      dup1\n      sload\n      tag_235\n      swap1\n      tag_54\n      jump\t// in\n    tag_235:\n      dup1\n      iszero\n      tag_236\n      jumpi\n      dup1\n      0x1f\n      lt\n      tag_237\n      jumpi\n      0x0100\n      dup1\n      dup4\n      sload\n      div\n      mul\n      dup4\n      mstore\n      swap2\n      0x20\n      add\n      swap2\n      jump(tag_236)\n    tag_237:\n      dup3\n      add\n      swap2\n      swap1\n      0x00\n      mstore\n      keccak256(0x00, 0x20)\n      swap1\n    tag_238:\n      dup2\n      sload\n      dup2\n      mstore\n      swap1\n      0x01\n      add\n      swap1\n      0x20\n      add\n      dup1\n      dup4\n      gt\n      tag_238\n      jumpi\n      dup3\n      swap1\n      sub\n      0x1f\n      and\n      dup3\n      add\n      swap2\n    tag_236:\n      pop\n      pop\n      pop\n      pop\n      pop\n      dup2\n      mstore\n      0x20\n      add\n      0x03\n      dup3\n      add\n      dup1\n      sload\n      tag_239\n      swap1\n      tag_54\n      jump\t// in\n    tag_239:\n      dup1\n      0x1f\n      add\n      0x20\n      dup1\n      swap2\n      div\n      mul\n      0x20\n      add\n      mload(0x40)\n      swap1\n      dup2\n      add\n      0x40\n      mstore\n      dup1\n      swap3\n      swap2\n      swap1\n      dup2\n      dup2\n      mstore\n      0x20\n      add\n      dup3\n      dup1\n      sload\n      tag_240\n      swap1\n      tag_54\n      jump\t// in\n    tag_240:\n      dup1\n      iszero\n      tag_241\n      jumpi\n      dup1\n      0x1f\n      lt\n      tag_242\n      jumpi\n      0x0100\n      dup1\n      dup4\n      sload\n      div\n      mul\n      dup4\n      mstore\n      swap2\n      0x20\n      add\n      swap2\n      jump(tag_241)\n    tag_242:\n      dup3\n      add\n      swap2\n      swap1\n      0x00\n      mstore\n      keccak256(0x00, 0x20)\n      swap1\n    tag_243:\n      dup2\n      sload\n      dup2\n      mstore\n      swap1\n      0x01\n      add\n      swap1\n      0x20\n      add\n      dup1\n      dup4\n      gt\n      tag_243\n      jumpi\n      dup3\n      swap1\n      sub\n      0x1f\n      and\n      dup3\n      add\n      swap2\n    tag_241:\n      pop\n      pop\n      pop\n      pop\n      pop\n      dup2\n      mstore\n      0x20\n      add\n      0x04\n      dup3\n      add\n      dup1\n      sload\n      tag_244\n      swap1\n      tag_54\n      jump\t// in\n    tag_244:\n      dup1\n      0x1f\n      add\n      0x20\n      dup1\n      swap2\n      div\n      mul\n      0x20\n      add\n      mload(0x40)\n      swap1\n      dup2\n      add\n      0x40\n      mstore\n      dup1\n      swap3\n      swap2\n      swap1\n      dup2\n      dup2\n      mstore\n      0x20\n      add\n      dup3\n      dup1\n      sload\n      tag_245\n      swap1\n      tag_54\n      jump\t// in\n    tag_245:\n      dup1\n      iszero\n      tag_246\n      jumpi\n      dup1\n      0x1f\n      lt\n      tag_247\n      jumpi\n      0x0100\n      dup1\n      dup4\n      sload\n      div\n      mul\n      dup4\n      mstore\n      swap2\n      0x20\n      add\n      swap2\n      jump(tag_246)\n    tag_247:\n      dup3\n      add\n      swap2\n      swap1\n      0x00\n      mstore\n      keccak256(0x00, 0x20)\n      swap1\n    tag_248:\n      dup2\n      sload\n      dup2\n      mstore\n      swap1\n      0x01\n      add\n      swap1\n      0x20\n      add\n      dup1\n      dup4\n      gt\n      tag_248\n      jumpi\n      dup3\n      swap1\n      sub\n      0x1f\n      and\n      dup3\n      add\n      swap2\n    tag_246:\n      pop\n      pop\n      pop\n      pop\n      pop\n      dup2\n      mstore\n      0x20\n      add\n      0x05\n      dup3\n      add\n      sload\n      dup2\n      mstore\n      0x20\n      add\n      0x06\n      dup3\n      add\n      sload\n      dup2\n      mstore\n      0x20\n      add\n      0x07\n      dup3\n      add\n      sload\n      dup2\n      mstore\n      0x20\n      add\n      0x08\n      dup3\n      add\n      0x00\n      swap1\n      sload\n      swap1\n      0x0100\n      exp\n      swap1\n      div\n      0xff\n      and\n      0x03\n      dup2\n      gt\n      iszero\n      tag_249\n      jumpi\n      tag_250\n      tag_79\n      jump\t// in\n    tag_250:\n    tag_249:\n      0x03\n      dup2\n      gt\n      iszero\n      tag_251\n      jumpi\n      tag_252\n      tag_79\n      jump\t// in\n    tag_252:\n    tag_251:\n      dup2\n      mstore\n      0x20\n      add\n      0x09\n      dup3\n      add\n      sload\n      dup2\n      mstore\n      0x20\n      add\n      0x0a\n      dup3\n      add\n      dup1\n      sload\n      dup1\n      0x20\n      mul\n      0x20\n      add\n      mload(0x40)\n      swap1\n      dup2\n      add\n      0x40\n      mstore\n      dup1\n      swap3\n      swap2\n      swap1\n      dup2\n      dup2\n      mstore\n      0x20\n      add\n      dup3\n      dup1\n      sload\n      dup1\n      iszero\n      tag_253\n      jumpi\n      0x20\n      mul\n      dup3\n      add\n      swap2\n      swap1\n      0x00\n      mstore\n      keccak256(0x00, 0x20)\n      swap1\n    tag_254:\n      dup2\n      0x00\n      swap1\n      sload\n      swap1\n      0x0100\n      exp\n      swap1\n      div\n      0xffffffffffffffffffffffffffffffffffffffff\n      and\n      0xffffffffffffffffffffffffffffffffffffffff\n      and\n      dup2\n      mstore\n      0x20\n      add\n      swap1\n      0x01\n      add\n      swap1\n      dup1\n      dup4\n      gt\n      tag_254\n      jumpi\n    tag_253:\n      pop\n      pop\n      pop\n      pop\n      pop\n      dup2\n      mstore\n      0x20\n      add\n      0x0b\n      dup3\n      add\n      dup1\n      sload\n      dup1\n      0x20\n      mul\n      0x20\n      add\n      mload(0x40)\n      swap1\n      dup2\n      add\n      0x40\n      mstore\n      dup1\n      swap3\n      swap2\n      swap1\n      dup2\n      dup2\n      mstore\n      0x20\n      add\n      dup3\n      dup1\n      sload\n      dup1\n      iszero\n      tag_255\n      jumpi\n      0x20\n      mul\n      dup3\n      add\n      swap2\n      swap1\n      0x00\n      mstore\n      keccak256(0x00, 0x20)\n      swap1\n    tag_256:\n      dup2\n      sload\n      dup2\n      mstore\n      0x20\n      add\n      swap1\n      0x01\n      add\n      swap1\n      dup1\n      dup4\n      gt\n      tag_256\n      jumpi\n    tag_255:\n      pop\n      pop\n      pop\n      pop\n      pop\n      dup2\n      mstore\n      pop\n      pop\n      swap1\n      pop\n        /* \"contracts/CrowdFunding.sol\":4753:4761  campaign */\n      dup1\n        /* \"contracts/CrowdFunding.sol\":4753:4764  campaign.id */\n      0x00\n      add\n      mload\n        /* \"contracts/CrowdFunding.sol\":4779:4787  campaign */\n      dup2\n        /* \"contracts/CrowdFunding.sol\":4779:4803  campaign.campaignCreator */\n      0x20\n      add\n      mload\n        /* \"contracts/CrowdFunding.sol\":4818:4826  campaign */\n      dup3\n        /* \"contracts/CrowdFunding.sol\":4818:4832  campaign.title */\n      0x40\n      add\n      mload\n        /* \"contracts/CrowdFunding.sol\":4847:4855  campaign */\n      dup4\n        /* \"contracts/CrowdFunding.sol\":4847:4867  campaign.description */\n      0x60\n      add\n      mload\n        /* \"contracts/CrowdFunding.sol\":4882:4890  campaign */\n      dup5\n        /* \"contracts/CrowdFunding.sol\":4882:4899  campaign.imageURI */\n      0x80\n      add\n      mload\n        /* \"contracts/CrowdFunding.sol\":4914:4922  campaign */\n      dup6\n        /* \"contracts/CrowdFunding.sol\":4914:4927  campaign.goal */\n      0xa0\n      add\n      mload\n        /* \"contracts/CrowdFunding.sol\":4942:4950  campaign */\n      dup7\n        /* \"contracts/CrowdFunding.sol\":4942:4959  campaign.startsAt */\n      0xc0\n      add\n      mload\n        /* \"contracts/CrowdFunding.sol\":4974:4982  campaign */\n      dup8\n        /* \"contracts/CrowdFunding.sol\":4974:4989  campaign.endsAt */\n      0xe0\n      add\n      mload\n        /* \"contracts/CrowdFunding.sol\":5004:5012  campaign */\n      dup9\n        /* \"contracts/CrowdFunding.sol\":5004:5019  campaign.status */\n      0x0100\n      add\n      mload\n        /* \"contracts/CrowdFunding.sol\":5034:5042  campaign */\n      dup10\n        /* \"contracts/CrowdFunding.sol\":5034:5061  campaign.totalContributions */\n      0x0120\n      add\n      mload\n        /* \"contracts/CrowdFunding.sol\":5076:5084  campaign */\n      dup11\n        /* \"contracts/CrowdFunding.sol\":5076:5097  campaign.contributors */\n      0x0140\n      add\n      mload\n        /* \"contracts/CrowdFunding.sol\":5112:5120  campaign */\n      dup12\n        /* \"contracts/CrowdFunding.sol\":5112:5140  campaign.contributionAmounts */\n      0x0160\n      add\n      mload\n        /* \"contracts/CrowdFunding.sol\":4731:5151  return (... */\n      swap13\n      pop\n      swap13\n      pop\n      swap13\n      pop\n      swap13\n      pop\n      swap13\n      pop\n      swap13\n      pop\n      swap13\n      pop\n      swap13\n      pop\n      swap13\n      pop\n      swap13\n      pop\n      swap13\n      pop\n      swap13\n      pop\n      pop\n        /* \"contracts/CrowdFunding.sol\":4228:5159  function getCampaignDetails (uint campaignId) public view returns (... */\n      swap2\n      swap4\n      swap6\n      swap8\n      swap10\n      swap12\n      pop\n      swap2\n      swap4\n      swap6\n      swap8\n      swap10\n      swap12\n      jump\t// out\n        /* \"contracts/CrowdFunding.sol\":3653:4110  function refund (uint campaignId) internal {... */\n    tag_76:\n        /* \"contracts/CrowdFunding.sol\":3707:3732  Campaign storage campaign */\n      0x00\n        /* \"contracts/CrowdFunding.sol\":3735:3744  campaigns */\n      0x01\n        /* \"contracts/CrowdFunding.sol\":3745:3755  campaignId */\n      dup3\n        /* \"contracts/CrowdFunding.sol\":3735:3756  campaigns[campaignId] */\n      dup2\n      sload\n      dup2\n      lt\n      tag_258\n      jumpi\n      tag_259\n      tag_72\n      jump\t// in\n    tag_259:\n    tag_258:\n      swap1\n      0x00\n      mstore\n      keccak256(0x00, 0x20)\n      swap1\n      0x0c\n      mul\n      add\n        /* \"contracts/CrowdFunding.sol\":3707:3756  Campaign storage campaign = campaigns[campaignId] */\n      swap1\n      pop\n        /* \"contracts/CrowdFunding.sol\":3774:3780  uint i */\n      0x00\n        /* \"contracts/CrowdFunding.sol\":3769:4103  for (uint i = 0; i < campaign.contributors.length; i++) {... */\n    tag_261:\n        /* \"contracts/CrowdFunding.sol\":3790:3798  campaign */\n      dup2\n        /* \"contracts/CrowdFunding.sol\":3790:3811  campaign.contributors */\n      0x0a\n      add\n        /* \"contracts/CrowdFunding.sol\":3790:3818  campaign.contributors.length */\n      dup1\n      sload\n      swap1\n      pop\n        /* \"contracts/CrowdFunding.sol\":3786:3787  i */\n      dup2\n        /* \"contracts/CrowdFunding.sol\":3786:3818  i < campaign.contributors.length */\n      lt\n        /* \"contracts/CrowdFunding.sol\":3769:4103  for (uint i = 0; i < campaign.contributors.length; i++) {... */\n      iszero\n      tag_262\n      jumpi\n        /* \"contracts/CrowdFunding.sol\":3840:3859  address contributor */\n      0x00\n        /* \"contracts/CrowdFunding.sol\":3862:3870  campaign */\n      dup3\n        /* \"contracts/CrowdFunding.sol\":3862:3883  campaign.contributors */\n      0x0a\n      add\n        /* \"contracts/CrowdFunding.sol\":3884:3885  i */\n      dup3\n        /* \"contracts/CrowdFunding.sol\":3862:3886  campaign.contributors[i] */\n      dup2\n      sload\n      dup2\n      lt\n      tag_264\n      jumpi\n      tag_265\n      tag_72\n      jump\t// in\n    tag_265:\n    tag_264:\n      swap1\n      0x00\n      mstore\n      keccak256(0x00, 0x20)\n      add\n      0x00\n      swap1\n      sload\n      swap1\n      0x0100\n      exp\n      swap1\n      div\n      0xffffffffffffffffffffffffffffffffffffffff\n      and\n        /* \"contracts/CrowdFunding.sol\":3840:3886  address contributor = campaign.contributors[i] */\n      swap1\n      pop\n        /* \"contracts/CrowdFunding.sol\":3901:3924  uint contributionAmount */\n      0x00\n        /* \"contracts/CrowdFunding.sol\":3927:3935  campaign */\n      dup4\n        /* \"contracts/CrowdFunding.sol\":3927:3955  campaign.contributionAmounts */\n      0x0b\n      add\n        /* \"contracts/CrowdFunding.sol\":3956:3957  i */\n      dup4\n        /* \"contracts/CrowdFunding.sol\":3927:3958  campaign.contributionAmounts[i] */\n      dup2\n      sload\n      dup2\n      lt\n      tag_267\n      jumpi\n      tag_268\n      tag_72\n      jump\t// in\n    tag_268:\n    tag_267:\n      swap1\n      0x00\n      mstore\n      keccak256(0x00, 0x20)\n      add\n      sload\n        /* \"contracts/CrowdFunding.sol\":3901:3958  uint contributionAmount = campaign.contributionAmounts[i] */\n      swap1\n      pop\n        /* \"contracts/CrowdFunding.sol\":3984:3995  contributor */\n      dup2\n        /* \"contracts/CrowdFunding.sol\":3975:4005  payable (contributor).transfer */\n      0xffffffffffffffffffffffffffffffffffffffff\n      and\n        /* \"contracts/CrowdFunding.sol\":3975:4025  payable (contributor).transfer(contributionAmount) */\n      0x08fc\n        /* \"contracts/CrowdFunding.sol\":4006:4024  contributionAmount */\n      dup3\n        /* \"contracts/CrowdFunding.sol\":3975:4025  payable (contributor).transfer(contributionAmount) */\n      swap1\n      dup2\n      iszero\n      mul\n      swap1\n      mload(0x40)\n      0x00\n      mload(0x40)\n      dup1\n      dup4\n      sub\n      dup2\n      dup6\n      dup9\n      dup9\n      call\n      swap4\n      pop\n      pop\n      pop\n      pop\n      iszero\n      dup1\n      iszero\n      tag_271\n      jumpi\n      returndatasize\n      0x00\n      dup1\n      returndatacopy\n      revert(0x00, returndatasize)\n    tag_271:\n      pop\n        /* \"contracts/CrowdFunding.sol\":4073:4091  contributionAmount */\n      dup1\n        /* \"contracts/CrowdFunding.sol\":4042:4050  campaign */\n      dup5\n        /* \"contracts/CrowdFunding.sol\":4042:4069  campaign.totalContributions */\n      0x09\n      add\n      0x00\n        /* \"contracts/CrowdFunding.sol\":4042:4091  campaign.totalContributions -= contributionAmount */\n      dup3\n      dup3\n      sload\n      tag_272\n      swap2\n      swap1\n      tag_152\n      jump\t// in\n    tag_272:\n      swap3\n      pop\n      pop\n      dup2\n      swap1\n      sstore\n      pop\n        /* \"contracts/CrowdFunding.sol\":3825:4103  {... */\n      pop\n      pop\n        /* \"contracts/CrowdFunding.sol\":3820:3823  i++ */\n      dup1\n      dup1\n      0x01\n      add\n      swap2\n      pop\n      pop\n        /* \"contracts/CrowdFunding.sol\":3769:4103  for (uint i = 0; i < campaign.contributors.length; i++) {... */\n      jump(tag_261)\n    tag_262:\n      pop\n        /* \"contracts/CrowdFunding.sol\":3696:4110  {... */\n      pop\n        /* \"contracts/CrowdFunding.sol\":3653:4110  function refund (uint campaignId) internal {... */\n      pop\n      jump\t// out\n    tag_148:\n      dup3\n      dup1\n      sload\n      dup3\n      dup3\n      sstore\n      swap1\n      0x00\n      mstore\n      keccak256(0x00, 0x20)\n      swap1\n      dup2\n      add\n      swap3\n      dup3\n      iszero\n      tag_273\n      jumpi\n      swap2\n      0x20\n      mul\n      dup3\n      add\n    tag_274:\n      dup3\n      dup2\n      gt\n      iszero\n      tag_275\n      jumpi\n      dup3\n      mload\n      dup3\n      exp(0x0100, 0x00)\n      dup2\n      sload\n      dup2\n      0xffffffffffffffffffffffffffffffffffffffff\n      mul\n      not\n      and\n      swap1\n      dup4\n      0xffffffffffffffffffffffffffffffffffffffff\n      and\n      mul\n      or\n      swap1\n      sstore\n      pop\n      swap2\n      0x20\n      add\n      swap2\n      swap1\n      0x01\n      add\n      swap1\n      jump(tag_274)\n    tag_275:\n    tag_273:\n      pop\n      swap1\n      pop\n      tag_276\n      swap2\n      swap1\n      tag_277\n      jump\t// in\n    tag_276:\n      pop\n      swap1\n      jump\t// out\n    tag_150:\n      dup3\n      dup1\n      sload\n      dup3\n      dup3\n      sstore\n      swap1\n      0x00\n      mstore\n      keccak256(0x00, 0x20)\n      swap1\n      dup2\n      add\n      swap3\n      dup3\n      iszero\n      tag_278\n      jumpi\n      swap2\n      0x20\n      mul\n      dup3\n      add\n    tag_279:\n      dup3\n      dup2\n      gt\n      iszero\n      tag_280\n      jumpi\n      dup3\n      mload\n      dup3\n      sstore\n      swap2\n      0x20\n      add\n      swap2\n      swap1\n      0x01\n      add\n      swap1\n      jump(tag_279)\n    tag_280:\n    tag_278:\n      pop\n      swap1\n      pop\n      tag_281\n      swap2\n      swap1\n      tag_277\n      jump\t// in\n    tag_281:\n      pop\n      swap1\n      jump\t// out\n    tag_168:\n      mload(0x40)\n      dup1\n      0x0180\n      add\n      0x40\n      mstore\n      dup1\n      0x00\n      dup2\n      mstore\n      0x20\n      add\n      and(0xffffffffffffffffffffffffffffffffffffffff, 0x00)\n      dup2\n      mstore\n      0x20\n      add\n      0x60\n      dup2\n      mstore\n      0x20\n      add\n      0x60\n      dup2\n      mstore\n      0x20\n      add\n      0x60\n      dup2\n      mstore\n      0x20\n      add\n      0x00\n      dup2\n      mstore\n      0x20\n      add\n      0x00\n      dup2\n      mstore\n      0x20\n      add\n      0x00\n      dup2\n      mstore\n      0x20\n      add\n      0x00\n      0x03\n      dup2\n      gt\n      iszero\n      tag_282\n      jumpi\n      tag_283\n      tag_79\n      jump\t// in\n    tag_283:\n    tag_282:\n      dup2\n      mstore\n      0x20\n      add\n      0x00\n      dup2\n      mstore\n      0x20\n      add\n      0x60\n      dup2\n      mstore\n      0x20\n      add\n      0x60\n      dup2\n      mstore\n      pop\n      swap1\n      jump\t// out\n    tag_277:\n    tag_284:\n      dup1\n      dup3\n      gt\n      iszero\n      tag_285\n      jumpi\n      0x00\n      dup2\n      0x00\n      swap1\n      sstore\n      pop\n      0x01\n      add\n      jump(tag_284)\n    tag_285:\n      pop\n      swap1\n      jump\t// out\n        /* \"#utility.yul\":7:82   */\n    tag_286:\n        /* \"#utility.yul\":40:46   */\n      0x00\n        /* \"#utility.yul\":73:75   */\n      0x40\n        /* \"#utility.yul\":67:76   */\n      mload\n        /* \"#utility.yul\":57:76   */\n      swap1\n      pop\n        /* \"#utility.yul\":7:82   */\n      swap1\n      jump\t// out\n        /* \"#utility.yul\":88:205   */\n    tag_287:\n        /* \"#utility.yul\":197:198   */\n      0x00\n        /* \"#utility.yul\":194:195   */\n      dup1\n        /* \"#utility.yul\":187:199   */\n      revert\n        /* \"#utility.yul\":211:328   */\n    tag_288:\n        /* \"#utility.yul\":320:321   */\n      0x00\n        /* \"#utility.yul\":317:318   */\n      dup1\n        /* \"#utility.yul\":310:322   */\n      revert\n        /* \"#utility.yul\":334:411   */\n    tag_289:\n        /* \"#utility.yul\":371:378   */\n      0x00\n        /* \"#utility.yul\":400:405   */\n      dup2\n        /* \"#utility.yul\":389:405   */\n      swap1\n      pop\n        /* \"#utility.yul\":334:411   */\n      swap2\n      swap1\n      pop\n      jump\t// out\n        /* \"#utility.yul\":417:539   */\n    tag_290:\n        /* \"#utility.yul\":490:514   */\n      tag_380\n        /* \"#utility.yul\":508:513   */\n      dup2\n        /* \"#utility.yul\":490:514   */\n      tag_289\n      jump\t// in\n    tag_380:\n        /* \"#utility.yul\":483:488   */\n      dup2\n        /* \"#utility.yul\":480:515   */\n      eq\n        /* \"#utility.yul\":470:533   */\n      tag_381\n      jumpi\n        /* \"#utility.yul\":529:530   */\n      0x00\n        /* \"#utility.yul\":526:527   */\n      dup1\n        /* \"#utility.yul\":519:531   */\n      revert\n        /* \"#utility.yul\":470:533   */\n    tag_381:\n        /* \"#utility.yul\":417:539   */\n      pop\n      jump\t// out\n        /* \"#utility.yul\":545:684   */\n    tag_291:\n        /* \"#utility.yul\":591:596   */\n      0x00\n        /* \"#utility.yul\":629:635   */\n      dup2\n        /* \"#utility.yul\":616:636   */\n      calldataload\n        /* \"#utility.yul\":607:636   */\n      swap1\n      pop\n        /* \"#utility.yul\":645:678   */\n      tag_383\n        /* \"#utility.yul\":672:677   */\n      dup2\n        /* \"#utility.yul\":645:678   */\n      tag_290\n      jump\t// in\n    tag_383:\n        /* \"#utility.yul\":545:684   */\n      swap3\n      swap2\n      pop\n      pop\n      jump\t// out\n        /* \"#utility.yul\":690:1019   */\n    tag_14:\n        /* \"#utility.yul\":749:755   */\n      0x00\n        /* \"#utility.yul\":798:800   */\n      0x20\n        /* \"#utility.yul\":786:795   */\n      dup3\n        /* \"#utility.yul\":777:784   */\n      dup5\n        /* \"#utility.yul\":773:796   */\n      sub\n        /* \"#utility.yul\":769:801   */\n      slt\n        /* \"#utility.yul\":766:885   */\n      iszero\n      tag_385\n      jumpi\n        /* \"#utility.yul\":804:883   */\n      tag_386\n      tag_287\n      jump\t// in\n    tag_386:\n        /* \"#utility.yul\":766:885   */\n    tag_385:\n        /* \"#utility.yul\":924:925   */\n      0x00\n        /* \"#utility.yul\":949:1002   */\n      tag_387\n        /* \"#utility.yul\":994:1001   */\n      dup5\n        /* \"#utility.yul\":985:991   */\n      dup3\n        /* \"#utility.yul\":974:983   */\n      dup6\n        /* \"#utility.yul\":970:992   */\n      add\n        /* \"#utility.yul\":949:1002   */\n      tag_291\n      jump\t// in\n    tag_387:\n        /* \"#utility.yul\":939:1002   */\n      swap2\n      pop\n        /* \"#utility.yul\":895:1012   */\n      pop\n        /* \"#utility.yul\":690:1019   */\n      swap3\n      swap2\n      pop\n      pop\n      jump\t// out\n        /* \"#utility.yul\":1025:1143   */\n    tag_292:\n        /* \"#utility.yul\":1112:1136   */\n      tag_389\n        /* \"#utility.yul\":1130:1135   */\n      dup2\n        /* \"#utility.yul\":1112:1136   */\n      tag_289\n      jump\t// in\n    tag_389:\n        /* \"#utility.yul\":1107:1110   */\n      dup3\n        /* \"#utility.yul\":1100:1137   */\n      mstore\n        /* \"#utility.yul\":1025:1143   */\n      pop\n      pop\n      jump\t// out\n        /* \"#utility.yul\":1149:1275   */\n    tag_293:\n        /* \"#utility.yul\":1186:1193   */\n      0x00\n        /* \"#utility.yul\":1226:1268   */\n      0xffffffffffffffffffffffffffffffffffffffff\n        /* \"#utility.yul\":1219:1224   */\n      dup3\n        /* \"#utility.yul\":1215:1269   */\n      and\n        /* \"#utility.yul\":1204:1269   */\n      swap1\n      pop\n        /* \"#utility.yul\":1149:1275   */\n      swap2\n      swap1\n      pop\n      jump\t// out\n        /* \"#utility.yul\":1281:1377   */\n    tag_294:\n        /* \"#utility.yul\":1318:1325   */\n      0x00\n        /* \"#utility.yul\":1347:1371   */\n      tag_392\n        /* \"#utility.yul\":1365:1370   */\n      dup3\n        /* \"#utility.yul\":1347:1371   */\n      tag_293\n      jump\t// in\n    tag_392:\n        /* \"#utility.yul\":1336:1371   */\n      swap1\n      pop\n        /* \"#utility.yul\":1281:1377   */\n      swap2\n      swap1\n      pop\n      jump\t// out\n        /* \"#utility.yul\":1383:1501   */\n    tag_295:\n        /* \"#utility.yul\":1470:1494   */\n      tag_394\n        /* \"#utility.yul\":1488:1493   */\n      dup2\n        /* \"#utility.yul\":1470:1494   */\n      tag_294\n      jump\t// in\n    tag_394:\n        /* \"#utility.yul\":1465:1468   */\n      dup3\n        /* \"#utility.yul\":1458:1495   */\n      mstore\n        /* \"#utility.yul\":1383:1501   */\n      pop\n      pop\n      jump\t// out\n        /* \"#utility.yul\":1507:1606   */\n    tag_296:\n        /* \"#utility.yul\":1559:1565   */\n      0x00\n        /* \"#utility.yul\":1593:1598   */\n      dup2\n        /* \"#utility.yul\":1587:1599   */\n      mload\n        /* \"#utility.yul\":1577:1599   */\n      swap1\n      pop\n        /* \"#utility.yul\":1507:1606   */\n      swap2\n      swap1\n      pop\n      jump\t// out\n        /* \"#utility.yul\":1612:1781   */\n    tag_297:\n        /* \"#utility.yul\":1696:1707   */\n      0x00\n        /* \"#utility.yul\":1730:1736   */\n      dup3\n        /* \"#utility.yul\":1725:1728   */\n      dup3\n        /* \"#utility.yul\":1718:1737   */\n      mstore\n        /* \"#utility.yul\":1770:1774   */\n      0x20\n        /* \"#utility.yul\":1765:1768   */\n      dup3\n        /* \"#utility.yul\":1761:1775   */\n      add\n        /* \"#utility.yul\":1746:1775   */\n      swap1\n      pop\n        /* \"#utility.yul\":1612:1781   */\n      swap3\n      swap2\n      pop\n      pop\n      jump\t// out\n        /* \"#utility.yul\":1787:1926   */\n    tag_298:\n        /* \"#utility.yul\":1876:1882   */\n      dup3\n        /* \"#utility.yul\":1871:1874   */\n      dup2\n        /* \"#utility.yul\":1866:1869   */\n      dup4\n        /* \"#utility.yul\":1860:1883   */\n      mcopy\n        /* \"#utility.yul\":1917:1918   */\n      0x00\n        /* \"#utility.yul\":1908:1914   */\n      dup4\n        /* \"#utility.yul\":1903:1906   */\n      dup4\n        /* \"#utility.yul\":1899:1915   */\n      add\n        /* \"#utility.yul\":1892:1919   */\n      mstore\n        /* \"#utility.yul\":1787:1926   */\n      pop\n      pop\n      pop\n      jump\t// out\n        /* \"#utility.yul\":1932:2034   */\n    tag_299:\n        /* \"#utility.yul\":1973:1979   */\n      0x00\n        /* \"#utility.yul\":2024:2026   */\n      0x1f\n        /* \"#utility.yul\":2020:2027   */\n      not\n        /* \"#utility.yul\":2015:2017   */\n      0x1f\n        /* \"#utility.yul\":2008:2013   */\n      dup4\n        /* \"#utility.yul\":2004:2018   */\n      add\n        /* \"#utility.yul\":2000:2028   */\n      and\n        /* \"#utility.yul\":1990:2028   */\n      swap1\n      pop\n        /* \"#utility.yul\":1932:2034   */\n      swap2\n      swap1\n      pop\n      jump\t// out\n        /* \"#utility.yul\":2040:2417   */\n    tag_300:\n        /* \"#utility.yul\":2128:2131   */\n      0x00\n        /* \"#utility.yul\":2156:2195   */\n      tag_400\n        /* \"#utility.yul\":2189:2194   */\n      dup3\n        /* \"#utility.yul\":2156:2195   */\n      tag_296\n      jump\t// in\n    tag_400:\n        /* \"#utility.yul\":2211:2282   */\n      tag_401\n        /* \"#utility.yul\":2275:2281   */\n      dup2\n        /* \"#utility.yul\":2270:2273   */\n      dup6\n        /* \"#utility.yul\":2211:2282   */\n      tag_297\n      jump\t// in\n    tag_401:\n        /* \"#utility.yul\":2204:2282   */\n      swap4\n      pop\n        /* \"#utility.yul\":2291:2356   */\n      tag_402\n        /* \"#utility.yul\":2349:2355   */\n      dup2\n        /* \"#utility.yul\":2344:2347   */\n      dup6\n        /* \"#utility.yul\":2337:2341   */\n      0x20\n        /* \"#utility.yul\":2330:2335   */\n      dup7\n        /* \"#utility.yul\":2326:2342   */\n      add\n        /* \"#utility.yul\":2291:2356   */\n      tag_298\n      jump\t// in\n    tag_402:\n        /* \"#utility.yul\":2381:2410   */\n      tag_403\n        /* \"#utility.yul\":2403:2409   */\n      dup2\n        /* \"#utility.yul\":2381:2410   */\n      tag_299\n      jump\t// in\n    tag_403:\n        /* \"#utility.yul\":2376:2379   */\n      dup5\n        /* \"#utility.yul\":2372:2411   */\n      add\n        /* \"#utility.yul\":2365:2411   */\n      swap2\n      pop\n        /* \"#utility.yul\":2132:2417   */\n      pop\n        /* \"#utility.yul\":2040:2417   */\n      swap3\n      swap2\n      pop\n      pop\n      jump\t// out\n        /* \"#utility.yul\":2423:2603   */\n    tag_79:\n        /* \"#utility.yul\":2471:2548   */\n      0x4e487b7100000000000000000000000000000000000000000000000000000000\n        /* \"#utility.yul\":2468:2469   */\n      0x00\n        /* \"#utility.yul\":2461:2549   */\n      mstore\n        /* \"#utility.yul\":2568:2572   */\n      0x21\n        /* \"#utility.yul\":2565:2566   */\n      0x04\n        /* \"#utility.yul\":2558:2573   */\n      mstore\n        /* \"#utility.yul\":2592:2596   */\n      0x24\n        /* \"#utility.yul\":2589:2590   */\n      0x00\n        /* \"#utility.yul\":2582:2597   */\n      revert\n        /* \"#utility.yul\":2609:2723   */\n    tag_301:\n        /* \"#utility.yul\":2691:2692   */\n      0x04\n        /* \"#utility.yul\":2684:2689   */\n      dup2\n        /* \"#utility.yul\":2681:2693   */\n      lt\n        /* \"#utility.yul\":2671:2717   */\n      tag_406\n      jumpi\n        /* \"#utility.yul\":2697:2715   */\n      tag_407\n      tag_79\n      jump\t// in\n    tag_407:\n        /* \"#utility.yul\":2671:2717   */\n    tag_406:\n        /* \"#utility.yul\":2609:2723   */\n      pop\n      jump\t// out\n        /* \"#utility.yul\":2729:2858   */\n    tag_302:\n        /* \"#utility.yul\":2775:2782   */\n      0x00\n        /* \"#utility.yul\":2804:2809   */\n      dup2\n        /* \"#utility.yul\":2793:2809   */\n      swap1\n      pop\n        /* \"#utility.yul\":2810:2852   */\n      tag_409\n        /* \"#utility.yul\":2846:2851   */\n      dup3\n        /* \"#utility.yul\":2810:2852   */\n      tag_301\n      jump\t// in\n    tag_409:\n        /* \"#utility.yul\":2729:2858   */\n      swap2\n      swap1\n      pop\n      jump\t// out\n        /* \"#utility.yul\":2864:2993   */\n    tag_303:\n        /* \"#utility.yul\":2921:2930   */\n      0x00\n        /* \"#utility.yul\":2954:2987   */\n      tag_411\n        /* \"#utility.yul\":2981:2986   */\n      dup3\n        /* \"#utility.yul\":2954:2987   */\n      tag_302\n      jump\t// in\n    tag_411:\n        /* \"#utility.yul\":2941:2987   */\n      swap1\n      pop\n        /* \"#utility.yul\":2864:2993   */\n      swap2\n      swap1\n      pop\n      jump\t// out\n        /* \"#utility.yul\":2999:3144   */\n    tag_304:\n        /* \"#utility.yul\":3093:3137   */\n      tag_413\n        /* \"#utility.yul\":3131:3136   */\n      dup2\n        /* \"#utility.yul\":3093:3137   */\n      tag_303\n      jump\t// in\n    tag_413:\n        /* \"#utility.yul\":3088:3091   */\n      dup3\n        /* \"#utility.yul\":3081:3138   */\n      mstore\n        /* \"#utility.yul\":2999:3144   */\n      pop\n      pop\n      jump\t// out\n        /* \"#utility.yul\":3150:4656   */\n    tag_17:\n        /* \"#utility.yul\":3562:3566   */\n      0x00\n        /* \"#utility.yul\":3600:3603   */\n      0x0140\n        /* \"#utility.yul\":3589:3598   */\n      dup3\n        /* \"#utility.yul\":3585:3604   */\n      add\n        /* \"#utility.yul\":3577:3604   */\n      swap1\n      pop\n        /* \"#utility.yul\":3614:3685   */\n      tag_415\n        /* \"#utility.yul\":3682:3683   */\n      0x00\n        /* \"#utility.yul\":3671:3680   */\n      dup4\n        /* \"#utility.yul\":3667:3684   */\n      add\n        /* \"#utility.yul\":3658:3664   */\n      dup14\n        /* \"#utility.yul\":3614:3685   */\n      tag_292\n      jump\t// in\n    tag_415:\n        /* \"#utility.yul\":3695:3767   */\n      tag_416\n        /* \"#utility.yul\":3763:3765   */\n      0x20\n        /* \"#utility.yul\":3752:3761   */\n      dup4\n        /* \"#utility.yul\":3748:3766   */\n      add\n        /* \"#utility.yul\":3739:3745   */\n      dup13\n        /* \"#utility.yul\":3695:3767   */\n      tag_295\n      jump\t// in\n    tag_416:\n        /* \"#utility.yul\":3814:3823   */\n      dup2\n        /* \"#utility.yul\":3808:3812   */\n      dup2\n        /* \"#utility.yul\":3804:3824   */\n      sub\n        /* \"#utility.yul\":3799:3801   */\n      0x40\n        /* \"#utility.yul\":3788:3797   */\n      dup4\n        /* \"#utility.yul\":3784:3802   */\n      add\n        /* \"#utility.yul\":3777:3825   */\n      mstore\n        /* \"#utility.yul\":3842:3920   */\n      tag_417\n        /* \"#utility.yul\":3915:3919   */\n      dup2\n        /* \"#utility.yul\":3906:3912   */\n      dup12\n        /* \"#utility.yul\":3842:3920   */\n      tag_300\n      jump\t// in\n    tag_417:\n        /* \"#utility.yul\":3834:3920   */\n      swap1\n      pop\n        /* \"#utility.yul\":3967:3976   */\n      dup2\n        /* \"#utility.yul\":3961:3965   */\n      dup2\n        /* \"#utility.yul\":3957:3977   */\n      sub\n        /* \"#utility.yul\":3952:3954   */\n      0x60\n        /* \"#utility.yul\":3941:3950   */\n      dup4\n        /* \"#utility.yul\":3937:3955   */\n      add\n        /* \"#utility.yul\":3930:3978   */\n      mstore\n        /* \"#utility.yul\":3995:4073   */\n      tag_418\n        /* \"#utility.yul\":4068:4072   */\n      dup2\n        /* \"#utility.yul\":4059:4065   */\n      dup11\n        /* \"#utility.yul\":3995:4073   */\n      tag_300\n      jump\t// in\n    tag_418:\n        /* \"#utility.yul\":3987:4073   */\n      swap1\n      pop\n        /* \"#utility.yul\":4121:4130   */\n      dup2\n        /* \"#utility.yul\":4115:4119   */\n      dup2\n        /* \"#utility.yul\":4111:4131   */\n      sub\n        /* \"#utility.yul\":4105:4108   */\n      0x80\n        /* \"#utility.yul\":4094:4103   */\n      dup4\n        /* \"#utility.yul\":4090:4109   */\n      add\n        /* \"#utility.yul\":4083:4132   */\n      mstore\n        /* \"#utility.yul\":4149:4227   */\n      tag_419\n        /* \"#utility.yul\":4222:4226   */\n      dup2\n        /* \"#utility.yul\":4213:4219   */\n      dup10\n        /* \"#utility.yul\":4149:4227   */\n      tag_300\n      jump\t// in\n    tag_419:\n        /* \"#utility.yul\":4141:4227   */\n      swap1\n      pop\n        /* \"#utility.yul\":4237:4310   */\n      tag_420\n        /* \"#utility.yul\":4305:4308   */\n      0xa0\n        /* \"#utility.yul\":4294:4303   */\n      dup4\n        /* \"#utility.yul\":4290:4309   */\n      add\n        /* \"#utility.yul\":4281:4287   */\n      dup9\n        /* \"#utility.yul\":4237:4310   */\n      tag_292\n      jump\t// in\n    tag_420:\n        /* \"#utility.yul\":4320:4393   */\n      tag_421\n        /* \"#utility.yul\":4388:4391   */\n      0xc0\n        /* \"#utility.yul\":4377:4386   */\n      dup4\n        /* \"#utility.yul\":4373:4392   */\n      add\n        /* \"#utility.yul\":4364:4370   */\n      dup8\n        /* \"#utility.yul\":4320:4393   */\n      tag_292\n      jump\t// in\n    tag_421:\n        /* \"#utility.yul\":4403:4476   */\n      tag_422\n        /* \"#utility.yul\":4471:4474   */\n      0xe0\n        /* \"#utility.yul\":4460:4469   */\n      dup4\n        /* \"#utility.yul\":4456:4475   */\n      add\n        /* \"#utility.yul\":4447:4453   */\n      dup7\n        /* \"#utility.yul\":4403:4476   */\n      tag_292\n      jump\t// in\n    tag_422:\n        /* \"#utility.yul\":4486:4566   */\n      tag_423\n        /* \"#utility.yul\":4561:4564   */\n      0x0100\n        /* \"#utility.yul\":4550:4559   */\n      dup4\n        /* \"#utility.yul\":4546:4565   */\n      add\n        /* \"#utility.yul\":4537:4543   */\n      dup6\n        /* \"#utility.yul\":4486:4566   */\n      tag_304\n      jump\t// in\n    tag_423:\n        /* \"#utility.yul\":4576:4649   */\n      tag_424\n        /* \"#utility.yul\":4644:4647   */\n      0x0120\n        /* \"#utility.yul\":4633:4642   */\n      dup4\n        /* \"#utility.yul\":4629:4648   */\n      add\n        /* \"#utility.yul\":4620:4626   */\n      dup5\n        /* \"#utility.yul\":4576:4649   */\n      tag_292\n      jump\t// in\n    tag_424:\n        /* \"#utility.yul\":3150:4656   */\n      swap12\n      swap11\n      pop\n      pop\n      pop\n      pop\n      pop\n      pop\n      pop\n      pop\n      pop\n      pop\n      pop\n      jump\t// out\n        /* \"#utility.yul\":4662:4800   */\n    tag_305:\n        /* \"#utility.yul\":4753:4759   */\n      0x00\n        /* \"#utility.yul\":4787:4792   */\n      dup2\n        /* \"#utility.yul\":4781:4793   */\n      mload\n        /* \"#utility.yul\":4771:4793   */\n      swap1\n      pop\n        /* \"#utility.yul\":4662:4800   */\n      swap2\n      swap1\n      pop\n      jump\t// out\n        /* \"#utility.yul\":4806:5014   */\n    tag_306:\n        /* \"#utility.yul\":4929:4940   */\n      0x00\n        /* \"#utility.yul\":4963:4969   */\n      dup3\n        /* \"#utility.yul\":4958:4961   */\n      dup3\n        /* \"#utility.yul\":4951:4970   */\n      mstore\n        /* \"#utility.yul\":5003:5007   */\n      0x20\n        /* \"#utility.yul\":4998:5001   */\n      dup3\n        /* \"#utility.yul\":4994:5008   */\n      add\n        /* \"#utility.yul\":4979:5008   */\n      swap1\n      pop\n        /* \"#utility.yul\":4806:5014   */\n      swap3\n      swap2\n      pop\n      pop\n      jump\t// out\n        /* \"#utility.yul\":5020:5176   */\n    tag_307:\n        /* \"#utility.yul\":5111:5115   */\n      0x00\n        /* \"#utility.yul\":5134:5137   */\n      dup2\n        /* \"#utility.yul\":5126:5137   */\n      swap1\n      pop\n        /* \"#utility.yul\":5164:5168   */\n      0x20\n        /* \"#utility.yul\":5159:5162   */\n      dup3\n        /* \"#utility.yul\":5155:5169   */\n      add\n        /* \"#utility.yul\":5147:5169   */\n      swap1\n      pop\n        /* \"#utility.yul\":5020:5176   */\n      swap2\n      swap1\n      pop\n      jump\t// out\n        /* \"#utility.yul\":5182:5290   */\n    tag_308:\n        /* \"#utility.yul\":5259:5283   */\n      tag_429\n        /* \"#utility.yul\":5277:5282   */\n      dup2\n        /* \"#utility.yul\":5259:5283   */\n      tag_289\n      jump\t// in\n    tag_429:\n        /* \"#utility.yul\":5254:5257   */\n      dup3\n        /* \"#utility.yul\":5247:5284   */\n      mstore\n        /* \"#utility.yul\":5182:5290   */\n      pop\n      pop\n      jump\t// out\n        /* \"#utility.yul\":5296:5404   */\n    tag_309:\n        /* \"#utility.yul\":5373:5397   */\n      tag_431\n        /* \"#utility.yul\":5391:5396   */\n      dup2\n        /* \"#utility.yul\":5373:5397   */\n      tag_294\n      jump\t// in\n    tag_431:\n        /* \"#utility.yul\":5368:5371   */\n      dup3\n        /* \"#utility.yul\":5361:5398   */\n      mstore\n        /* \"#utility.yul\":5296:5404   */\n      pop\n      pop\n      jump\t// out\n        /* \"#utility.yul\":5410:5569   */\n    tag_310:\n        /* \"#utility.yul\":5484:5495   */\n      0x00\n        /* \"#utility.yul\":5518:5524   */\n      dup3\n        /* \"#utility.yul\":5513:5516   */\n      dup3\n        /* \"#utility.yul\":5506:5525   */\n      mstore\n        /* \"#utility.yul\":5558:5562   */\n      0x20\n        /* \"#utility.yul\":5553:5556   */\n      dup3\n        /* \"#utility.yul\":5549:5563   */\n      add\n        /* \"#utility.yul\":5534:5563   */\n      swap1\n      pop\n        /* \"#utility.yul\":5410:5569   */\n      swap3\n      swap2\n      pop\n      pop\n      jump\t// out\n        /* \"#utility.yul\":5575:5932   */\n    tag_311:\n        /* \"#utility.yul\":5653:5656   */\n      0x00\n        /* \"#utility.yul\":5681:5720   */\n      tag_434\n        /* \"#utility.yul\":5714:5719   */\n      dup3\n        /* \"#utility.yul\":5681:5720   */\n      tag_296\n      jump\t// in\n    tag_434:\n        /* \"#utility.yul\":5736:5797   */\n      tag_435\n        /* \"#utility.yul\":5790:5796   */\n      dup2\n        /* \"#utility.yul\":5785:5788   */\n      dup6\n        /* \"#utility.yul\":5736:5797   */\n      tag_310\n      jump\t// in\n    tag_435:\n        /* \"#utility.yul\":5729:5797   */\n      swap4\n      pop\n        /* \"#utility.yul\":5806:5871   */\n      tag_436\n        /* \"#utility.yul\":5864:5870   */\n      dup2\n        /* \"#utility.yul\":5859:5862   */\n      dup6\n        /* \"#utility.yul\":5852:5856   */\n      0x20\n        /* \"#utility.yul\":5845:5850   */\n      dup7\n        /* \"#utility.yul\":5841:5857   */\n      add\n        /* \"#utility.yul\":5806:5871   */\n      tag_298\n      jump\t// in\n    tag_436:\n        /* \"#utility.yul\":5896:5925   */\n      tag_437\n        /* \"#utility.yul\":5918:5924   */\n      dup2\n        /* \"#utility.yul\":5896:5925   */\n      tag_299\n      jump\t// in\n    tag_437:\n        /* \"#utility.yul\":5891:5894   */\n      dup5\n        /* \"#utility.yul\":5887:5926   */\n      add\n        /* \"#utility.yul\":5880:5926   */\n      swap2\n      pop\n        /* \"#utility.yul\":5657:5932   */\n      pop\n        /* \"#utility.yul\":5575:5932   */\n      swap3\n      swap2\n      pop\n      pop\n      jump\t// out\n        /* \"#utility.yul\":5938:6073   */\n    tag_312:\n        /* \"#utility.yul\":6022:6066   */\n      tag_439\n        /* \"#utility.yul\":6060:6065   */\n      dup2\n        /* \"#utility.yul\":6022:6066   */\n      tag_303\n      jump\t// in\n    tag_439:\n        /* \"#utility.yul\":6017:6020   */\n      dup3\n        /* \"#utility.yul\":6010:6067   */\n      mstore\n        /* \"#utility.yul\":5938:6073   */\n      pop\n      pop\n      jump\t// out\n        /* \"#utility.yul\":6079:6193   */\n    tag_313:\n        /* \"#utility.yul\":6146:6152   */\n      0x00\n        /* \"#utility.yul\":6180:6185   */\n      dup2\n        /* \"#utility.yul\":6174:6186   */\n      mload\n        /* \"#utility.yul\":6164:6186   */\n      swap1\n      pop\n        /* \"#utility.yul\":6079:6193   */\n      swap2\n      swap1\n      pop\n      jump\t// out\n        /* \"#utility.yul\":6199:6373   */\n    tag_314:\n        /* \"#utility.yul\":6288:6299   */\n      0x00\n        /* \"#utility.yul\":6322:6328   */\n      dup3\n        /* \"#utility.yul\":6317:6320   */\n      dup3\n        /* \"#utility.yul\":6310:6329   */\n      mstore\n        /* \"#utility.yul\":6362:6366   */\n      0x20\n        /* \"#utility.yul\":6357:6360   */\n      dup3\n        /* \"#utility.yul\":6353:6367   */\n      add\n        /* \"#utility.yul\":6338:6367   */\n      swap1\n      pop\n        /* \"#utility.yul\":6199:6373   */\n      swap3\n      swap2\n      pop\n      pop\n      jump\t// out\n        /* \"#utility.yul\":6379:6511   */\n    tag_315:\n        /* \"#utility.yul\":6446:6450   */\n      0x00\n        /* \"#utility.yul\":6469:6472   */\n      dup2\n        /* \"#utility.yul\":6461:6472   */\n      swap1\n      pop\n        /* \"#utility.yul\":6499:6503   */\n      0x20\n        /* \"#utility.yul\":6494:6497   */\n      dup3\n        /* \"#utility.yul\":6490:6504   */\n      add\n        /* \"#utility.yul\":6482:6504   */\n      swap1\n      pop\n        /* \"#utility.yul\":6379:6511   */\n      swap2\n      swap1\n      pop\n      jump\t// out\n        /* \"#utility.yul\":6517:6696   */\n    tag_316:\n        /* \"#utility.yul\":6586:6596   */\n      0x00\n        /* \"#utility.yul\":6607:6653   */\n      tag_444\n        /* \"#utility.yul\":6649:6652   */\n      dup4\n        /* \"#utility.yul\":6641:6647   */\n      dup4\n        /* \"#utility.yul\":6607:6653   */\n      tag_309\n      jump\t// in\n    tag_444:\n        /* \"#utility.yul\":6685:6689   */\n      0x20\n        /* \"#utility.yul\":6680:6683   */\n      dup4\n        /* \"#utility.yul\":6676:6690   */\n      add\n        /* \"#utility.yul\":6662:6690   */\n      swap1\n      pop\n        /* \"#utility.yul\":6517:6696   */\n      swap3\n      swap2\n      pop\n      pop\n      jump\t// out\n        /* \"#utility.yul\":6702:6815   */\n    tag_317:\n        /* \"#utility.yul\":6772:6776   */\n      0x00\n        /* \"#utility.yul\":6804:6808   */\n      0x20\n        /* \"#utility.yul\":6799:6802   */\n      dup3\n        /* \"#utility.yul\":6795:6809   */\n      add\n        /* \"#utility.yul\":6787:6809   */\n      swap1\n      pop\n        /* \"#utility.yul\":6702:6815   */\n      swap2\n      swap1\n      pop\n      jump\t// out\n        /* \"#utility.yul\":6851:7563   */\n    tag_318:\n        /* \"#utility.yul\":6960:6963   */\n      0x00\n        /* \"#utility.yul\":6989:7043   */\n      tag_447\n        /* \"#utility.yul\":7037:7042   */\n      dup3\n        /* \"#utility.yul\":6989:7043   */\n      tag_313\n      jump\t// in\n    tag_447:\n        /* \"#utility.yul\":7059:7135   */\n      tag_448\n        /* \"#utility.yul\":7128:7134   */\n      dup2\n        /* \"#utility.yul\":7123:7126   */\n      dup6\n        /* \"#utility.yul\":7059:7135   */\n      tag_314\n      jump\t// in\n    tag_448:\n        /* \"#utility.yul\":7052:7135   */\n      swap4\n      pop\n        /* \"#utility.yul\":7159:7215   */\n      tag_449\n        /* \"#utility.yul\":7209:7214   */\n      dup4\n        /* \"#utility.yul\":7159:7215   */\n      tag_315\n      jump\t// in\n    tag_449:\n        /* \"#utility.yul\":7238:7245   */\n      dup1\n        /* \"#utility.yul\":7269:7270   */\n      0x00\n        /* \"#utility.yul\":7254:7538   */\n    tag_450:\n        /* \"#utility.yul\":7279:7285   */\n      dup4\n        /* \"#utility.yul\":7276:7277   */\n      dup2\n        /* \"#utility.yul\":7273:7286   */\n      lt\n        /* \"#utility.yul\":7254:7538   */\n      iszero\n      tag_452\n      jumpi\n        /* \"#utility.yul\":7355:7361   */\n      dup2\n        /* \"#utility.yul\":7349:7362   */\n      mload\n        /* \"#utility.yul\":7382:7445   */\n      tag_453\n        /* \"#utility.yul\":7441:7444   */\n      dup9\n        /* \"#utility.yul\":7426:7439   */\n      dup3\n        /* \"#utility.yul\":7382:7445   */\n      tag_316\n      jump\t// in\n    tag_453:\n        /* \"#utility.yul\":7375:7445   */\n      swap8\n      pop\n        /* \"#utility.yul\":7468:7528   */\n      tag_454\n        /* \"#utility.yul\":7521:7527   */\n      dup4\n        /* \"#utility.yul\":7468:7528   */\n      tag_317\n      jump\t// in\n    tag_454:\n        /* \"#utility.yul\":7458:7528   */\n      swap3\n      pop\n        /* \"#utility.yul\":7314:7538   */\n      pop\n        /* \"#utility.yul\":7301:7302   */\n      0x01\n        /* \"#utility.yul\":7298:7299   */\n      dup2\n        /* \"#utility.yul\":7294:7303   */\n      add\n        /* \"#utility.yul\":7289:7303   */\n      swap1\n      pop\n        /* \"#utility.yul\":7254:7538   */\n      jump(tag_450)\n    tag_452:\n        /* \"#utility.yul\":7258:7272   */\n      pop\n        /* \"#utility.yul\":7554:7557   */\n      dup6\n        /* \"#utility.yul\":7547:7557   */\n      swap4\n      pop\n        /* \"#utility.yul\":6965:7563   */\n      pop\n      pop\n      pop\n        /* \"#utility.yul\":6851:7563   */\n      swap3\n      swap2\n      pop\n      pop\n      jump\t// out\n        /* \"#utility.yul\":7569:7683   */\n    tag_319:\n        /* \"#utility.yul\":7636:7642   */\n      0x00\n        /* \"#utility.yul\":7670:7675   */\n      dup2\n        /* \"#utility.yul\":7664:7676   */\n      mload\n        /* \"#utility.yul\":7654:7676   */\n      swap1\n      pop\n        /* \"#utility.yul\":7569:7683   */\n      swap2\n      swap1\n      pop\n      jump\t// out\n        /* \"#utility.yul\":7689:7863   */\n    tag_320:\n        /* \"#utility.yul\":7778:7789   */\n      0x00\n        /* \"#utility.yul\":7812:7818   */\n      dup3\n        /* \"#utility.yul\":7807:7810   */\n      dup3\n        /* \"#utility.yul\":7800:7819   */\n      mstore\n        /* \"#utility.yul\":7852:7856   */\n      0x20\n        /* \"#utility.yul\":7847:7850   */\n      dup3\n        /* \"#utility.yul\":7843:7857   */\n      add\n        /* \"#utility.yul\":7828:7857   */\n      swap1\n      pop\n        /* \"#utility.yul\":7689:7863   */\n      swap3\n      swap2\n      pop\n      pop\n      jump\t// out\n        /* \"#utility.yul\":7869:8001   */\n    tag_321:\n        /* \"#utility.yul\":7936:7940   */\n      0x00\n        /* \"#utility.yul\":7959:7962   */\n      dup2\n        /* \"#utility.yul\":7951:7962   */\n      swap1\n      pop\n        /* \"#utility.yul\":7989:7993   */\n      0x20\n        /* \"#utility.yul\":7984:7987   */\n      dup3\n        /* \"#utility.yul\":7980:7994   */\n      add\n        /* \"#utility.yul\":7972:7994   */\n      swap1\n      pop\n        /* \"#utility.yul\":7869:8001   */\n      swap2\n      swap1\n      pop\n      jump\t// out\n        /* \"#utility.yul\":8007:8186   */\n    tag_322:\n        /* \"#utility.yul\":8076:8086   */\n      0x00\n        /* \"#utility.yul\":8097:8143   */\n      tag_459\n        /* \"#utility.yul\":8139:8142   */\n      dup4\n        /* \"#utility.yul\":8131:8137   */\n      dup4\n        /* \"#utility.yul\":8097:8143   */\n      tag_308\n      jump\t// in\n    tag_459:\n        /* \"#utility.yul\":8175:8179   */\n      0x20\n        /* \"#utility.yul\":8170:8173   */\n      dup4\n        /* \"#utility.yul\":8166:8180   */\n      add\n        /* \"#utility.yul\":8152:8180   */\n      swap1\n      pop\n        /* \"#utility.yul\":8007:8186   */\n      swap3\n      swap2\n      pop\n      pop\n      jump\t// out\n        /* \"#utility.yul\":8192:8305   */\n    tag_323:\n        /* \"#utility.yul\":8262:8266   */\n      0x00\n        /* \"#utility.yul\":8294:8298   */\n      0x20\n        /* \"#utility.yul\":8289:8292   */\n      dup3\n        /* \"#utility.yul\":8285:8299   */\n      add\n        /* \"#utility.yul\":8277:8299   */\n      swap1\n      pop\n        /* \"#utility.yul\":8192:8305   */\n      swap2\n      swap1\n      pop\n      jump\t// out\n        /* \"#utility.yul\":8341:9053   */\n    tag_324:\n        /* \"#utility.yul\":8450:8453   */\n      0x00\n        /* \"#utility.yul\":8479:8533   */\n      tag_462\n        /* \"#utility.yul\":8527:8532   */\n      dup3\n        /* \"#utility.yul\":8479:8533   */\n      tag_319\n      jump\t// in\n    tag_462:\n        /* \"#utility.yul\":8549:8625   */\n      tag_463\n        /* \"#utility.yul\":8618:8624   */\n      dup2\n        /* \"#utility.yul\":8613:8616   */\n      dup6\n        /* \"#utility.yul\":8549:8625   */\n      tag_320\n      jump\t// in\n    tag_463:\n        /* \"#utility.yul\":8542:8625   */\n      swap4\n      pop\n        /* \"#utility.yul\":8649:8705   */\n      tag_464\n        /* \"#utility.yul\":8699:8704   */\n      dup4\n        /* \"#utility.yul\":8649:8705   */\n      tag_321\n      jump\t// in\n    tag_464:\n        /* \"#utility.yul\":8728:8735   */\n      dup1\n        /* \"#utility.yul\":8759:8760   */\n      0x00\n        /* \"#utility.yul\":8744:9028   */\n    tag_465:\n        /* \"#utility.yul\":8769:8775   */\n      dup4\n        /* \"#utility.yul\":8766:8767   */\n      dup2\n        /* \"#utility.yul\":8763:8776   */\n      lt\n        /* \"#utility.yul\":8744:9028   */\n      iszero\n      tag_467\n      jumpi\n        /* \"#utility.yul\":8845:8851   */\n      dup2\n        /* \"#utility.yul\":8839:8852   */\n      mload\n        /* \"#utility.yul\":8872:8935   */\n      tag_468\n        /* \"#utility.yul\":8931:8934   */\n      dup9\n        /* \"#utility.yul\":8916:8929   */\n      dup3\n        /* \"#utility.yul\":8872:8935   */\n      tag_322\n      jump\t// in\n    tag_468:\n        /* \"#utility.yul\":8865:8935   */\n      swap8\n      pop\n        /* \"#utility.yul\":8958:9018   */\n      tag_469\n        /* \"#utility.yul\":9011:9017   */\n      dup4\n        /* \"#utility.yul\":8958:9018   */\n      tag_323\n      jump\t// in\n    tag_469:\n        /* \"#utility.yul\":8948:9018   */\n      swap3\n      pop\n        /* \"#utility.yul\":8804:9028   */\n      pop\n        /* \"#utility.yul\":8791:8792   */\n      0x01\n        /* \"#utility.yul\":8788:8789   */\n      dup2\n        /* \"#utility.yul\":8784:8793   */\n      add\n        /* \"#utility.yul\":8779:8793   */\n      swap1\n      pop\n        /* \"#utility.yul\":8744:9028   */\n      jump(tag_465)\n    tag_467:\n        /* \"#utility.yul\":8748:8762   */\n      pop\n        /* \"#utility.yul\":9044:9047   */\n      dup6\n        /* \"#utility.yul\":9037:9047   */\n      swap4\n      pop\n        /* \"#utility.yul\":8455:9053   */\n      pop\n      pop\n      pop\n        /* \"#utility.yul\":8341:9053   */\n      swap3\n      swap2\n      pop\n      pop\n      jump\t// out\n        /* \"#utility.yul\":9121:11890   */\n    tag_325:\n        /* \"#utility.yul\":9228:9231   */\n      0x00\n        /* \"#utility.yul\":9264:9270   */\n      0x0180\n        /* \"#utility.yul\":9259:9262   */\n      dup4\n        /* \"#utility.yul\":9255:9271   */\n      add\n        /* \"#utility.yul\":9351:9355   */\n      0x00\n        /* \"#utility.yul\":9344:9349   */\n      dup4\n        /* \"#utility.yul\":9340:9356   */\n      add\n        /* \"#utility.yul\":9334:9357   */\n      mload\n        /* \"#utility.yul\":9370:9433   */\n      tag_471\n        /* \"#utility.yul\":9427:9431   */\n      0x00\n        /* \"#utility.yul\":9422:9425   */\n      dup7\n        /* \"#utility.yul\":9418:9432   */\n      add\n        /* \"#utility.yul\":9404:9416   */\n      dup3\n        /* \"#utility.yul\":9370:9433   */\n      tag_308\n      jump\t// in\n    tag_471:\n        /* \"#utility.yul\":9281:9443   */\n      pop\n        /* \"#utility.yul\":9536:9540   */\n      0x20\n        /* \"#utility.yul\":9529:9534   */\n      dup4\n        /* \"#utility.yul\":9525:9541   */\n      add\n        /* \"#utility.yul\":9519:9542   */\n      mload\n        /* \"#utility.yul\":9555:9618   */\n      tag_472\n        /* \"#utility.yul\":9612:9616   */\n      0x20\n        /* \"#utility.yul\":9607:9610   */\n      dup7\n        /* \"#utility.yul\":9603:9617   */\n      add\n        /* \"#utility.yul\":9589:9601   */\n      dup3\n        /* \"#utility.yul\":9555:9618   */\n      tag_309\n      jump\t// in\n    tag_472:\n        /* \"#utility.yul\":9453:9628   */\n      pop\n        /* \"#utility.yul\":9711:9715   */\n      0x40\n        /* \"#utility.yul\":9704:9709   */\n      dup4\n        /* \"#utility.yul\":9700:9716   */\n      add\n        /* \"#utility.yul\":9694:9717   */\n      mload\n        /* \"#utility.yul\":9764:9767   */\n      dup5\n        /* \"#utility.yul\":9758:9762   */\n      dup3\n        /* \"#utility.yul\":9754:9768   */\n      sub\n        /* \"#utility.yul\":9747:9751   */\n      0x40\n        /* \"#utility.yul\":9742:9745   */\n      dup7\n        /* \"#utility.yul\":9738:9752   */\n      add\n        /* \"#utility.yul\":9731:9769   */\n      mstore\n        /* \"#utility.yul\":9790:9863   */\n      tag_473\n        /* \"#utility.yul\":9858:9862   */\n      dup3\n        /* \"#utility.yul\":9844:9856   */\n      dup3\n        /* \"#utility.yul\":9790:9863   */\n      tag_311\n      jump\t// in\n    tag_473:\n        /* \"#utility.yul\":9782:9863   */\n      swap2\n      pop\n        /* \"#utility.yul\":9638:9874   */\n      pop\n        /* \"#utility.yul\":9963:9967   */\n      0x60\n        /* \"#utility.yul\":9956:9961   */\n      dup4\n        /* \"#utility.yul\":9952:9968   */\n      add\n        /* \"#utility.yul\":9946:9969   */\n      mload\n        /* \"#utility.yul\":10016:10019   */\n      dup5\n        /* \"#utility.yul\":10010:10014   */\n      dup3\n        /* \"#utility.yul\":10006:10020   */\n      sub\n        /* \"#utility.yul\":9999:10003   */\n      0x60\n        /* \"#utility.yul\":9994:9997   */\n      dup7\n        /* \"#utility.yul\":9990:10004   */\n      add\n        /* \"#utility.yul\":9983:10021   */\n      mstore\n        /* \"#utility.yul\":10042:10115   */\n      tag_474\n        /* \"#utility.yul\":10110:10114   */\n      dup3\n        /* \"#utility.yul\":10096:10108   */\n      dup3\n        /* \"#utility.yul\":10042:10115   */\n      tag_311\n      jump\t// in\n    tag_474:\n        /* \"#utility.yul\":10034:10115   */\n      swap2\n      pop\n        /* \"#utility.yul\":9884:10126   */\n      pop\n        /* \"#utility.yul\":10212:10216   */\n      0x80\n        /* \"#utility.yul\":10205:10210   */\n      dup4\n        /* \"#utility.yul\":10201:10217   */\n      add\n        /* \"#utility.yul\":10195:10218   */\n      mload\n        /* \"#utility.yul\":10265:10268   */\n      dup5\n        /* \"#utility.yul\":10259:10263   */\n      dup3\n        /* \"#utility.yul\":10255:10269   */\n      sub\n        /* \"#utility.yul\":10248:10252   */\n      0x80\n        /* \"#utility.yul\":10243:10246   */\n      dup7\n        /* \"#utility.yul\":10239:10253   */\n      add\n        /* \"#utility.yul\":10232:10270   */\n      mstore\n        /* \"#utility.yul\":10291:10364   */\n      tag_475\n        /* \"#utility.yul\":10359:10363   */\n      dup3\n        /* \"#utility.yul\":10345:10357   */\n      dup3\n        /* \"#utility.yul\":10291:10364   */\n      tag_311\n      jump\t// in\n    tag_475:\n        /* \"#utility.yul\":10283:10364   */\n      swap2\n      pop\n        /* \"#utility.yul\":10136:10375   */\n      pop\n        /* \"#utility.yul\":10457:10461   */\n      0xa0\n        /* \"#utility.yul\":10450:10455   */\n      dup4\n        /* \"#utility.yul\":10446:10462   */\n      add\n        /* \"#utility.yul\":10440:10463   */\n      mload\n        /* \"#utility.yul\":10476:10539   */\n      tag_476\n        /* \"#utility.yul\":10533:10537   */\n      0xa0\n        /* \"#utility.yul\":10528:10531   */\n      dup7\n        /* \"#utility.yul\":10524:10538   */\n      add\n        /* \"#utility.yul\":10510:10522   */\n      dup3\n        /* \"#utility.yul\":10476:10539   */\n      tag_308\n      jump\t// in\n    tag_476:\n        /* \"#utility.yul\":10385:10549   */\n      pop\n        /* \"#utility.yul\":10635:10639   */\n      0xc0\n        /* \"#utility.yul\":10628:10633   */\n      dup4\n        /* \"#utility.yul\":10624:10640   */\n      add\n        /* \"#utility.yul\":10618:10641   */\n      mload\n        /* \"#utility.yul\":10654:10717   */\n      tag_477\n        /* \"#utility.yul\":10711:10715   */\n      0xc0\n        /* \"#utility.yul\":10706:10709   */\n      dup7\n        /* \"#utility.yul\":10702:10716   */\n      add\n        /* \"#utility.yul\":10688:10700   */\n      dup3\n        /* \"#utility.yul\":10654:10717   */\n      tag_308\n      jump\t// in\n    tag_477:\n        /* \"#utility.yul\":10559:10727   */\n      pop\n        /* \"#utility.yul\":10811:10815   */\n      0xe0\n        /* \"#utility.yul\":10804:10809   */\n      dup4\n        /* \"#utility.yul\":10800:10816   */\n      add\n        /* \"#utility.yul\":10794:10817   */\n      mload\n        /* \"#utility.yul\":10830:10893   */\n      tag_478\n        /* \"#utility.yul\":10887:10891   */\n      0xe0\n        /* \"#utility.yul\":10882:10885   */\n      dup7\n        /* \"#utility.yul\":10878:10892   */\n      add\n        /* \"#utility.yul\":10864:10876   */\n      dup3\n        /* \"#utility.yul\":10830:10893   */\n      tag_308\n      jump\t// in\n    tag_478:\n        /* \"#utility.yul\":10737:10903   */\n      pop\n        /* \"#utility.yul\":10987:10993   */\n      0x0100\n        /* \"#utility.yul\":10980:10985   */\n      dup4\n        /* \"#utility.yul\":10976:10994   */\n      add\n        /* \"#utility.yul\":10970:10995   */\n      mload\n        /* \"#utility.yul\":11008:11080   */\n      tag_479\n        /* \"#utility.yul\":11072:11078   */\n      0x0100\n        /* \"#utility.yul\":11067:11070   */\n      dup7\n        /* \"#utility.yul\":11063:11079   */\n      add\n        /* \"#utility.yul\":11049:11061   */\n      dup3\n        /* \"#utility.yul\":11008:11080   */\n      tag_312\n      jump\t// in\n    tag_479:\n        /* \"#utility.yul\":10913:11090   */\n      pop\n        /* \"#utility.yul\":11186:11192   */\n      0x0120\n        /* \"#utility.yul\":11179:11184   */\n      dup4\n        /* \"#utility.yul\":11175:11193   */\n      add\n        /* \"#utility.yul\":11169:11194   */\n      mload\n        /* \"#utility.yul\":11207:11272   */\n      tag_480\n        /* \"#utility.yul\":11264:11270   */\n      0x0120\n        /* \"#utility.yul\":11259:11262   */\n      dup7\n        /* \"#utility.yul\":11255:11271   */\n      add\n        /* \"#utility.yul\":11241:11253   */\n      dup3\n        /* \"#utility.yul\":11207:11272   */\n      tag_308\n      jump\t// in\n    tag_480:\n        /* \"#utility.yul\":11100:11282   */\n      pop\n        /* \"#utility.yul\":11372:11378   */\n      0x0140\n        /* \"#utility.yul\":11365:11370   */\n      dup4\n        /* \"#utility.yul\":11361:11379   */\n      add\n        /* \"#utility.yul\":11355:11380   */\n      mload\n        /* \"#utility.yul\":11429:11432   */\n      dup5\n        /* \"#utility.yul\":11423:11427   */\n      dup3\n        /* \"#utility.yul\":11419:11433   */\n      sub\n        /* \"#utility.yul\":11410:11416   */\n      0x0140\n        /* \"#utility.yul\":11405:11408   */\n      dup7\n        /* \"#utility.yul\":11401:11417   */\n      add\n        /* \"#utility.yul\":11394:11434   */\n      mstore\n        /* \"#utility.yul\":11455:11558   */\n      tag_481\n        /* \"#utility.yul\":11553:11557   */\n      dup3\n        /* \"#utility.yul\":11539:11551   */\n      dup3\n        /* \"#utility.yul\":11455:11558   */\n      tag_318\n      jump\t// in\n    tag_481:\n        /* \"#utility.yul\":11447:11558   */\n      swap2\n      pop\n        /* \"#utility.yul\":11292:11569   */\n      pop\n        /* \"#utility.yul\":11666:11672   */\n      0x0160\n        /* \"#utility.yul\":11659:11664   */\n      dup4\n        /* \"#utility.yul\":11655:11673   */\n      add\n        /* \"#utility.yul\":11649:11674   */\n      mload\n        /* \"#utility.yul\":11723:11726   */\n      dup5\n        /* \"#utility.yul\":11717:11721   */\n      dup3\n        /* \"#utility.yul\":11713:11727   */\n      sub\n        /* \"#utility.yul\":11704:11710   */\n      0x0160\n        /* \"#utility.yul\":11699:11702   */\n      dup7\n        /* \"#utility.yul\":11695:11711   */\n      add\n        /* \"#utility.yul\":11688:11728   */\n      mstore\n        /* \"#utility.yul\":11749:11852   */\n      tag_482\n        /* \"#utility.yul\":11847:11851   */\n      dup3\n        /* \"#utility.yul\":11833:11845   */\n      dup3\n        /* \"#utility.yul\":11749:11852   */\n      tag_324\n      jump\t// in\n    tag_482:\n        /* \"#utility.yul\":11741:11852   */\n      swap2\n      pop\n        /* \"#utility.yul\":11579:11863   */\n      pop\n        /* \"#utility.yul\":11880:11884   */\n      dup1\n        /* \"#utility.yul\":11873:11884   */\n      swap2\n      pop\n        /* \"#utility.yul\":9233:11890   */\n      pop\n        /* \"#utility.yul\":9121:11890   */\n      swap3\n      swap2\n      pop\n      pop\n      jump\t// out\n        /* \"#utility.yul\":11896:12148   */\n    tag_326:\n        /* \"#utility.yul\":12013:12023   */\n      0x00\n        /* \"#utility.yul\":12048:12142   */\n      tag_484\n        /* \"#utility.yul\":12138:12141   */\n      dup4\n        /* \"#utility.yul\":12130:12136   */\n      dup4\n        /* \"#utility.yul\":12048:12142   */\n      tag_325\n      jump\t// in\n    tag_484:\n        /* \"#utility.yul\":12034:12142   */\n      swap1\n      pop\n        /* \"#utility.yul\":11896:12148   */\n      swap3\n      swap2\n      pop\n      pop\n      jump\t// out\n        /* \"#utility.yul\":12154:12291   */\n    tag_327:\n        /* \"#utility.yul\":12248:12252   */\n      0x00\n        /* \"#utility.yul\":12280:12284   */\n      0x20\n        /* \"#utility.yul\":12275:12278   */\n      dup3\n        /* \"#utility.yul\":12271:12285   */\n      add\n        /* \"#utility.yul\":12263:12285   */\n      swap1\n      pop\n        /* \"#utility.yul\":12154:12291   */\n      swap2\n      swap1\n      pop\n      jump\t// out\n        /* \"#utility.yul\":12363:13466   */\n    tag_328:\n        /* \"#utility.yul\":12530:12533   */\n      0x00\n        /* \"#utility.yul\":12559:12637   */\n      tag_487\n        /* \"#utility.yul\":12631:12636   */\n      dup3\n        /* \"#utility.yul\":12559:12637   */\n      tag_305\n      jump\t// in\n    tag_487:\n        /* \"#utility.yul\":12653:12763   */\n      tag_488\n        /* \"#utility.yul\":12756:12762   */\n      dup2\n        /* \"#utility.yul\":12751:12754   */\n      dup6\n        /* \"#utility.yul\":12653:12763   */\n      tag_306\n      jump\t// in\n    tag_488:\n        /* \"#utility.yul\":12646:12763   */\n      swap4\n      pop\n        /* \"#utility.yul\":12789:12792   */\n      dup4\n        /* \"#utility.yul\":12834:12838   */\n      0x20\n        /* \"#utility.yul\":12826:12832   */\n      dup3\n        /* \"#utility.yul\":12822:12839   */\n      mul\n        /* \"#utility.yul\":12817:12820   */\n      dup6\n        /* \"#utility.yul\":12813:12840   */\n      add\n        /* \"#utility.yul\":12864:12944   */\n      tag_489\n        /* \"#utility.yul\":12938:12943   */\n      dup6\n        /* \"#utility.yul\":12864:12944   */\n      tag_307\n      jump\t// in\n    tag_489:\n        /* \"#utility.yul\":12967:12974   */\n      dup1\n        /* \"#utility.yul\":12998:12999   */\n      0x00\n        /* \"#utility.yul\":12983:13421   */\n    tag_490:\n        /* \"#utility.yul\":13008:13014   */\n      dup6\n        /* \"#utility.yul\":13005:13006   */\n      dup2\n        /* \"#utility.yul\":13002:13015   */\n      lt\n        /* \"#utility.yul\":12983:13421   */\n      iszero\n      tag_492\n      jumpi\n        /* \"#utility.yul\":13079:13088   */\n      dup5\n        /* \"#utility.yul\":13073:13077   */\n      dup5\n        /* \"#utility.yul\":13069:13089   */\n      sub\n        /* \"#utility.yul\":13064:13067   */\n      dup10\n        /* \"#utility.yul\":13057:13090   */\n      mstore\n        /* \"#utility.yul\":13130:13136   */\n      dup2\n        /* \"#utility.yul\":13124:13137   */\n      mload\n        /* \"#utility.yul\":13158:13270   */\n      tag_493\n        /* \"#utility.yul\":13265:13269   */\n      dup6\n        /* \"#utility.yul\":13250:13263   */\n      dup3\n        /* \"#utility.yul\":13158:13270   */\n      tag_326\n      jump\t// in\n    tag_493:\n        /* \"#utility.yul\":13150:13270   */\n      swap5\n      pop\n        /* \"#utility.yul\":13293:13377   */\n      tag_494\n        /* \"#utility.yul\":13370:13376   */\n      dup4\n        /* \"#utility.yul\":13293:13377   */\n      tag_327\n      jump\t// in\n    tag_494:\n        /* \"#utility.yul\":13283:13377   */\n      swap3\n      pop\n        /* \"#utility.yul\":13406:13410   */\n      0x20\n        /* \"#utility.yul\":13401:13404   */\n      dup11\n        /* \"#utility.yul\":13397:13411   */\n      add\n        /* \"#utility.yul\":13390:13411   */\n      swap10\n      pop\n        /* \"#utility.yul\":13043:13421   */\n      pop\n        /* \"#utility.yul\":13030:13031   */\n      0x01\n        /* \"#utility.yul\":13027:13028   */\n      dup2\n        /* \"#utility.yul\":13023:13032   */\n      add\n        /* \"#utility.yul\":13018:13032   */\n      swap1\n      pop\n        /* \"#utility.yul\":12983:13421   */\n      jump(tag_490)\n    tag_492:\n        /* \"#utility.yul\":12987:13001   */\n      pop\n        /* \"#utility.yul\":13437:13441   */\n      dup3\n        /* \"#utility.yul\":13430:13441   */\n      swap8\n      pop\n        /* \"#utility.yul\":13457:13460   */\n      dup8\n        /* \"#utility.yul\":13450:13460   */\n      swap6\n      pop\n        /* \"#utility.yul\":12535:13466   */\n      pop\n      pop\n      pop\n      pop\n      pop\n        /* \"#utility.yul\":12363:13466   */\n      swap3\n      swap2\n      pop\n      pop\n      jump\t// out\n        /* \"#utility.yul\":13472:13941   */\n    tag_26:\n        /* \"#utility.yul\":13663:13667   */\n      0x00\n        /* \"#utility.yul\":13701:13703   */\n      0x20\n        /* \"#utility.yul\":13690:13699   */\n      dup3\n        /* \"#utility.yul\":13686:13704   */\n      add\n        /* \"#utility.yul\":13678:13704   */\n      swap1\n      pop\n        /* \"#utility.yul\":13750:13759   */\n      dup2\n        /* \"#utility.yul\":13744:13748   */\n      dup2\n        /* \"#utility.yul\":13740:13760   */\n      sub\n        /* \"#utility.yul\":13736:13737   */\n      0x00\n        /* \"#utility.yul\":13725:13734   */\n      dup4\n        /* \"#utility.yul\":13721:13738   */\n      add\n        /* \"#utility.yul\":13714:13761   */\n      mstore\n        /* \"#utility.yul\":13778:13934   */\n      tag_496\n        /* \"#utility.yul\":13929:13933   */\n      dup2\n        /* \"#utility.yul\":13920:13926   */\n      dup5\n        /* \"#utility.yul\":13778:13934   */\n      tag_328\n      jump\t// in\n    tag_496:\n        /* \"#utility.yul\":13770:13934   */\n      swap1\n      pop\n        /* \"#utility.yul\":13472:13941   */\n      swap3\n      swap2\n      pop\n      pop\n      jump\t// out\n        /* \"#utility.yul\":13947:14169   */\n    tag_32:\n        /* \"#utility.yul\":14040:14044   */\n      0x00\n        /* \"#utility.yul\":14078:14080   */\n      0x20\n        /* \"#utility.yul\":14067:14076   */\n      dup3\n        /* \"#utility.yul\":14063:14081   */\n      add\n        /* \"#utility.yul\":14055:14081   */\n      swap1\n      pop\n        /* \"#utility.yul\":14091:14162   */\n      tag_498\n        /* \"#utility.yul\":14159:14160   */\n      0x00\n        /* \"#utility.yul\":14148:14157   */\n      dup4\n        /* \"#utility.yul\":14144:14161   */\n      add\n        /* \"#utility.yul\":14135:14141   */\n      dup5\n        /* \"#utility.yul\":14091:14162   */\n      tag_292\n      jump\t// in\n    tag_498:\n        /* \"#utility.yul\":13947:14169   */\n      swap3\n      swap2\n      pop\n      pop\n      jump\t// out\n        /* \"#utility.yul\":14175:14292   */\n    tag_329:\n        /* \"#utility.yul\":14284:14285   */\n      0x00\n        /* \"#utility.yul\":14281:14282   */\n      dup1\n        /* \"#utility.yul\":14274:14286   */\n      revert\n        /* \"#utility.yul\":14298:14415   */\n    tag_330:\n        /* \"#utility.yul\":14407:14408   */\n      0x00\n        /* \"#utility.yul\":14404:14405   */\n      dup1\n        /* \"#utility.yul\":14397:14409   */\n      revert\n        /* \"#utility.yul\":14421:14601   */\n    tag_135:\n        /* \"#utility.yul\":14469:14546   */\n      0x4e487b7100000000000000000000000000000000000000000000000000000000\n        /* \"#utility.yul\":14466:14467   */\n      0x00\n        /* \"#utility.yul\":14459:14547   */\n      mstore\n        /* \"#utility.yul\":14566:14570   */\n      0x41\n        /* \"#utility.yul\":14563:14564   */\n      0x04\n        /* \"#utility.yul\":14556:14571   */\n      mstore\n        /* \"#utility.yul\":14590:14594   */\n      0x24\n        /* \"#utility.yul\":14587:14588   */\n      0x00\n        /* \"#utility.yul\":14580:14595   */\n      revert\n        /* \"#utility.yul\":14607:14888   */\n    tag_331:\n        /* \"#utility.yul\":14690:14717   */\n      tag_503\n        /* \"#utility.yul\":14712:14716   */\n      dup3\n        /* \"#utility.yul\":14690:14717   */\n      tag_299\n      jump\t// in\n    tag_503:\n        /* \"#utility.yul\":14682:14688   */\n      dup2\n        /* \"#utility.yul\":14678:14718   */\n      add\n        /* \"#utility.yul\":14820:14826   */\n      dup2\n        /* \"#utility.yul\":14808:14818   */\n      dup2\n        /* \"#utility.yul\":14805:14827   */\n      lt\n        /* \"#utility.yul\":14784:14802   */\n      0xffffffffffffffff\n        /* \"#utility.yul\":14772:14782   */\n      dup3\n        /* \"#utility.yul\":14769:14803   */\n      gt\n        /* \"#utility.yul\":14766:14828   */\n      or\n        /* \"#utility.yul\":14763:14851   */\n      iszero\n      tag_504\n      jumpi\n        /* \"#utility.yul\":14831:14849   */\n      tag_505\n      tag_135\n      jump\t// in\n    tag_505:\n        /* \"#utility.yul\":14763:14851   */\n    tag_504:\n        /* \"#utility.yul\":14871:14881   */\n      dup1\n        /* \"#utility.yul\":14867:14869   */\n      0x40\n        /* \"#utility.yul\":14860:14882   */\n      mstore\n        /* \"#utility.yul\":14650:14888   */\n      pop\n        /* \"#utility.yul\":14607:14888   */\n      pop\n      pop\n      jump\t// out\n        /* \"#utility.yul\":14894:15023   */\n    tag_332:\n        /* \"#utility.yul\":14928:14934   */\n      0x00\n        /* \"#utility.yul\":14955:14975   */\n      tag_507\n      tag_286\n      jump\t// in\n    tag_507:\n        /* \"#utility.yul\":14945:14975   */\n      swap1\n      pop\n        /* \"#utility.yul\":14984:15017   */\n      tag_508\n        /* \"#utility.yul\":15012:15016   */\n      dup3\n        /* \"#utility.yul\":15004:15010   */\n      dup3\n        /* \"#utility.yul\":14984:15017   */\n      tag_331\n      jump\t// in\n    tag_508:\n        /* \"#utility.yul\":14894:15023   */\n      swap2\n      swap1\n      pop\n      jump\t// out\n        /* \"#utility.yul\":15029:15337   */\n    tag_333:\n        /* \"#utility.yul\":15091:15095   */\n      0x00\n        /* \"#utility.yul\":15181:15199   */\n      0xffffffffffffffff\n        /* \"#utility.yul\":15173:15179   */\n      dup3\n        /* \"#utility.yul\":15170:15200   */\n      gt\n        /* \"#utility.yul\":15167:15223   */\n      iszero\n      tag_510\n      jumpi\n        /* \"#utility.yul\":15203:15221   */\n      tag_511\n      tag_135\n      jump\t// in\n    tag_511:\n        /* \"#utility.yul\":15167:15223   */\n    tag_510:\n        /* \"#utility.yul\":15241:15270   */\n      tag_512\n        /* \"#utility.yul\":15263:15269   */\n      dup3\n        /* \"#utility.yul\":15241:15270   */\n      tag_299\n      jump\t// in\n    tag_512:\n        /* \"#utility.yul\":15233:15270   */\n      swap1\n      pop\n        /* \"#utility.yul\":15325:15329   */\n      0x20\n        /* \"#utility.yul\":15319:15323   */\n      dup2\n        /* \"#utility.yul\":15315:15330   */\n      add\n        /* \"#utility.yul\":15307:15330   */\n      swap1\n      pop\n        /* \"#utility.yul\":15029:15337   */\n      swap2\n      swap1\n      pop\n      jump\t// out\n        /* \"#utility.yul\":15343:15491   */\n    tag_334:\n        /* \"#utility.yul\":15441:15447   */\n      dup3\n        /* \"#utility.yul\":15436:15439   */\n      dup2\n        /* \"#utility.yul\":15431:15434   */\n      dup4\n        /* \"#utility.yul\":15418:15448   */\n      calldatacopy\n        /* \"#utility.yul\":15482:15483   */\n      0x00\n        /* \"#utility.yul\":15473:15479   */\n      dup4\n        /* \"#utility.yul\":15468:15471   */\n      dup4\n        /* \"#utility.yul\":15464:15480   */\n      add\n        /* \"#utility.yul\":15457:15484   */\n      mstore\n        /* \"#utility.yul\":15343:15491   */\n      pop\n      pop\n      pop\n      jump\t// out\n        /* \"#utility.yul\":15497:15922   */\n    tag_335:\n        /* \"#utility.yul\":15575:15580   */\n      0x00\n        /* \"#utility.yul\":15600:15666   */\n      tag_515\n        /* \"#utility.yul\":15616:15665   */\n      tag_516\n        /* \"#utility.yul\":15658:15664   */\n      dup5\n        /* \"#utility.yul\":15616:15665   */\n      tag_333\n      jump\t// in\n    tag_516:\n        /* \"#utility.yul\":15600:15666   */\n      tag_332\n      jump\t// in\n    tag_515:\n        /* \"#utility.yul\":15591:15666   */\n      swap1\n      pop\n        /* \"#utility.yul\":15689:15695   */\n      dup3\n        /* \"#utility.yul\":15682:15687   */\n      dup2\n        /* \"#utility.yul\":15675:15696   */\n      mstore\n        /* \"#utility.yul\":15727:15731   */\n      0x20\n        /* \"#utility.yul\":15720:15725   */\n      dup2\n        /* \"#utility.yul\":15716:15732   */\n      add\n        /* \"#utility.yul\":15765:15768   */\n      dup5\n        /* \"#utility.yul\":15756:15762   */\n      dup5\n        /* \"#utility.yul\":15751:15754   */\n      dup5\n        /* \"#utility.yul\":15747:15763   */\n      add\n        /* \"#utility.yul\":15744:15769   */\n      gt\n        /* \"#utility.yul\":15741:15853   */\n      iszero\n      tag_517\n      jumpi\n        /* \"#utility.yul\":15772:15851   */\n      tag_518\n      tag_330\n      jump\t// in\n    tag_518:\n        /* \"#utility.yul\":15741:15853   */\n    tag_517:\n        /* \"#utility.yul\":15862:15916   */\n      tag_519\n        /* \"#utility.yul\":15909:15915   */\n      dup5\n        /* \"#utility.yul\":15904:15907   */\n      dup3\n        /* \"#utility.yul\":15899:15902   */\n      dup6\n        /* \"#utility.yul\":15862:15916   */\n      tag_334\n      jump\t// in\n    tag_519:\n        /* \"#utility.yul\":15581:15922   */\n      pop\n        /* \"#utility.yul\":15497:15922   */\n      swap4\n      swap3\n      pop\n      pop\n      pop\n      jump\t// out\n        /* \"#utility.yul\":15942:16282   */\n    tag_336:\n        /* \"#utility.yul\":15998:16003   */\n      0x00\n        /* \"#utility.yul\":16047:16050   */\n      dup3\n        /* \"#utility.yul\":16040:16044   */\n      0x1f\n        /* \"#utility.yul\":16032:16038   */\n      dup4\n        /* \"#utility.yul\":16028:16045   */\n      add\n        /* \"#utility.yul\":16024:16051   */\n      slt\n        /* \"#utility.yul\":16014:16136   */\n      tag_521\n      jumpi\n        /* \"#utility.yul\":16055:16134   */\n      tag_522\n      tag_329\n      jump\t// in\n    tag_522:\n        /* \"#utility.yul\":16014:16136   */\n    tag_521:\n        /* \"#utility.yul\":16172:16178   */\n      dup2\n        /* \"#utility.yul\":16159:16179   */\n      calldataload\n        /* \"#utility.yul\":16197:16276   */\n      tag_523\n        /* \"#utility.yul\":16272:16275   */\n      dup5\n        /* \"#utility.yul\":16264:16270   */\n      dup3\n        /* \"#utility.yul\":16257:16261   */\n      0x20\n        /* \"#utility.yul\":16249:16255   */\n      dup7\n        /* \"#utility.yul\":16245:16262   */\n      add\n        /* \"#utility.yul\":16197:16276   */\n      tag_335\n      jump\t// in\n    tag_523:\n        /* \"#utility.yul\":16188:16276   */\n      swap2\n      pop\n        /* \"#utility.yul\":16004:16282   */\n      pop\n        /* \"#utility.yul\":15942:16282   */\n      swap3\n      swap2\n      pop\n      pop\n      jump\t// out\n        /* \"#utility.yul\":16288:17739   */\n    tag_36:\n        /* \"#utility.yul\":16413:16419   */\n      0x00\n        /* \"#utility.yul\":16421:16427   */\n      dup1\n        /* \"#utility.yul\":16429:16435   */\n      0x00\n        /* \"#utility.yul\":16437:16443   */\n      dup1\n        /* \"#utility.yul\":16445:16451   */\n      0x00\n        /* \"#utility.yul\":16494:16497   */\n      0xa0\n        /* \"#utility.yul\":16482:16491   */\n      dup7\n        /* \"#utility.yul\":16473:16480   */\n      dup9\n        /* \"#utility.yul\":16469:16492   */\n      sub\n        /* \"#utility.yul\":16465:16498   */\n      slt\n        /* \"#utility.yul\":16462:16582   */\n      iszero\n      tag_525\n      jumpi\n        /* \"#utility.yul\":16501:16580   */\n      tag_526\n      tag_287\n      jump\t// in\n    tag_526:\n        /* \"#utility.yul\":16462:16582   */\n    tag_525:\n        /* \"#utility.yul\":16649:16650   */\n      0x00\n        /* \"#utility.yul\":16638:16647   */\n      dup7\n        /* \"#utility.yul\":16634:16651   */\n      add\n        /* \"#utility.yul\":16621:16652   */\n      calldataload\n        /* \"#utility.yul\":16679:16697   */\n      0xffffffffffffffff\n        /* \"#utility.yul\":16671:16677   */\n      dup2\n        /* \"#utility.yul\":16668:16698   */\n      gt\n        /* \"#utility.yul\":16665:16782   */\n      iszero\n      tag_527\n      jumpi\n        /* \"#utility.yul\":16701:16780   */\n      tag_528\n      tag_288\n      jump\t// in\n    tag_528:\n        /* \"#utility.yul\":16665:16782   */\n    tag_527:\n        /* \"#utility.yul\":16806:16869   */\n      tag_529\n        /* \"#utility.yul\":16861:16868   */\n      dup9\n        /* \"#utility.yul\":16852:16858   */\n      dup3\n        /* \"#utility.yul\":16841:16850   */\n      dup10\n        /* \"#utility.yul\":16837:16859   */\n      add\n        /* \"#utility.yul\":16806:16869   */\n      tag_336\n      jump\t// in\n    tag_529:\n        /* \"#utility.yul\":16796:16869   */\n      swap6\n      pop\n        /* \"#utility.yul\":16592:16879   */\n      pop\n        /* \"#utility.yul\":16946:16948   */\n      0x20\n        /* \"#utility.yul\":16935:16944   */\n      dup7\n        /* \"#utility.yul\":16931:16949   */\n      add\n        /* \"#utility.yul\":16918:16950   */\n      calldataload\n        /* \"#utility.yul\":16977:16995   */\n      0xffffffffffffffff\n        /* \"#utility.yul\":16969:16975   */\n      dup2\n        /* \"#utility.yul\":16966:16996   */\n      gt\n        /* \"#utility.yul\":16963:17080   */\n      iszero\n      tag_530\n      jumpi\n        /* \"#utility.yul\":16999:17078   */\n      tag_531\n      tag_288\n      jump\t// in\n    tag_531:\n        /* \"#utility.yul\":16963:17080   */\n    tag_530:\n        /* \"#utility.yul\":17104:17167   */\n      tag_532\n        /* \"#utility.yul\":17159:17166   */\n      dup9\n        /* \"#utility.yul\":17150:17156   */\n      dup3\n        /* \"#utility.yul\":17139:17148   */\n      dup10\n        /* \"#utility.yul\":17135:17157   */\n      add\n        /* \"#utility.yul\":17104:17167   */\n      tag_336\n      jump\t// in\n    tag_532:\n        /* \"#utility.yul\":17094:17167   */\n      swap5\n      pop\n        /* \"#utility.yul\":16889:17177   */\n      pop\n        /* \"#utility.yul\":17244:17246   */\n      0x40\n        /* \"#utility.yul\":17233:17242   */\n      dup7\n        /* \"#utility.yul\":17229:17247   */\n      add\n        /* \"#utility.yul\":17216:17248   */\n      calldataload\n        /* \"#utility.yul\":17275:17293   */\n      0xffffffffffffffff\n        /* \"#utility.yul\":17267:17273   */\n      dup2\n        /* \"#utility.yul\":17264:17294   */\n      gt\n        /* \"#utility.yul\":17261:17378   */\n      iszero\n      tag_533\n      jumpi\n        /* \"#utility.yul\":17297:17376   */\n      tag_534\n      tag_288\n      jump\t// in\n    tag_534:\n        /* \"#utility.yul\":17261:17378   */\n    tag_533:\n        /* \"#utility.yul\":17402:17465   */\n      tag_535\n        /* \"#utility.yul\":17457:17464   */\n      dup9\n        /* \"#utility.yul\":17448:17454   */\n      dup3\n        /* \"#utility.yul\":17437:17446   */\n      dup10\n        /* \"#utility.yul\":17433:17455   */\n      add\n        /* \"#utility.yul\":17402:17465   */\n      tag_336\n      jump\t// in\n    tag_535:\n        /* \"#utility.yul\":17392:17465   */\n      swap4\n      pop\n        /* \"#utility.yul\":17187:17475   */\n      pop\n        /* \"#utility.yul\":17514:17516   */\n      0x60\n        /* \"#utility.yul\":17540:17593   */\n      tag_536\n        /* \"#utility.yul\":17585:17592   */\n      dup9\n        /* \"#utility.yul\":17576:17582   */\n      dup3\n        /* \"#utility.yul\":17565:17574   */\n      dup10\n        /* \"#utility.yul\":17561:17583   */\n      add\n        /* \"#utility.yul\":17540:17593   */\n      tag_291\n      jump\t// in\n    tag_536:\n        /* \"#utility.yul\":17530:17593   */\n      swap3\n      pop\n        /* \"#utility.yul\":17485:17603   */\n      pop\n        /* \"#utility.yul\":17642:17645   */\n      0x80\n        /* \"#utility.yul\":17669:17722   */\n      tag_537\n        /* \"#utility.yul\":17714:17721   */\n      dup9\n        /* \"#utility.yul\":17705:17711   */\n      dup3\n        /* \"#utility.yul\":17694:17703   */\n      dup10\n        /* \"#utility.yul\":17690:17712   */\n      add\n        /* \"#utility.yul\":17669:17722   */\n      tag_291\n      jump\t// in\n    tag_537:\n        /* \"#utility.yul\":17659:17722   */\n      swap2\n      pop\n        /* \"#utility.yul\":17613:17732   */\n      pop\n        /* \"#utility.yul\":16288:17739   */\n      swap3\n      swap6\n      pop\n      swap3\n      swap6\n      swap1\n      swap4\n      pop\n      jump\t// out\n        /* \"#utility.yul\":17745:17929   */\n    tag_337:\n        /* \"#utility.yul\":17844:17855   */\n      0x00\n        /* \"#utility.yul\":17878:17884   */\n      dup3\n        /* \"#utility.yul\":17873:17876   */\n      dup3\n        /* \"#utility.yul\":17866:17885   */\n      mstore\n        /* \"#utility.yul\":17918:17922   */\n      0x20\n        /* \"#utility.yul\":17913:17916   */\n      dup3\n        /* \"#utility.yul\":17909:17923   */\n      add\n        /* \"#utility.yul\":17894:17923   */\n      swap1\n      pop\n        /* \"#utility.yul\":17745:17929   */\n      swap3\n      swap2\n      pop\n      pop\n      jump\t// out\n        /* \"#utility.yul\":17965:18697   */\n    tag_338:\n        /* \"#utility.yul\":18084:18087   */\n      0x00\n        /* \"#utility.yul\":18113:18167   */\n      tag_540\n        /* \"#utility.yul\":18161:18166   */\n      dup3\n        /* \"#utility.yul\":18113:18167   */\n      tag_313\n      jump\t// in\n    tag_540:\n        /* \"#utility.yul\":18183:18269   */\n      tag_541\n        /* \"#utility.yul\":18262:18268   */\n      dup2\n        /* \"#utility.yul\":18257:18260   */\n      dup6\n        /* \"#utility.yul\":18183:18269   */\n      tag_337\n      jump\t// in\n    tag_541:\n        /* \"#utility.yul\":18176:18269   */\n      swap4\n      pop\n        /* \"#utility.yul\":18293:18349   */\n      tag_542\n        /* \"#utility.yul\":18343:18348   */\n      dup4\n        /* \"#utility.yul\":18293:18349   */\n      tag_315\n      jump\t// in\n    tag_542:\n        /* \"#utility.yul\":18372:18379   */\n      dup1\n        /* \"#utility.yul\":18403:18404   */\n      0x00\n        /* \"#utility.yul\":18388:18672   */\n    tag_543:\n        /* \"#utility.yul\":18413:18419   */\n      dup4\n        /* \"#utility.yul\":18410:18411   */\n      dup2\n        /* \"#utility.yul\":18407:18420   */\n      lt\n        /* \"#utility.yul\":18388:18672   */\n      iszero\n      tag_545\n      jumpi\n        /* \"#utility.yul\":18489:18495   */\n      dup2\n        /* \"#utility.yul\":18483:18496   */\n      mload\n        /* \"#utility.yul\":18516:18579   */\n      tag_546\n        /* \"#utility.yul\":18575:18578   */\n      dup9\n        /* \"#utility.yul\":18560:18573   */\n      dup3\n        /* \"#utility.yul\":18516:18579   */\n      tag_316\n      jump\t// in\n    tag_546:\n        /* \"#utility.yul\":18509:18579   */\n      swap8\n      pop\n        /* \"#utility.yul\":18602:18662   */\n      tag_547\n        /* \"#utility.yul\":18655:18661   */\n      dup4\n        /* \"#utility.yul\":18602:18662   */\n      tag_317\n      jump\t// in\n    tag_547:\n        /* \"#utility.yul\":18592:18662   */\n      swap3\n      pop\n        /* \"#utility.yul\":18448:18672   */\n      pop\n        /* \"#utility.yul\":18435:18436   */\n      0x01\n        /* \"#utility.yul\":18432:18433   */\n      dup2\n        /* \"#utility.yul\":18428:18437   */\n      add\n        /* \"#utility.yul\":18423:18437   */\n      swap1\n      pop\n        /* \"#utility.yul\":18388:18672   */\n      jump(tag_543)\n    tag_545:\n        /* \"#utility.yul\":18392:18406   */\n      pop\n        /* \"#utility.yul\":18688:18691   */\n      dup6\n        /* \"#utility.yul\":18681:18691   */\n      swap4\n      pop\n        /* \"#utility.yul\":18089:18697   */\n      pop\n      pop\n      pop\n        /* \"#utility.yul\":17965:18697   */\n      swap3\n      swap2\n      pop\n      pop\n      jump\t// out\n        /* \"#utility.yul\":18703:18887   */\n    tag_339:\n        /* \"#utility.yul\":18802:18813   */\n      0x00\n        /* \"#utility.yul\":18836:18842   */\n      dup3\n        /* \"#utility.yul\":18831:18834   */\n      dup3\n        /* \"#utility.yul\":18824:18843   */\n      mstore\n        /* \"#utility.yul\":18876:18880   */\n      0x20\n        /* \"#utility.yul\":18871:18874   */\n      dup3\n        /* \"#utility.yul\":18867:18881   */\n      add\n        /* \"#utility.yul\":18852:18881   */\n      swap1\n      pop\n        /* \"#utility.yul\":18703:18887   */\n      swap3\n      swap2\n      pop\n      pop\n      jump\t// out\n        /* \"#utility.yul\":18923:19655   */\n    tag_340:\n        /* \"#utility.yul\":19042:19045   */\n      0x00\n        /* \"#utility.yul\":19071:19125   */\n      tag_550\n        /* \"#utility.yul\":19119:19124   */\n      dup3\n        /* \"#utility.yul\":19071:19125   */\n      tag_319\n      jump\t// in\n    tag_550:\n        /* \"#utility.yul\":19141:19227   */\n      tag_551\n        /* \"#utility.yul\":19220:19226   */\n      dup2\n        /* \"#utility.yul\":19215:19218   */\n      dup6\n        /* \"#utility.yul\":19141:19227   */\n      tag_339\n      jump\t// in\n    tag_551:\n        /* \"#utility.yul\":19134:19227   */\n      swap4\n      pop\n        /* \"#utility.yul\":19251:19307   */\n      tag_552\n        /* \"#utility.yul\":19301:19306   */\n      dup4\n        /* \"#utility.yul\":19251:19307   */\n      tag_321\n      jump\t// in\n    tag_552:\n        /* \"#utility.yul\":19330:19337   */\n      dup1\n        /* \"#utility.yul\":19361:19362   */\n      0x00\n        /* \"#utility.yul\":19346:19630   */\n    tag_553:\n        /* \"#utility.yul\":19371:19377   */\n      dup4\n        /* \"#utility.yul\":19368:19369   */\n      dup2\n        /* \"#utility.yul\":19365:19378   */\n      lt\n        /* \"#utility.yul\":19346:19630   */\n      iszero\n      tag_555\n      jumpi\n        /* \"#utility.yul\":19447:19453   */\n      dup2\n        /* \"#utility.yul\":19441:19454   */\n      mload\n        /* \"#utility.yul\":19474:19537   */\n      tag_556\n        /* \"#utility.yul\":19533:19536   */\n      dup9\n        /* \"#utility.yul\":19518:19531   */\n      dup3\n        /* \"#utility.yul\":19474:19537   */\n      tag_322\n      jump\t// in\n    tag_556:\n        /* \"#utility.yul\":19467:19537   */\n      swap8\n      pop\n        /* \"#utility.yul\":19560:19620   */\n      tag_557\n        /* \"#utility.yul\":19613:19619   */\n      dup4\n        /* \"#utility.yul\":19560:19620   */\n      tag_323\n      jump\t// in\n    tag_557:\n        /* \"#utility.yul\":19550:19620   */\n      swap3\n      pop\n        /* \"#utility.yul\":19406:19630   */\n      pop\n        /* \"#utility.yul\":19393:19394   */\n      0x01\n        /* \"#utility.yul\":19390:19391   */\n      dup2\n        /* \"#utility.yul\":19386:19395   */\n      add\n        /* \"#utility.yul\":19381:19395   */\n      swap1\n      pop\n        /* \"#utility.yul\":19346:19630   */\n      jump(tag_553)\n    tag_555:\n        /* \"#utility.yul\":19350:19364   */\n      pop\n        /* \"#utility.yul\":19646:19649   */\n      dup6\n        /* \"#utility.yul\":19639:19649   */\n      swap4\n      pop\n        /* \"#utility.yul\":19047:19655   */\n      pop\n      pop\n      pop\n        /* \"#utility.yul\":18923:19655   */\n      swap3\n      swap2\n      pop\n      pop\n      jump\t// out\n        /* \"#utility.yul\":19661:21695   */\n    tag_50:\n        /* \"#utility.yul\":20231:20235   */\n      0x00\n        /* \"#utility.yul\":20269:20272   */\n      0x0180\n        /* \"#utility.yul\":20258:20267   */\n      dup3\n        /* \"#utility.yul\":20254:20273   */\n      add\n        /* \"#utility.yul\":20246:20273   */\n      swap1\n      pop\n        /* \"#utility.yul\":20283:20354   */\n      tag_559\n        /* \"#utility.yul\":20351:20352   */\n      0x00\n        /* \"#utility.yul\":20340:20349   */\n      dup4\n        /* \"#utility.yul\":20336:20353   */\n      add\n        /* \"#utility.yul\":20327:20333   */\n      dup16\n        /* \"#utility.yul\":20283:20354   */\n      tag_292\n      jump\t// in\n    tag_559:\n        /* \"#utility.yul\":20364:20436   */\n      tag_560\n        /* \"#utility.yul\":20432:20434   */\n      0x20\n        /* \"#utility.yul\":20421:20430   */\n      dup4\n        /* \"#utility.yul\":20417:20435   */\n      add\n        /* \"#utility.yul\":20408:20414   */\n      dup15\n        /* \"#utility.yul\":20364:20436   */\n      tag_295\n      jump\t// in\n    tag_560:\n        /* \"#utility.yul\":20483:20492   */\n      dup2\n        /* \"#utility.yul\":20477:20481   */\n      dup2\n        /* \"#utility.yul\":20473:20493   */\n      sub\n        /* \"#utility.yul\":20468:20470   */\n      0x40\n        /* \"#utility.yul\":20457:20466   */\n      dup4\n        /* \"#utility.yul\":20453:20471   */\n      add\n        /* \"#utility.yul\":20446:20494   */\n      mstore\n        /* \"#utility.yul\":20511:20589   */\n      tag_561\n        /* \"#utility.yul\":20584:20588   */\n      dup2\n        /* \"#utility.yul\":20575:20581   */\n      dup14\n        /* \"#utility.yul\":20511:20589   */\n      tag_300\n      jump\t// in\n    tag_561:\n        /* \"#utility.yul\":20503:20589   */\n      swap1\n      pop\n        /* \"#utility.yul\":20636:20645   */\n      dup2\n        /* \"#utility.yul\":20630:20634   */\n      dup2\n        /* \"#utility.yul\":20626:20646   */\n      sub\n        /* \"#utility.yul\":20621:20623   */\n      0x60\n        /* \"#utility.yul\":20610:20619   */\n      dup4\n        /* \"#utility.yul\":20606:20624   */\n      add\n        /* \"#utility.yul\":20599:20647   */\n      mstore\n        /* \"#utility.yul\":20664:20742   */\n      tag_562\n        /* \"#utility.yul\":20737:20741   */\n      dup2\n        /* \"#utility.yul\":20728:20734   */\n      dup13\n        /* \"#utility.yul\":20664:20742   */\n      tag_300\n      jump\t// in\n    tag_562:\n        /* \"#utility.yul\":20656:20742   */\n      swap1\n      pop\n        /* \"#utility.yul\":20790:20799   */\n      dup2\n        /* \"#utility.yul\":20784:20788   */\n      dup2\n        /* \"#utility.yul\":20780:20800   */\n      sub\n        /* \"#utility.yul\":20774:20777   */\n      0x80\n        /* \"#utility.yul\":20763:20772   */\n      dup4\n        /* \"#utility.yul\":20759:20778   */\n      add\n        /* \"#utility.yul\":20752:20801   */\n      mstore\n        /* \"#utility.yul\":20818:20896   */\n      tag_563\n        /* \"#utility.yul\":20891:20895   */\n      dup2\n        /* \"#utility.yul\":20882:20888   */\n      dup12\n        /* \"#utility.yul\":20818:20896   */\n      tag_300\n      jump\t// in\n    tag_563:\n        /* \"#utility.yul\":20810:20896   */\n      swap1\n      pop\n        /* \"#utility.yul\":20906:20979   */\n      tag_564\n        /* \"#utility.yul\":20974:20977   */\n      0xa0\n        /* \"#utility.yul\":20963:20972   */\n      dup4\n        /* \"#utility.yul\":20959:20978   */\n      add\n        /* \"#utility.yul\":20950:20956   */\n      dup11\n        /* \"#utility.yul\":20906:20979   */\n      tag_292\n      jump\t// in\n    tag_564:\n        /* \"#utility.yul\":20989:21062   */\n      tag_565\n        /* \"#utility.yul\":21057:21060   */\n      0xc0\n        /* \"#utility.yul\":21046:21055   */\n      dup4\n        /* \"#utility.yul\":21042:21061   */\n      add\n        /* \"#utility.yul\":21033:21039   */\n      dup10\n        /* \"#utility.yul\":20989:21062   */\n      tag_292\n      jump\t// in\n    tag_565:\n        /* \"#utility.yul\":21072:21145   */\n      tag_566\n        /* \"#utility.yul\":21140:21143   */\n      0xe0\n        /* \"#utility.yul\":21129:21138   */\n      dup4\n        /* \"#utility.yul\":21125:21144   */\n      add\n        /* \"#utility.yul\":21116:21122   */\n      dup9\n        /* \"#utility.yul\":21072:21145   */\n      tag_292\n      jump\t// in\n    tag_566:\n        /* \"#utility.yul\":21155:21235   */\n      tag_567\n        /* \"#utility.yul\":21230:21233   */\n      0x0100\n        /* \"#utility.yul\":21219:21228   */\n      dup4\n        /* \"#utility.yul\":21215:21234   */\n      add\n        /* \"#utility.yul\":21206:21212   */\n      dup8\n        /* \"#utility.yul\":21155:21235   */\n      tag_304\n      jump\t// in\n    tag_567:\n        /* \"#utility.yul\":21245:21318   */\n      tag_568\n        /* \"#utility.yul\":21313:21316   */\n      0x0120\n        /* \"#utility.yul\":21302:21311   */\n      dup4\n        /* \"#utility.yul\":21298:21317   */\n      add\n        /* \"#utility.yul\":21289:21295   */\n      dup7\n        /* \"#utility.yul\":21245:21318   */\n      tag_292\n      jump\t// in\n    tag_568:\n        /* \"#utility.yul\":21366:21375   */\n      dup2\n        /* \"#utility.yul\":21360:21364   */\n      dup2\n        /* \"#utility.yul\":21356:21376   */\n      sub\n        /* \"#utility.yul\":21350:21353   */\n      0x0140\n        /* \"#utility.yul\":21339:21348   */\n      dup4\n        /* \"#utility.yul\":21335:21354   */\n      add\n        /* \"#utility.yul\":21328:21377   */\n      mstore\n        /* \"#utility.yul\":21394:21503   */\n      tag_569\n        /* \"#utility.yul\":21498:21502   */\n      dup2\n        /* \"#utility.yul\":21488:21495   */\n      dup6\n        /* \"#utility.yul\":21394:21503   */\n      tag_338\n      jump\t// in\n    tag_569:\n        /* \"#utility.yul\":21386:21503   */\n      swap1\n      pop\n        /* \"#utility.yul\":21551:21560   */\n      dup2\n        /* \"#utility.yul\":21545:21549   */\n      dup2\n        /* \"#utility.yul\":21541:21561   */\n      sub\n        /* \"#utility.yul\":21535:21538   */\n      0x0160\n        /* \"#utility.yul\":21524:21533   */\n      dup4\n        /* \"#utility.yul\":21520:21539   */\n      add\n        /* \"#utility.yul\":21513:21562   */\n      mstore\n        /* \"#utility.yul\":21579:21688   */\n      tag_570\n        /* \"#utility.yul\":21683:21687   */\n      dup2\n        /* \"#utility.yul\":21673:21680   */\n      dup5\n        /* \"#utility.yul\":21579:21688   */\n      tag_340\n      jump\t// in\n    tag_570:\n        /* \"#utility.yul\":21571:21688   */\n      swap1\n      pop\n        /* \"#utility.yul\":19661:21695   */\n      swap14\n      swap13\n      pop\n      pop\n      pop\n      pop\n      pop\n      pop\n      pop\n      pop\n      pop\n      pop\n      pop\n      pop\n      pop\n      jump\t// out\n        /* \"#utility.yul\":21701:21881   */\n    tag_341:\n        /* \"#utility.yul\":21749:21826   */\n      0x4e487b7100000000000000000000000000000000000000000000000000000000\n        /* \"#utility.yul\":21746:21747   */\n      0x00\n        /* \"#utility.yul\":21739:21827   */\n      mstore\n        /* \"#utility.yul\":21846:21850   */\n      0x22\n        /* \"#utility.yul\":21843:21844   */\n      0x04\n        /* \"#utility.yul\":21836:21851   */\n      mstore\n        /* \"#utility.yul\":21870:21874   */\n      0x24\n        /* \"#utility.yul\":21867:21868   */\n      0x00\n        /* \"#utility.yul\":21860:21875   */\n      revert\n        /* \"#utility.yul\":21887:22207   */\n    tag_54:\n        /* \"#utility.yul\":21931:21937   */\n      0x00\n        /* \"#utility.yul\":21968:21969   */\n      0x02\n        /* \"#utility.yul\":21962:21966   */\n      dup3\n        /* \"#utility.yul\":21958:21970   */\n      div\n        /* \"#utility.yul\":21948:21970   */\n      swap1\n      pop\n        /* \"#utility.yul\":22015:22016   */\n      0x01\n        /* \"#utility.yul\":22009:22013   */\n      dup3\n        /* \"#utility.yul\":22005:22017   */\n      and\n        /* \"#utility.yul\":22036:22054   */\n      dup1\n        /* \"#utility.yul\":22026:22107   */\n      tag_573\n      jumpi\n        /* \"#utility.yul\":22092:22096   */\n      0x7f\n        /* \"#utility.yul\":22084:22090   */\n      dup3\n        /* \"#utility.yul\":22080:22097   */\n      and\n        /* \"#utility.yul\":22070:22097   */\n      swap2\n      pop\n        /* \"#utility.yul\":22026:22107   */\n    tag_573:\n        /* \"#utility.yul\":22154:22156   */\n      0x20\n        /* \"#utility.yul\":22146:22152   */\n      dup3\n        /* \"#utility.yul\":22143:22157   */\n      lt\n        /* \"#utility.yul\":22123:22141   */\n      dup2\n        /* \"#utility.yul\":22120:22158   */\n      sub\n        /* \"#utility.yul\":22117:22201   */\n      tag_574\n      jumpi\n        /* \"#utility.yul\":22173:22191   */\n      tag_575\n      tag_341\n      jump\t// in\n    tag_575:\n        /* \"#utility.yul\":22117:22201   */\n    tag_574:\n        /* \"#utility.yul\":21938:22207   */\n      pop\n        /* \"#utility.yul\":21887:22207   */\n      swap2\n      swap1\n      pop\n      jump\t// out\n        /* \"#utility.yul\":22213:22393   */\n    tag_72:\n        /* \"#utility.yul\":22261:22338   */\n      0x4e487b7100000000000000000000000000000000000000000000000000000000\n        /* \"#utility.yul\":22258:22259   */\n      0x00\n        /* \"#utility.yul\":22251:22339   */\n      mstore\n        /* \"#utility.yul\":22358:22362   */\n      0x32\n        /* \"#utility.yul\":22355:22356   */\n      0x04\n        /* \"#utility.yul\":22348:22363   */\n      mstore\n        /* \"#utility.yul\":22382:22386   */\n      0x24\n        /* \"#utility.yul\":22379:22380   */\n      0x00\n        /* \"#utility.yul\":22372:22387   */\n      revert\n        /* \"#utility.yul\":22399:22745   */\n    tag_81:\n        /* \"#utility.yul\":22527:22531   */\n      0x00\n        /* \"#utility.yul\":22565:22567   */\n      0x40\n        /* \"#utility.yul\":22554:22563   */\n      dup3\n        /* \"#utility.yul\":22550:22568   */\n      add\n        /* \"#utility.yul\":22542:22568   */\n      swap1\n      pop\n        /* \"#utility.yul\":22578:22649   */\n      tag_578\n        /* \"#utility.yul\":22646:22647   */\n      0x00\n        /* \"#utility.yul\":22635:22644   */\n      dup4\n        /* \"#utility.yul\":22631:22648   */\n      add\n        /* \"#utility.yul\":22622:22628   */\n      dup6\n        /* \"#utility.yul\":22578:22649   */\n      tag_295\n      jump\t// in\n    tag_578:\n        /* \"#utility.yul\":22659:22738   */\n      tag_579\n        /* \"#utility.yul\":22734:22736   */\n      0x20\n        /* \"#utility.yul\":22723:22732   */\n      dup4\n        /* \"#utility.yul\":22719:22737   */\n      add\n        /* \"#utility.yul\":22710:22716   */\n      dup5\n        /* \"#utility.yul\":22659:22738   */\n      tag_304\n      jump\t// in\n    tag_579:\n        /* \"#utility.yul\":22399:22745   */\n      swap4\n      swap3\n      pop\n      pop\n      pop\n      jump\t// out\n        /* \"#utility.yul\":22751:22924   */\n    tag_342:\n        /* \"#utility.yul\":22891:22916   */\n      0x5469746c65206d757374206e6f7420626520656d707479000000000000000000\n        /* \"#utility.yul\":22887:22888   */\n      0x00\n        /* \"#utility.yul\":22879:22885   */\n      dup3\n        /* \"#utility.yul\":22875:22889   */\n      add\n        /* \"#utility.yul\":22868:22917   */\n      mstore\n        /* \"#utility.yul\":22751:22924   */\n      pop\n      jump\t// out\n        /* \"#utility.yul\":22930:23296   */\n    tag_343:\n        /* \"#utility.yul\":23072:23075   */\n      0x00\n        /* \"#utility.yul\":23093:23160   */\n      tag_582\n        /* \"#utility.yul\":23157:23159   */\n      0x17\n        /* \"#utility.yul\":23152:23155   */\n      dup4\n        /* \"#utility.yul\":23093:23160   */\n      tag_297\n      jump\t// in\n    tag_582:\n        /* \"#utility.yul\":23086:23160   */\n      swap2\n      pop\n        /* \"#utility.yul\":23169:23262   */\n      tag_583\n        /* \"#utility.yul\":23258:23261   */\n      dup3\n        /* \"#utility.yul\":23169:23262   */\n      tag_342\n      jump\t// in\n    tag_583:\n        /* \"#utility.yul\":23287:23289   */\n      0x20\n        /* \"#utility.yul\":23282:23285   */\n      dup3\n        /* \"#utility.yul\":23278:23290   */\n      add\n        /* \"#utility.yul\":23271:23290   */\n      swap1\n      pop\n        /* \"#utility.yul\":22930:23296   */\n      swap2\n      swap1\n      pop\n      jump\t// out\n        /* \"#utility.yul\":23302:23721   */\n    tag_116:\n        /* \"#utility.yul\":23468:23472   */\n      0x00\n        /* \"#utility.yul\":23506:23508   */\n      0x20\n        /* \"#utility.yul\":23495:23504   */\n      dup3\n        /* \"#utility.yul\":23491:23509   */\n      add\n        /* \"#utility.yul\":23483:23509   */\n      swap1\n      pop\n        /* \"#utility.yul\":23555:23564   */\n      dup2\n        /* \"#utility.yul\":23549:23553   */\n      dup2\n        /* \"#utility.yul\":23545:23565   */\n      sub\n        /* \"#utility.yul\":23541:23542   */\n      0x00\n        /* \"#utility.yul\":23530:23539   */\n      dup4\n        /* \"#utility.yul\":23526:23543   */\n      add\n        /* \"#utility.yul\":23519:23566   */\n      mstore\n        /* \"#utility.yul\":23583:23714   */\n      tag_585\n        /* \"#utility.yul\":23709:23713   */\n      dup2\n        /* \"#utility.yul\":23583:23714   */\n      tag_343\n      jump\t// in\n    tag_585:\n        /* \"#utility.yul\":23575:23714   */\n      swap1\n      pop\n        /* \"#utility.yul\":23302:23721   */\n      swap2\n      swap1\n      pop\n      jump\t// out\n        /* \"#utility.yul\":23727:23906   */\n    tag_344:\n        /* \"#utility.yul\":23867:23898   */\n      0x4465736372697074696f6e206d757374206e6f7420626520656d707479000000\n        /* \"#utility.yul\":23863:23864   */\n      0x00\n        /* \"#utility.yul\":23855:23861   */\n      dup3\n        /* \"#utility.yul\":23851:23865   */\n      add\n        /* \"#utility.yul\":23844:23899   */\n      mstore\n        /* \"#utility.yul\":23727:23906   */\n      pop\n      jump\t// out\n        /* \"#utility.yul\":23912:24278   */\n    tag_345:\n        /* \"#utility.yul\":24054:24057   */\n      0x00\n        /* \"#utility.yul\":24075:24142   */\n      tag_588\n        /* \"#utility.yul\":24139:24141   */\n      0x1d\n        /* \"#utility.yul\":24134:24137   */\n      dup4\n        /* \"#utility.yul\":24075:24142   */\n      tag_297\n      jump\t// in\n    tag_588:\n        /* \"#utility.yul\":24068:24142   */\n      swap2\n      pop\n        /* \"#utility.yul\":24151:24244   */\n      tag_589\n        /* \"#utility.yul\":24240:24243   */\n      dup3\n        /* \"#utility.yul\":24151:24244   */\n      tag_344\n      jump\t// in\n    tag_589:\n        /* \"#utility.yul\":24269:24271   */\n      0x20\n        /* \"#utility.yul\":24264:24267   */\n      dup3\n        /* \"#utility.yul\":24260:24272   */\n      add\n        /* \"#utility.yul\":24253:24272   */\n      swap1\n      pop\n        /* \"#utility.yul\":23912:24278   */\n      swap2\n      swap1\n      pop\n      jump\t// out\n        /* \"#utility.yul\":24284:24703   */\n    tag_119:\n        /* \"#utility.yul\":24450:24454   */\n      0x00\n        /* \"#utility.yul\":24488:24490   */\n      0x20\n        /* \"#utility.yul\":24477:24486   */\n      dup3\n        /* \"#utility.yul\":24473:24491   */\n      add\n        /* \"#utility.yul\":24465:24491   */\n      swap1\n      pop\n        /* \"#utility.yul\":24537:24546   */\n      dup2\n        /* \"#utility.yul\":24531:24535   */\n      dup2\n        /* \"#utility.yul\":24527:24547   */\n      sub\n        /* \"#utility.yul\":24523:24524   */\n      0x00\n        /* \"#utility.yul\":24512:24521   */\n      dup4\n        /* \"#utility.yul\":24508:24525   */\n      add\n        /* \"#utility.yul\":24501:24548   */\n      mstore\n        /* \"#utility.yul\":24565:24696   */\n      tag_591\n        /* \"#utility.yul\":24691:24695   */\n      dup2\n        /* \"#utility.yul\":24565:24696   */\n      tag_345\n      jump\t// in\n    tag_591:\n        /* \"#utility.yul\":24557:24696   */\n      swap1\n      pop\n        /* \"#utility.yul\":24284:24703   */\n      swap2\n      swap1\n      pop\n      jump\t// out\n        /* \"#utility.yul\":24709:24886   */\n    tag_346:\n        /* \"#utility.yul\":24849:24878   */\n      0x496d61676520555249206d757374206e6f7420626520656d7074790000000000\n        /* \"#utility.yul\":24845:24846   */\n      0x00\n        /* \"#utility.yul\":24837:24843   */\n      dup3\n        /* \"#utility.yul\":24833:24847   */\n      add\n        /* \"#utility.yul\":24826:24879   */\n      mstore\n        /* \"#utility.yul\":24709:24886   */\n      pop\n      jump\t// out\n        /* \"#utility.yul\":24892:25258   */\n    tag_347:\n        /* \"#utility.yul\":25034:25037   */\n      0x00\n        /* \"#utility.yul\":25055:25122   */\n      tag_594\n        /* \"#utility.yul\":25119:25121   */\n      0x1b\n        /* \"#utility.yul\":25114:25117   */\n      dup4\n        /* \"#utility.yul\":25055:25122   */\n      tag_297\n      jump\t// in\n    tag_594:\n        /* \"#utility.yul\":25048:25122   */\n      swap2\n      pop\n        /* \"#utility.yul\":25131:25224   */\n      tag_595\n        /* \"#utility.yul\":25220:25223   */\n      dup3\n        /* \"#utility.yul\":25131:25224   */\n      tag_346\n      jump\t// in\n    tag_595:\n        /* \"#utility.yul\":25249:25251   */\n      0x20\n        /* \"#utility.yul\":25244:25247   */\n      dup3\n        /* \"#utility.yul\":25240:25252   */\n      add\n        /* \"#utility.yul\":25233:25252   */\n      swap1\n      pop\n        /* \"#utility.yul\":24892:25258   */\n      swap2\n      swap1\n      pop\n      jump\t// out\n        /* \"#utility.yul\":25264:25683   */\n    tag_122:\n        /* \"#utility.yul\":25430:25434   */\n      0x00\n        /* \"#utility.yul\":25468:25470   */\n      0x20\n        /* \"#utility.yul\":25457:25466   */\n      dup3\n        /* \"#utility.yul\":25453:25471   */\n      add\n        /* \"#utility.yul\":25445:25471   */\n      swap1\n      pop\n        /* \"#utility.yul\":25517:25526   */\n      dup2\n        /* \"#utility.yul\":25511:25515   */\n      dup2\n        /* \"#utility.yul\":25507:25527   */\n      sub\n        /* \"#utility.yul\":25503:25504   */\n      0x00\n        /* \"#utility.yul\":25492:25501   */\n      dup4\n        /* \"#utility.yul\":25488:25505   */\n      add\n        /* \"#utility.yul\":25481:25528   */\n      mstore\n        /* \"#utility.yul\":25545:25676   */\n      tag_597\n        /* \"#utility.yul\":25671:25675   */\n      dup2\n        /* \"#utility.yul\":25545:25676   */\n      tag_347\n      jump\t// in\n    tag_597:\n        /* \"#utility.yul\":25537:25676   */\n      swap1\n      pop\n        /* \"#utility.yul\":25264:25683   */\n      swap2\n      swap1\n      pop\n      jump\t// out\n        /* \"#utility.yul\":25689:25866   */\n    tag_348:\n        /* \"#utility.yul\":25829:25858   */\n      0x476f616c206d7573742062652067726561746572207468616e20300000000000\n        /* \"#utility.yul\":25825:25826   */\n      0x00\n        /* \"#utility.yul\":25817:25823   */\n      dup3\n        /* \"#utility.yul\":25813:25827   */\n      add\n        /* \"#utility.yul\":25806:25859   */\n      mstore\n        /* \"#utility.yul\":25689:25866   */\n      pop\n      jump\t// out\n        /* \"#utility.yul\":25872:26238   */\n    tag_349:\n        /* \"#utility.yul\":26014:26017   */\n      0x00\n        /* \"#utility.yul\":26035:26102   */\n      tag_600\n        /* \"#utility.yul\":26099:26101   */\n      0x1b\n        /* \"#utility.yul\":26094:26097   */\n      dup4\n        /* \"#utility.yul\":26035:26102   */\n      tag_297\n      jump\t// in\n    tag_600:\n        /* \"#utility.yul\":26028:26102   */\n      swap2\n      pop\n        /* \"#utility.yul\":26111:26204   */\n      tag_601\n        /* \"#utility.yul\":26200:26203   */\n      dup3\n        /* \"#utility.yul\":26111:26204   */\n      tag_348\n      jump\t// in\n    tag_601:\n        /* \"#utility.yul\":26229:26231   */\n      0x20\n        /* \"#utility.yul\":26224:26227   */\n      dup3\n        /* \"#utility.yul\":26220:26232   */\n      add\n        /* \"#utility.yul\":26213:26232   */\n      swap1\n      pop\n        /* \"#utility.yul\":25872:26238   */\n      swap2\n      swap1\n      pop\n      jump\t// out\n        /* \"#utility.yul\":26244:26663   */\n    tag_125:\n        /* \"#utility.yul\":26410:26414   */\n      0x00\n        /* \"#utility.yul\":26448:26450   */\n      0x20\n        /* \"#utility.yul\":26437:26446   */\n      dup3\n        /* \"#utility.yul\":26433:26451   */\n      add\n        /* \"#utility.yul\":26425:26451   */\n      swap1\n      pop\n        /* \"#utility.yul\":26497:26506   */\n      dup2\n        /* \"#utility.yul\":26491:26495   */\n      dup2\n        /* \"#utility.yul\":26487:26507   */\n      sub\n        /* \"#utility.yul\":26483:26484   */\n      0x00\n        /* \"#utility.yul\":26472:26481   */\n      dup4\n        /* \"#utility.yul\":26468:26485   */\n      add\n        /* \"#utility.yul\":26461:26508   */\n      mstore\n        /* \"#utility.yul\":26525:26656   */\n      tag_603\n        /* \"#utility.yul\":26651:26655   */\n      dup2\n        /* \"#utility.yul\":26525:26656   */\n      tag_349\n      jump\t// in\n    tag_603:\n        /* \"#utility.yul\":26517:26656   */\n      swap1\n      pop\n        /* \"#utility.yul\":26244:26663   */\n      swap2\n      swap1\n      pop\n      jump\t// out\n        /* \"#utility.yul\":26669:26910   */\n    tag_350:\n        /* \"#utility.yul\":26809:26843   */\n      0x456e642074696d65206f662063616d706169676e206d75747320626520677265\n        /* \"#utility.yul\":26805:26806   */\n      0x00\n        /* \"#utility.yul\":26797:26803   */\n      dup3\n        /* \"#utility.yul\":26793:26807   */\n      add\n        /* \"#utility.yul\":26786:26844   */\n      mstore\n        /* \"#utility.yul\":26878:26902   */\n      0x61746572207468616e2063757272656e742074696d6500000000000000000000\n        /* \"#utility.yul\":26873:26875   */\n      0x20\n        /* \"#utility.yul\":26865:26871   */\n      dup3\n        /* \"#utility.yul\":26861:26876   */\n      add\n        /* \"#utility.yul\":26854:26903   */\n      mstore\n        /* \"#utility.yul\":26669:26910   */\n      pop\n      jump\t// out\n        /* \"#utility.yul\":26916:27282   */\n    tag_351:\n        /* \"#utility.yul\":27058:27061   */\n      0x00\n        /* \"#utility.yul\":27079:27146   */\n      tag_606\n        /* \"#utility.yul\":27143:27145   */\n      0x36\n        /* \"#utility.yul\":27138:27141   */\n      dup4\n        /* \"#utility.yul\":27079:27146   */\n      tag_297\n      jump\t// in\n    tag_606:\n        /* \"#utility.yul\":27072:27146   */\n      swap2\n      pop\n        /* \"#utility.yul\":27155:27248   */\n      tag_607\n        /* \"#utility.yul\":27244:27247   */\n      dup3\n        /* \"#utility.yul\":27155:27248   */\n      tag_350\n      jump\t// in\n    tag_607:\n        /* \"#utility.yul\":27273:27275   */\n      0x40\n        /* \"#utility.yul\":27268:27271   */\n      dup3\n        /* \"#utility.yul\":27264:27276   */\n      add\n        /* \"#utility.yul\":27257:27276   */\n      swap1\n      pop\n        /* \"#utility.yul\":26916:27282   */\n      swap2\n      swap1\n      pop\n      jump\t// out\n        /* \"#utility.yul\":27288:27707   */\n    tag_128:\n        /* \"#utility.yul\":27454:27458   */\n      0x00\n        /* \"#utility.yul\":27492:27494   */\n      0x20\n        /* \"#utility.yul\":27481:27490   */\n      dup3\n        /* \"#utility.yul\":27477:27495   */\n      add\n        /* \"#utility.yul\":27469:27495   */\n      swap1\n      pop\n        /* \"#utility.yul\":27541:27550   */\n      dup2\n        /* \"#utility.yul\":27535:27539   */\n      dup2\n        /* \"#utility.yul\":27531:27551   */\n      sub\n        /* \"#utility.yul\":27527:27528   */\n      0x00\n        /* \"#utility.yul\":27516:27525   */\n      dup4\n        /* \"#utility.yul\":27512:27529   */\n      add\n        /* \"#utility.yul\":27505:27552   */\n      mstore\n        /* \"#utility.yul\":27569:27700   */\n      tag_609\n        /* \"#utility.yul\":27695:27699   */\n      dup2\n        /* \"#utility.yul\":27569:27700   */\n      tag_351\n      jump\t// in\n    tag_609:\n        /* \"#utility.yul\":27561:27700   */\n      swap1\n      pop\n        /* \"#utility.yul\":27288:27707   */\n      swap2\n      swap1\n      pop\n      jump\t// out\n        /* \"#utility.yul\":27713:27893   */\n    tag_352:\n        /* \"#utility.yul\":27761:27838   */\n      0x4e487b7100000000000000000000000000000000000000000000000000000000\n        /* \"#utility.yul\":27758:27759   */\n      0x00\n        /* \"#utility.yul\":27751:27839   */\n      mstore\n        /* \"#utility.yul\":27858:27862   */\n      0x11\n        /* \"#utility.yul\":27855:27856   */\n      0x04\n        /* \"#utility.yul\":27848:27863   */\n      mstore\n        /* \"#utility.yul\":27882:27886   */\n      0x24\n        /* \"#utility.yul\":27879:27880   */\n      0x00\n        /* \"#utility.yul\":27872:27887   */\n      revert\n        /* \"#utility.yul\":27899:28132   */\n    tag_130:\n        /* \"#utility.yul\":27938:27941   */\n      0x00\n        /* \"#utility.yul\":27961:27985   */\n      tag_612\n        /* \"#utility.yul\":27979:27984   */\n      dup3\n        /* \"#utility.yul\":27961:27985   */\n      tag_289\n      jump\t// in\n    tag_612:\n        /* \"#utility.yul\":27952:27985   */\n      swap2\n      pop\n        /* \"#utility.yul\":28007:28073   */\n      0xffffffffffffffffffffffffffffffffffffffffffffffffffffffffffffffff\n        /* \"#utility.yul\":28000:28005   */\n      dup3\n        /* \"#utility.yul\":27997:28074   */\n      sub\n        /* \"#utility.yul\":27994:28097   */\n      tag_613\n      jumpi\n        /* \"#utility.yul\":28077:28095   */\n      tag_614\n      tag_352\n      jump\t// in\n    tag_614:\n        /* \"#utility.yul\":27994:28097   */\n    tag_613:\n        /* \"#utility.yul\":28124:28125   */\n      0x01\n        /* \"#utility.yul\":28117:28122   */\n      dup3\n        /* \"#utility.yul\":28113:28126   */\n      add\n        /* \"#utility.yul\":28106:28126   */\n      swap1\n      pop\n        /* \"#utility.yul\":27899:28132   */\n      swap2\n      swap1\n      pop\n      jump\t// out\n        /* \"#utility.yul\":28138:28279   */\n    tag_353:\n        /* \"#utility.yul\":28187:28191   */\n      0x00\n        /* \"#utility.yul\":28210:28213   */\n      dup2\n        /* \"#utility.yul\":28202:28213   */\n      swap1\n      pop\n        /* \"#utility.yul\":28233:28236   */\n      dup2\n        /* \"#utility.yul\":28230:28231   */\n      0x00\n        /* \"#utility.yul\":28223:28237   */\n      mstore\n        /* \"#utility.yul\":28267:28271   */\n      0x20\n        /* \"#utility.yul\":28264:28265   */\n      0x00\n        /* \"#utility.yul\":28254:28272   */\n      keccak256\n        /* \"#utility.yul\":28246:28272   */\n      swap1\n      pop\n        /* \"#utility.yul\":28138:28279   */\n      swap2\n      swap1\n      pop\n      jump\t// out\n        /* \"#utility.yul\":28285:28378   */\n    tag_354:\n        /* \"#utility.yul\":28322:28328   */\n      0x00\n        /* \"#utility.yul\":28369:28371   */\n      0x20\n        /* \"#utility.yul\":28364:28366   */\n      0x1f\n        /* \"#utility.yul\":28357:28362   */\n      dup4\n        /* \"#utility.yul\":28353:28367   */\n      add\n        /* \"#utility.yul\":28349:28372   */\n      div\n        /* \"#utility.yul\":28339:28372   */\n      swap1\n      pop\n        /* \"#utility.yul\":28285:28378   */\n      swap2\n      swap1\n      pop\n      jump\t// out\n        /* \"#utility.yul\":28384:28491   */\n    tag_355:\n        /* \"#utility.yul\":28428:28436   */\n      0x00\n        /* \"#utility.yul\":28478:28483   */\n      dup3\n        /* \"#utility.yul\":28472:28476   */\n      dup3\n        /* \"#utility.yul\":28468:28484   */\n      shl\n        /* \"#utility.yul\":28447:28484   */\n      swap1\n      pop\n        /* \"#utility.yul\":28384:28491   */\n      swap3\n      swap2\n      pop\n      pop\n      jump\t// out\n        /* \"#utility.yul\":28497:28890   */\n    tag_356:\n        /* \"#utility.yul\":28566:28572   */\n      0x00\n        /* \"#utility.yul\":28616:28617   */\n      0x08\n        /* \"#utility.yul\":28604:28614   */\n      dup4\n        /* \"#utility.yul\":28600:28618   */\n      mul\n        /* \"#utility.yul\":28639:28736   */\n      tag_619\n        /* \"#utility.yul\":28669:28735   */\n      0xffffffffffffffffffffffffffffffffffffffffffffffffffffffffffffffff\n        /* \"#utility.yul\":28658:28667   */\n      dup3\n        /* \"#utility.yul\":28639:28736   */\n      tag_355\n      jump\t// in\n    tag_619:\n        /* \"#utility.yul\":28757:28796   */\n      tag_620\n        /* \"#utility.yul\":28787:28795   */\n      dup7\n        /* \"#utility.yul\":28776:28785   */\n      dup4\n        /* \"#utility.yul\":28757:28796   */\n      tag_355\n      jump\t// in\n    tag_620:\n        /* \"#utility.yul\":28745:28796   */\n      swap6\n      pop\n        /* \"#utility.yul\":28829:28833   */\n      dup1\n        /* \"#utility.yul\":28825:28834   */\n      not\n        /* \"#utility.yul\":28818:28823   */\n      dup5\n        /* \"#utility.yul\":28814:28835   */\n      and\n        /* \"#utility.yul\":28805:28835   */\n      swap4\n      pop\n        /* \"#utility.yul\":28878:28882   */\n      dup1\n        /* \"#utility.yul\":28868:28876   */\n      dup7\n        /* \"#utility.yul\":28864:28883   */\n      and\n        /* \"#utility.yul\":28857:28862   */\n      dup5\n        /* \"#utility.yul\":28854:28884   */\n      or\n        /* \"#utility.yul\":28844:28884   */\n      swap3\n      pop\n        /* \"#utility.yul\":28573:28890   */\n      pop\n      pop\n        /* \"#utility.yul\":28497:28890   */\n      swap4\n      swap3\n      pop\n      pop\n      pop\n      jump\t// out\n        /* \"#utility.yul\":28896:28956   */\n    tag_357:\n        /* \"#utility.yul\":28924:28927   */\n      0x00\n        /* \"#utility.yul\":28945:28950   */\n      dup2\n        /* \"#utility.yul\":28938:28950   */\n      swap1\n      pop\n        /* \"#utility.yul\":28896:28956   */\n      swap2\n      swap1\n      pop\n      jump\t// out\n        /* \"#utility.yul\":28962:29104   */\n    tag_358:\n        /* \"#utility.yul\":29012:29021   */\n      0x00\n        /* \"#utility.yul\":29045:29098   */\n      tag_623\n        /* \"#utility.yul\":29063:29097   */\n      tag_624\n        /* \"#utility.yul\":29072:29096   */\n      tag_625\n        /* \"#utility.yul\":29090:29095   */\n      dup5\n        /* \"#utility.yul\":29072:29096   */\n      tag_289\n      jump\t// in\n    tag_625:\n        /* \"#utility.yul\":29063:29097   */\n      tag_357\n      jump\t// in\n    tag_624:\n        /* \"#utility.yul\":29045:29098   */\n      tag_289\n      jump\t// in\n    tag_623:\n        /* \"#utility.yul\":29032:29098   */\n      swap1\n      pop\n        /* \"#utility.yul\":28962:29104   */\n      swap2\n      swap1\n      pop\n      jump\t// out\n        /* \"#utility.yul\":29110:29185   */\n    tag_359:\n        /* \"#utility.yul\":29153:29156   */\n      0x00\n        /* \"#utility.yul\":29174:29179   */\n      dup2\n        /* \"#utility.yul\":29167:29179   */\n      swap1\n      pop\n        /* \"#utility.yul\":29110:29185   */\n      swap2\n      swap1\n      pop\n      jump\t// out\n        /* \"#utility.yul\":29191:29460   */\n    tag_360:\n        /* \"#utility.yul\":29301:29340   */\n      tag_628\n        /* \"#utility.yul\":29332:29339   */\n      dup4\n        /* \"#utility.yul\":29301:29340   */\n      tag_358\n      jump\t// in\n    tag_628:\n        /* \"#utility.yul\":29362:29453   */\n      tag_629\n        /* \"#utility.yul\":29411:29452   */\n      tag_630\n        /* \"#utility.yul\":29435:29451   */\n      dup3\n        /* \"#utility.yul\":29411:29452   */\n      tag_359\n      jump\t// in\n    tag_630:\n        /* \"#utility.yul\":29403:29409   */\n      dup5\n        /* \"#utility.yul\":29396:29400   */\n      dup5\n        /* \"#utility.yul\":29390:29401   */\n      sload\n        /* \"#utility.yul\":29362:29453   */\n      tag_356\n      jump\t// in\n    tag_629:\n        /* \"#utility.yul\":29356:29360   */\n      dup3\n        /* \"#utility.yul\":29349:29454   */\n      sstore\n        /* \"#utility.yul\":29267:29460   */\n      pop\n        /* \"#utility.yul\":29191:29460   */\n      pop\n      pop\n      pop\n      jump\t// out\n        /* \"#utility.yul\":29466:29539   */\n    tag_361:\n        /* \"#utility.yul\":29511:29514   */\n      0x00\n        /* \"#utility.yul\":29466:29539   */\n      swap1\n      jump\t// out\n        /* \"#utility.yul\":29545:29734   */\n    tag_362:\n        /* \"#utility.yul\":29622:29654   */\n      tag_633\n      tag_361\n      jump\t// in\n    tag_633:\n        /* \"#utility.yul\":29663:29728   */\n      tag_634\n        /* \"#utility.yul\":29721:29727   */\n      dup2\n        /* \"#utility.yul\":29713:29719   */\n      dup5\n        /* \"#utility.yul\":29707:29711   */\n      dup5\n        /* \"#utility.yul\":29663:29728   */\n      tag_360\n      jump\t// in\n    tag_634:\n        /* \"#utility.yul\":29598:29734   */\n      pop\n        /* \"#utility.yul\":29545:29734   */\n      pop\n      pop\n      jump\t// out\n        /* \"#utility.yul\":29740:29926   */\n    tag_363:\n        /* \"#utility.yul\":29800:29920   */\n    tag_636:\n        /* \"#utility.yul\":29817:29820   */\n      dup2\n        /* \"#utility.yul\":29810:29815   */\n      dup2\n        /* \"#utility.yul\":29807:29821   */\n      lt\n        /* \"#utility.yul\":29800:29920   */\n      iszero\n      tag_638\n      jumpi\n        /* \"#utility.yul\":29871:29910   */\n      tag_639\n        /* \"#utility.yul\":29908:29909   */\n      0x00\n        /* \"#utility.yul\":29901:29906   */\n      dup3\n        /* \"#utility.yul\":29871:29910   */\n      tag_362\n      jump\t// in\n    tag_639:\n        /* \"#utility.yul\":29844:29845   */\n      0x01\n        /* \"#utility.yul\":29837:29842   */\n      dup2\n        /* \"#utility.yul\":29833:29846   */\n      add\n        /* \"#utility.yul\":29824:29846   */\n      swap1\n      pop\n        /* \"#utility.yul\":29800:29920   */\n      jump(tag_636)\n    tag_638:\n        /* \"#utility.yul\":29740:29926   */\n      pop\n      pop\n      jump\t// out\n        /* \"#utility.yul\":29932:30475   */\n    tag_364:\n        /* \"#utility.yul\":30033:30035   */\n      0x1f\n        /* \"#utility.yul\":30028:30031   */\n      dup3\n        /* \"#utility.yul\":30025:30036   */\n      gt\n        /* \"#utility.yul\":30022:30468   */\n      iszero\n      tag_641\n      jumpi\n        /* \"#utility.yul\":30067:30105   */\n      tag_642\n        /* \"#utility.yul\":30099:30104   */\n      dup2\n        /* \"#utility.yul\":30067:30105   */\n      tag_353\n      jump\t// in\n    tag_642:\n        /* \"#utility.yul\":30151:30180   */\n      tag_643\n        /* \"#utility.yul\":30169:30179   */\n      dup5\n        /* \"#utility.yul\":30151:30180   */\n      tag_354\n      jump\t// in\n    tag_643:\n        /* \"#utility.yul\":30141:30149   */\n      dup2\n        /* \"#utility.yul\":30137:30181   */\n      add\n        /* \"#utility.yul\":30334:30336   */\n      0x20\n        /* \"#utility.yul\":30322:30332   */\n      dup6\n        /* \"#utility.yul\":30319:30337   */\n      lt\n        /* \"#utility.yul\":30316:30365   */\n      iszero\n      tag_644\n      jumpi\n        /* \"#utility.yul\":30355:30363   */\n      dup2\n        /* \"#utility.yul\":30340:30363   */\n      swap1\n      pop\n        /* \"#utility.yul\":30316:30365   */\n    tag_644:\n        /* \"#utility.yul\":30378:30458   */\n      tag_645\n        /* \"#utility.yul\":30434:30456   */\n      tag_646\n        /* \"#utility.yul\":30452:30455   */\n      dup6\n        /* \"#utility.yul\":30434:30456   */\n      tag_354\n      jump\t// in\n    tag_646:\n        /* \"#utility.yul\":30424:30432   */\n      dup4\n        /* \"#utility.yul\":30420:30457   */\n      add\n        /* \"#utility.yul\":30407:30418   */\n      dup3\n        /* \"#utility.yul\":30378:30458   */\n      tag_363\n      jump\t// in\n    tag_645:\n        /* \"#utility.yul\":30037:30468   */\n      pop\n      pop\n        /* \"#utility.yul\":30022:30468   */\n    tag_641:\n        /* \"#utility.yul\":29932:30475   */\n      pop\n      pop\n      pop\n      jump\t// out\n        /* \"#utility.yul\":30481:30598   */\n    tag_365:\n        /* \"#utility.yul\":30535:30543   */\n      0x00\n        /* \"#utility.yul\":30585:30590   */\n      dup3\n        /* \"#utility.yul\":30579:30583   */\n      dup3\n        /* \"#utility.yul\":30575:30591   */\n      shr\n        /* \"#utility.yul\":30554:30591   */\n      swap1\n      pop\n        /* \"#utility.yul\":30481:30598   */\n      swap3\n      swap2\n      pop\n      pop\n      jump\t// out\n        /* \"#utility.yul\":30604:30773   */\n    tag_366:\n        /* \"#utility.yul\":30648:30654   */\n      0x00\n        /* \"#utility.yul\":30681:30732   */\n      tag_649\n        /* \"#utility.yul\":30729:30730   */\n      0x00\n        /* \"#utility.yul\":30725:30731   */\n      not\n        /* \"#utility.yul\":30717:30722   */\n      dup5\n        /* \"#utility.yul\":30714:30715   */\n      0x08\n        /* \"#utility.yul\":30710:30723   */\n      mul\n        /* \"#utility.yul\":30681:30732   */\n      tag_365\n      jump\t// in\n    tag_649:\n        /* \"#utility.yul\":30677:30733   */\n      not\n        /* \"#utility.yul\":30762:30766   */\n      dup1\n        /* \"#utility.yul\":30756:30760   */\n      dup4\n        /* \"#utility.yul\":30752:30767   */\n      and\n        /* \"#utility.yul\":30742:30767   */\n      swap2\n      pop\n        /* \"#utility.yul\":30655:30773   */\n      pop\n        /* \"#utility.yul\":30604:30773   */\n      swap3\n      swap2\n      pop\n      pop\n      jump\t// out\n        /* \"#utility.yul\":30778:31073   */\n    tag_367:\n        /* \"#utility.yul\":30854:30858   */\n      0x00\n        /* \"#utility.yul\":31000:31029   */\n      tag_651\n        /* \"#utility.yul\":31025:31028   */\n      dup4\n        /* \"#utility.yul\":31019:31023   */\n      dup4\n        /* \"#utility.yul\":31000:31029   */\n      tag_366\n      jump\t// in\n    tag_651:\n        /* \"#utility.yul\":30992:31029   */\n      swap2\n      pop\n        /* \"#utility.yul\":31062:31065   */\n      dup3\n        /* \"#utility.yul\":31059:31060   */\n      0x02\n        /* \"#utility.yul\":31055:31066   */\n      mul\n        /* \"#utility.yul\":31049:31053   */\n      dup3\n        /* \"#utility.yul\":31046:31067   */\n      or\n        /* \"#utility.yul\":31038:31067   */\n      swap1\n      pop\n        /* \"#utility.yul\":30778:31073   */\n      swap3\n      swap2\n      pop\n      pop\n      jump\t// out\n        /* \"#utility.yul\":31078:32473   */\n    tag_142:\n        /* \"#utility.yul\":31195:31232   */\n      tag_653\n        /* \"#utility.yul\":31228:31231   */\n      dup3\n        /* \"#utility.yul\":31195:31232   */\n      tag_296\n      jump\t// in\n    tag_653:\n        /* \"#utility.yul\":31297:31315   */\n      0xffffffffffffffff\n        /* \"#utility.yul\":31289:31295   */\n      dup2\n        /* \"#utility.yul\":31286:31316   */\n      gt\n        /* \"#utility.yul\":31283:31339   */\n      iszero\n      tag_654\n      jumpi\n        /* \"#utility.yul\":31319:31337   */\n      tag_655\n      tag_135\n      jump\t// in\n    tag_655:\n        /* \"#utility.yul\":31283:31339   */\n    tag_654:\n        /* \"#utility.yul\":31363:31401   */\n      tag_656\n        /* \"#utility.yul\":31395:31399   */\n      dup3\n        /* \"#utility.yul\":31389:31400   */\n      sload\n        /* \"#utility.yul\":31363:31401   */\n      tag_54\n      jump\t// in\n    tag_656:\n        /* \"#utility.yul\":31448:31515   */\n      tag_657\n        /* \"#utility.yul\":31508:31514   */\n      dup3\n        /* \"#utility.yul\":31500:31506   */\n      dup3\n        /* \"#utility.yul\":31494:31498   */\n      dup6\n        /* \"#utility.yul\":31448:31515   */\n      tag_364\n      jump\t// in\n    tag_657:\n        /* \"#utility.yul\":31542:31543   */\n      0x00\n        /* \"#utility.yul\":31566:31570   */\n      0x20\n        /* \"#utility.yul\":31553:31570   */\n      swap1\n      pop\n        /* \"#utility.yul\":31598:31600   */\n      0x1f\n        /* \"#utility.yul\":31590:31596   */\n      dup4\n        /* \"#utility.yul\":31587:31601   */\n      gt\n        /* \"#utility.yul\":31615:31616   */\n      0x01\n        /* \"#utility.yul\":31610:32228   */\n      dup2\n      eq\n      tag_659\n      jumpi\n        /* \"#utility.yul\":32272:32273   */\n      0x00\n        /* \"#utility.yul\":32289:32295   */\n      dup5\n        /* \"#utility.yul\":32286:32363   */\n      iszero\n      tag_660\n      jumpi\n        /* \"#utility.yul\":32338:32347   */\n      dup3\n        /* \"#utility.yul\":32333:32336   */\n      dup8\n        /* \"#utility.yul\":32329:32348   */\n      add\n        /* \"#utility.yul\":32323:32349   */\n      mload\n        /* \"#utility.yul\":32314:32349   */\n      swap1\n      pop\n        /* \"#utility.yul\":32286:32363   */\n    tag_660:\n        /* \"#utility.yul\":32389:32456   */\n      tag_661\n        /* \"#utility.yul\":32449:32455   */\n      dup6\n        /* \"#utility.yul\":32442:32447   */\n      dup3\n        /* \"#utility.yul\":32389:32456   */\n      tag_367\n      jump\t// in\n    tag_661:\n        /* \"#utility.yul\":32383:32387   */\n      dup7\n        /* \"#utility.yul\":32376:32457   */\n      sstore\n        /* \"#utility.yul\":32245:32467   */\n      pop\n        /* \"#utility.yul\":31580:32467   */\n      jump(tag_658)\n        /* \"#utility.yul\":31610:32228   */\n    tag_659:\n        /* \"#utility.yul\":31662:31666   */\n      0x1f\n        /* \"#utility.yul\":31658:31667   */\n      not\n        /* \"#utility.yul\":31650:31656   */\n      dup5\n        /* \"#utility.yul\":31646:31668   */\n      and\n        /* \"#utility.yul\":31696:31733   */\n      tag_662\n        /* \"#utility.yul\":31728:31732   */\n      dup7\n        /* \"#utility.yul\":31696:31733   */\n      tag_353\n      jump\t// in\n    tag_662:\n        /* \"#utility.yul\":31755:31756   */\n      0x00\n        /* \"#utility.yul\":31769:31977   */\n    tag_663:\n        /* \"#utility.yul\":31783:31790   */\n      dup3\n        /* \"#utility.yul\":31780:31781   */\n      dup2\n        /* \"#utility.yul\":31777:31791   */\n      lt\n        /* \"#utility.yul\":31769:31977   */\n      iszero\n      tag_665\n      jumpi\n        /* \"#utility.yul\":31862:31871   */\n      dup5\n        /* \"#utility.yul\":31857:31860   */\n      dup10\n        /* \"#utility.yul\":31853:31872   */\n      add\n        /* \"#utility.yul\":31847:31873   */\n      mload\n        /* \"#utility.yul\":31839:31845   */\n      dup3\n        /* \"#utility.yul\":31832:31874   */\n      sstore\n        /* \"#utility.yul\":31913:31914   */\n      0x01\n        /* \"#utility.yul\":31905:31911   */\n      dup3\n        /* \"#utility.yul\":31901:31915   */\n      add\n        /* \"#utility.yul\":31891:31915   */\n      swap2\n      pop\n        /* \"#utility.yul\":31960:31962   */\n      0x20\n        /* \"#utility.yul\":31949:31958   */\n      dup6\n        /* \"#utility.yul\":31945:31963   */\n      add\n        /* \"#utility.yul\":31932:31963   */\n      swap5\n      pop\n        /* \"#utility.yul\":31806:31810   */\n      0x20\n        /* \"#utility.yul\":31803:31804   */\n      dup2\n        /* \"#utility.yul\":31799:31811   */\n      add\n        /* \"#utility.yul\":31794:31811   */\n      swap1\n      pop\n        /* \"#utility.yul\":31769:31977   */\n      jump(tag_663)\n    tag_665:\n        /* \"#utility.yul\":32005:32011   */\n      dup7\n        /* \"#utility.yul\":31996:32003   */\n      dup4\n        /* \"#utility.yul\":31993:32012   */\n      lt\n        /* \"#utility.yul\":31990:32169   */\n      iszero\n      tag_666\n      jumpi\n        /* \"#utility.yul\":32063:32072   */\n      dup5\n        /* \"#utility.yul\":32058:32061   */\n      dup10\n        /* \"#utility.yul\":32054:32073   */\n      add\n        /* \"#utility.yul\":32048:32074   */\n      mload\n        /* \"#utility.yul\":32106:32154   */\n      tag_667\n        /* \"#utility.yul\":32148:32152   */\n      0x1f\n        /* \"#utility.yul\":32140:32146   */\n      dup10\n        /* \"#utility.yul\":32136:32153   */\n      and\n        /* \"#utility.yul\":32125:32134   */\n      dup3\n        /* \"#utility.yul\":32106:32154   */\n      tag_366\n      jump\t// in\n    tag_667:\n        /* \"#utility.yul\":32098:32104   */\n      dup4\n        /* \"#utility.yul\":32091:32155   */\n      sstore\n        /* \"#utility.yul\":32013:32169   */\n      pop\n        /* \"#utility.yul\":31990:32169   */\n    tag_666:\n        /* \"#utility.yul\":32215:32216   */\n      0x01\n        /* \"#utility.yul\":32211:32212   */\n      0x02\n        /* \"#utility.yul\":32203:32209   */\n      dup9\n        /* \"#utility.yul\":32199:32213   */\n      mul\n        /* \"#utility.yul\":32195:32217   */\n      add\n        /* \"#utility.yul\":32189:32193   */\n      dup9\n        /* \"#utility.yul\":32182:32218   */\n      sstore\n        /* \"#utility.yul\":31617:32228   */\n      pop\n      pop\n      pop\n        /* \"#utility.yul\":31580:32467   */\n    tag_658:\n      pop\n        /* \"#utility.yul\":31170:32473   */\n      pop\n      pop\n      pop\n        /* \"#utility.yul\":31078:32473   */\n      pop\n      pop\n      jump\t// out\n        /* \"#utility.yul\":32479:32673   */\n    tag_152:\n        /* \"#utility.yul\":32519:32523   */\n      0x00\n        /* \"#utility.yul\":32539:32559   */\n      tag_669\n        /* \"#utility.yul\":32557:32558   */\n      dup3\n        /* \"#utility.yul\":32539:32559   */\n      tag_289\n      jump\t// in\n    tag_669:\n        /* \"#utility.yul\":32534:32559   */\n      swap2\n      pop\n        /* \"#utility.yul\":32573:32593   */\n      tag_670\n        /* \"#utility.yul\":32591:32592   */\n      dup4\n        /* \"#utility.yul\":32573:32593   */\n      tag_289\n      jump\t// in\n    tag_670:\n        /* \"#utility.yul\":32568:32593   */\n      swap3\n      pop\n        /* \"#utility.yul\":32617:32618   */\n      dup3\n        /* \"#utility.yul\":32614:32615   */\n      dup3\n        /* \"#utility.yul\":32610:32619   */\n      sub\n        /* \"#utility.yul\":32602:32619   */\n      swap1\n      pop\n        /* \"#utility.yul\":32641:32642   */\n      dup2\n        /* \"#utility.yul\":32635:32639   */\n      dup2\n        /* \"#utility.yul\":32632:32643   */\n      gt\n        /* \"#utility.yul\":32629:32666   */\n      iszero\n      tag_671\n      jumpi\n        /* \"#utility.yul\":32646:32664   */\n      tag_672\n      tag_352\n      jump\t// in\n    tag_672:\n        /* \"#utility.yul\":32629:32666   */\n    tag_671:\n        /* \"#utility.yul\":32479:32673   */\n      swap3\n      swap2\n      pop\n      pop\n      jump\t// out\n        /* \"#utility.yul\":32679:33226   */\n    tag_154:\n        /* \"#utility.yul\":32855:32859   */\n      0x00\n        /* \"#utility.yul\":32893:32895   */\n      0x60\n        /* \"#utility.yul\":32882:32891   */\n      dup3\n        /* \"#utility.yul\":32878:32896   */\n      add\n        /* \"#utility.yul\":32870:32896   */\n      swap1\n      pop\n        /* \"#utility.yul\":32906:32977   */\n      tag_674\n        /* \"#utility.yul\":32974:32975   */\n      0x00\n        /* \"#utility.yul\":32963:32972   */\n      dup4\n        /* \"#utility.yul\":32959:32976   */\n      add\n        /* \"#utility.yul\":32950:32956   */\n      dup7\n        /* \"#utility.yul\":32906:32977   */\n      tag_295\n      jump\t// in\n    tag_674:\n        /* \"#utility.yul\":33024:33033   */\n      dup2\n        /* \"#utility.yul\":33018:33022   */\n      dup2\n        /* \"#utility.yul\":33014:33034   */\n      sub\n        /* \"#utility.yul\":33009:33011   */\n      0x20\n        /* \"#utility.yul\":32998:33007   */\n      dup4\n        /* \"#utility.yul\":32994:33012   */\n      add\n        /* \"#utility.yul\":32987:33035   */\n      mstore\n        /* \"#utility.yul\":33052:33130   */\n      tag_675\n        /* \"#utility.yul\":33125:33129   */\n      dup2\n        /* \"#utility.yul\":33116:33122   */\n      dup6\n        /* \"#utility.yul\":33052:33130   */\n      tag_300\n      jump\t// in\n    tag_675:\n        /* \"#utility.yul\":33044:33130   */\n      swap1\n      pop\n        /* \"#utility.yul\":33140:33219   */\n      tag_676\n        /* \"#utility.yul\":33215:33217   */\n      0x40\n        /* \"#utility.yul\":33204:33213   */\n      dup4\n        /* \"#utility.yul\":33200:33218   */\n      add\n        /* \"#utility.yul\":33191:33197   */\n      dup5\n        /* \"#utility.yul\":33140:33219   */\n      tag_304\n      jump\t// in\n    tag_676:\n        /* \"#utility.yul\":32679:33226   */\n      swap5\n      swap4\n      pop\n      pop\n      pop\n      pop\n      jump\t// out\n        /* \"#utility.yul\":33232:33401   */\n    tag_368:\n        /* \"#utility.yul\":33372:33393   */\n      0x4e6f2063616d706169676e7320666f756e642e00000000000000000000000000\n        /* \"#utility.yul\":33368:33369   */\n      0x00\n        /* \"#utility.yul\":33360:33366   */\n      dup3\n        /* \"#utility.yul\":33356:33370   */\n      add\n        /* \"#utility.yul\":33349:33394   */\n      mstore\n        /* \"#utility.yul\":33232:33401   */\n      pop\n      jump\t// out\n        /* \"#utility.yul\":33407:33773   */\n    tag_369:\n        /* \"#utility.yul\":33549:33552   */\n      0x00\n        /* \"#utility.yul\":33570:33637   */\n      tag_679\n        /* \"#utility.yul\":33634:33636   */\n      0x13\n        /* \"#utility.yul\":33629:33632   */\n      dup4\n        /* \"#utility.yul\":33570:33637   */\n      tag_297\n      jump\t// in\n    tag_679:\n        /* \"#utility.yul\":33563:33637   */\n      swap2\n      pop\n        /* \"#utility.yul\":33646:33739   */\n      tag_680\n        /* \"#utility.yul\":33735:33738   */\n      dup3\n        /* \"#utility.yul\":33646:33739   */\n      tag_368\n      jump\t// in\n    tag_680:\n        /* \"#utility.yul\":33764:33766   */\n      0x20\n        /* \"#utility.yul\":33759:33762   */\n      dup3\n        /* \"#utility.yul\":33755:33767   */\n      add\n        /* \"#utility.yul\":33748:33767   */\n      swap1\n      pop\n        /* \"#utility.yul\":33407:33773   */\n      swap2\n      swap1\n      pop\n      jump\t// out\n        /* \"#utility.yul\":33779:34198   */\n    tag_158:\n        /* \"#utility.yul\":33945:33949   */\n      0x00\n        /* \"#utility.yul\":33983:33985   */\n      0x20\n        /* \"#utility.yul\":33972:33981   */\n      dup3\n        /* \"#utility.yul\":33968:33986   */\n      add\n        /* \"#utility.yul\":33960:33986   */\n      swap1\n      pop\n        /* \"#utility.yul\":34032:34041   */\n      dup2\n        /* \"#utility.yul\":34026:34030   */\n      dup2\n        /* \"#utility.yul\":34022:34042   */\n      sub\n        /* \"#utility.yul\":34018:34019   */\n      0x00\n        /* \"#utility.yul\":34007:34016   */\n      dup4\n        /* \"#utility.yul\":34003:34020   */\n      add\n        /* \"#utility.yul\":33996:34043   */\n      mstore\n        /* \"#utility.yul\":34060:34191   */\n      tag_682\n        /* \"#utility.yul\":34186:34190   */\n      dup2\n        /* \"#utility.yul\":34060:34191   */\n      tag_369\n      jump\t// in\n    tag_682:\n        /* \"#utility.yul\":34052:34191   */\n      swap1\n      pop\n        /* \"#utility.yul\":33779:34198   */\n      swap2\n      swap1\n      pop\n      jump\t// out\n        /* \"#utility.yul\":34204:34368   */\n    tag_370:\n        /* \"#utility.yul\":34344:34360   */\n      0x5265656e7472616e742063616c6c000000000000000000000000000000000000\n        /* \"#utility.yul\":34340:34341   */\n      0x00\n        /* \"#utility.yul\":34332:34338   */\n      dup3\n        /* \"#utility.yul\":34328:34342   */\n      add\n        /* \"#utility.yul\":34321:34361   */\n      mstore\n        /* \"#utility.yul\":34204:34368   */\n      pop\n      jump\t// out\n        /* \"#utility.yul\":34374:34740   */\n    tag_371:\n        /* \"#utility.yul\":34516:34519   */\n      0x00\n        /* \"#utility.yul\":34537:34604   */\n      tag_685\n        /* \"#utility.yul\":34601:34603   */\n      0x0e\n        /* \"#utility.yul\":34596:34599   */\n      dup4\n        /* \"#utility.yul\":34537:34604   */\n      tag_297\n      jump\t// in\n    tag_685:\n        /* \"#utility.yul\":34530:34604   */\n      swap2\n      pop\n        /* \"#utility.yul\":34613:34706   */\n      tag_686\n        /* \"#utility.yul\":34702:34705   */\n      dup3\n        /* \"#utility.yul\":34613:34706   */\n      tag_370\n      jump\t// in\n    tag_686:\n        /* \"#utility.yul\":34731:34733   */\n      0x20\n        /* \"#utility.yul\":34726:34729   */\n      dup3\n        /* \"#utility.yul\":34722:34734   */\n      add\n        /* \"#utility.yul\":34715:34734   */\n      swap1\n      pop\n        /* \"#utility.yul\":34374:34740   */\n      swap2\n      swap1\n      pop\n      jump\t// out\n        /* \"#utility.yul\":34746:35165   */\n    tag_205:\n        /* \"#utility.yul\":34912:34916   */\n      0x00\n        /* \"#utility.yul\":34950:34952   */\n      0x20\n        /* \"#utility.yul\":34939:34948   */\n      dup3\n        /* \"#utility.yul\":34935:34953   */\n      add\n        /* \"#utility.yul\":34927:34953   */\n      swap1\n      pop\n        /* \"#utility.yul\":34999:35008   */\n      dup2\n        /* \"#utility.yul\":34993:34997   */\n      dup2\n        /* \"#utility.yul\":34989:35009   */\n      sub\n        /* \"#utility.yul\":34985:34986   */\n      0x00\n        /* \"#utility.yul\":34974:34983   */\n      dup4\n        /* \"#utility.yul\":34970:34987   */\n      add\n        /* \"#utility.yul\":34963:35010   */\n      mstore\n        /* \"#utility.yul\":35027:35158   */\n      tag_688\n        /* \"#utility.yul\":35153:35157   */\n      dup2\n        /* \"#utility.yul\":35027:35158   */\n      tag_371\n      jump\t// in\n    tag_688:\n        /* \"#utility.yul\":35019:35158   */\n      swap1\n      pop\n        /* \"#utility.yul\":34746:35165   */\n      swap2\n      swap1\n      pop\n      jump\t// out\n        /* \"#utility.yul\":35171:35397   */\n    tag_372:\n        /* \"#utility.yul\":35311:35345   */\n      0x436f6e747269627574696f6e206d757374206265206772656174657220746861\n        /* \"#utility.yul\":35307:35308   */\n      0x00\n        /* \"#utility.yul\":35299:35305   */\n      dup3\n        /* \"#utility.yul\":35295:35309   */\n      add\n        /* \"#utility.yul\":35288:35346   */\n      mstore\n        /* \"#utility.yul\":35380:35389   */\n      0x6e20302065746800000000000000000000000000000000000000000000000000\n        /* \"#utility.yul\":35375:35377   */\n      0x20\n        /* \"#utility.yul\":35367:35373   */\n      dup3\n        /* \"#utility.yul\":35363:35378   */\n      add\n        /* \"#utility.yul\":35356:35390   */\n      mstore\n        /* \"#utility.yul\":35171:35397   */\n      pop\n      jump\t// out\n        /* \"#utility.yul\":35403:35769   */\n    tag_373:\n        /* \"#utility.yul\":35545:35548   */\n      0x00\n        /* \"#utility.yul\":35566:35633   */\n      tag_691\n        /* \"#utility.yul\":35630:35632   */\n      0x27\n        /* \"#utility.yul\":35625:35628   */\n      dup4\n        /* \"#utility.yul\":35566:35633   */\n      tag_297\n      jump\t// in\n    tag_691:\n        /* \"#utility.yul\":35559:35633   */\n      swap2\n      pop\n        /* \"#utility.yul\":35642:35735   */\n      tag_692\n        /* \"#utility.yul\":35731:35734   */\n      dup3\n        /* \"#utility.yul\":35642:35735   */\n      tag_372\n      jump\t// in\n    tag_692:\n        /* \"#utility.yul\":35760:35762   */\n      0x40\n        /* \"#utility.yul\":35755:35758   */\n      dup3\n        /* \"#utility.yul\":35751:35763   */\n      add\n        /* \"#utility.yul\":35744:35763   */\n      swap1\n      pop\n        /* \"#utility.yul\":35403:35769   */\n      swap2\n      swap1\n      pop\n      jump\t// out\n        /* \"#utility.yul\":35775:36194   */\n    tag_212:\n        /* \"#utility.yul\":35941:35945   */\n      0x00\n        /* \"#utility.yul\":35979:35981   */\n      0x20\n        /* \"#utility.yul\":35968:35977   */\n      dup3\n        /* \"#utility.yul\":35964:35982   */\n      add\n        /* \"#utility.yul\":35956:35982   */\n      swap1\n      pop\n        /* \"#utility.yul\":36028:36037   */\n      dup2\n        /* \"#utility.yul\":36022:36026   */\n      dup2\n        /* \"#utility.yul\":36018:36038   */\n      sub\n        /* \"#utility.yul\":36014:36015   */\n      0x00\n        /* \"#utility.yul\":36003:36012   */\n      dup4\n        /* \"#utility.yul\":35999:36016   */\n      add\n        /* \"#utility.yul\":35992:36039   */\n      mstore\n        /* \"#utility.yul\":36056:36187   */\n      tag_694\n        /* \"#utility.yul\":36182:36186   */\n      dup2\n        /* \"#utility.yul\":36056:36187   */\n      tag_373\n      jump\t// in\n    tag_694:\n        /* \"#utility.yul\":36048:36187   */\n      swap1\n      pop\n        /* \"#utility.yul\":35775:36194   */\n      swap2\n      swap1\n      pop\n      jump\t// out\n        /* \"#utility.yul\":36200:36391   */\n    tag_216:\n        /* \"#utility.yul\":36240:36243   */\n      0x00\n        /* \"#utility.yul\":36259:36279   */\n      tag_696\n        /* \"#utility.yul\":36277:36278   */\n      dup3\n        /* \"#utility.yul\":36259:36279   */\n      tag_289\n      jump\t// in\n    tag_696:\n        /* \"#utility.yul\":36254:36279   */\n      swap2\n      pop\n        /* \"#utility.yul\":36293:36313   */\n      tag_697\n        /* \"#utility.yul\":36311:36312   */\n      dup4\n        /* \"#utility.yul\":36293:36313   */\n      tag_289\n      jump\t// in\n    tag_697:\n        /* \"#utility.yul\":36288:36313   */\n      swap3\n      pop\n        /* \"#utility.yul\":36336:36337   */\n      dup3\n        /* \"#utility.yul\":36333:36334   */\n      dup3\n        /* \"#utility.yul\":36329:36338   */\n      add\n        /* \"#utility.yul\":36322:36338   */\n      swap1\n      pop\n        /* \"#utility.yul\":36357:36360   */\n      dup1\n        /* \"#utility.yul\":36354:36355   */\n      dup3\n        /* \"#utility.yul\":36351:36361   */\n      gt\n        /* \"#utility.yul\":36348:36384   */\n      iszero\n      tag_698\n      jumpi\n        /* \"#utility.yul\":36364:36382   */\n      tag_699\n      tag_352\n      jump\t// in\n    tag_699:\n        /* \"#utility.yul\":36348:36384   */\n    tag_698:\n        /* \"#utility.yul\":36200:36391   */\n      swap3\n      swap2\n      pop\n      pop\n      jump\t// out\n        /* \"#utility.yul\":36397:36729   */\n    tag_229:\n        /* \"#utility.yul\":36518:36522   */\n      0x00\n        /* \"#utility.yul\":36556:36558   */\n      0x40\n        /* \"#utility.yul\":36545:36554   */\n      dup3\n        /* \"#utility.yul\":36541:36559   */\n      add\n        /* \"#utility.yul\":36533:36559   */\n      swap1\n      pop\n        /* \"#utility.yul\":36569:36640   */\n      tag_701\n        /* \"#utility.yul\":36637:36638   */\n      0x00\n        /* \"#utility.yul\":36626:36635   */\n      dup4\n        /* \"#utility.yul\":36622:36639   */\n      add\n        /* \"#utility.yul\":36613:36619   */\n      dup6\n        /* \"#utility.yul\":36569:36640   */\n      tag_295\n      jump\t// in\n    tag_701:\n        /* \"#utility.yul\":36650:36722   */\n      tag_702\n        /* \"#utility.yul\":36718:36720   */\n      0x20\n        /* \"#utility.yul\":36707:36716   */\n      dup4\n        /* \"#utility.yul\":36703:36721   */\n      add\n        /* \"#utility.yul\":36694:36700   */\n      dup5\n        /* \"#utility.yul\":36650:36722   */\n      tag_292\n      jump\t// in\n    tag_702:\n        /* \"#utility.yul\":36397:36729   */\n      swap4\n      swap3\n      pop\n      pop\n      pop\n      jump\t// out\n\n    auxdata: 0xa2646970667358221220f8168e1b45fc8eaca695963850c8aa27fb689fba46bdf831e77b150a63c6638864736f6c634300081a0033\n}\n",
				"bytecode": {
					"linkReferences": {},
					"object": "60a060405260015f553480156012575f80fd5b503373ffffffffffffffffffffffffffffffffffffffff1660808173ffffffffffffffffffffffffffffffffffffffff1681525050608051612cac61005c5f395f5050612cac5ff3fe60806040526004361061007a575f3560e01c8063980f2e661161004d578063980f2e6614610151578063b4d40af114610179578063c1cbbca7146101a3578063d993de62146101bf5761007a565b8063141961bc1461007e57806375970193146100c357806386cdf604146100eb57806388c484e114610115575b5f80fd5b348015610089575f80fd5b506100a4600480360381019061009f9190611b05565b610206565b6040516100ba9a99989796959493929190611c61565b60405180910390f35b3480156100ce575f80fd5b506100e960048036038101906100e49190611b05565b610422565b005b3480156100f6575f80fd5b506100ff610513565b60405161010c91906120ad565b60405180910390f35b348015610120575f80fd5b5061013b60048036038101906101369190611b05565b6108c1565b60405161014891906120cd565b60405180910390f35b34801561015c575f80fd5b5061017760048036038101906101729190612212565b6108ed565b005b348015610184575f80fd5b5061018d610cf7565b60405161019a91906120ad565b60405180910390f35b6101bd60048036038101906101b89190611b05565b6111ab565b005b3480156101ca575f80fd5b506101e560048036038101906101e09190611b05565b611453565b6040516101fd9c9b9a999897969594939291906123b5565b60405180910390f35b60018181548110610215575f80fd5b905f5260205f2090600c02015f91509050805f015490806001015f9054906101000a900473ffffffffffffffffffffffffffffffffffffffff169080600201805461025f906124bd565b80601f016020809104026020016040519081016040528092919081815260200182805461028b906124bd565b80156102d65780601f106102ad576101008083540402835291602001916102d6565b820191905f5260205f20905b8154815290600101906020018083116102b957829003601f168201915b5050505050908060030180546102eb906124bd565b80601f0160208091040260200160405190810160405280929190818152602001828054610317906124bd565b80156103625780601f1061033957610100808354040283529160200191610362565b820191905f5260205f20905b81548152906001019060200180831161034557829003601f168201915b505050505090806004018054610377906124bd565b80601f01602080910402602001604051908101604052809291908181526020018280546103a3906124bd565b80156103ee5780601f106103c5576101008083540402835291602001916103ee565b820191905f5260205f20905b8154815290600101906020018083116103d157829003601f168201915b505050505090806005015490806006015490806007015490806008015f9054906101000a900460ff1690806009015490508a565b5f60018281548110610437576104366124ed565b5b905f5260205f2090600c020190503373ffffffffffffffffffffffffffffffffffffffff16816001015f9054906101000a900473ffffffffffffffffffffffffffffffffffffffff1673ffffffffffffffffffffffffffffffffffffffff161461049f575f80fd5b6104a882611849565b6001816008015f6101000a81548160ff021916908360038111156104cf576104ce611bee565b5b0217905550817f3eb1019d4df0cfbf58860f8430c0f74cf19cb395dec54bf46eb7b620bd8c3ca933600160405161050792919061251a565b60405180910390a25050565b60606001805480602002602001604051908101604052809291908181526020015f905b828210156108b8578382905f5260205f2090600c0201604051806101800160405290815f8201548152602001600182015f9054906101000a900473ffffffffffffffffffffffffffffffffffffffff1673ffffffffffffffffffffffffffffffffffffffff1673ffffffffffffffffffffffffffffffffffffffff1681526020016002820180546105c6906124bd565b80601f01602080910402602001604051908101604052809291908181526020018280546105f2906124bd565b801561063d5780601f106106145761010080835404028352916020019161063d565b820191905f5260205f20905b81548152906001019060200180831161062057829003601f168201915b50505050508152602001600382018054610656906124bd565b80601f0160208091040260200160405190810160405280929190818152602001828054610682906124bd565b80156106cd5780601f106106a4576101008083540402835291602001916106cd565b820191905f5260205f20905b8154815290600101906020018083116106b057829003601f168201915b505050505081526020016004820180546106e6906124bd565b80601f0160208091040260200160405190810160405280929190818152602001828054610712906124bd565b801561075d5780601f106107345761010080835404028352916020019161075d565b820191905f5260205f20905b81548152906001019060200180831161074057829003601f168201915b50505050508152602001600582015481526020016006820154815260200160078201548152602001600882015f9054906101000a900460ff1660038111156107a8576107a7611bee565b5b60038111156107ba576107b9611bee565b5b815260200160098201548152602001600a820180548060200260200160405190810160405280929190818152602001828054801561084a57602002820191905f5260205f20905b815f9054906101000a900473ffffffffffffffffffffffffffffffffffffffff1673ffffffffffffffffffffffffffffffffffffffff1681526020019060010190808311610801575b50505050508152602001600b82018054806020026020016040519081016040528092919081815260200182805480156108a057602002820191905f5260205f20905b81548152602001906001019080831161088c575b50505050508152505081526020019060010190610536565b50505050905090565b5f600182815481106108d6576108d56124ed565b5b905f5260205f2090600c0201600901549050919050565b5f855111610930576040517f08c379a00000000000000000000000000000000000000000000000000000000081526004016109279061258b565b60405180910390fd5b5f845111610973576040517f08c379a000000000000000000000000000000000000000000000000000000000815260040161096a906125f3565b60405180910390fd5b5f8351116109b6576040517f08c379a00000000000000000000000000000000000000000000000000000000081526004016109ad9061265b565b60405180910390fd5b5f82116109f8576040517f08c379a00000000000000000000000000000000000000000000000000000000081526004016109ef906126c3565b60405180910390fd5b428111610a3a576040517f08c379a0000000000000000000000000000000000000000000000000000000008152600401610a3190612751565b60405180910390fd5b60016040518061018001604052805f80815480929190610a599061279c565b9190505581526020013373ffffffffffffffffffffffffffffffffffffffff1681526020018781526020018681526020018581526020018481526020014281526020018381526020015f6003811115610ab557610ab4611bee565b5b81526020015f81526020015f67ffffffffffffffff811115610ada57610ad96120ee565b5b604051908082528060200260200182016040528015610b085781602001602082028036833780820191505090505b5081526020015f67ffffffffffffffff811115610b2857610b276120ee565b5b604051908082528060200260200182016040528015610b565781602001602082028036833780820191505090505b50815250908060018154018082558091505060019003905f5260205f2090600c02015f909190919091505f820151815f01556020820151816001015f6101000a81548173ffffffffffffffffffffffffffffffffffffffff021916908373ffffffffffffffffffffffffffffffffffffffff1602179055506040820151816002019081610be39190612980565b506060820151816003019081610bf99190612980565b506080820151816004019081610c0f9190612980565b5060a0820151816005015560c0820151816006015560e08201518160070155610100820151816008015f6101000a81548160ff02191690836003811115610c5957610c58611bee565b5b0217905550610120820151816009015561014082015181600a019080519060200190610c86929190611952565b5061016082015181600b019080519060200190610ca49291906119d9565b50505060015f54610cb59190612a4f565b7f80d44ffac60fc8721db9216c79b4b66d26a90f61e2a32290581cbfb9c0776be433875f604051610ce893929190612a82565b60405180910390a25050505050565b60605f60018054905011610d40576040517f08c379a0000000000000000000000000000000000000000000000000000000008152600401610d3790612b08565b60405180910390fd5b5f600460018054905011610d54575f610d67565b6004600180549050610d669190612a4f565b5b90505f81600180549050610d7b9190612a4f565b90505f8167ffffffffffffffff811115610d9857610d976120ee565b5b604051908082528060200260200182016040528015610dd157816020015b610dbe611a24565b815260200190600190039081610db65790505b5090505f5b828110156111a15760018160018080549050610df29190612a4f565b610dfc9190612a4f565b81548110610e0d57610e0c6124ed565b5b905f5260205f2090600c0201604051806101800160405290815f8201548152602001600182015f9054906101000a900473ffffffffffffffffffffffffffffffffffffffff1673ffffffffffffffffffffffffffffffffffffffff1673ffffffffffffffffffffffffffffffffffffffff168152602001600282018054610e93906124bd565b80601f0160208091040260200160405190810160405280929190818152602001828054610ebf906124bd565b8015610f0a5780601f10610ee157610100808354040283529160200191610f0a565b820191905f5260205f20905b815481529060010190602001808311610eed57829003601f168201915b50505050508152602001600382018054610f23906124bd565b80601f0160208091040260200160405190810160405280929190818152602001828054610f4f906124bd565b8015610f9a5780601f10610f7157610100808354040283529160200191610f9a565b820191905f5260205f20905b815481529060010190602001808311610f7d57829003601f168201915b50505050508152602001600482018054610fb3906124bd565b80601f0160208091040260200160405190810160405280929190818152602001828054610fdf906124bd565b801561102a5780601f106110015761010080835404028352916020019161102a565b820191905f5260205f20905b81548152906001019060200180831161100d57829003601f168201915b50505050508152602001600582015481526020016006820154815260200160078201548152602001600882015f9054906101000a900460ff16600381111561107557611074611bee565b5b600381111561108757611086611bee565b5b815260200160098201548152602001600a820180548060200260200160405190810160405280929190818152602001828054801561111757602002820191905f5260205f20905b815f9054906101000a900473ffffffffffffffffffffffffffffffffffffffff1673ffffffffffffffffffffffffffffffffffffffff16815260200190600101908083116110ce575b50505050508152602001600b820180548060200260200160405190810160405280929190818152602001828054801561116d57602002820191905f5260205f20905b815481526020019060010190808311611159575b505050505081525050828281518110611189576111886124ed565b5b60200260200101819052508080600101915050610dd6565b5080935050505090565b60025f9054906101000a900460ff16156111fa576040517f08c379a00000000000000000000000000000000000000000000000000000000081526004016111f190612b70565b60405180910390fd5b600160025f6101000a81548160ff0219169083151502179055505f60018281548110611229576112286124ed565b5b905f5260205f2090600c020190505f3411611279576040517f08c379a000000000000000000000000000000000000000000000000000000000815260040161127090612bfe565b60405180910390fd5b5f8160090154826005015461128e9190612a4f565b90508034116112b65734826009015f8282546112aa9190612c1c565b92505081905550611371565b5f81346112c39190612a4f565b90505f81346112d29190612a4f565b90503373ffffffffffffffffffffffffffffffffffffffff166108fc8390811502906040515f60405180830381858888f19350505050158015611317573d5f803e3d5ffd5b5080846009015f82825461132b9190612c1c565b92505081905550836005015484600901541061136e576002846008015f6101000a81548160ff0219169083600381111561136857611367611bee565b5b02179055505b50505b81600a0133908060018154018082558091505060019003905f5260205f20015f9091909190916101000a81548173ffffffffffffffffffffffffffffffffffffffff021916908373ffffffffffffffffffffffffffffffffffffffff16021790555081600b0134908060018154018082558091505060019003905f5260205f20015f9091909190915055827f0a4a91237423e0a1766a761c7cb029311d8b95d6b1b81db1b949a70c98b4e08e333460405161142d929190612c4f565b60405180910390a250505f60025f6101000a81548160ff02191690831515021790555050565b5f8060608060605f805f805f6060805f60018e81548110611477576114766124ed565b5b905f5260205f2090600c0201604051806101800160405290815f8201548152602001600182015f9054906101000a900473ffffffffffffffffffffffffffffffffffffffff1673ffffffffffffffffffffffffffffffffffffffff1673ffffffffffffffffffffffffffffffffffffffff1681526020016002820180546114fd906124bd565b80601f0160208091040260200160405190810160405280929190818152602001828054611529906124bd565b80156115745780601f1061154b57610100808354040283529160200191611574565b820191905f5260205f20905b81548152906001019060200180831161155757829003601f168201915b5050505050815260200160038201805461158d906124bd565b80601f01602080910402602001604051908101604052809291908181526020018280546115b9906124bd565b80156116045780601f106115db57610100808354040283529160200191611604565b820191905f5260205f20905b8154815290600101906020018083116115e757829003601f168201915b5050505050815260200160048201805461161d906124bd565b80601f0160208091040260200160405190810160405280929190818152602001828054611649906124bd565b80156116945780601f1061166b57610100808354040283529160200191611694565b820191905f5260205f20905b81548152906001019060200180831161167757829003601f168201915b50505050508152602001600582015481526020016006820154815260200160078201548152602001600882015f9054906101000a900460ff1660038111156116df576116de611bee565b5b60038111156116f1576116f0611bee565b5b815260200160098201548152602001600a820180548060200260200160405190810160405280929190818152602001828054801561178157602002820191905f5260205f20905b815f9054906101000a900473ffffffffffffffffffffffffffffffffffffffff1673ffffffffffffffffffffffffffffffffffffffff1681526020019060010190808311611738575b50505050508152602001600b82018054806020026020016040519081016040528092919081815260200182805480156117d757602002820191905f5260205f20905b8154815260200190600101908083116117c3575b5050505050815250509050805f015181602001518260400151836060015184608001518560a001518660c001518760e001518861010001518961012001518a61014001518b61016001519c509c509c509c509c509c509c509c509c509c509c509c505091939597999b5091939597999b565b5f6001828154811061185e5761185d6124ed565b5b905f5260205f2090600c020190505f5b81600a018054905081101561194d575f82600a018281548110611894576118936124ed565b5b905f5260205f20015f9054906101000a900473ffffffffffffffffffffffffffffffffffffffff1690505f83600b0183815481106118d5576118d46124ed565b5b905f5260205f20015490508173ffffffffffffffffffffffffffffffffffffffff166108fc8290811502906040515f60405180830381858888f19350505050158015611923573d5f803e3d5ffd5b5080846009015f8282546119379190612a4f565b925050819055505050808060010191505061186e565b505050565b828054828255905f5260205f209081019282156119c8579160200282015b828111156119c7578251825f6101000a81548173ffffffffffffffffffffffffffffffffffffffff021916908373ffffffffffffffffffffffffffffffffffffffff16021790555091602001919060010190611970565b5b5090506119d59190611aa6565b5090565b828054828255905f5260205f20908101928215611a13579160200282015b82811115611a125782518255916020019190600101906119f7565b5b509050611a209190611aa6565b5090565b6040518061018001604052805f81526020015f73ffffffffffffffffffffffffffffffffffffffff1681526020016060815260200160608152602001606081526020015f81526020015f81526020015f81526020015f6003811115611a8c57611a8b611bee565b5b81526020015f815260200160608152602001606081525090565b5b80821115611abd575f815f905550600101611aa7565b5090565b5f604051905090565b5f80fd5b5f80fd5b5f819050919050565b611ae481611ad2565b8114611aee575f80fd5b50565b5f81359050611aff81611adb565b92915050565b5f60208284031215611b1a57611b19611aca565b5b5f611b2784828501611af1565b91505092915050565b611b3981611ad2565b82525050565b5f73ffffffffffffffffffffffffffffffffffffffff82169050919050565b5f611b6882611b3f565b9050919050565b611b7881611b5e565b82525050565b5f81519050919050565b5f82825260208201905092915050565b8281835e5f83830152505050565b5f601f19601f8301169050919050565b5f611bc082611b7e565b611bca8185611b88565b9350611bda818560208601611b98565b611be381611ba6565b840191505092915050565b7f4e487b71000000000000000000000000000000000000000000000000000000005f52602160045260245ffd5b60048110611c2c57611c2b611bee565b5b50565b5f819050611c3c82611c1b565b919050565b5f611c4b82611c2f565b9050919050565b611c5b81611c41565b82525050565b5f61014082019050611c755f83018d611b30565b611c82602083018c611b6f565b8181036040830152611c94818b611bb6565b90508181036060830152611ca8818a611bb6565b90508181036080830152611cbc8189611bb6565b9050611ccb60a0830188611b30565b611cd860c0830187611b30565b611ce560e0830186611b30565b611cf3610100830185611c52565b611d01610120830184611b30565b9b9a5050505050505050505050565b5f81519050919050565b5f82825260208201905092915050565b5f819050602082019050919050565b611d4281611ad2565b82525050565b611d5181611b5e565b82525050565b5f82825260208201905092915050565b5f611d7182611b7e565b611d7b8185611d57565b9350611d8b818560208601611b98565b611d9481611ba6565b840191505092915050565b611da881611c41565b82525050565b5f81519050919050565b5f82825260208201905092915050565b5f819050602082019050919050565b5f611de28383611d48565b60208301905092915050565b5f602082019050919050565b5f611e0482611dae565b611e0e8185611db8565b9350611e1983611dc8565b805f5b83811015611e49578151611e308882611dd7565b9750611e3b83611dee565b925050600181019050611e1c565b5085935050505092915050565b5f81519050919050565b5f82825260208201905092915050565b5f819050602082019050919050565b5f611e8a8383611d39565b60208301905092915050565b5f602082019050919050565b5f611eac82611e56565b611eb68185611e60565b9350611ec183611e70565b805f5b83811015611ef1578151611ed88882611e7f565b9750611ee383611e96565b925050600181019050611ec4565b5085935050505092915050565b5f61018083015f830151611f145f860182611d39565b506020830151611f276020860182611d48565b5060408301518482036040860152611f3f8282611d67565b91505060608301518482036060860152611f598282611d67565b91505060808301518482036080860152611f738282611d67565b91505060a0830151611f8860a0860182611d39565b5060c0830151611f9b60c0860182611d39565b5060e0830151611fae60e0860182611d39565b50610100830151611fc3610100860182611d9f565b50610120830151611fd8610120860182611d39565b50610140830151848203610140860152611ff28282611dfa565b91505061016083015184820361016086015261200e8282611ea2565b9150508091505092915050565b5f6120268383611efe565b905092915050565b5f602082019050919050565b5f61204482611d10565b61204e8185611d1a565b93508360208202850161206085611d2a565b805f5b8581101561209b578484038952815161207c858261201b565b94506120878361202e565b925060208a01995050600181019050612063565b50829750879550505050505092915050565b5f6020820190508181035f8301526120c5818461203a565b905092915050565b5f6020820190506120e05f830184611b30565b92915050565b5f80fd5b5f80fd5b7f4e487b71000000000000000000000000000000000000000000000000000000005f52604160045260245ffd5b61212482611ba6565b810181811067ffffffffffffffff82111715612143576121426120ee565b5b80604052505050565b5f612155611ac1565b9050612161828261211b565b919050565b5f67ffffffffffffffff8211156121805761217f6120ee565b5b61218982611ba6565b9050602081019050919050565b828183375f83830152505050565b5f6121b66121b184612166565b61214c565b9050828152602081018484840111156121d2576121d16120ea565b5b6121dd848285612196565b509392505050565b5f82601f8301126121f9576121f86120e6565b5b81356122098482602086016121a4565b91505092915050565b5f805f805f60a0868803121561222b5761222a611aca565b5b5f86013567ffffffffffffffff81111561224857612247611ace565b5b612254888289016121e5565b955050602086013567ffffffffffffffff81111561227557612274611ace565b5b612281888289016121e5565b945050604086013567ffffffffffffffff8111156122a2576122a1611ace565b5b6122ae888289016121e5565b93505060606122bf88828901611af1565b92505060806122d088828901611af1565b9150509295509295909350565b5f82825260208201905092915050565b5f6122f782611dae565b61230181856122dd565b935061230c83611dc8565b805f5b8381101561233c5781516123238882611dd7565b975061232e83611dee565b92505060018101905061230f565b5085935050505092915050565b5f82825260208201905092915050565b5f61236382611e56565b61236d8185612349565b935061237883611e70565b805f5b838110156123a857815161238f8882611e7f565b975061239a83611e96565b92505060018101905061237b565b5085935050505092915050565b5f610180820190506123c95f83018f611b30565b6123d6602083018e611b6f565b81810360408301526123e8818d611bb6565b905081810360608301526123fc818c611bb6565b90508181036080830152612410818b611bb6565b905061241f60a083018a611b30565b61242c60c0830189611b30565b61243960e0830188611b30565b612447610100830187611c52565b612455610120830186611b30565b81810361014083015261246881856122ed565b905081810361016083015261247d8184612359565b90509d9c50505050505050505050505050565b7f4e487b71000000000000000000000000000000000000000000000000000000005f52602260045260245ffd5b5f60028204905060018216806124d457607f821691505b6020821081036124e7576124e6612490565b5b50919050565b7f4e487b71000000000000000000000000000000000000000000000000000000005f52603260045260245ffd5b5f60408201905061252d5f830185611b6f565b61253a6020830184611c52565b9392505050565b7f5469746c65206d757374206e6f7420626520656d7074790000000000000000005f82015250565b5f612575601783611b88565b915061258082612541565b602082019050919050565b5f6020820190508181035f8301526125a281612569565b9050919050565b7f4465736372697074696f6e206d757374206e6f7420626520656d7074790000005f82015250565b5f6125dd601d83611b88565b91506125e8826125a9565b602082019050919050565b5f6020820190508181035f83015261260a816125d1565b9050919050565b7f496d61676520555249206d757374206e6f7420626520656d70747900000000005f82015250565b5f612645601b83611b88565b915061265082612611565b602082019050919050565b5f6020820190508181035f83015261267281612639565b9050919050565b7f476f616c206d7573742062652067726561746572207468616e203000000000005f82015250565b5f6126ad601b83611b88565b91506126b882612679565b602082019050919050565b5f6020820190508181035f8301526126da816126a1565b9050919050565b7f456e642074696d65206f662063616d706169676e206d757473206265206772655f8201527f61746572207468616e2063757272656e742074696d6500000000000000000000602082015250565b5f61273b603683611b88565b9150612746826126e1565b604082019050919050565b5f6020820190508181035f8301526127688161272f565b9050919050565b7f4e487b71000000000000000000000000000000000000000000000000000000005f52601160045260245ffd5b5f6127a682611ad2565b91507fffffffffffffffffffffffffffffffffffffffffffffffffffffffffffffffff82036127d8576127d761276f565b5b600182019050919050565b5f819050815f5260205f209050919050565b5f6020601f8301049050919050565b5f82821b905092915050565b5f6008830261283f7fffffffffffffffffffffffffffffffffffffffffffffffffffffffffffffffff82612804565b6128498683612804565b95508019841693508086168417925050509392505050565b5f819050919050565b5f61288461287f61287a84611ad2565b612861565b611ad2565b9050919050565b5f819050919050565b61289d8361286a565b6128b16128a98261288b565b848454612810565b825550505050565b5f90565b6128c56128b9565b6128d0818484612894565b505050565b5b818110156128f3576128e85f826128bd565b6001810190506128d6565b5050565b601f82111561293857612909816127e3565b612912846127f5565b81016020851015612921578190505b61293561292d856127f5565b8301826128d5565b50505b505050565b5f82821c905092915050565b5f6129585f198460080261293d565b1980831691505092915050565b5f6129708383612949565b9150826002028217905092915050565b61298982611b7e565b67ffffffffffffffff8111156129a2576129a16120ee565b5b6129ac82546124bd565b6129b78282856128f7565b5f60209050601f8311600181146129e8575f84156129d6578287015190505b6129e08582612965565b865550612a47565b601f1984166129f6866127e3565b5f5b82811015612a1d578489015182556001820191506020850194506020810190506129f8565b86831015612a3a5784890151612a36601f891682612949565b8355505b6001600288020188555050505b505050505050565b5f612a5982611ad2565b9150612a6483611ad2565b9250828203905081811115612a7c57612a7b61276f565b5b92915050565b5f606082019050612a955f830186611b6f565b8181036020830152612aa78185611bb6565b9050612ab66040830184611c52565b949350505050565b7f4e6f2063616d706169676e7320666f756e642e000000000000000000000000005f82015250565b5f612af2601383611b88565b9150612afd82612abe565b602082019050919050565b5f6020820190508181035f830152612b1f81612ae6565b9050919050565b7f5265656e7472616e742063616c6c0000000000000000000000000000000000005f82015250565b5f612b5a600e83611b88565b9150612b6582612b26565b602082019050919050565b5f6020820190508181035f830152612b8781612b4e565b9050919050565b7f436f6e747269627574696f6e206d7573742062652067726561746572207468615f8201527f6e20302065746800000000000000000000000000000000000000000000000000602082015250565b5f612be8602783611b88565b9150612bf382612b8e565b604082019050919050565b5f6020820190508181035f830152612c1581612bdc565b9050919050565b5f612c2682611ad2565b9150612c3183611ad2565b9250828201905080821115612c4957612c4861276f565b5b92915050565b5f604082019050612c625f830185611b6f565b612c6f6020830184611b30565b939250505056fea2646970667358221220f8168e1b45fc8eaca695963850c8aa27fb689fba46bdf831e77b150a63c6638864736f6c634300081a0033",
					"opcodes": "PUSH1 0xA0 PUSH1 0x40 MSTORE PUSH1 0x1 PUSH0 SSTORE CALLVALUE DUP1 ISZERO PUSH1 0x12 JUMPI PUSH0 DUP1 REVERT JUMPDEST POP CALLER PUSH20 0xFFFFFFFFFFFFFFFFFFFFFFFFFFFFFFFFFFFFFFFF AND PUSH1 0x80 DUP2 PUSH20 0xFFFFFFFFFFFFFFFFFFFFFFFFFFFFFFFFFFFFFFFF AND DUP2 MSTORE POP POP PUSH1 0x80 MLOAD PUSH2 0x2CAC PUSH2 0x5C PUSH0 CODECOPY PUSH0 POP POP PUSH2 0x2CAC PUSH0 RETURN INVALID PUSH1 0x80 PUSH1 0x40 MSTORE PUSH1 0x4 CALLDATASIZE LT PUSH2 0x7A JUMPI PUSH0 CALLDATALOAD PUSH1 0xE0 SHR DUP1 PUSH4 0x980F2E66 GT PUSH2 0x4D JUMPI DUP1 PUSH4 0x980F2E66 EQ PUSH2 0x151 JUMPI DUP1 PUSH4 0xB4D40AF1 EQ PUSH2 0x179 JUMPI DUP1 PUSH4 0xC1CBBCA7 EQ PUSH2 0x1A3 JUMPI DUP1 PUSH4 0xD993DE62 EQ PUSH2 0x1BF JUMPI PUSH2 0x7A JUMP JUMPDEST DUP1 PUSH4 0x141961BC EQ PUSH2 0x7E JUMPI DUP1 PUSH4 0x75970193 EQ PUSH2 0xC3 JUMPI DUP1 PUSH4 0x86CDF604 EQ PUSH2 0xEB JUMPI DUP1 PUSH4 0x88C484E1 EQ PUSH2 0x115 JUMPI JUMPDEST PUSH0 DUP1 REVERT JUMPDEST CALLVALUE DUP1 ISZERO PUSH2 0x89 JUMPI PUSH0 DUP1 REVERT JUMPDEST POP PUSH2 0xA4 PUSH1 0x4 DUP1 CALLDATASIZE SUB DUP2 ADD SWAP1 PUSH2 0x9F SWAP2 SWAP1 PUSH2 0x1B05 JUMP JUMPDEST PUSH2 0x206 JUMP JUMPDEST PUSH1 0x40 MLOAD PUSH2 0xBA SWAP11 SWAP10 SWAP9 SWAP8 SWAP7 SWAP6 SWAP5 SWAP4 SWAP3 SWAP2 SWAP1 PUSH2 0x1C61 JUMP JUMPDEST PUSH1 0x40 MLOAD DUP1 SWAP2 SUB SWAP1 RETURN JUMPDEST CALLVALUE DUP1 ISZERO PUSH2 0xCE JUMPI PUSH0 DUP1 REVERT JUMPDEST POP PUSH2 0xE9 PUSH1 0x4 DUP1 CALLDATASIZE SUB DUP2 ADD SWAP1 PUSH2 0xE4 SWAP2 SWAP1 PUSH2 0x1B05 JUMP JUMPDEST PUSH2 0x422 JUMP JUMPDEST STOP JUMPDEST CALLVALUE DUP1 ISZERO PUSH2 0xF6 JUMPI PUSH0 DUP1 REVERT JUMPDEST POP PUSH2 0xFF PUSH2 0x513 JUMP JUMPDEST PUSH1 0x40 MLOAD PUSH2 0x10C SWAP2 SWAP1 PUSH2 0x20AD JUMP JUMPDEST PUSH1 0x40 MLOAD DUP1 SWAP2 SUB SWAP1 RETURN JUMPDEST CALLVALUE DUP1 ISZERO PUSH2 0x120 JUMPI PUSH0 DUP1 REVERT JUMPDEST POP PUSH2 0x13B PUSH1 0x4 DUP1 CALLDATASIZE SUB DUP2 ADD SWAP1 PUSH2 0x136 SWAP2 SWAP1 PUSH2 0x1B05 JUMP JUMPDEST PUSH2 0x8C1 JUMP JUMPDEST PUSH1 0x40 MLOAD PUSH2 0x148 SWAP2 SWAP1 PUSH2 0x20CD JUMP JUMPDEST PUSH1 0x40 MLOAD DUP1 SWAP2 SUB SWAP1 RETURN JUMPDEST CALLVALUE DUP1 ISZERO PUSH2 0x15C JUMPI PUSH0 DUP1 REVERT JUMPDEST POP PUSH2 0x177 PUSH1 0x4 DUP1 CALLDATASIZE SUB DUP2 ADD SWAP1 PUSH2 0x172 SWAP2 SWAP1 PUSH2 0x2212 JUMP JUMPDEST PUSH2 0x8ED JUMP JUMPDEST STOP JUMPDEST CALLVALUE DUP1 ISZERO PUSH2 0x184 JUMPI PUSH0 DUP1 REVERT JUMPDEST POP PUSH2 0x18D PUSH2 0xCF7 JUMP JUMPDEST PUSH1 0x40 MLOAD PUSH2 0x19A SWAP2 SWAP1 PUSH2 0x20AD JUMP JUMPDEST PUSH1 0x40 MLOAD DUP1 SWAP2 SUB SWAP1 RETURN JUMPDEST PUSH2 0x1BD PUSH1 0x4 DUP1 CALLDATASIZE SUB DUP2 ADD SWAP1 PUSH2 0x1B8 SWAP2 SWAP1 PUSH2 0x1B05 JUMP JUMPDEST PUSH2 0x11AB JUMP JUMPDEST STOP JUMPDEST CALLVALUE DUP1 ISZERO PUSH2 0x1CA JUMPI PUSH0 DUP1 REVERT JUMPDEST POP PUSH2 0x1E5 PUSH1 0x4 DUP1 CALLDATASIZE SUB DUP2 ADD SWAP1 PUSH2 0x1E0 SWAP2 SWAP1 PUSH2 0x1B05 JUMP JUMPDEST PUSH2 0x1453 JUMP JUMPDEST PUSH1 0x40 MLOAD PUSH2 0x1FD SWAP13 SWAP12 SWAP11 SWAP10 SWAP9 SWAP8 SWAP7 SWAP6 SWAP5 SWAP4 SWAP3 SWAP2 SWAP1 PUSH2 0x23B5 JUMP JUMPDEST PUSH1 0x40 MLOAD DUP1 SWAP2 SUB SWAP1 RETURN JUMPDEST PUSH1 0x1 DUP2 DUP2 SLOAD DUP2 LT PUSH2 0x215 JUMPI PUSH0 DUP1 REVERT JUMPDEST SWAP1 PUSH0 MSTORE PUSH1 0x20 PUSH0 KECCAK256 SWAP1 PUSH1 0xC MUL ADD PUSH0 SWAP2 POP SWAP1 POP DUP1 PUSH0 ADD SLOAD SWAP1 DUP1 PUSH1 0x1 ADD PUSH0 SWAP1 SLOAD SWAP1 PUSH2 0x100 EXP SWAP1 DIV PUSH20 0xFFFFFFFFFFFFFFFFFFFFFFFFFFFFFFFFFFFFFFFF AND SWAP1 DUP1 PUSH1 0x2 ADD DUP1 SLOAD PUSH2 0x25F SWAP1 PUSH2 0x24BD JUMP JUMPDEST DUP1 PUSH1 0x1F ADD PUSH1 0x20 DUP1 SWAP2 DIV MUL PUSH1 0x20 ADD PUSH1 0x40 MLOAD SWAP1 DUP2 ADD PUSH1 0x40 MSTORE DUP1 SWAP3 SWAP2 SWAP1 DUP2 DUP2 MSTORE PUSH1 0x20 ADD DUP3 DUP1 SLOAD PUSH2 0x28B SWAP1 PUSH2 0x24BD JUMP JUMPDEST DUP1 ISZERO PUSH2 0x2D6 JUMPI DUP1 PUSH1 0x1F LT PUSH2 0x2AD JUMPI PUSH2 0x100 DUP1 DUP4 SLOAD DIV MUL DUP4 MSTORE SWAP2 PUSH1 0x20 ADD SWAP2 PUSH2 0x2D6 JUMP JUMPDEST DUP3 ADD SWAP2 SWAP1 PUSH0 MSTORE PUSH1 0x20 PUSH0 KECCAK256 SWAP1 JUMPDEST DUP2 SLOAD DUP2 MSTORE SWAP1 PUSH1 0x1 ADD SWAP1 PUSH1 0x20 ADD DUP1 DUP4 GT PUSH2 0x2B9 JUMPI DUP3 SWAP1 SUB PUSH1 0x1F AND DUP3 ADD SWAP2 JUMPDEST POP POP POP POP POP SWAP1 DUP1 PUSH1 0x3 ADD DUP1 SLOAD PUSH2 0x2EB SWAP1 PUSH2 0x24BD JUMP JUMPDEST DUP1 PUSH1 0x1F ADD PUSH1 0x20 DUP1 SWAP2 DIV MUL PUSH1 0x20 ADD PUSH1 0x40 MLOAD SWAP1 DUP2 ADD PUSH1 0x40 MSTORE DUP1 SWAP3 SWAP2 SWAP1 DUP2 DUP2 MSTORE PUSH1 0x20 ADD DUP3 DUP1 SLOAD PUSH2 0x317 SWAP1 PUSH2 0x24BD JUMP JUMPDEST DUP1 ISZERO PUSH2 0x362 JUMPI DUP1 PUSH1 0x1F LT PUSH2 0x339 JUMPI PUSH2 0x100 DUP1 DUP4 SLOAD DIV MUL DUP4 MSTORE SWAP2 PUSH1 0x20 ADD SWAP2 PUSH2 0x362 JUMP JUMPDEST DUP3 ADD SWAP2 SWAP1 PUSH0 MSTORE PUSH1 0x20 PUSH0 KECCAK256 SWAP1 JUMPDEST DUP2 SLOAD DUP2 MSTORE SWAP1 PUSH1 0x1 ADD SWAP1 PUSH1 0x20 ADD DUP1 DUP4 GT PUSH2 0x345 JUMPI DUP3 SWAP1 SUB PUSH1 0x1F AND DUP3 ADD SWAP2 JUMPDEST POP POP POP POP POP SWAP1 DUP1 PUSH1 0x4 ADD DUP1 SLOAD PUSH2 0x377 SWAP1 PUSH2 0x24BD JUMP JUMPDEST DUP1 PUSH1 0x1F ADD PUSH1 0x20 DUP1 SWAP2 DIV MUL PUSH1 0x20 ADD PUSH1 0x40 MLOAD SWAP1 DUP2 ADD PUSH1 0x40 MSTORE DUP1 SWAP3 SWAP2 SWAP1 DUP2 DUP2 MSTORE PUSH1 0x20 ADD DUP3 DUP1 SLOAD PUSH2 0x3A3 SWAP1 PUSH2 0x24BD JUMP JUMPDEST DUP1 ISZERO PUSH2 0x3EE JUMPI DUP1 PUSH1 0x1F LT PUSH2 0x3C5 JUMPI PUSH2 0x100 DUP1 DUP4 SLOAD DIV MUL DUP4 MSTORE SWAP2 PUSH1 0x20 ADD SWAP2 PUSH2 0x3EE JUMP JUMPDEST DUP3 ADD SWAP2 SWAP1 PUSH0 MSTORE PUSH1 0x20 PUSH0 KECCAK256 SWAP1 JUMPDEST DUP2 SLOAD DUP2 MSTORE SWAP1 PUSH1 0x1 ADD SWAP1 PUSH1 0x20 ADD DUP1 DUP4 GT PUSH2 0x3D1 JUMPI DUP3 SWAP1 SUB PUSH1 0x1F AND DUP3 ADD SWAP2 JUMPDEST POP POP POP POP POP SWAP1 DUP1 PUSH1 0x5 ADD SLOAD SWAP1 DUP1 PUSH1 0x6 ADD SLOAD SWAP1 DUP1 PUSH1 0x7 ADD SLOAD SWAP1 DUP1 PUSH1 0x8 ADD PUSH0 SWAP1 SLOAD SWAP1 PUSH2 0x100 EXP SWAP1 DIV PUSH1 0xFF AND SWAP1 DUP1 PUSH1 0x9 ADD SLOAD SWAP1 POP DUP11 JUMP JUMPDEST PUSH0 PUSH1 0x1 DUP3 DUP2 SLOAD DUP2 LT PUSH2 0x437 JUMPI PUSH2 0x436 PUSH2 0x24ED JUMP JUMPDEST JUMPDEST SWAP1 PUSH0 MSTORE PUSH1 0x20 PUSH0 KECCAK256 SWAP1 PUSH1 0xC MUL ADD SWAP1 POP CALLER PUSH20 0xFFFFFFFFFFFFFFFFFFFFFFFFFFFFFFFFFFFFFFFF AND DUP2 PUSH1 0x1 ADD PUSH0 SWAP1 SLOAD SWAP1 PUSH2 0x100 EXP SWAP1 DIV PUSH20 0xFFFFFFFFFFFFFFFFFFFFFFFFFFFFFFFFFFFFFFFF AND PUSH20 0xFFFFFFFFFFFFFFFFFFFFFFFFFFFFFFFFFFFFFFFF AND EQ PUSH2 0x49F JUMPI PUSH0 DUP1 REVERT JUMPDEST PUSH2 0x4A8 DUP3 PUSH2 0x1849 JUMP JUMPDEST PUSH1 0x1 DUP2 PUSH1 0x8 ADD PUSH0 PUSH2 0x100 EXP DUP2 SLOAD DUP2 PUSH1 0xFF MUL NOT AND SWAP1 DUP4 PUSH1 0x3 DUP2 GT ISZERO PUSH2 0x4CF JUMPI PUSH2 0x4CE PUSH2 0x1BEE JUMP JUMPDEST JUMPDEST MUL OR SWAP1 SSTORE POP DUP2 PUSH32 0x3EB1019D4DF0CFBF58860F8430C0F74CF19CB395DEC54BF46EB7B620BD8C3CA9 CALLER PUSH1 0x1 PUSH1 0x40 MLOAD PUSH2 0x507 SWAP3 SWAP2 SWAP1 PUSH2 0x251A JUMP JUMPDEST PUSH1 0x40 MLOAD DUP1 SWAP2 SUB SWAP1 LOG2 POP POP JUMP JUMPDEST PUSH1 0x60 PUSH1 0x1 DUP1 SLOAD DUP1 PUSH1 0x20 MUL PUSH1 0x20 ADD PUSH1 0x40 MLOAD SWAP1 DUP2 ADD PUSH1 0x40 MSTORE DUP1 SWAP3 SWAP2 SWAP1 DUP2 DUP2 MSTORE PUSH1 0x20 ADD PUSH0 SWAP1 JUMPDEST DUP3 DUP3 LT ISZERO PUSH2 0x8B8 JUMPI DUP4 DUP3 SWAP1 PUSH0 MSTORE PUSH1 0x20 PUSH0 KECCAK256 SWAP1 PUSH1 0xC MUL ADD PUSH1 0x40 MLOAD DUP1 PUSH2 0x180 ADD PUSH1 0x40 MSTORE SWAP1 DUP2 PUSH0 DUP3 ADD SLOAD DUP2 MSTORE PUSH1 0x20 ADD PUSH1 0x1 DUP3 ADD PUSH0 SWAP1 SLOAD SWAP1 PUSH2 0x100 EXP SWAP1 DIV PUSH20 0xFFFFFFFFFFFFFFFFFFFFFFFFFFFFFFFFFFFFFFFF AND PUSH20 0xFFFFFFFFFFFFFFFFFFFFFFFFFFFFFFFFFFFFFFFF AND PUSH20 0xFFFFFFFFFFFFFFFFFFFFFFFFFFFFFFFFFFFFFFFF AND DUP2 MSTORE PUSH1 0x20 ADD PUSH1 0x2 DUP3 ADD DUP1 SLOAD PUSH2 0x5C6 SWAP1 PUSH2 0x24BD JUMP JUMPDEST DUP1 PUSH1 0x1F ADD PUSH1 0x20 DUP1 SWAP2 DIV MUL PUSH1 0x20 ADD PUSH1 0x40 MLOAD SWAP1 DUP2 ADD PUSH1 0x40 MSTORE DUP1 SWAP3 SWAP2 SWAP1 DUP2 DUP2 MSTORE PUSH1 0x20 ADD DUP3 DUP1 SLOAD PUSH2 0x5F2 SWAP1 PUSH2 0x24BD JUMP JUMPDEST DUP1 ISZERO PUSH2 0x63D JUMPI DUP1 PUSH1 0x1F LT PUSH2 0x614 JUMPI PUSH2 0x100 DUP1 DUP4 SLOAD DIV MUL DUP4 MSTORE SWAP2 PUSH1 0x20 ADD SWAP2 PUSH2 0x63D JUMP JUMPDEST DUP3 ADD SWAP2 SWAP1 PUSH0 MSTORE PUSH1 0x20 PUSH0 KECCAK256 SWAP1 JUMPDEST DUP2 SLOAD DUP2 MSTORE SWAP1 PUSH1 0x1 ADD SWAP1 PUSH1 0x20 ADD DUP1 DUP4 GT PUSH2 0x620 JUMPI DUP3 SWAP1 SUB PUSH1 0x1F AND DUP3 ADD SWAP2 JUMPDEST POP POP POP POP POP DUP2 MSTORE PUSH1 0x20 ADD PUSH1 0x3 DUP3 ADD DUP1 SLOAD PUSH2 0x656 SWAP1 PUSH2 0x24BD JUMP JUMPDEST DUP1 PUSH1 0x1F ADD PUSH1 0x20 DUP1 SWAP2 DIV MUL PUSH1 0x20 ADD PUSH1 0x40 MLOAD SWAP1 DUP2 ADD PUSH1 0x40 MSTORE DUP1 SWAP3 SWAP2 SWAP1 DUP2 DUP2 MSTORE PUSH1 0x20 ADD DUP3 DUP1 SLOAD PUSH2 0x682 SWAP1 PUSH2 0x24BD JUMP JUMPDEST DUP1 ISZERO PUSH2 0x6CD JUMPI DUP1 PUSH1 0x1F LT PUSH2 0x6A4 JUMPI PUSH2 0x100 DUP1 DUP4 SLOAD DIV MUL DUP4 MSTORE SWAP2 PUSH1 0x20 ADD SWAP2 PUSH2 0x6CD JUMP JUMPDEST DUP3 ADD SWAP2 SWAP1 PUSH0 MSTORE PUSH1 0x20 PUSH0 KECCAK256 SWAP1 JUMPDEST DUP2 SLOAD DUP2 MSTORE SWAP1 PUSH1 0x1 ADD SWAP1 PUSH1 0x20 ADD DUP1 DUP4 GT PUSH2 0x6B0 JUMPI DUP3 SWAP1 SUB PUSH1 0x1F AND DUP3 ADD SWAP2 JUMPDEST POP POP POP POP POP DUP2 MSTORE PUSH1 0x20 ADD PUSH1 0x4 DUP3 ADD DUP1 SLOAD PUSH2 0x6E6 SWAP1 PUSH2 0x24BD JUMP JUMPDEST DUP1 PUSH1 0x1F ADD PUSH1 0x20 DUP1 SWAP2 DIV MUL PUSH1 0x20 ADD PUSH1 0x40 MLOAD SWAP1 DUP2 ADD PUSH1 0x40 MSTORE DUP1 SWAP3 SWAP2 SWAP1 DUP2 DUP2 MSTORE PUSH1 0x20 ADD DUP3 DUP1 SLOAD PUSH2 0x712 SWAP1 PUSH2 0x24BD JUMP JUMPDEST DUP1 ISZERO PUSH2 0x75D JUMPI DUP1 PUSH1 0x1F LT PUSH2 0x734 JUMPI PUSH2 0x100 DUP1 DUP4 SLOAD DIV MUL DUP4 MSTORE SWAP2 PUSH1 0x20 ADD SWAP2 PUSH2 0x75D JUMP JUMPDEST DUP3 ADD SWAP2 SWAP1 PUSH0 MSTORE PUSH1 0x20 PUSH0 KECCAK256 SWAP1 JUMPDEST DUP2 SLOAD DUP2 MSTORE SWAP1 PUSH1 0x1 ADD SWAP1 PUSH1 0x20 ADD DUP1 DUP4 GT PUSH2 0x740 JUMPI DUP3 SWAP1 SUB PUSH1 0x1F AND DUP3 ADD SWAP2 JUMPDEST POP POP POP POP POP DUP2 MSTORE PUSH1 0x20 ADD PUSH1 0x5 DUP3 ADD SLOAD DUP2 MSTORE PUSH1 0x20 ADD PUSH1 0x6 DUP3 ADD SLOAD DUP2 MSTORE PUSH1 0x20 ADD PUSH1 0x7 DUP3 ADD SLOAD DUP2 MSTORE PUSH1 0x20 ADD PUSH1 0x8 DUP3 ADD PUSH0 SWAP1 SLOAD SWAP1 PUSH2 0x100 EXP SWAP1 DIV PUSH1 0xFF AND PUSH1 0x3 DUP2 GT ISZERO PUSH2 0x7A8 JUMPI PUSH2 0x7A7 PUSH2 0x1BEE JUMP JUMPDEST JUMPDEST PUSH1 0x3 DUP2 GT ISZERO PUSH2 0x7BA JUMPI PUSH2 0x7B9 PUSH2 0x1BEE JUMP JUMPDEST JUMPDEST DUP2 MSTORE PUSH1 0x20 ADD PUSH1 0x9 DUP3 ADD SLOAD DUP2 MSTORE PUSH1 0x20 ADD PUSH1 0xA DUP3 ADD DUP1 SLOAD DUP1 PUSH1 0x20 MUL PUSH1 0x20 ADD PUSH1 0x40 MLOAD SWAP1 DUP2 ADD PUSH1 0x40 MSTORE DUP1 SWAP3 SWAP2 SWAP1 DUP2 DUP2 MSTORE PUSH1 0x20 ADD DUP3 DUP1 SLOAD DUP1 ISZERO PUSH2 0x84A JUMPI PUSH1 0x20 MUL DUP3 ADD SWAP2 SWAP1 PUSH0 MSTORE PUSH1 0x20 PUSH0 KECCAK256 SWAP1 JUMPDEST DUP2 PUSH0 SWAP1 SLOAD SWAP1 PUSH2 0x100 EXP SWAP1 DIV PUSH20 0xFFFFFFFFFFFFFFFFFFFFFFFFFFFFFFFFFFFFFFFF AND PUSH20 0xFFFFFFFFFFFFFFFFFFFFFFFFFFFFFFFFFFFFFFFF AND DUP2 MSTORE PUSH1 0x20 ADD SWAP1 PUSH1 0x1 ADD SWAP1 DUP1 DUP4 GT PUSH2 0x801 JUMPI JUMPDEST POP POP POP POP POP DUP2 MSTORE PUSH1 0x20 ADD PUSH1 0xB DUP3 ADD DUP1 SLOAD DUP1 PUSH1 0x20 MUL PUSH1 0x20 ADD PUSH1 0x40 MLOAD SWAP1 DUP2 ADD PUSH1 0x40 MSTORE DUP1 SWAP3 SWAP2 SWAP1 DUP2 DUP2 MSTORE PUSH1 0x20 ADD DUP3 DUP1 SLOAD DUP1 ISZERO PUSH2 0x8A0 JUMPI PUSH1 0x20 MUL DUP3 ADD SWAP2 SWAP1 PUSH0 MSTORE PUSH1 0x20 PUSH0 KECCAK256 SWAP1 JUMPDEST DUP2 SLOAD DUP2 MSTORE PUSH1 0x20 ADD SWAP1 PUSH1 0x1 ADD SWAP1 DUP1 DUP4 GT PUSH2 0x88C JUMPI JUMPDEST POP POP POP POP POP DUP2 MSTORE POP POP DUP2 MSTORE PUSH1 0x20 ADD SWAP1 PUSH1 0x1 ADD SWAP1 PUSH2 0x536 JUMP JUMPDEST POP POP POP POP SWAP1 POP SWAP1 JUMP JUMPDEST PUSH0 PUSH1 0x1 DUP3 DUP2 SLOAD DUP2 LT PUSH2 0x8D6 JUMPI PUSH2 0x8D5 PUSH2 0x24ED JUMP JUMPDEST JUMPDEST SWAP1 PUSH0 MSTORE PUSH1 0x20 PUSH0 KECCAK256 SWAP1 PUSH1 0xC MUL ADD PUSH1 0x9 ADD SLOAD SWAP1 POP SWAP2 SWAP1 POP JUMP JUMPDEST PUSH0 DUP6 MLOAD GT PUSH2 0x930 JUMPI PUSH1 0x40 MLOAD PUSH32 0x8C379A000000000000000000000000000000000000000000000000000000000 DUP2 MSTORE PUSH1 0x4 ADD PUSH2 0x927 SWAP1 PUSH2 0x258B JUMP JUMPDEST PUSH1 0x40 MLOAD DUP1 SWAP2 SUB SWAP1 REVERT JUMPDEST PUSH0 DUP5 MLOAD GT PUSH2 0x973 JUMPI PUSH1 0x40 MLOAD PUSH32 0x8C379A000000000000000000000000000000000000000000000000000000000 DUP2 MSTORE PUSH1 0x4 ADD PUSH2 0x96A SWAP1 PUSH2 0x25F3 JUMP JUMPDEST PUSH1 0x40 MLOAD DUP1 SWAP2 SUB SWAP1 REVERT JUMPDEST PUSH0 DUP4 MLOAD GT PUSH2 0x9B6 JUMPI PUSH1 0x40 MLOAD PUSH32 0x8C379A000000000000000000000000000000000000000000000000000000000 DUP2 MSTORE PUSH1 0x4 ADD PUSH2 0x9AD SWAP1 PUSH2 0x265B JUMP JUMPDEST PUSH1 0x40 MLOAD DUP1 SWAP2 SUB SWAP1 REVERT JUMPDEST PUSH0 DUP3 GT PUSH2 0x9F8 JUMPI PUSH1 0x40 MLOAD PUSH32 0x8C379A000000000000000000000000000000000000000000000000000000000 DUP2 MSTORE PUSH1 0x4 ADD PUSH2 0x9EF SWAP1 PUSH2 0x26C3 JUMP JUMPDEST PUSH1 0x40 MLOAD DUP1 SWAP2 SUB SWAP1 REVERT JUMPDEST TIMESTAMP DUP2 GT PUSH2 0xA3A JUMPI PUSH1 0x40 MLOAD PUSH32 0x8C379A000000000000000000000000000000000000000000000000000000000 DUP2 MSTORE PUSH1 0x4 ADD PUSH2 0xA31 SWAP1 PUSH2 0x2751 JUMP JUMPDEST PUSH1 0x40 MLOAD DUP1 SWAP2 SUB SWAP1 REVERT JUMPDEST PUSH1 0x1 PUSH1 0x40 MLOAD DUP1 PUSH2 0x180 ADD PUSH1 0x40 MSTORE DUP1 PUSH0 DUP1 DUP2 SLOAD DUP1 SWAP3 SWAP2 SWAP1 PUSH2 0xA59 SWAP1 PUSH2 0x279C JUMP JUMPDEST SWAP2 SWAP1 POP SSTORE DUP2 MSTORE PUSH1 0x20 ADD CALLER PUSH20 0xFFFFFFFFFFFFFFFFFFFFFFFFFFFFFFFFFFFFFFFF AND DUP2 MSTORE PUSH1 0x20 ADD DUP8 DUP2 MSTORE PUSH1 0x20 ADD DUP7 DUP2 MSTORE PUSH1 0x20 ADD DUP6 DUP2 MSTORE PUSH1 0x20 ADD DUP5 DUP2 MSTORE PUSH1 0x20 ADD TIMESTAMP DUP2 MSTORE PUSH1 0x20 ADD DUP4 DUP2 MSTORE PUSH1 0x20 ADD PUSH0 PUSH1 0x3 DUP2 GT ISZERO PUSH2 0xAB5 JUMPI PUSH2 0xAB4 PUSH2 0x1BEE JUMP JUMPDEST JUMPDEST DUP2 MSTORE PUSH1 0x20 ADD PUSH0 DUP2 MSTORE PUSH1 0x20 ADD PUSH0 PUSH8 0xFFFFFFFFFFFFFFFF DUP2 GT ISZERO PUSH2 0xADA JUMPI PUSH2 0xAD9 PUSH2 0x20EE JUMP JUMPDEST JUMPDEST PUSH1 0x40 MLOAD SWAP1 DUP1 DUP3 MSTORE DUP1 PUSH1 0x20 MUL PUSH1 0x20 ADD DUP3 ADD PUSH1 0x40 MSTORE DUP1 ISZERO PUSH2 0xB08 JUMPI DUP2 PUSH1 0x20 ADD PUSH1 0x20 DUP3 MUL DUP1 CALLDATASIZE DUP4 CALLDATACOPY DUP1 DUP3 ADD SWAP2 POP POP SWAP1 POP JUMPDEST POP DUP2 MSTORE PUSH1 0x20 ADD PUSH0 PUSH8 0xFFFFFFFFFFFFFFFF DUP2 GT ISZERO PUSH2 0xB28 JUMPI PUSH2 0xB27 PUSH2 0x20EE JUMP JUMPDEST JUMPDEST PUSH1 0x40 MLOAD SWAP1 DUP1 DUP3 MSTORE DUP1 PUSH1 0x20 MUL PUSH1 0x20 ADD DUP3 ADD PUSH1 0x40 MSTORE DUP1 ISZERO PUSH2 0xB56 JUMPI DUP2 PUSH1 0x20 ADD PUSH1 0x20 DUP3 MUL DUP1 CALLDATASIZE DUP4 CALLDATACOPY DUP1 DUP3 ADD SWAP2 POP POP SWAP1 POP JUMPDEST POP DUP2 MSTORE POP SWAP1 DUP1 PUSH1 0x1 DUP2 SLOAD ADD DUP1 DUP3 SSTORE DUP1 SWAP2 POP POP PUSH1 0x1 SWAP1 SUB SWAP1 PUSH0 MSTORE PUSH1 0x20 PUSH0 KECCAK256 SWAP1 PUSH1 0xC MUL ADD PUSH0 SWAP1 SWAP2 SWAP1 SWAP2 SWAP1 SWAP2 POP PUSH0 DUP3 ADD MLOAD DUP2 PUSH0 ADD SSTORE PUSH1 0x20 DUP3 ADD MLOAD DUP2 PUSH1 0x1 ADD PUSH0 PUSH2 0x100 EXP DUP2 SLOAD DUP2 PUSH20 0xFFFFFFFFFFFFFFFFFFFFFFFFFFFFFFFFFFFFFFFF MUL NOT AND SWAP1 DUP4 PUSH20 0xFFFFFFFFFFFFFFFFFFFFFFFFFFFFFFFFFFFFFFFF AND MUL OR SWAP1 SSTORE POP PUSH1 0x40 DUP3 ADD MLOAD DUP2 PUSH1 0x2 ADD SWAP1 DUP2 PUSH2 0xBE3 SWAP2 SWAP1 PUSH2 0x2980 JUMP JUMPDEST POP PUSH1 0x60 DUP3 ADD MLOAD DUP2 PUSH1 0x3 ADD SWAP1 DUP2 PUSH2 0xBF9 SWAP2 SWAP1 PUSH2 0x2980 JUMP JUMPDEST POP PUSH1 0x80 DUP3 ADD MLOAD DUP2 PUSH1 0x4 ADD SWAP1 DUP2 PUSH2 0xC0F SWAP2 SWAP1 PUSH2 0x2980 JUMP JUMPDEST POP PUSH1 0xA0 DUP3 ADD MLOAD DUP2 PUSH1 0x5 ADD SSTORE PUSH1 0xC0 DUP3 ADD MLOAD DUP2 PUSH1 0x6 ADD SSTORE PUSH1 0xE0 DUP3 ADD MLOAD DUP2 PUSH1 0x7 ADD SSTORE PUSH2 0x100 DUP3 ADD MLOAD DUP2 PUSH1 0x8 ADD PUSH0 PUSH2 0x100 EXP DUP2 SLOAD DUP2 PUSH1 0xFF MUL NOT AND SWAP1 DUP4 PUSH1 0x3 DUP2 GT ISZERO PUSH2 0xC59 JUMPI PUSH2 0xC58 PUSH2 0x1BEE JUMP JUMPDEST JUMPDEST MUL OR SWAP1 SSTORE POP PUSH2 0x120 DUP3 ADD MLOAD DUP2 PUSH1 0x9 ADD SSTORE PUSH2 0x140 DUP3 ADD MLOAD DUP2 PUSH1 0xA ADD SWAP1 DUP1 MLOAD SWAP1 PUSH1 0x20 ADD SWAP1 PUSH2 0xC86 SWAP3 SWAP2 SWAP1 PUSH2 0x1952 JUMP JUMPDEST POP PUSH2 0x160 DUP3 ADD MLOAD DUP2 PUSH1 0xB ADD SWAP1 DUP1 MLOAD SWAP1 PUSH1 0x20 ADD SWAP1 PUSH2 0xCA4 SWAP3 SWAP2 SWAP1 PUSH2 0x19D9 JUMP JUMPDEST POP POP POP PUSH1 0x1 PUSH0 SLOAD PUSH2 0xCB5 SWAP2 SWAP1 PUSH2 0x2A4F JUMP JUMPDEST PUSH32 0x80D44FFAC60FC8721DB9216C79B4B66D26A90F61E2A32290581CBFB9C0776BE4 CALLER DUP8 PUSH0 PUSH1 0x40 MLOAD PUSH2 0xCE8 SWAP4 SWAP3 SWAP2 SWAP1 PUSH2 0x2A82 JUMP JUMPDEST PUSH1 0x40 MLOAD DUP1 SWAP2 SUB SWAP1 LOG2 POP POP POP POP POP JUMP JUMPDEST PUSH1 0x60 PUSH0 PUSH1 0x1 DUP1 SLOAD SWAP1 POP GT PUSH2 0xD40 JUMPI PUSH1 0x40 MLOAD PUSH32 0x8C379A000000000000000000000000000000000000000000000000000000000 DUP2 MSTORE PUSH1 0x4 ADD PUSH2 0xD37 SWAP1 PUSH2 0x2B08 JUMP JUMPDEST PUSH1 0x40 MLOAD DUP1 SWAP2 SUB SWAP1 REVERT JUMPDEST PUSH0 PUSH1 0x4 PUSH1 0x1 DUP1 SLOAD SWAP1 POP GT PUSH2 0xD54 JUMPI PUSH0 PUSH2 0xD67 JUMP JUMPDEST PUSH1 0x4 PUSH1 0x1 DUP1 SLOAD SWAP1 POP PUSH2 0xD66 SWAP2 SWAP1 PUSH2 0x2A4F JUMP JUMPDEST JUMPDEST SWAP1 POP PUSH0 DUP2 PUSH1 0x1 DUP1 SLOAD SWAP1 POP PUSH2 0xD7B SWAP2 SWAP1 PUSH2 0x2A4F JUMP JUMPDEST SWAP1 POP PUSH0 DUP2 PUSH8 0xFFFFFFFFFFFFFFFF DUP2 GT ISZERO PUSH2 0xD98 JUMPI PUSH2 0xD97 PUSH2 0x20EE JUMP JUMPDEST JUMPDEST PUSH1 0x40 MLOAD SWAP1 DUP1 DUP3 MSTORE DUP1 PUSH1 0x20 MUL PUSH1 0x20 ADD DUP3 ADD PUSH1 0x40 MSTORE DUP1 ISZERO PUSH2 0xDD1 JUMPI DUP2 PUSH1 0x20 ADD JUMPDEST PUSH2 0xDBE PUSH2 0x1A24 JUMP JUMPDEST DUP2 MSTORE PUSH1 0x20 ADD SWAP1 PUSH1 0x1 SWAP1 SUB SWAP1 DUP2 PUSH2 0xDB6 JUMPI SWAP1 POP JUMPDEST POP SWAP1 POP PUSH0 JUMPDEST DUP3 DUP2 LT ISZERO PUSH2 0x11A1 JUMPI PUSH1 0x1 DUP2 PUSH1 0x1 DUP1 DUP1 SLOAD SWAP1 POP PUSH2 0xDF2 SWAP2 SWAP1 PUSH2 0x2A4F JUMP JUMPDEST PUSH2 0xDFC SWAP2 SWAP1 PUSH2 0x2A4F JUMP JUMPDEST DUP2 SLOAD DUP2 LT PUSH2 0xE0D JUMPI PUSH2 0xE0C PUSH2 0x24ED JUMP JUMPDEST JUMPDEST SWAP1 PUSH0 MSTORE PUSH1 0x20 PUSH0 KECCAK256 SWAP1 PUSH1 0xC MUL ADD PUSH1 0x40 MLOAD DUP1 PUSH2 0x180 ADD PUSH1 0x40 MSTORE SWAP1 DUP2 PUSH0 DUP3 ADD SLOAD DUP2 MSTORE PUSH1 0x20 ADD PUSH1 0x1 DUP3 ADD PUSH0 SWAP1 SLOAD SWAP1 PUSH2 0x100 EXP SWAP1 DIV PUSH20 0xFFFFFFFFFFFFFFFFFFFFFFFFFFFFFFFFFFFFFFFF AND PUSH20 0xFFFFFFFFFFFFFFFFFFFFFFFFFFFFFFFFFFFFFFFF AND PUSH20 0xFFFFFFFFFFFFFFFFFFFFFFFFFFFFFFFFFFFFFFFF AND DUP2 MSTORE PUSH1 0x20 ADD PUSH1 0x2 DUP3 ADD DUP1 SLOAD PUSH2 0xE93 SWAP1 PUSH2 0x24BD JUMP JUMPDEST DUP1 PUSH1 0x1F ADD PUSH1 0x20 DUP1 SWAP2 DIV MUL PUSH1 0x20 ADD PUSH1 0x40 MLOAD SWAP1 DUP2 ADD PUSH1 0x40 MSTORE DUP1 SWAP3 SWAP2 SWAP1 DUP2 DUP2 MSTORE PUSH1 0x20 ADD DUP3 DUP1 SLOAD PUSH2 0xEBF SWAP1 PUSH2 0x24BD JUMP JUMPDEST DUP1 ISZERO PUSH2 0xF0A JUMPI DUP1 PUSH1 0x1F LT PUSH2 0xEE1 JUMPI PUSH2 0x100 DUP1 DUP4 SLOAD DIV MUL DUP4 MSTORE SWAP2 PUSH1 0x20 ADD SWAP2 PUSH2 0xF0A JUMP JUMPDEST DUP3 ADD SWAP2 SWAP1 PUSH0 MSTORE PUSH1 0x20 PUSH0 KECCAK256 SWAP1 JUMPDEST DUP2 SLOAD DUP2 MSTORE SWAP1 PUSH1 0x1 ADD SWAP1 PUSH1 0x20 ADD DUP1 DUP4 GT PUSH2 0xEED JUMPI DUP3 SWAP1 SUB PUSH1 0x1F AND DUP3 ADD SWAP2 JUMPDEST POP POP POP POP POP DUP2 MSTORE PUSH1 0x20 ADD PUSH1 0x3 DUP3 ADD DUP1 SLOAD PUSH2 0xF23 SWAP1 PUSH2 0x24BD JUMP JUMPDEST DUP1 PUSH1 0x1F ADD PUSH1 0x20 DUP1 SWAP2 DIV MUL PUSH1 0x20 ADD PUSH1 0x40 MLOAD SWAP1 DUP2 ADD PUSH1 0x40 MSTORE DUP1 SWAP3 SWAP2 SWAP1 DUP2 DUP2 MSTORE PUSH1 0x20 ADD DUP3 DUP1 SLOAD PUSH2 0xF4F SWAP1 PUSH2 0x24BD JUMP JUMPDEST DUP1 ISZERO PUSH2 0xF9A JUMPI DUP1 PUSH1 0x1F LT PUSH2 0xF71 JUMPI PUSH2 0x100 DUP1 DUP4 SLOAD DIV MUL DUP4 MSTORE SWAP2 PUSH1 0x20 ADD SWAP2 PUSH2 0xF9A JUMP JUMPDEST DUP3 ADD SWAP2 SWAP1 PUSH0 MSTORE PUSH1 0x20 PUSH0 KECCAK256 SWAP1 JUMPDEST DUP2 SLOAD DUP2 MSTORE SWAP1 PUSH1 0x1 ADD SWAP1 PUSH1 0x20 ADD DUP1 DUP4 GT PUSH2 0xF7D JUMPI DUP3 SWAP1 SUB PUSH1 0x1F AND DUP3 ADD SWAP2 JUMPDEST POP POP POP POP POP DUP2 MSTORE PUSH1 0x20 ADD PUSH1 0x4 DUP3 ADD DUP1 SLOAD PUSH2 0xFB3 SWAP1 PUSH2 0x24BD JUMP JUMPDEST DUP1 PUSH1 0x1F ADD PUSH1 0x20 DUP1 SWAP2 DIV MUL PUSH1 0x20 ADD PUSH1 0x40 MLOAD SWAP1 DUP2 ADD PUSH1 0x40 MSTORE DUP1 SWAP3 SWAP2 SWAP1 DUP2 DUP2 MSTORE PUSH1 0x20 ADD DUP3 DUP1 SLOAD PUSH2 0xFDF SWAP1 PUSH2 0x24BD JUMP JUMPDEST DUP1 ISZERO PUSH2 0x102A JUMPI DUP1 PUSH1 0x1F LT PUSH2 0x1001 JUMPI PUSH2 0x100 DUP1 DUP4 SLOAD DIV MUL DUP4 MSTORE SWAP2 PUSH1 0x20 ADD SWAP2 PUSH2 0x102A JUMP JUMPDEST DUP3 ADD SWAP2 SWAP1 PUSH0 MSTORE PUSH1 0x20 PUSH0 KECCAK256 SWAP1 JUMPDEST DUP2 SLOAD DUP2 MSTORE SWAP1 PUSH1 0x1 ADD SWAP1 PUSH1 0x20 ADD DUP1 DUP4 GT PUSH2 0x100D JUMPI DUP3 SWAP1 SUB PUSH1 0x1F AND DUP3 ADD SWAP2 JUMPDEST POP POP POP POP POP DUP2 MSTORE PUSH1 0x20 ADD PUSH1 0x5 DUP3 ADD SLOAD DUP2 MSTORE PUSH1 0x20 ADD PUSH1 0x6 DUP3 ADD SLOAD DUP2 MSTORE PUSH1 0x20 ADD PUSH1 0x7 DUP3 ADD SLOAD DUP2 MSTORE PUSH1 0x20 ADD PUSH1 0x8 DUP3 ADD PUSH0 SWAP1 SLOAD SWAP1 PUSH2 0x100 EXP SWAP1 DIV PUSH1 0xFF AND PUSH1 0x3 DUP2 GT ISZERO PUSH2 0x1075 JUMPI PUSH2 0x1074 PUSH2 0x1BEE JUMP JUMPDEST JUMPDEST PUSH1 0x3 DUP2 GT ISZERO PUSH2 0x1087 JUMPI PUSH2 0x1086 PUSH2 0x1BEE JUMP JUMPDEST JUMPDEST DUP2 MSTORE PUSH1 0x20 ADD PUSH1 0x9 DUP3 ADD SLOAD DUP2 MSTORE PUSH1 0x20 ADD PUSH1 0xA DUP3 ADD DUP1 SLOAD DUP1 PUSH1 0x20 MUL PUSH1 0x20 ADD PUSH1 0x40 MLOAD SWAP1 DUP2 ADD PUSH1 0x40 MSTORE DUP1 SWAP3 SWAP2 SWAP1 DUP2 DUP2 MSTORE PUSH1 0x20 ADD DUP3 DUP1 SLOAD DUP1 ISZERO PUSH2 0x1117 JUMPI PUSH1 0x20 MUL DUP3 ADD SWAP2 SWAP1 PUSH0 MSTORE PUSH1 0x20 PUSH0 KECCAK256 SWAP1 JUMPDEST DUP2 PUSH0 SWAP1 SLOAD SWAP1 PUSH2 0x100 EXP SWAP1 DIV PUSH20 0xFFFFFFFFFFFFFFFFFFFFFFFFFFFFFFFFFFFFFFFF AND PUSH20 0xFFFFFFFFFFFFFFFFFFFFFFFFFFFFFFFFFFFFFFFF AND DUP2 MSTORE PUSH1 0x20 ADD SWAP1 PUSH1 0x1 ADD SWAP1 DUP1 DUP4 GT PUSH2 0x10CE JUMPI JUMPDEST POP POP POP POP POP DUP2 MSTORE PUSH1 0x20 ADD PUSH1 0xB DUP3 ADD DUP1 SLOAD DUP1 PUSH1 0x20 MUL PUSH1 0x20 ADD PUSH1 0x40 MLOAD SWAP1 DUP2 ADD PUSH1 0x40 MSTORE DUP1 SWAP3 SWAP2 SWAP1 DUP2 DUP2 MSTORE PUSH1 0x20 ADD DUP3 DUP1 SLOAD DUP1 ISZERO PUSH2 0x116D JUMPI PUSH1 0x20 MUL DUP3 ADD SWAP2 SWAP1 PUSH0 MSTORE PUSH1 0x20 PUSH0 KECCAK256 SWAP1 JUMPDEST DUP2 SLOAD DUP2 MSTORE PUSH1 0x20 ADD SWAP1 PUSH1 0x1 ADD SWAP1 DUP1 DUP4 GT PUSH2 0x1159 JUMPI JUMPDEST POP POP POP POP POP DUP2 MSTORE POP POP DUP3 DUP3 DUP2 MLOAD DUP2 LT PUSH2 0x1189 JUMPI PUSH2 0x1188 PUSH2 0x24ED JUMP JUMPDEST JUMPDEST PUSH1 0x20 MUL PUSH1 0x20 ADD ADD DUP2 SWAP1 MSTORE POP DUP1 DUP1 PUSH1 0x1 ADD SWAP2 POP POP PUSH2 0xDD6 JUMP JUMPDEST POP DUP1 SWAP4 POP POP POP POP SWAP1 JUMP JUMPDEST PUSH1 0x2 PUSH0 SWAP1 SLOAD SWAP1 PUSH2 0x100 EXP SWAP1 DIV PUSH1 0xFF AND ISZERO PUSH2 0x11FA JUMPI PUSH1 0x40 MLOAD PUSH32 0x8C379A000000000000000000000000000000000000000000000000000000000 DUP2 MSTORE PUSH1 0x4 ADD PUSH2 0x11F1 SWAP1 PUSH2 0x2B70 JUMP JUMPDEST PUSH1 0x40 MLOAD DUP1 SWAP2 SUB SWAP1 REVERT JUMPDEST PUSH1 0x1 PUSH1 0x2 PUSH0 PUSH2 0x100 EXP DUP2 SLOAD DUP2 PUSH1 0xFF MUL NOT AND SWAP1 DUP4 ISZERO ISZERO MUL OR SWAP1 SSTORE POP PUSH0 PUSH1 0x1 DUP3 DUP2 SLOAD DUP2 LT PUSH2 0x1229 JUMPI PUSH2 0x1228 PUSH2 0x24ED JUMP JUMPDEST JUMPDEST SWAP1 PUSH0 MSTORE PUSH1 0x20 PUSH0 KECCAK256 SWAP1 PUSH1 0xC MUL ADD SWAP1 POP PUSH0 CALLVALUE GT PUSH2 0x1279 JUMPI PUSH1 0x40 MLOAD PUSH32 0x8C379A000000000000000000000000000000000000000000000000000000000 DUP2 MSTORE PUSH1 0x4 ADD PUSH2 0x1270 SWAP1 PUSH2 0x2BFE JUMP JUMPDEST PUSH1 0x40 MLOAD DUP1 SWAP2 SUB SWAP1 REVERT JUMPDEST PUSH0 DUP2 PUSH1 0x9 ADD SLOAD DUP3 PUSH1 0x5 ADD SLOAD PUSH2 0x128E SWAP2 SWAP1 PUSH2 0x2A4F JUMP JUMPDEST SWAP1 POP DUP1 CALLVALUE GT PUSH2 0x12B6 JUMPI CALLVALUE DUP3 PUSH1 0x9 ADD PUSH0 DUP3 DUP3 SLOAD PUSH2 0x12AA SWAP2 SWAP1 PUSH2 0x2C1C JUMP JUMPDEST SWAP3 POP POP DUP2 SWAP1 SSTORE POP PUSH2 0x1371 JUMP JUMPDEST PUSH0 DUP2 CALLVALUE PUSH2 0x12C3 SWAP2 SWAP1 PUSH2 0x2A4F JUMP JUMPDEST SWAP1 POP PUSH0 DUP2 CALLVALUE PUSH2 0x12D2 SWAP2 SWAP1 PUSH2 0x2A4F JUMP JUMPDEST SWAP1 POP CALLER PUSH20 0xFFFFFFFFFFFFFFFFFFFFFFFFFFFFFFFFFFFFFFFF AND PUSH2 0x8FC DUP4 SWAP1 DUP2 ISZERO MUL SWAP1 PUSH1 0x40 MLOAD PUSH0 PUSH1 0x40 MLOAD DUP1 DUP4 SUB DUP2 DUP6 DUP9 DUP9 CALL SWAP4 POP POP POP POP ISZERO DUP1 ISZERO PUSH2 0x1317 JUMPI RETURNDATASIZE PUSH0 DUP1 RETURNDATACOPY RETURNDATASIZE PUSH0 REVERT JUMPDEST POP DUP1 DUP5 PUSH1 0x9 ADD PUSH0 DUP3 DUP3 SLOAD PUSH2 0x132B SWAP2 SWAP1 PUSH2 0x2C1C JUMP JUMPDEST SWAP3 POP POP DUP2 SWAP1 SSTORE POP DUP4 PUSH1 0x5 ADD SLOAD DUP5 PUSH1 0x9 ADD SLOAD LT PUSH2 0x136E JUMPI PUSH1 0x2 DUP5 PUSH1 0x8 ADD PUSH0 PUSH2 0x100 EXP DUP2 SLOAD DUP2 PUSH1 0xFF MUL NOT AND SWAP1 DUP4 PUSH1 0x3 DUP2 GT ISZERO PUSH2 0x1368 JUMPI PUSH2 0x1367 PUSH2 0x1BEE JUMP JUMPDEST JUMPDEST MUL OR SWAP1 SSTORE POP JUMPDEST POP POP JUMPDEST DUP2 PUSH1 0xA ADD CALLER SWAP1 DUP1 PUSH1 0x1 DUP2 SLOAD ADD DUP1 DUP3 SSTORE DUP1 SWAP2 POP POP PUSH1 0x1 SWAP1 SUB SWAP1 PUSH0 MSTORE PUSH1 0x20 PUSH0 KECCAK256 ADD PUSH0 SWAP1 SWAP2 SWAP1 SWAP2 SWAP1 SWAP2 PUSH2 0x100 EXP DUP2 SLOAD DUP2 PUSH20 0xFFFFFFFFFFFFFFFFFFFFFFFFFFFFFFFFFFFFFFFF MUL NOT AND SWAP1 DUP4 PUSH20 0xFFFFFFFFFFFFFFFFFFFFFFFFFFFFFFFFFFFFFFFF AND MUL OR SWAP1 SSTORE POP DUP2 PUSH1 0xB ADD CALLVALUE SWAP1 DUP1 PUSH1 0x1 DUP2 SLOAD ADD DUP1 DUP3 SSTORE DUP1 SWAP2 POP POP PUSH1 0x1 SWAP1 SUB SWAP1 PUSH0 MSTORE PUSH1 0x20 PUSH0 KECCAK256 ADD PUSH0 SWAP1 SWAP2 SWAP1 SWAP2 SWAP1 SWAP2 POP SSTORE DUP3 PUSH32 0xA4A91237423E0A1766A761C7CB029311D8B95D6B1B81DB1B949A70C98B4E08E CALLER CALLVALUE PUSH1 0x40 MLOAD PUSH2 0x142D SWAP3 SWAP2 SWAP1 PUSH2 0x2C4F JUMP JUMPDEST PUSH1 0x40 MLOAD DUP1 SWAP2 SUB SWAP1 LOG2 POP POP PUSH0 PUSH1 0x2 PUSH0 PUSH2 0x100 EXP DUP2 SLOAD DUP2 PUSH1 0xFF MUL NOT AND SWAP1 DUP4 ISZERO ISZERO MUL OR SWAP1 SSTORE POP POP JUMP JUMPDEST PUSH0 DUP1 PUSH1 0x60 DUP1 PUSH1 0x60 PUSH0 DUP1 PUSH0 DUP1 PUSH0 PUSH1 0x60 DUP1 PUSH0 PUSH1 0x1 DUP15 DUP2 SLOAD DUP2 LT PUSH2 0x1477 JUMPI PUSH2 0x1476 PUSH2 0x24ED JUMP JUMPDEST JUMPDEST SWAP1 PUSH0 MSTORE PUSH1 0x20 PUSH0 KECCAK256 SWAP1 PUSH1 0xC MUL ADD PUSH1 0x40 MLOAD DUP1 PUSH2 0x180 ADD PUSH1 0x40 MSTORE SWAP1 DUP2 PUSH0 DUP3 ADD SLOAD DUP2 MSTORE PUSH1 0x20 ADD PUSH1 0x1 DUP3 ADD PUSH0 SWAP1 SLOAD SWAP1 PUSH2 0x100 EXP SWAP1 DIV PUSH20 0xFFFFFFFFFFFFFFFFFFFFFFFFFFFFFFFFFFFFFFFF AND PUSH20 0xFFFFFFFFFFFFFFFFFFFFFFFFFFFFFFFFFFFFFFFF AND PUSH20 0xFFFFFFFFFFFFFFFFFFFFFFFFFFFFFFFFFFFFFFFF AND DUP2 MSTORE PUSH1 0x20 ADD PUSH1 0x2 DUP3 ADD DUP1 SLOAD PUSH2 0x14FD SWAP1 PUSH2 0x24BD JUMP JUMPDEST DUP1 PUSH1 0x1F ADD PUSH1 0x20 DUP1 SWAP2 DIV MUL PUSH1 0x20 ADD PUSH1 0x40 MLOAD SWAP1 DUP2 ADD PUSH1 0x40 MSTORE DUP1 SWAP3 SWAP2 SWAP1 DUP2 DUP2 MSTORE PUSH1 0x20 ADD DUP3 DUP1 SLOAD PUSH2 0x1529 SWAP1 PUSH2 0x24BD JUMP JUMPDEST DUP1 ISZERO PUSH2 0x1574 JUMPI DUP1 PUSH1 0x1F LT PUSH2 0x154B JUMPI PUSH2 0x100 DUP1 DUP4 SLOAD DIV MUL DUP4 MSTORE SWAP2 PUSH1 0x20 ADD SWAP2 PUSH2 0x1574 JUMP JUMPDEST DUP3 ADD SWAP2 SWAP1 PUSH0 MSTORE PUSH1 0x20 PUSH0 KECCAK256 SWAP1 JUMPDEST DUP2 SLOAD DUP2 MSTORE SWAP1 PUSH1 0x1 ADD SWAP1 PUSH1 0x20 ADD DUP1 DUP4 GT PUSH2 0x1557 JUMPI DUP3 SWAP1 SUB PUSH1 0x1F AND DUP3 ADD SWAP2 JUMPDEST POP POP POP POP POP DUP2 MSTORE PUSH1 0x20 ADD PUSH1 0x3 DUP3 ADD DUP1 SLOAD PUSH2 0x158D SWAP1 PUSH2 0x24BD JUMP JUMPDEST DUP1 PUSH1 0x1F ADD PUSH1 0x20 DUP1 SWAP2 DIV MUL PUSH1 0x20 ADD PUSH1 0x40 MLOAD SWAP1 DUP2 ADD PUSH1 0x40 MSTORE DUP1 SWAP3 SWAP2 SWAP1 DUP2 DUP2 MSTORE PUSH1 0x20 ADD DUP3 DUP1 SLOAD PUSH2 0x15B9 SWAP1 PUSH2 0x24BD JUMP JUMPDEST DUP1 ISZERO PUSH2 0x1604 JUMPI DUP1 PUSH1 0x1F LT PUSH2 0x15DB JUMPI PUSH2 0x100 DUP1 DUP4 SLOAD DIV MUL DUP4 MSTORE SWAP2 PUSH1 0x20 ADD SWAP2 PUSH2 0x1604 JUMP JUMPDEST DUP3 ADD SWAP2 SWAP1 PUSH0 MSTORE PUSH1 0x20 PUSH0 KECCAK256 SWAP1 JUMPDEST DUP2 SLOAD DUP2 MSTORE SWAP1 PUSH1 0x1 ADD SWAP1 PUSH1 0x20 ADD DUP1 DUP4 GT PUSH2 0x15E7 JUMPI DUP3 SWAP1 SUB PUSH1 0x1F AND DUP3 ADD SWAP2 JUMPDEST POP POP POP POP POP DUP2 MSTORE PUSH1 0x20 ADD PUSH1 0x4 DUP3 ADD DUP1 SLOAD PUSH2 0x161D SWAP1 PUSH2 0x24BD JUMP JUMPDEST DUP1 PUSH1 0x1F ADD PUSH1 0x20 DUP1 SWAP2 DIV MUL PUSH1 0x20 ADD PUSH1 0x40 MLOAD SWAP1 DUP2 ADD PUSH1 0x40 MSTORE DUP1 SWAP3 SWAP2 SWAP1 DUP2 DUP2 MSTORE PUSH1 0x20 ADD DUP3 DUP1 SLOAD PUSH2 0x1649 SWAP1 PUSH2 0x24BD JUMP JUMPDEST DUP1 ISZERO PUSH2 0x1694 JUMPI DUP1 PUSH1 0x1F LT PUSH2 0x166B JUMPI PUSH2 0x100 DUP1 DUP4 SLOAD DIV MUL DUP4 MSTORE SWAP2 PUSH1 0x20 ADD SWAP2 PUSH2 0x1694 JUMP JUMPDEST DUP3 ADD SWAP2 SWAP1 PUSH0 MSTORE PUSH1 0x20 PUSH0 KECCAK256 SWAP1 JUMPDEST DUP2 SLOAD DUP2 MSTORE SWAP1 PUSH1 0x1 ADD SWAP1 PUSH1 0x20 ADD DUP1 DUP4 GT PUSH2 0x1677 JUMPI DUP3 SWAP1 SUB PUSH1 0x1F AND DUP3 ADD SWAP2 JUMPDEST POP POP POP POP POP DUP2 MSTORE PUSH1 0x20 ADD PUSH1 0x5 DUP3 ADD SLOAD DUP2 MSTORE PUSH1 0x20 ADD PUSH1 0x6 DUP3 ADD SLOAD DUP2 MSTORE PUSH1 0x20 ADD PUSH1 0x7 DUP3 ADD SLOAD DUP2 MSTORE PUSH1 0x20 ADD PUSH1 0x8 DUP3 ADD PUSH0 SWAP1 SLOAD SWAP1 PUSH2 0x100 EXP SWAP1 DIV PUSH1 0xFF AND PUSH1 0x3 DUP2 GT ISZERO PUSH2 0x16DF JUMPI PUSH2 0x16DE PUSH2 0x1BEE JUMP JUMPDEST JUMPDEST PUSH1 0x3 DUP2 GT ISZERO PUSH2 0x16F1 JUMPI PUSH2 0x16F0 PUSH2 0x1BEE JUMP JUMPDEST JUMPDEST DUP2 MSTORE PUSH1 0x20 ADD PUSH1 0x9 DUP3 ADD SLOAD DUP2 MSTORE PUSH1 0x20 ADD PUSH1 0xA DUP3 ADD DUP1 SLOAD DUP1 PUSH1 0x20 MUL PUSH1 0x20 ADD PUSH1 0x40 MLOAD SWAP1 DUP2 ADD PUSH1 0x40 MSTORE DUP1 SWAP3 SWAP2 SWAP1 DUP2 DUP2 MSTORE PUSH1 0x20 ADD DUP3 DUP1 SLOAD DUP1 ISZERO PUSH2 0x1781 JUMPI PUSH1 0x20 MUL DUP3 ADD SWAP2 SWAP1 PUSH0 MSTORE PUSH1 0x20 PUSH0 KECCAK256 SWAP1 JUMPDEST DUP2 PUSH0 SWAP1 SLOAD SWAP1 PUSH2 0x100 EXP SWAP1 DIV PUSH20 0xFFFFFFFFFFFFFFFFFFFFFFFFFFFFFFFFFFFFFFFF AND PUSH20 0xFFFFFFFFFFFFFFFFFFFFFFFFFFFFFFFFFFFFFFFF AND DUP2 MSTORE PUSH1 0x20 ADD SWAP1 PUSH1 0x1 ADD SWAP1 DUP1 DUP4 GT PUSH2 0x1738 JUMPI JUMPDEST POP POP POP POP POP DUP2 MSTORE PUSH1 0x20 ADD PUSH1 0xB DUP3 ADD DUP1 SLOAD DUP1 PUSH1 0x20 MUL PUSH1 0x20 ADD PUSH1 0x40 MLOAD SWAP1 DUP2 ADD PUSH1 0x40 MSTORE DUP1 SWAP3 SWAP2 SWAP1 DUP2 DUP2 MSTORE PUSH1 0x20 ADD DUP3 DUP1 SLOAD DUP1 ISZERO PUSH2 0x17D7 JUMPI PUSH1 0x20 MUL DUP3 ADD SWAP2 SWAP1 PUSH0 MSTORE PUSH1 0x20 PUSH0 KECCAK256 SWAP1 JUMPDEST DUP2 SLOAD DUP2 MSTORE PUSH1 0x20 ADD SWAP1 PUSH1 0x1 ADD SWAP1 DUP1 DUP4 GT PUSH2 0x17C3 JUMPI JUMPDEST POP POP POP POP POP DUP2 MSTORE POP POP SWAP1 POP DUP1 PUSH0 ADD MLOAD DUP2 PUSH1 0x20 ADD MLOAD DUP3 PUSH1 0x40 ADD MLOAD DUP4 PUSH1 0x60 ADD MLOAD DUP5 PUSH1 0x80 ADD MLOAD DUP6 PUSH1 0xA0 ADD MLOAD DUP7 PUSH1 0xC0 ADD MLOAD DUP8 PUSH1 0xE0 ADD MLOAD DUP9 PUSH2 0x100 ADD MLOAD DUP10 PUSH2 0x120 ADD MLOAD DUP11 PUSH2 0x140 ADD MLOAD DUP12 PUSH2 0x160 ADD MLOAD SWAP13 POP SWAP13 POP SWAP13 POP SWAP13 POP SWAP13 POP SWAP13 POP SWAP13 POP SWAP13 POP SWAP13 POP SWAP13 POP SWAP13 POP SWAP13 POP POP SWAP2 SWAP4 SWAP6 SWAP8 SWAP10 SWAP12 POP SWAP2 SWAP4 SWAP6 SWAP8 SWAP10 SWAP12 JUMP JUMPDEST PUSH0 PUSH1 0x1 DUP3 DUP2 SLOAD DUP2 LT PUSH2 0x185E JUMPI PUSH2 0x185D PUSH2 0x24ED JUMP JUMPDEST JUMPDEST SWAP1 PUSH0 MSTORE PUSH1 0x20 PUSH0 KECCAK256 SWAP1 PUSH1 0xC MUL ADD SWAP1 POP PUSH0 JUMPDEST DUP2 PUSH1 0xA ADD DUP1 SLOAD SWAP1 POP DUP2 LT ISZERO PUSH2 0x194D JUMPI PUSH0 DUP3 PUSH1 0xA ADD DUP3 DUP2 SLOAD DUP2 LT PUSH2 0x1894 JUMPI PUSH2 0x1893 PUSH2 0x24ED JUMP JUMPDEST JUMPDEST SWAP1 PUSH0 MSTORE PUSH1 0x20 PUSH0 KECCAK256 ADD PUSH0 SWAP1 SLOAD SWAP1 PUSH2 0x100 EXP SWAP1 DIV PUSH20 0xFFFFFFFFFFFFFFFFFFFFFFFFFFFFFFFFFFFFFFFF AND SWAP1 POP PUSH0 DUP4 PUSH1 0xB ADD DUP4 DUP2 SLOAD DUP2 LT PUSH2 0x18D5 JUMPI PUSH2 0x18D4 PUSH2 0x24ED JUMP JUMPDEST JUMPDEST SWAP1 PUSH0 MSTORE PUSH1 0x20 PUSH0 KECCAK256 ADD SLOAD SWAP1 POP DUP2 PUSH20 0xFFFFFFFFFFFFFFFFFFFFFFFFFFFFFFFFFFFFFFFF AND PUSH2 0x8FC DUP3 SWAP1 DUP2 ISZERO MUL SWAP1 PUSH1 0x40 MLOAD PUSH0 PUSH1 0x40 MLOAD DUP1 DUP4 SUB DUP2 DUP6 DUP9 DUP9 CALL SWAP4 POP POP POP POP ISZERO DUP1 ISZERO PUSH2 0x1923 JUMPI RETURNDATASIZE PUSH0 DUP1 RETURNDATACOPY RETURNDATASIZE PUSH0 REVERT JUMPDEST POP DUP1 DUP5 PUSH1 0x9 ADD PUSH0 DUP3 DUP3 SLOAD PUSH2 0x1937 SWAP2 SWAP1 PUSH2 0x2A4F JUMP JUMPDEST SWAP3 POP POP DUP2 SWAP1 SSTORE POP POP POP DUP1 DUP1 PUSH1 0x1 ADD SWAP2 POP POP PUSH2 0x186E JUMP JUMPDEST POP POP POP JUMP JUMPDEST DUP3 DUP1 SLOAD DUP3 DUP3 SSTORE SWAP1 PUSH0 MSTORE PUSH1 0x20 PUSH0 KECCAK256 SWAP1 DUP2 ADD SWAP3 DUP3 ISZERO PUSH2 0x19C8 JUMPI SWAP2 PUSH1 0x20 MUL DUP3 ADD JUMPDEST DUP3 DUP2 GT ISZERO PUSH2 0x19C7 JUMPI DUP3 MLOAD DUP3 PUSH0 PUSH2 0x100 EXP DUP2 SLOAD DUP2 PUSH20 0xFFFFFFFFFFFFFFFFFFFFFFFFFFFFFFFFFFFFFFFF MUL NOT AND SWAP1 DUP4 PUSH20 0xFFFFFFFFFFFFFFFFFFFFFFFFFFFFFFFFFFFFFFFF AND MUL OR SWAP1 SSTORE POP SWAP2 PUSH1 0x20 ADD SWAP2 SWAP1 PUSH1 0x1 ADD SWAP1 PUSH2 0x1970 JUMP JUMPDEST JUMPDEST POP SWAP1 POP PUSH2 0x19D5 SWAP2 SWAP1 PUSH2 0x1AA6 JUMP JUMPDEST POP SWAP1 JUMP JUMPDEST DUP3 DUP1 SLOAD DUP3 DUP3 SSTORE SWAP1 PUSH0 MSTORE PUSH1 0x20 PUSH0 KECCAK256 SWAP1 DUP2 ADD SWAP3 DUP3 ISZERO PUSH2 0x1A13 JUMPI SWAP2 PUSH1 0x20 MUL DUP3 ADD JUMPDEST DUP3 DUP2 GT ISZERO PUSH2 0x1A12 JUMPI DUP3 MLOAD DUP3 SSTORE SWAP2 PUSH1 0x20 ADD SWAP2 SWAP1 PUSH1 0x1 ADD SWAP1 PUSH2 0x19F7 JUMP JUMPDEST JUMPDEST POP SWAP1 POP PUSH2 0x1A20 SWAP2 SWAP1 PUSH2 0x1AA6 JUMP JUMPDEST POP SWAP1 JUMP JUMPDEST PUSH1 0x40 MLOAD DUP1 PUSH2 0x180 ADD PUSH1 0x40 MSTORE DUP1 PUSH0 DUP2 MSTORE PUSH1 0x20 ADD PUSH0 PUSH20 0xFFFFFFFFFFFFFFFFFFFFFFFFFFFFFFFFFFFFFFFF AND DUP2 MSTORE PUSH1 0x20 ADD PUSH1 0x60 DUP2 MSTORE PUSH1 0x20 ADD PUSH1 0x60 DUP2 MSTORE PUSH1 0x20 ADD PUSH1 0x60 DUP2 MSTORE PUSH1 0x20 ADD PUSH0 DUP2 MSTORE PUSH1 0x20 ADD PUSH0 DUP2 MSTORE PUSH1 0x20 ADD PUSH0 DUP2 MSTORE PUSH1 0x20 ADD PUSH0 PUSH1 0x3 DUP2 GT ISZERO PUSH2 0x1A8C JUMPI PUSH2 0x1A8B PUSH2 0x1BEE JUMP JUMPDEST JUMPDEST DUP2 MSTORE PUSH1 0x20 ADD PUSH0 DUP2 MSTORE PUSH1 0x20 ADD PUSH1 0x60 DUP2 MSTORE PUSH1 0x20 ADD PUSH1 0x60 DUP2 MSTORE POP SWAP1 JUMP JUMPDEST JUMPDEST DUP1 DUP3 GT ISZERO PUSH2 0x1ABD JUMPI PUSH0 DUP2 PUSH0 SWAP1 SSTORE POP PUSH1 0x1 ADD PUSH2 0x1AA7 JUMP JUMPDEST POP SWAP1 JUMP JUMPDEST PUSH0 PUSH1 0x40 MLOAD SWAP1 POP SWAP1 JUMP JUMPDEST PUSH0 DUP1 REVERT JUMPDEST PUSH0 DUP1 REVERT JUMPDEST PUSH0 DUP2 SWAP1 POP SWAP2 SWAP1 POP JUMP JUMPDEST PUSH2 0x1AE4 DUP2 PUSH2 0x1AD2 JUMP JUMPDEST DUP2 EQ PUSH2 0x1AEE JUMPI PUSH0 DUP1 REVERT JUMPDEST POP JUMP JUMPDEST PUSH0 DUP2 CALLDATALOAD SWAP1 POP PUSH2 0x1AFF DUP2 PUSH2 0x1ADB JUMP JUMPDEST SWAP3 SWAP2 POP POP JUMP JUMPDEST PUSH0 PUSH1 0x20 DUP3 DUP5 SUB SLT ISZERO PUSH2 0x1B1A JUMPI PUSH2 0x1B19 PUSH2 0x1ACA JUMP JUMPDEST JUMPDEST PUSH0 PUSH2 0x1B27 DUP5 DUP3 DUP6 ADD PUSH2 0x1AF1 JUMP JUMPDEST SWAP2 POP POP SWAP3 SWAP2 POP POP JUMP JUMPDEST PUSH2 0x1B39 DUP2 PUSH2 0x1AD2 JUMP JUMPDEST DUP3 MSTORE POP POP JUMP JUMPDEST PUSH0 PUSH20 0xFFFFFFFFFFFFFFFFFFFFFFFFFFFFFFFFFFFFFFFF DUP3 AND SWAP1 POP SWAP2 SWAP1 POP JUMP JUMPDEST PUSH0 PUSH2 0x1B68 DUP3 PUSH2 0x1B3F JUMP JUMPDEST SWAP1 POP SWAP2 SWAP1 POP JUMP JUMPDEST PUSH2 0x1B78 DUP2 PUSH2 0x1B5E JUMP JUMPDEST DUP3 MSTORE POP POP JUMP JUMPDEST PUSH0 DUP2 MLOAD SWAP1 POP SWAP2 SWAP1 POP JUMP JUMPDEST PUSH0 DUP3 DUP3 MSTORE PUSH1 0x20 DUP3 ADD SWAP1 POP SWAP3 SWAP2 POP POP JUMP JUMPDEST DUP3 DUP2 DUP4 MCOPY PUSH0 DUP4 DUP4 ADD MSTORE POP POP POP JUMP JUMPDEST PUSH0 PUSH1 0x1F NOT PUSH1 0x1F DUP4 ADD AND SWAP1 POP SWAP2 SWAP1 POP JUMP JUMPDEST PUSH0 PUSH2 0x1BC0 DUP3 PUSH2 0x1B7E JUMP JUMPDEST PUSH2 0x1BCA DUP2 DUP6 PUSH2 0x1B88 JUMP JUMPDEST SWAP4 POP PUSH2 0x1BDA DUP2 DUP6 PUSH1 0x20 DUP7 ADD PUSH2 0x1B98 JUMP JUMPDEST PUSH2 0x1BE3 DUP2 PUSH2 0x1BA6 JUMP JUMPDEST DUP5 ADD SWAP2 POP POP SWAP3 SWAP2 POP POP JUMP JUMPDEST PUSH32 0x4E487B7100000000000000000000000000000000000000000000000000000000 PUSH0 MSTORE PUSH1 0x21 PUSH1 0x4 MSTORE PUSH1 0x24 PUSH0 REVERT JUMPDEST PUSH1 0x4 DUP2 LT PUSH2 0x1C2C JUMPI PUSH2 0x1C2B PUSH2 0x1BEE JUMP JUMPDEST JUMPDEST POP JUMP JUMPDEST PUSH0 DUP2 SWAP1 POP PUSH2 0x1C3C DUP3 PUSH2 0x1C1B JUMP JUMPDEST SWAP2 SWAP1 POP JUMP JUMPDEST PUSH0 PUSH2 0x1C4B DUP3 PUSH2 0x1C2F JUMP JUMPDEST SWAP1 POP SWAP2 SWAP1 POP JUMP JUMPDEST PUSH2 0x1C5B DUP2 PUSH2 0x1C41 JUMP JUMPDEST DUP3 MSTORE POP POP JUMP JUMPDEST PUSH0 PUSH2 0x140 DUP3 ADD SWAP1 POP PUSH2 0x1C75 PUSH0 DUP4 ADD DUP14 PUSH2 0x1B30 JUMP JUMPDEST PUSH2 0x1C82 PUSH1 0x20 DUP4 ADD DUP13 PUSH2 0x1B6F JUMP JUMPDEST DUP2 DUP2 SUB PUSH1 0x40 DUP4 ADD MSTORE PUSH2 0x1C94 DUP2 DUP12 PUSH2 0x1BB6 JUMP JUMPDEST SWAP1 POP DUP2 DUP2 SUB PUSH1 0x60 DUP4 ADD MSTORE PUSH2 0x1CA8 DUP2 DUP11 PUSH2 0x1BB6 JUMP JUMPDEST SWAP1 POP DUP2 DUP2 SUB PUSH1 0x80 DUP4 ADD MSTORE PUSH2 0x1CBC DUP2 DUP10 PUSH2 0x1BB6 JUMP JUMPDEST SWAP1 POP PUSH2 0x1CCB PUSH1 0xA0 DUP4 ADD DUP9 PUSH2 0x1B30 JUMP JUMPDEST PUSH2 0x1CD8 PUSH1 0xC0 DUP4 ADD DUP8 PUSH2 0x1B30 JUMP JUMPDEST PUSH2 0x1CE5 PUSH1 0xE0 DUP4 ADD DUP7 PUSH2 0x1B30 JUMP JUMPDEST PUSH2 0x1CF3 PUSH2 0x100 DUP4 ADD DUP6 PUSH2 0x1C52 JUMP JUMPDEST PUSH2 0x1D01 PUSH2 0x120 DUP4 ADD DUP5 PUSH2 0x1B30 JUMP JUMPDEST SWAP12 SWAP11 POP POP POP POP POP POP POP POP POP POP POP JUMP JUMPDEST PUSH0 DUP2 MLOAD SWAP1 POP SWAP2 SWAP1 POP JUMP JUMPDEST PUSH0 DUP3 DUP3 MSTORE PUSH1 0x20 DUP3 ADD SWAP1 POP SWAP3 SWAP2 POP POP JUMP JUMPDEST PUSH0 DUP2 SWAP1 POP PUSH1 0x20 DUP3 ADD SWAP1 POP SWAP2 SWAP1 POP JUMP JUMPDEST PUSH2 0x1D42 DUP2 PUSH2 0x1AD2 JUMP JUMPDEST DUP3 MSTORE POP POP JUMP JUMPDEST PUSH2 0x1D51 DUP2 PUSH2 0x1B5E JUMP JUMPDEST DUP3 MSTORE POP POP JUMP JUMPDEST PUSH0 DUP3 DUP3 MSTORE PUSH1 0x20 DUP3 ADD SWAP1 POP SWAP3 SWAP2 POP POP JUMP JUMPDEST PUSH0 PUSH2 0x1D71 DUP3 PUSH2 0x1B7E JUMP JUMPDEST PUSH2 0x1D7B DUP2 DUP6 PUSH2 0x1D57 JUMP JUMPDEST SWAP4 POP PUSH2 0x1D8B DUP2 DUP6 PUSH1 0x20 DUP7 ADD PUSH2 0x1B98 JUMP JUMPDEST PUSH2 0x1D94 DUP2 PUSH2 0x1BA6 JUMP JUMPDEST DUP5 ADD SWAP2 POP POP SWAP3 SWAP2 POP POP JUMP JUMPDEST PUSH2 0x1DA8 DUP2 PUSH2 0x1C41 JUMP JUMPDEST DUP3 MSTORE POP POP JUMP JUMPDEST PUSH0 DUP2 MLOAD SWAP1 POP SWAP2 SWAP1 POP JUMP JUMPDEST PUSH0 DUP3 DUP3 MSTORE PUSH1 0x20 DUP3 ADD SWAP1 POP SWAP3 SWAP2 POP POP JUMP JUMPDEST PUSH0 DUP2 SWAP1 POP PUSH1 0x20 DUP3 ADD SWAP1 POP SWAP2 SWAP1 POP JUMP JUMPDEST PUSH0 PUSH2 0x1DE2 DUP4 DUP4 PUSH2 0x1D48 JUMP JUMPDEST PUSH1 0x20 DUP4 ADD SWAP1 POP SWAP3 SWAP2 POP POP JUMP JUMPDEST PUSH0 PUSH1 0x20 DUP3 ADD SWAP1 POP SWAP2 SWAP1 POP JUMP JUMPDEST PUSH0 PUSH2 0x1E04 DUP3 PUSH2 0x1DAE JUMP JUMPDEST PUSH2 0x1E0E DUP2 DUP6 PUSH2 0x1DB8 JUMP JUMPDEST SWAP4 POP PUSH2 0x1E19 DUP4 PUSH2 0x1DC8 JUMP JUMPDEST DUP1 PUSH0 JUMPDEST DUP4 DUP2 LT ISZERO PUSH2 0x1E49 JUMPI DUP2 MLOAD PUSH2 0x1E30 DUP9 DUP3 PUSH2 0x1DD7 JUMP JUMPDEST SWAP8 POP PUSH2 0x1E3B DUP4 PUSH2 0x1DEE JUMP JUMPDEST SWAP3 POP POP PUSH1 0x1 DUP2 ADD SWAP1 POP PUSH2 0x1E1C JUMP JUMPDEST POP DUP6 SWAP4 POP POP POP POP SWAP3 SWAP2 POP POP JUMP JUMPDEST PUSH0 DUP2 MLOAD SWAP1 POP SWAP2 SWAP1 POP JUMP JUMPDEST PUSH0 DUP3 DUP3 MSTORE PUSH1 0x20 DUP3 ADD SWAP1 POP SWAP3 SWAP2 POP POP JUMP JUMPDEST PUSH0 DUP2 SWAP1 POP PUSH1 0x20 DUP3 ADD SWAP1 POP SWAP2 SWAP1 POP JUMP JUMPDEST PUSH0 PUSH2 0x1E8A DUP4 DUP4 PUSH2 0x1D39 JUMP JUMPDEST PUSH1 0x20 DUP4 ADD SWAP1 POP SWAP3 SWAP2 POP POP JUMP JUMPDEST PUSH0 PUSH1 0x20 DUP3 ADD SWAP1 POP SWAP2 SWAP1 POP JUMP JUMPDEST PUSH0 PUSH2 0x1EAC DUP3 PUSH2 0x1E56 JUMP JUMPDEST PUSH2 0x1EB6 DUP2 DUP6 PUSH2 0x1E60 JUMP JUMPDEST SWAP4 POP PUSH2 0x1EC1 DUP4 PUSH2 0x1E70 JUMP JUMPDEST DUP1 PUSH0 JUMPDEST DUP4 DUP2 LT ISZERO PUSH2 0x1EF1 JUMPI DUP2 MLOAD PUSH2 0x1ED8 DUP9 DUP3 PUSH2 0x1E7F JUMP JUMPDEST SWAP8 POP PUSH2 0x1EE3 DUP4 PUSH2 0x1E96 JUMP JUMPDEST SWAP3 POP POP PUSH1 0x1 DUP2 ADD SWAP1 POP PUSH2 0x1EC4 JUMP JUMPDEST POP DUP6 SWAP4 POP POP POP POP SWAP3 SWAP2 POP POP JUMP JUMPDEST PUSH0 PUSH2 0x180 DUP4 ADD PUSH0 DUP4 ADD MLOAD PUSH2 0x1F14 PUSH0 DUP7 ADD DUP3 PUSH2 0x1D39 JUMP JUMPDEST POP PUSH1 0x20 DUP4 ADD MLOAD PUSH2 0x1F27 PUSH1 0x20 DUP7 ADD DUP3 PUSH2 0x1D48 JUMP JUMPDEST POP PUSH1 0x40 DUP4 ADD MLOAD DUP5 DUP3 SUB PUSH1 0x40 DUP7 ADD MSTORE PUSH2 0x1F3F DUP3 DUP3 PUSH2 0x1D67 JUMP JUMPDEST SWAP2 POP POP PUSH1 0x60 DUP4 ADD MLOAD DUP5 DUP3 SUB PUSH1 0x60 DUP7 ADD MSTORE PUSH2 0x1F59 DUP3 DUP3 PUSH2 0x1D67 JUMP JUMPDEST SWAP2 POP POP PUSH1 0x80 DUP4 ADD MLOAD DUP5 DUP3 SUB PUSH1 0x80 DUP7 ADD MSTORE PUSH2 0x1F73 DUP3 DUP3 PUSH2 0x1D67 JUMP JUMPDEST SWAP2 POP POP PUSH1 0xA0 DUP4 ADD MLOAD PUSH2 0x1F88 PUSH1 0xA0 DUP7 ADD DUP3 PUSH2 0x1D39 JUMP JUMPDEST POP PUSH1 0xC0 DUP4 ADD MLOAD PUSH2 0x1F9B PUSH1 0xC0 DUP7 ADD DUP3 PUSH2 0x1D39 JUMP JUMPDEST POP PUSH1 0xE0 DUP4 ADD MLOAD PUSH2 0x1FAE PUSH1 0xE0 DUP7 ADD DUP3 PUSH2 0x1D39 JUMP JUMPDEST POP PUSH2 0x100 DUP4 ADD MLOAD PUSH2 0x1FC3 PUSH2 0x100 DUP7 ADD DUP3 PUSH2 0x1D9F JUMP JUMPDEST POP PUSH2 0x120 DUP4 ADD MLOAD PUSH2 0x1FD8 PUSH2 0x120 DUP7 ADD DUP3 PUSH2 0x1D39 JUMP JUMPDEST POP PUSH2 0x140 DUP4 ADD MLOAD DUP5 DUP3 SUB PUSH2 0x140 DUP7 ADD MSTORE PUSH2 0x1FF2 DUP3 DUP3 PUSH2 0x1DFA JUMP JUMPDEST SWAP2 POP POP PUSH2 0x160 DUP4 ADD MLOAD DUP5 DUP3 SUB PUSH2 0x160 DUP7 ADD MSTORE PUSH2 0x200E DUP3 DUP3 PUSH2 0x1EA2 JUMP JUMPDEST SWAP2 POP POP DUP1 SWAP2 POP POP SWAP3 SWAP2 POP POP JUMP JUMPDEST PUSH0 PUSH2 0x2026 DUP4 DUP4 PUSH2 0x1EFE JUMP JUMPDEST SWAP1 POP SWAP3 SWAP2 POP POP JUMP JUMPDEST PUSH0 PUSH1 0x20 DUP3 ADD SWAP1 POP SWAP2 SWAP1 POP JUMP JUMPDEST PUSH0 PUSH2 0x2044 DUP3 PUSH2 0x1D10 JUMP JUMPDEST PUSH2 0x204E DUP2 DUP6 PUSH2 0x1D1A JUMP JUMPDEST SWAP4 POP DUP4 PUSH1 0x20 DUP3 MUL DUP6 ADD PUSH2 0x2060 DUP6 PUSH2 0x1D2A JUMP JUMPDEST DUP1 PUSH0 JUMPDEST DUP6 DUP2 LT ISZERO PUSH2 0x209B JUMPI DUP5 DUP5 SUB DUP10 MSTORE DUP2 MLOAD PUSH2 0x207C DUP6 DUP3 PUSH2 0x201B JUMP JUMPDEST SWAP5 POP PUSH2 0x2087 DUP4 PUSH2 0x202E JUMP JUMPDEST SWAP3 POP PUSH1 0x20 DUP11 ADD SWAP10 POP POP PUSH1 0x1 DUP2 ADD SWAP1 POP PUSH2 0x2063 JUMP JUMPDEST POP DUP3 SWAP8 POP DUP8 SWAP6 POP POP POP POP POP POP SWAP3 SWAP2 POP POP JUMP JUMPDEST PUSH0 PUSH1 0x20 DUP3 ADD SWAP1 POP DUP2 DUP2 SUB PUSH0 DUP4 ADD MSTORE PUSH2 0x20C5 DUP2 DUP5 PUSH2 0x203A JUMP JUMPDEST SWAP1 POP SWAP3 SWAP2 POP POP JUMP JUMPDEST PUSH0 PUSH1 0x20 DUP3 ADD SWAP1 POP PUSH2 0x20E0 PUSH0 DUP4 ADD DUP5 PUSH2 0x1B30 JUMP JUMPDEST SWAP3 SWAP2 POP POP JUMP JUMPDEST PUSH0 DUP1 REVERT JUMPDEST PUSH0 DUP1 REVERT JUMPDEST PUSH32 0x4E487B7100000000000000000000000000000000000000000000000000000000 PUSH0 MSTORE PUSH1 0x41 PUSH1 0x4 MSTORE PUSH1 0x24 PUSH0 REVERT JUMPDEST PUSH2 0x2124 DUP3 PUSH2 0x1BA6 JUMP JUMPDEST DUP2 ADD DUP2 DUP2 LT PUSH8 0xFFFFFFFFFFFFFFFF DUP3 GT OR ISZERO PUSH2 0x2143 JUMPI PUSH2 0x2142 PUSH2 0x20EE JUMP JUMPDEST JUMPDEST DUP1 PUSH1 0x40 MSTORE POP POP POP JUMP JUMPDEST PUSH0 PUSH2 0x2155 PUSH2 0x1AC1 JUMP JUMPDEST SWAP1 POP PUSH2 0x2161 DUP3 DUP3 PUSH2 0x211B JUMP JUMPDEST SWAP2 SWAP1 POP JUMP JUMPDEST PUSH0 PUSH8 0xFFFFFFFFFFFFFFFF DUP3 GT ISZERO PUSH2 0x2180 JUMPI PUSH2 0x217F PUSH2 0x20EE JUMP JUMPDEST JUMPDEST PUSH2 0x2189 DUP3 PUSH2 0x1BA6 JUMP JUMPDEST SWAP1 POP PUSH1 0x20 DUP2 ADD SWAP1 POP SWAP2 SWAP1 POP JUMP JUMPDEST DUP3 DUP2 DUP4 CALLDATACOPY PUSH0 DUP4 DUP4 ADD MSTORE POP POP POP JUMP JUMPDEST PUSH0 PUSH2 0x21B6 PUSH2 0x21B1 DUP5 PUSH2 0x2166 JUMP JUMPDEST PUSH2 0x214C JUMP JUMPDEST SWAP1 POP DUP3 DUP2 MSTORE PUSH1 0x20 DUP2 ADD DUP5 DUP5 DUP5 ADD GT ISZERO PUSH2 0x21D2 JUMPI PUSH2 0x21D1 PUSH2 0x20EA JUMP JUMPDEST JUMPDEST PUSH2 0x21DD DUP5 DUP3 DUP6 PUSH2 0x2196 JUMP JUMPDEST POP SWAP4 SWAP3 POP POP POP JUMP JUMPDEST PUSH0 DUP3 PUSH1 0x1F DUP4 ADD SLT PUSH2 0x21F9 JUMPI PUSH2 0x21F8 PUSH2 0x20E6 JUMP JUMPDEST JUMPDEST DUP2 CALLDATALOAD PUSH2 0x2209 DUP5 DUP3 PUSH1 0x20 DUP7 ADD PUSH2 0x21A4 JUMP JUMPDEST SWAP2 POP POP SWAP3 SWAP2 POP POP JUMP JUMPDEST PUSH0 DUP1 PUSH0 DUP1 PUSH0 PUSH1 0xA0 DUP7 DUP9 SUB SLT ISZERO PUSH2 0x222B JUMPI PUSH2 0x222A PUSH2 0x1ACA JUMP JUMPDEST JUMPDEST PUSH0 DUP7 ADD CALLDATALOAD PUSH8 0xFFFFFFFFFFFFFFFF DUP2 GT ISZERO PUSH2 0x2248 JUMPI PUSH2 0x2247 PUSH2 0x1ACE JUMP JUMPDEST JUMPDEST PUSH2 0x2254 DUP9 DUP3 DUP10 ADD PUSH2 0x21E5 JUMP JUMPDEST SWAP6 POP POP PUSH1 0x20 DUP7 ADD CALLDATALOAD PUSH8 0xFFFFFFFFFFFFFFFF DUP2 GT ISZERO PUSH2 0x2275 JUMPI PUSH2 0x2274 PUSH2 0x1ACE JUMP JUMPDEST JUMPDEST PUSH2 0x2281 DUP9 DUP3 DUP10 ADD PUSH2 0x21E5 JUMP JUMPDEST SWAP5 POP POP PUSH1 0x40 DUP7 ADD CALLDATALOAD PUSH8 0xFFFFFFFFFFFFFFFF DUP2 GT ISZERO PUSH2 0x22A2 JUMPI PUSH2 0x22A1 PUSH2 0x1ACE JUMP JUMPDEST JUMPDEST PUSH2 0x22AE DUP9 DUP3 DUP10 ADD PUSH2 0x21E5 JUMP JUMPDEST SWAP4 POP POP PUSH1 0x60 PUSH2 0x22BF DUP9 DUP3 DUP10 ADD PUSH2 0x1AF1 JUMP JUMPDEST SWAP3 POP POP PUSH1 0x80 PUSH2 0x22D0 DUP9 DUP3 DUP10 ADD PUSH2 0x1AF1 JUMP JUMPDEST SWAP2 POP POP SWAP3 SWAP6 POP SWAP3 SWAP6 SWAP1 SWAP4 POP JUMP JUMPDEST PUSH0 DUP3 DUP3 MSTORE PUSH1 0x20 DUP3 ADD SWAP1 POP SWAP3 SWAP2 POP POP JUMP JUMPDEST PUSH0 PUSH2 0x22F7 DUP3 PUSH2 0x1DAE JUMP JUMPDEST PUSH2 0x2301 DUP2 DUP6 PUSH2 0x22DD JUMP JUMPDEST SWAP4 POP PUSH2 0x230C DUP4 PUSH2 0x1DC8 JUMP JUMPDEST DUP1 PUSH0 JUMPDEST DUP4 DUP2 LT ISZERO PUSH2 0x233C JUMPI DUP2 MLOAD PUSH2 0x2323 DUP9 DUP3 PUSH2 0x1DD7 JUMP JUMPDEST SWAP8 POP PUSH2 0x232E DUP4 PUSH2 0x1DEE JUMP JUMPDEST SWAP3 POP POP PUSH1 0x1 DUP2 ADD SWAP1 POP PUSH2 0x230F JUMP JUMPDEST POP DUP6 SWAP4 POP POP POP POP SWAP3 SWAP2 POP POP JUMP JUMPDEST PUSH0 DUP3 DUP3 MSTORE PUSH1 0x20 DUP3 ADD SWAP1 POP SWAP3 SWAP2 POP POP JUMP JUMPDEST PUSH0 PUSH2 0x2363 DUP3 PUSH2 0x1E56 JUMP JUMPDEST PUSH2 0x236D DUP2 DUP6 PUSH2 0x2349 JUMP JUMPDEST SWAP4 POP PUSH2 0x2378 DUP4 PUSH2 0x1E70 JUMP JUMPDEST DUP1 PUSH0 JUMPDEST DUP4 DUP2 LT ISZERO PUSH2 0x23A8 JUMPI DUP2 MLOAD PUSH2 0x238F DUP9 DUP3 PUSH2 0x1E7F JUMP JUMPDEST SWAP8 POP PUSH2 0x239A DUP4 PUSH2 0x1E96 JUMP JUMPDEST SWAP3 POP POP PUSH1 0x1 DUP2 ADD SWAP1 POP PUSH2 0x237B JUMP JUMPDEST POP DUP6 SWAP4 POP POP POP POP SWAP3 SWAP2 POP POP JUMP JUMPDEST PUSH0 PUSH2 0x180 DUP3 ADD SWAP1 POP PUSH2 0x23C9 PUSH0 DUP4 ADD DUP16 PUSH2 0x1B30 JUMP JUMPDEST PUSH2 0x23D6 PUSH1 0x20 DUP4 ADD DUP15 PUSH2 0x1B6F JUMP JUMPDEST DUP2 DUP2 SUB PUSH1 0x40 DUP4 ADD MSTORE PUSH2 0x23E8 DUP2 DUP14 PUSH2 0x1BB6 JUMP JUMPDEST SWAP1 POP DUP2 DUP2 SUB PUSH1 0x60 DUP4 ADD MSTORE PUSH2 0x23FC DUP2 DUP13 PUSH2 0x1BB6 JUMP JUMPDEST SWAP1 POP DUP2 DUP2 SUB PUSH1 0x80 DUP4 ADD MSTORE PUSH2 0x2410 DUP2 DUP12 PUSH2 0x1BB6 JUMP JUMPDEST SWAP1 POP PUSH2 0x241F PUSH1 0xA0 DUP4 ADD DUP11 PUSH2 0x1B30 JUMP JUMPDEST PUSH2 0x242C PUSH1 0xC0 DUP4 ADD DUP10 PUSH2 0x1B30 JUMP JUMPDEST PUSH2 0x2439 PUSH1 0xE0 DUP4 ADD DUP9 PUSH2 0x1B30 JUMP JUMPDEST PUSH2 0x2447 PUSH2 0x100 DUP4 ADD DUP8 PUSH2 0x1C52 JUMP JUMPDEST PUSH2 0x2455 PUSH2 0x120 DUP4 ADD DUP7 PUSH2 0x1B30 JUMP JUMPDEST DUP2 DUP2 SUB PUSH2 0x140 DUP4 ADD MSTORE PUSH2 0x2468 DUP2 DUP6 PUSH2 0x22ED JUMP JUMPDEST SWAP1 POP DUP2 DUP2 SUB PUSH2 0x160 DUP4 ADD MSTORE PUSH2 0x247D DUP2 DUP5 PUSH2 0x2359 JUMP JUMPDEST SWAP1 POP SWAP14 SWAP13 POP POP POP POP POP POP POP POP POP POP POP POP POP JUMP JUMPDEST PUSH32 0x4E487B7100000000000000000000000000000000000000000000000000000000 PUSH0 MSTORE PUSH1 0x22 PUSH1 0x4 MSTORE PUSH1 0x24 PUSH0 REVERT JUMPDEST PUSH0 PUSH1 0x2 DUP3 DIV SWAP1 POP PUSH1 0x1 DUP3 AND DUP1 PUSH2 0x24D4 JUMPI PUSH1 0x7F DUP3 AND SWAP2 POP JUMPDEST PUSH1 0x20 DUP3 LT DUP2 SUB PUSH2 0x24E7 JUMPI PUSH2 0x24E6 PUSH2 0x2490 JUMP JUMPDEST JUMPDEST POP SWAP2 SWAP1 POP JUMP JUMPDEST PUSH32 0x4E487B7100000000000000000000000000000000000000000000000000000000 PUSH0 MSTORE PUSH1 0x32 PUSH1 0x4 MSTORE PUSH1 0x24 PUSH0 REVERT JUMPDEST PUSH0 PUSH1 0x40 DUP3 ADD SWAP1 POP PUSH2 0x252D PUSH0 DUP4 ADD DUP6 PUSH2 0x1B6F JUMP JUMPDEST PUSH2 0x253A PUSH1 0x20 DUP4 ADD DUP5 PUSH2 0x1C52 JUMP JUMPDEST SWAP4 SWAP3 POP POP POP JUMP JUMPDEST PUSH32 0x5469746C65206D757374206E6F7420626520656D707479000000000000000000 PUSH0 DUP3 ADD MSTORE POP JUMP JUMPDEST PUSH0 PUSH2 0x2575 PUSH1 0x17 DUP4 PUSH2 0x1B88 JUMP JUMPDEST SWAP2 POP PUSH2 0x2580 DUP3 PUSH2 0x2541 JUMP JUMPDEST PUSH1 0x20 DUP3 ADD SWAP1 POP SWAP2 SWAP1 POP JUMP JUMPDEST PUSH0 PUSH1 0x20 DUP3 ADD SWAP1 POP DUP2 DUP2 SUB PUSH0 DUP4 ADD MSTORE PUSH2 0x25A2 DUP2 PUSH2 0x2569 JUMP JUMPDEST SWAP1 POP SWAP2 SWAP1 POP JUMP JUMPDEST PUSH32 0x4465736372697074696F6E206D757374206E6F7420626520656D707479000000 PUSH0 DUP3 ADD MSTORE POP JUMP JUMPDEST PUSH0 PUSH2 0x25DD PUSH1 0x1D DUP4 PUSH2 0x1B88 JUMP JUMPDEST SWAP2 POP PUSH2 0x25E8 DUP3 PUSH2 0x25A9 JUMP JUMPDEST PUSH1 0x20 DUP3 ADD SWAP1 POP SWAP2 SWAP1 POP JUMP JUMPDEST PUSH0 PUSH1 0x20 DUP3 ADD SWAP1 POP DUP2 DUP2 SUB PUSH0 DUP4 ADD MSTORE PUSH2 0x260A DUP2 PUSH2 0x25D1 JUMP JUMPDEST SWAP1 POP SWAP2 SWAP1 POP JUMP JUMPDEST PUSH32 0x496D61676520555249206D757374206E6F7420626520656D7074790000000000 PUSH0 DUP3 ADD MSTORE POP JUMP JUMPDEST PUSH0 PUSH2 0x2645 PUSH1 0x1B DUP4 PUSH2 0x1B88 JUMP JUMPDEST SWAP2 POP PUSH2 0x2650 DUP3 PUSH2 0x2611 JUMP JUMPDEST PUSH1 0x20 DUP3 ADD SWAP1 POP SWAP2 SWAP1 POP JUMP JUMPDEST PUSH0 PUSH1 0x20 DUP3 ADD SWAP1 POP DUP2 DUP2 SUB PUSH0 DUP4 ADD MSTORE PUSH2 0x2672 DUP2 PUSH2 0x2639 JUMP JUMPDEST SWAP1 POP SWAP2 SWAP1 POP JUMP JUMPDEST PUSH32 0x476F616C206D7573742062652067726561746572207468616E20300000000000 PUSH0 DUP3 ADD MSTORE POP JUMP JUMPDEST PUSH0 PUSH2 0x26AD PUSH1 0x1B DUP4 PUSH2 0x1B88 JUMP JUMPDEST SWAP2 POP PUSH2 0x26B8 DUP3 PUSH2 0x2679 JUMP JUMPDEST PUSH1 0x20 DUP3 ADD SWAP1 POP SWAP2 SWAP1 POP JUMP JUMPDEST PUSH0 PUSH1 0x20 DUP3 ADD SWAP1 POP DUP2 DUP2 SUB PUSH0 DUP4 ADD MSTORE PUSH2 0x26DA DUP2 PUSH2 0x26A1 JUMP JUMPDEST SWAP1 POP SWAP2 SWAP1 POP JUMP JUMPDEST PUSH32 0x456E642074696D65206F662063616D706169676E206D75747320626520677265 PUSH0 DUP3 ADD MSTORE PUSH32 0x61746572207468616E2063757272656E742074696D6500000000000000000000 PUSH1 0x20 DUP3 ADD MSTORE POP JUMP JUMPDEST PUSH0 PUSH2 0x273B PUSH1 0x36 DUP4 PUSH2 0x1B88 JUMP JUMPDEST SWAP2 POP PUSH2 0x2746 DUP3 PUSH2 0x26E1 JUMP JUMPDEST PUSH1 0x40 DUP3 ADD SWAP1 POP SWAP2 SWAP1 POP JUMP JUMPDEST PUSH0 PUSH1 0x20 DUP3 ADD SWAP1 POP DUP2 DUP2 SUB PUSH0 DUP4 ADD MSTORE PUSH2 0x2768 DUP2 PUSH2 0x272F JUMP JUMPDEST SWAP1 POP SWAP2 SWAP1 POP JUMP JUMPDEST PUSH32 0x4E487B7100000000000000000000000000000000000000000000000000000000 PUSH0 MSTORE PUSH1 0x11 PUSH1 0x4 MSTORE PUSH1 0x24 PUSH0 REVERT JUMPDEST PUSH0 PUSH2 0x27A6 DUP3 PUSH2 0x1AD2 JUMP JUMPDEST SWAP2 POP PUSH32 0xFFFFFFFFFFFFFFFFFFFFFFFFFFFFFFFFFFFFFFFFFFFFFFFFFFFFFFFFFFFFFFFF DUP3 SUB PUSH2 0x27D8 JUMPI PUSH2 0x27D7 PUSH2 0x276F JUMP JUMPDEST JUMPDEST PUSH1 0x1 DUP3 ADD SWAP1 POP SWAP2 SWAP1 POP JUMP JUMPDEST PUSH0 DUP2 SWAP1 POP DUP2 PUSH0 MSTORE PUSH1 0x20 PUSH0 KECCAK256 SWAP1 POP SWAP2 SWAP1 POP JUMP JUMPDEST PUSH0 PUSH1 0x20 PUSH1 0x1F DUP4 ADD DIV SWAP1 POP SWAP2 SWAP1 POP JUMP JUMPDEST PUSH0 DUP3 DUP3 SHL SWAP1 POP SWAP3 SWAP2 POP POP JUMP JUMPDEST PUSH0 PUSH1 0x8 DUP4 MUL PUSH2 0x283F PUSH32 0xFFFFFFFFFFFFFFFFFFFFFFFFFFFFFFFFFFFFFFFFFFFFFFFFFFFFFFFFFFFFFFFF DUP3 PUSH2 0x2804 JUMP JUMPDEST PUSH2 0x2849 DUP7 DUP4 PUSH2 0x2804 JUMP JUMPDEST SWAP6 POP DUP1 NOT DUP5 AND SWAP4 POP DUP1 DUP7 AND DUP5 OR SWAP3 POP POP POP SWAP4 SWAP3 POP POP POP JUMP JUMPDEST PUSH0 DUP2 SWAP1 POP SWAP2 SWAP1 POP JUMP JUMPDEST PUSH0 PUSH2 0x2884 PUSH2 0x287F PUSH2 0x287A DUP5 PUSH2 0x1AD2 JUMP JUMPDEST PUSH2 0x2861 JUMP JUMPDEST PUSH2 0x1AD2 JUMP JUMPDEST SWAP1 POP SWAP2 SWAP1 POP JUMP JUMPDEST PUSH0 DUP2 SWAP1 POP SWAP2 SWAP1 POP JUMP JUMPDEST PUSH2 0x289D DUP4 PUSH2 0x286A JUMP JUMPDEST PUSH2 0x28B1 PUSH2 0x28A9 DUP3 PUSH2 0x288B JUMP JUMPDEST DUP5 DUP5 SLOAD PUSH2 0x2810 JUMP JUMPDEST DUP3 SSTORE POP POP POP POP JUMP JUMPDEST PUSH0 SWAP1 JUMP JUMPDEST PUSH2 0x28C5 PUSH2 0x28B9 JUMP JUMPDEST PUSH2 0x28D0 DUP2 DUP5 DUP5 PUSH2 0x2894 JUMP JUMPDEST POP POP POP JUMP JUMPDEST JUMPDEST DUP2 DUP2 LT ISZERO PUSH2 0x28F3 JUMPI PUSH2 0x28E8 PUSH0 DUP3 PUSH2 0x28BD JUMP JUMPDEST PUSH1 0x1 DUP2 ADD SWAP1 POP PUSH2 0x28D6 JUMP JUMPDEST POP POP JUMP JUMPDEST PUSH1 0x1F DUP3 GT ISZERO PUSH2 0x2938 JUMPI PUSH2 0x2909 DUP2 PUSH2 0x27E3 JUMP JUMPDEST PUSH2 0x2912 DUP5 PUSH2 0x27F5 JUMP JUMPDEST DUP2 ADD PUSH1 0x20 DUP6 LT ISZERO PUSH2 0x2921 JUMPI DUP2 SWAP1 POP JUMPDEST PUSH2 0x2935 PUSH2 0x292D DUP6 PUSH2 0x27F5 JUMP JUMPDEST DUP4 ADD DUP3 PUSH2 0x28D5 JUMP JUMPDEST POP POP JUMPDEST POP POP POP JUMP JUMPDEST PUSH0 DUP3 DUP3 SHR SWAP1 POP SWAP3 SWAP2 POP POP JUMP JUMPDEST PUSH0 PUSH2 0x2958 PUSH0 NOT DUP5 PUSH1 0x8 MUL PUSH2 0x293D JUMP JUMPDEST NOT DUP1 DUP4 AND SWAP2 POP POP SWAP3 SWAP2 POP POP JUMP JUMPDEST PUSH0 PUSH2 0x2970 DUP4 DUP4 PUSH2 0x2949 JUMP JUMPDEST SWAP2 POP DUP3 PUSH1 0x2 MUL DUP3 OR SWAP1 POP SWAP3 SWAP2 POP POP JUMP JUMPDEST PUSH2 0x2989 DUP3 PUSH2 0x1B7E JUMP JUMPDEST PUSH8 0xFFFFFFFFFFFFFFFF DUP2 GT ISZERO PUSH2 0x29A2 JUMPI PUSH2 0x29A1 PUSH2 0x20EE JUMP JUMPDEST JUMPDEST PUSH2 0x29AC DUP3 SLOAD PUSH2 0x24BD JUMP JUMPDEST PUSH2 0x29B7 DUP3 DUP3 DUP6 PUSH2 0x28F7 JUMP JUMPDEST PUSH0 PUSH1 0x20 SWAP1 POP PUSH1 0x1F DUP4 GT PUSH1 0x1 DUP2 EQ PUSH2 0x29E8 JUMPI PUSH0 DUP5 ISZERO PUSH2 0x29D6 JUMPI DUP3 DUP8 ADD MLOAD SWAP1 POP JUMPDEST PUSH2 0x29E0 DUP6 DUP3 PUSH2 0x2965 JUMP JUMPDEST DUP7 SSTORE POP PUSH2 0x2A47 JUMP JUMPDEST PUSH1 0x1F NOT DUP5 AND PUSH2 0x29F6 DUP7 PUSH2 0x27E3 JUMP JUMPDEST PUSH0 JUMPDEST DUP3 DUP2 LT ISZERO PUSH2 0x2A1D JUMPI DUP5 DUP10 ADD MLOAD DUP3 SSTORE PUSH1 0x1 DUP3 ADD SWAP2 POP PUSH1 0x20 DUP6 ADD SWAP5 POP PUSH1 0x20 DUP2 ADD SWAP1 POP PUSH2 0x29F8 JUMP JUMPDEST DUP7 DUP4 LT ISZERO PUSH2 0x2A3A JUMPI DUP5 DUP10 ADD MLOAD PUSH2 0x2A36 PUSH1 0x1F DUP10 AND DUP3 PUSH2 0x2949 JUMP JUMPDEST DUP4 SSTORE POP JUMPDEST PUSH1 0x1 PUSH1 0x2 DUP9 MUL ADD DUP9 SSTORE POP POP POP JUMPDEST POP POP POP POP POP POP JUMP JUMPDEST PUSH0 PUSH2 0x2A59 DUP3 PUSH2 0x1AD2 JUMP JUMPDEST SWAP2 POP PUSH2 0x2A64 DUP4 PUSH2 0x1AD2 JUMP JUMPDEST SWAP3 POP DUP3 DUP3 SUB SWAP1 POP DUP2 DUP2 GT ISZERO PUSH2 0x2A7C JUMPI PUSH2 0x2A7B PUSH2 0x276F JUMP JUMPDEST JUMPDEST SWAP3 SWAP2 POP POP JUMP JUMPDEST PUSH0 PUSH1 0x60 DUP3 ADD SWAP1 POP PUSH2 0x2A95 PUSH0 DUP4 ADD DUP7 PUSH2 0x1B6F JUMP JUMPDEST DUP2 DUP2 SUB PUSH1 0x20 DUP4 ADD MSTORE PUSH2 0x2AA7 DUP2 DUP6 PUSH2 0x1BB6 JUMP JUMPDEST SWAP1 POP PUSH2 0x2AB6 PUSH1 0x40 DUP4 ADD DUP5 PUSH2 0x1C52 JUMP JUMPDEST SWAP5 SWAP4 POP POP POP POP JUMP JUMPDEST PUSH32 0x4E6F2063616D706169676E7320666F756E642E00000000000000000000000000 PUSH0 DUP3 ADD MSTORE POP JUMP JUMPDEST PUSH0 PUSH2 0x2AF2 PUSH1 0x13 DUP4 PUSH2 0x1B88 JUMP JUMPDEST SWAP2 POP PUSH2 0x2AFD DUP3 PUSH2 0x2ABE JUMP JUMPDEST PUSH1 0x20 DUP3 ADD SWAP1 POP SWAP2 SWAP1 POP JUMP JUMPDEST PUSH0 PUSH1 0x20 DUP3 ADD SWAP1 POP DUP2 DUP2 SUB PUSH0 DUP4 ADD MSTORE PUSH2 0x2B1F DUP2 PUSH2 0x2AE6 JUMP JUMPDEST SWAP1 POP SWAP2 SWAP1 POP JUMP JUMPDEST PUSH32 0x5265656E7472616E742063616C6C000000000000000000000000000000000000 PUSH0 DUP3 ADD MSTORE POP JUMP JUMPDEST PUSH0 PUSH2 0x2B5A PUSH1 0xE DUP4 PUSH2 0x1B88 JUMP JUMPDEST SWAP2 POP PUSH2 0x2B65 DUP3 PUSH2 0x2B26 JUMP JUMPDEST PUSH1 0x20 DUP3 ADD SWAP1 POP SWAP2 SWAP1 POP JUMP JUMPDEST PUSH0 PUSH1 0x20 DUP3 ADD SWAP1 POP DUP2 DUP2 SUB PUSH0 DUP4 ADD MSTORE PUSH2 0x2B87 DUP2 PUSH2 0x2B4E JUMP JUMPDEST SWAP1 POP SWAP2 SWAP1 POP JUMP JUMPDEST PUSH32 0x436F6E747269627574696F6E206D757374206265206772656174657220746861 PUSH0 DUP3 ADD MSTORE PUSH32 0x6E20302065746800000000000000000000000000000000000000000000000000 PUSH1 0x20 DUP3 ADD MSTORE POP JUMP JUMPDEST PUSH0 PUSH2 0x2BE8 PUSH1 0x27 DUP4 PUSH2 0x1B88 JUMP JUMPDEST SWAP2 POP PUSH2 0x2BF3 DUP3 PUSH2 0x2B8E JUMP JUMPDEST PUSH1 0x40 DUP3 ADD SWAP1 POP SWAP2 SWAP1 POP JUMP JUMPDEST PUSH0 PUSH1 0x20 DUP3 ADD SWAP1 POP DUP2 DUP2 SUB PUSH0 DUP4 ADD MSTORE PUSH2 0x2C15 DUP2 PUSH2 0x2BDC JUMP JUMPDEST SWAP1 POP SWAP2 SWAP1 POP JUMP JUMPDEST PUSH0 PUSH2 0x2C26 DUP3 PUSH2 0x1AD2 JUMP JUMPDEST SWAP2 POP PUSH2 0x2C31 DUP4 PUSH2 0x1AD2 JUMP JUMPDEST SWAP3 POP DUP3 DUP3 ADD SWAP1 POP DUP1 DUP3 GT ISZERO PUSH2 0x2C49 JUMPI PUSH2 0x2C48 PUSH2 0x276F JUMP JUMPDEST JUMPDEST SWAP3 SWAP2 POP POP JUMP JUMPDEST PUSH0 PUSH1 0x40 DUP3 ADD SWAP1 POP PUSH2 0x2C62 PUSH0 DUP4 ADD DUP6 PUSH2 0x1B6F JUMP JUMPDEST PUSH2 0x2C6F PUSH1 0x20 DUP4 ADD DUP5 PUSH2 0x1B30 JUMP JUMPDEST SWAP4 SWAP3 POP POP POP JUMP INVALID LOG2 PUSH5 0x6970667358 0x22 SLT KECCAK256 0xF8 AND DUP15 SHL GASLIMIT 0xFC DUP15 0xAC 0xA6 SWAP6 SWAP7 CODESIZE POP 0xC8 0xAA 0x27 0xFB PUSH9 0x9FBA46BDF831E77B15 EXP PUSH4 0xC6638864 PUSH20 0x6F6C634300081A00330000000000000000000000 "
				},
				"gasEstimates": {
					"creation": {
						"codeDepositCost": "2287200",
						"executionCost": "infinite",
						"totalCost": "infinite"
					},
					"external": {
						"campaigns(uint256)": "infinite",
						"contribute(uint256)": "infinite",
						"createCampaign(string,string,string,uint256,uint256)": "infinite",
						"deleteCampaign(uint256)": "infinite",
						"getAllCampaigns()": "infinite",
						"getCampaignDetails(uint256)": "infinite",
						"getLatestCampaigns()": "infinite",
						"getTotalcontributions(uint256)": "infinite"
					},
					"internal": {
						"refund(uint256)": "infinite"
					}
				},
				"methodIdentifiers": {
					"campaigns(uint256)": "141961bc",
					"contribute(uint256)": "c1cbbca7",
					"createCampaign(string,string,string,uint256,uint256)": "980f2e66",
					"deleteCampaign(uint256)": "75970193",
					"getAllCampaigns()": "86cdf604",
					"getCampaignDetails(uint256)": "d993de62",
					"getLatestCampaigns()": "b4d40af1",
					"getTotalcontributions(uint256)": "88c484e1"
				}
			},
			"storageLayout": {
				"storage": [
					{
						"astId": 6,
						"contract": "contracts/CrowdFunding.sol:CrowdFund",
						"label": "nextId",
						"offset": 0,
						"slot": "0",
						"type": "t_uint256"
					},
					{
						"astId": 10,
						"contract": "contracts/CrowdFunding.sol:CrowdFund",
						"label": "campaigns",
						"offset": 0,
						"slot": "1",
						"type": "t_array(t_struct(Campaign)58_storage)dyn_storage"
					},
					{
						"astId": 12,
						"contract": "contracts/CrowdFunding.sol:CrowdFund",
						"label": "locked",
						"offset": 0,
						"slot": "2",
						"type": "t_bool"
					}
				],
				"types": {
					"t_address": {
						"encoding": "inplace",
						"label": "address",
						"numberOfBytes": "20"
					},
					"t_array(t_address)dyn_storage": {
						"base": "t_address",
						"encoding": "dynamic_array",
						"label": "address[]",
						"numberOfBytes": "32"
					},
					"t_array(t_struct(Campaign)58_storage)dyn_storage": {
						"base": "t_struct(Campaign)58_storage",
						"encoding": "dynamic_array",
						"label": "struct CrowdFund.Campaign[]",
						"numberOfBytes": "32"
					},
					"t_array(t_uint256)dyn_storage": {
						"base": "t_uint256",
						"encoding": "dynamic_array",
						"label": "uint256[]",
						"numberOfBytes": "32"
					},
					"t_bool": {
						"encoding": "inplace",
						"label": "bool",
						"numberOfBytes": "1"
					},
					"t_enum(STATUS)63": {
						"encoding": "inplace",
						"label": "enum CrowdFund.STATUS",
						"numberOfBytes": "1"
					},
					"t_string_storage": {
						"encoding": "bytes",
						"label": "string",
						"numberOfBytes": "32"
					},
					"t_struct(Campaign)58_storage": {
						"encoding": "inplace",
						"label": "struct CrowdFund.Campaign",
						"members": [
							{
								"astId": 32,
								"contract": "contracts/CrowdFunding.sol:CrowdFund",
								"label": "id",
								"offset": 0,
								"slot": "0",
								"type": "t_uint256"
							},
							{
								"astId": 34,
								"contract": "contracts/CrowdFunding.sol:CrowdFund",
								"label": "campaignCreator",
								"offset": 0,
								"slot": "1",
								"type": "t_address"
							},
							{
								"astId": 36,
								"contract": "contracts/CrowdFunding.sol:CrowdFund",
								"label": "title",
								"offset": 0,
								"slot": "2",
								"type": "t_string_storage"
							},
							{
								"astId": 38,
								"contract": "contracts/CrowdFunding.sol:CrowdFund",
								"label": "description",
								"offset": 0,
								"slot": "3",
								"type": "t_string_storage"
							},
							{
								"astId": 40,
								"contract": "contracts/CrowdFunding.sol:CrowdFund",
								"label": "imageURI",
								"offset": 0,
								"slot": "4",
								"type": "t_string_storage"
							},
							{
								"astId": 42,
								"contract": "contracts/CrowdFunding.sol:CrowdFund",
								"label": "goal",
								"offset": 0,
								"slot": "5",
								"type": "t_uint256"
							},
							{
								"astId": 44,
								"contract": "contracts/CrowdFunding.sol:CrowdFund",
								"label": "startsAt",
								"offset": 0,
								"slot": "6",
								"type": "t_uint256"
							},
							{
								"astId": 46,
								"contract": "contracts/CrowdFunding.sol:CrowdFund",
								"label": "endsAt",
								"offset": 0,
								"slot": "7",
								"type": "t_uint256"
							},
							{
								"astId": 49,
								"contract": "contracts/CrowdFunding.sol:CrowdFund",
								"label": "status",
								"offset": 0,
								"slot": "8",
								"type": "t_enum(STATUS)63"
							},
							{
								"astId": 51,
								"contract": "contracts/CrowdFunding.sol:CrowdFund",
								"label": "totalContributions",
								"offset": 0,
								"slot": "9",
								"type": "t_uint256"
							},
							{
								"astId": 54,
								"contract": "contracts/CrowdFunding.sol:CrowdFund",
								"label": "contributors",
								"offset": 0,
								"slot": "10",
								"type": "t_array(t_address)dyn_storage"
							},
							{
								"astId": 57,
								"contract": "contracts/CrowdFunding.sol:CrowdFund",
								"label": "contributionAmounts",
								"offset": 0,
								"slot": "11",
								"type": "t_array(t_uint256)dyn_storage"
							}
						],
						"numberOfBytes": "384"
					},
					"t_uint256": {
						"encoding": "inplace",
						"label": "uint256",
						"numberOfBytes": "32"
					}
				}
			},
			"userdoc": {
				"kind": "user",
				"methods": {},
				"version": 1
			}
		}
	}
}